{
  "contractName": "BlockchainMonitor",
  "abi": [
    {
      "anonymous": false,
      "inputs": [
        {
          "indexed": true,
          "internalType": "string",
          "name": "blockchainID",
          "type": "string"
        },
        {
          "indexed": false,
          "internalType": "uint256",
          "name": "timestamp",
          "type": "uint256"
        }
      ],
      "name": "BlockchainDeactivated",
      "type": "event"
    },
    {
      "anonymous": false,
      "inputs": [
        {
          "indexed": true,
          "internalType": "string",
          "name": "blockchainID",
          "type": "string"
        },
        {
          "indexed": false,
          "internalType": "uint256",
          "name": "timestamp",
          "type": "uint256"
        }
      ],
      "name": "BlockchainRegistered",
      "type": "event"
    },
    {
      "anonymous": false,
      "inputs": [
        {
          "indexed": true,
          "internalType": "string",
          "name": "blockchainID",
          "type": "string"
        },
        {
          "indexed": false,
          "internalType": "bool",
          "name": "connected",
          "type": "bool"
        },
        {
          "indexed": false,
          "internalType": "uint256",
          "name": "quality",
          "type": "uint256"
        }
      ],
      "name": "ConnectionStatusUpdated",
      "type": "event"
    },
    {
      "anonymous": false,
      "inputs": [
        {
          "indexed": true,
          "internalType": "address",
          "name": "previousOwner",
          "type": "address"
        },
        {
          "indexed": true,
          "internalType": "address",
          "name": "newOwner",
          "type": "address"
        }
      ],
      "name": "OwnershipTransferred",
      "type": "event"
    },
    {
      "anonymous": false,
      "inputs": [
        {
          "indexed": false,
          "internalType": "address",
          "name": "account",
          "type": "address"
        }
      ],
      "name": "Paused",
      "type": "event"
    },
    {
      "anonymous": false,
      "inputs": [
        {
          "indexed": true,
          "internalType": "string",
          "name": "blockchainID",
          "type": "string"
        },
        {
          "indexed": false,
          "internalType": "bytes32",
          "name": "requirement",
          "type": "bytes32"
        },
        {
          "indexed": false,
          "internalType": "bool",
          "name": "met",
          "type": "bool"
        }
      ],
      "name": "RequirementUpdated",
      "type": "event"
    },
    {
      "anonymous": false,
      "inputs": [
        {
          "indexed": true,
          "internalType": "string",
          "name": "blockchainID",
          "type": "string"
        },
        {
          "indexed": false,
          "internalType": "string",
          "name": "alertType",
          "type": "string"
        },
        {
          "indexed": false,
          "internalType": "uint256",
          "name": "timestamp",
          "type": "uint256"
        }
      ],
      "name": "SecurityAlertRaised",
      "type": "event"
    },
    {
      "anonymous": false,
      "inputs": [
        {
          "indexed": true,
          "internalType": "string",
          "name": "blockchainID",
          "type": "string"
        },
        {
          "indexed": false,
          "internalType": "uint256",
          "name": "score",
          "type": "uint256"
        }
      ],
      "name": "SecurityScoreUpdated",
      "type": "event"
    },
    {
      "anonymous": false,
      "inputs": [
        {
          "indexed": false,
          "internalType": "address",
          "name": "account",
          "type": "address"
        }
      ],
      "name": "Unpaused",
      "type": "event"
    },
    {
      "inputs": [
        {
          "internalType": "uint256",
          "name": "",
          "type": "uint256"
        }
      ],
      "name": "allBlockchainIDs",
      "outputs": [
        {
          "internalType": "string",
          "name": "",
          "type": "string"
        }
      ],
      "stateMutability": "view",
      "type": "function"
    },
    {
      "inputs": [
        {
          "internalType": "string",
          "name": "",
          "type": "string"
        }
      ],
      "name": "blockchainMonitoring",
      "outputs": [
        {
          "internalType": "uint256",
          "name": "lastCheckTimestamp",
          "type": "uint256"
        },
        {
          "internalType": "uint256",
          "name": "connectionQuality",
          "type": "uint256"
        },
        {
          "internalType": "uint256",
          "name": "securityScore",
          "type": "uint256"
        },
        {
          "internalType": "bool",
          "name": "isConnected",
          "type": "bool"
        }
      ],
      "stateMutability": "view",
      "type": "function"
    },
    {
      "inputs": [
        {
          "internalType": "string",
          "name": "_blockchainID",
          "type": "string"
        }
      ],
      "name": "deactivateBlockchain",
      "outputs": [],
      "stateMutability": "nonpayable",
      "type": "function"
    },
    {
      "inputs": [],
      "name": "owner",
      "outputs": [
        {
          "internalType": "address",
          "name": "",
          "type": "address"
        }
      ],
      "stateMutability": "view",
      "type": "function"
    },
    {
      "inputs": [],
      "name": "paused",
      "outputs": [
        {
          "internalType": "bool",
          "name": "",
          "type": "bool"
        }
      ],
      "stateMutability": "view",
      "type": "function"
    },
    {
      "inputs": [
        {
          "internalType": "string",
          "name": "_blockchainID",
          "type": "string"
        },
        {
          "internalType": "string",
          "name": "_dataStructure",
          "type": "string"
        },
        {
          "internalType": "string",
          "name": "_programmingLanguage",
          "type": "string"
        },
        {
          "internalType": "string",
          "name": "_networkProtocol",
          "type": "string"
        }
      ],
      "name": "registerBlockchain",
      "outputs": [],
      "stateMutability": "nonpayable",
      "type": "function"
    },
    {
      "inputs": [
        {
          "internalType": "string",
          "name": "",
          "type": "string"
        }
      ],
      "name": "registeredBlockchains",
      "outputs": [
        {
          "internalType": "string",
          "name": "blockchainID",
          "type": "string"
        },
        {
          "internalType": "string",
          "name": "dataStructure",
          "type": "string"
        },
        {
          "internalType": "string",
          "name": "programmingLanguage",
          "type": "string"
        },
        {
          "internalType": "string",
          "name": "networkProtocol",
          "type": "string"
        },
        {
          "internalType": "uint256",
          "name": "currentState",
          "type": "uint256"
        },
        {
          "internalType": "uint256",
          "name": "registrationTime",
          "type": "uint256"
        },
        {
          "internalType": "bool",
          "name": "isActive",
          "type": "bool"
        }
      ],
      "stateMutability": "view",
      "type": "function"
    },
    {
      "inputs": [
        {
          "internalType": "uint256",
          "name": "",
          "type": "uint256"
        }
      ],
      "name": "registrationRequirements",
      "outputs": [
        {
          "internalType": "bytes32",
          "name": "",
          "type": "bytes32"
        }
      ],
      "stateMutability": "view",
      "type": "function"
    },
    {
      "inputs": [],
      "name": "renounceOwnership",
      "outputs": [],
      "stateMutability": "nonpayable",
      "type": "function"
    },
    {
      "inputs": [
        {
          "internalType": "address",
          "name": "newOwner",
          "type": "address"
        }
      ],
      "name": "transferOwnership",
      "outputs": [],
      "stateMutability": "nonpayable",
      "type": "function"
    },
    {
      "inputs": [
        {
          "internalType": "string",
          "name": "_blockchainID",
          "type": "string"
        },
        {
          "internalType": "bytes32",
          "name": "_requirement",
          "type": "bytes32"
        },
        {
          "internalType": "bool",
          "name": "_met",
          "type": "bool"
        }
      ],
      "name": "updateRequirementStatus",
      "outputs": [],
      "stateMutability": "nonpayable",
      "type": "function"
    },
    {
      "inputs": [
        {
          "internalType": "string",
          "name": "_blockchainID",
          "type": "string"
        },
        {
          "internalType": "bool",
          "name": "_isConnected",
          "type": "bool"
        },
        {
          "internalType": "uint256",
          "name": "_connectionQuality",
          "type": "uint256"
        },
        {
          "internalType": "uint256",
          "name": "_securityScore",
          "type": "uint256"
        }
      ],
      "name": "updateMonitoringInfo",
      "outputs": [],
      "stateMutability": "nonpayable",
      "type": "function"
    },
    {
      "inputs": [
        {
          "internalType": "string",
          "name": "_blockchainID",
          "type": "string"
        }
      ],
      "name": "getMonitoringInfo",
      "outputs": [
        {
          "internalType": "uint256",
          "name": "lastCheck",
          "type": "uint256"
        },
        {
          "internalType": "bool",
          "name": "connected",
          "type": "bool"
        },
        {
          "internalType": "uint256",
          "name": "connectionQuality",
          "type": "uint256"
        },
        {
          "internalType": "uint256",
          "name": "securityScore",
          "type": "uint256"
        }
      ],
      "stateMutability": "view",
      "type": "function"
    }
  ],
  "bytecode": "0x608060405234801561000f575f80fd5b50610019336100dd565b6003805460ff60a01b19169055600160048190556002805480830182555f8290527f528df42986b9a769889b14dfe3e72b1122ae9654c0bad54ff789b588ced831007f405787fa12a823e0f2b7631cc41b3ba8828b3321ca811111fa75cd3aa3bb5ace91820155815480840183557f22686843848346ccd56af0a07244c85039147de4f51293187579f736ddaa8c969082015581549283019091557f1a266a7e5fe931dca671b98b043b87f483fe5a44e2f4528836cb2f152c9ba9c991015561012e565b600380546001600160a01b038381166001600160a01b0319831681179093556040519116919082907f8be0079c531659141344cd1fd0a4f28419497f9722a3daafe3b4186f6b6457e0905f90a35050565b6112c98061013b5f395ff3fe608060405234801561000f575f80fd5b50600436106100cb575f3560e01c806355621b1611610088578063715018a611610063578063715018a61461022b5780637729a094146102335780638da5cb5b14610246578063f2fde38b14610261575f80fd5b806355621b16146101895780635c975abb146101ee5780635d6cf7681461020b575f80fd5b80630c80de39146100cf57806320736b8b146100e45780632ae741be146100f7578063361a750f1461011d57806338cf37f0146101305780634e8fa13214610156575b5f80fd5b6100e26100dd366004610e85565b610274565b005b6100e26100f2366004610f2b565b61043c565b61010a610105366004610f65565b610529565b6040519081526020015b60405180910390f35b6100e261012b366004610f90565b610548565b61014361013e366004610f2b565b610651565b6040516101149796959493929190611030565b610169610164366004610f2b565b6108b2565b604080519485529215156020850152918301526060820152608001610114565b6101cc610197366004610f2b565b805160208183018101805160058252928201919093012091528054600182015460028301546003909301549192909160ff1684565b6040805194855260208501939093529183015215156060820152608001610114565b600354600160a01b900460ff166040519015158152602001610114565b61021e610219366004610f65565b6108fd565b604051610114919061109e565b6100e26109a3565b6100e26102413660046110b7565b6109b6565b6003546040516001600160a01b039091168152602001610114565b6100e261026f366004611110565b610c1e565b61027c610c97565b610284610ce4565b5f8451116102d15760405162461bcd60e51b8152602060048201526015602482015274125b9d985b1a5908189b1bd8dad8da185a5b881251605a1b60448201526064015b60405180910390fd5b5f846040516102e09190611136565b9081526040519081900360200190206006015460ff16156103385760405162461bcd60e51b8152602060048201526012602482015271105b1c9958591e481c9959da5cdd195c995960721b60448201526064016102c8565b5f80856040516103489190611136565b90815260405190819003602001902090508061036486826111d7565b506001810161037385826111d7565b506002810161038284826111d7565b506003810161039183826111d7565b5042600582015560068101805460ff19166001908117909155805480820182555f919091527fb10e2d527612073b26eecdfd717e6a320cf44b4afac2b0732d9fcbe2b7fa0cf6016103e286826111d7565b50846040516103f19190611136565b604051908190038120428252907fcf2b19499ec1b1490335489ea94fd56b1748d902e7af2ae536a125d545b9ed889060200160405180910390a2506104366001600455565b50505050565b610444610d3d565b5f816040516104539190611136565b9081526040519081900360200190206006015460ff166104ad5760405162461bcd60e51b8152602060048201526015602482015274426c6f636b636861696e206e6f742061637469766560581b60448201526064016102c8565b5f80826040516104bd9190611136565b908152604051908190036020018120600601805492151560ff19909316929092179091556104ec908290611136565b604051908190038120428252907f0f82cb17ee5a2e0b92e9b76e8f3f6ec5925ba87a3a826eeae2c967997f1c56289060200160405180910390a250565b60028181548110610538575f80fd5b5f91825260209091200154905081565b610550610d3d565b5f8360405161055f9190611136565b9081526040519081900360200190206006015460ff166105c15760405162461bcd60e51b815260206004820152601960248201527f426c6f636b636861696e206e6f7420726567697374657265640000000000000060448201526064016102c8565b805f846040516105d19190611136565b90815260408051602092819003830181205f87815260079091019093529120805460ff19169215159290921790915561060b908490611136565b604080519182900382208483528315156020840152917f6660be2e51b659448a4bcad38122afaea200f6104ce7c624b9043de4189318e3910160405180910390a2505050565b80516020818301810180515f8252928201919093012091528054819061067690611151565b80601f01602080910402602001604051908101604052809291908181526020018280546106a290611151565b80156106ed5780601f106106c4576101008083540402835291602001916106ed565b820191905f5260205f20905b8154815290600101906020018083116106d057829003601f168201915b50505050509080600101805461070290611151565b80601f016020809104026020016040519081016040528092919081815260200182805461072e90611151565b80156107795780601f1061075057610100808354040283529160200191610779565b820191905f5260205f20905b81548152906001019060200180831161075c57829003601f168201915b50505050509080600201805461078e90611151565b80601f01602080910402602001604051908101604052809291908181526020018280546107ba90611151565b80156108055780601f106107dc57610100808354040283529160200191610805565b820191905f5260205f20905b8154815290600101906020018083116107e857829003601f168201915b50505050509080600301805461081a90611151565b80601f016020809104026020016040519081016040528092919081815260200182805461084690611151565b80156108915780601f1061086857610100808354040283529160200191610891565b820191905f5260205f20905b81548152906001019060200180831161087457829003601f168201915b50505050600483015460058401546006909401549293909290915060ff1687565b5f805f805f6005866040516108c79190611136565b90815260405190819003602001902080546003820154600183015460029093015491975060ff1695509093509150509193509193565b6001818154811061090c575f80fd5b905f5260205f20015f91509050805461092490611151565b80601f016020809104026020016040519081016040528092919081815260200182805461095090611151565b801561099b5780601f106109725761010080835404028352916020019161099b565b820191905f5260205f20905b81548152906001019060200180831161097e57829003601f168201915b505050505081565b6109ab610d3d565b6109b45f610d97565b565b6109be610d3d565b5f846040516109cd9190611136565b9081526040519081900360200190206006015460ff16610a275760405162461bcd60e51b8152602060048201526015602482015274426c6f636b636861696e206e6f742061637469766560581b60448201526064016102c8565b6064821115610a785760405162461bcd60e51b815260206004820152601a60248201527f496e76616c696420636f6e6e656374696f6e207175616c69747900000000000060448201526064016102c8565b6064811115610ac25760405162461bcd60e51b8152602060048201526016602482015275496e76616c69642073656375726974792073636f726560501b60448201526064016102c8565b5f600585604051610ad39190611136565b90815260405190819003602001812042815560038101805487151560ff1990911617905560018101859055600281018490559150610b12908690611136565b60408051918290038220861515835260208301869052917ff726972199627b6056dcab72ef8b2f320311264d879019993a4440d192d6a8b8910160405180910390a284604051610b629190611136565b604051908190038120838252907ffada41a5520aedeeb88f7781715f7fc2ac197a2a27f61d5407814aba506659e09060200160405180910390a26032821015610c175784604051610bb39190611136565b60408051918290038220818352601283830152714c4f575f53454355524954595f53434f524560701b6060840152426020840152905190917fbe4decedefe6703e2a595c5fed8cba562f01851353b26cbee98f7bc83531c05c919081900360800190a25b5050505050565b610c26610d3d565b6001600160a01b038116610c8b5760405162461bcd60e51b815260206004820152602660248201527f4f776e61626c653a206e6577206f776e657220697320746865207a65726f206160448201526564647265737360d01b60648201526084016102c8565b610c9481610d97565b50565b600354600160a01b900460ff16156109b45760405162461bcd60e51b815260206004820152601060248201526f14185d5cd8589b194e881c185d5cd95960821b60448201526064016102c8565b600260045403610d365760405162461bcd60e51b815260206004820152601f60248201527f5265656e7472616e637947756172643a207265656e7472616e742063616c6c0060448201526064016102c8565b6002600455565b6003546001600160a01b031633146109b45760405162461bcd60e51b815260206004820181905260248201527f4f776e61626c653a2063616c6c6572206973206e6f7420746865206f776e657260448201526064016102c8565b600380546001600160a01b038381166001600160a01b0319831681179093556040519116919082907f8be0079c531659141344cd1fd0a4f28419497f9722a3daafe3b4186f6b6457e0905f90a35050565b634e487b7160e01b5f52604160045260245ffd5b5f82601f830112610e0b575f80fd5b813567ffffffffffffffff80821115610e2657610e26610de8565b604051601f8301601f19908116603f01168101908282118183101715610e4e57610e4e610de8565b81604052838152866020858801011115610e66575f80fd5b836020870160208301375f602085830101528094505050505092915050565b5f805f8060808587031215610e98575f80fd5b843567ffffffffffffffff80821115610eaf575f80fd5b610ebb88838901610dfc565b95506020870135915080821115610ed0575f80fd5b610edc88838901610dfc565b94506040870135915080821115610ef1575f80fd5b610efd88838901610dfc565b93506060870135915080821115610f12575f80fd5b50610f1f87828801610dfc565b91505092959194509250565b5f60208284031215610f3b575f80fd5b813567ffffffffffffffff811115610f51575f80fd5b610f5d84828501610dfc565b949350505050565b5f60208284031215610f75575f80fd5b5035919050565b80358015158114610f8b575f80fd5b919050565b5f805f60608486031215610fa2575f80fd5b833567ffffffffffffffff811115610fb8575f80fd5b610fc486828701610dfc565b93505060208401359150610fda60408501610f7c565b90509250925092565b5f5b83811015610ffd578181015183820152602001610fe5565b50505f910152565b5f815180845261101c816020860160208601610fe3565b601f01601f19169290920160200192915050565b60e081525f61104260e083018a611005565b8281036020840152611054818a611005565b905082810360408401526110688189611005565b9050828103606084015261107c8188611005565b6080840196909652505060a0810192909252151560c090910152949350505050565b602081525f6110b06020830184611005565b9392505050565b5f805f80608085870312156110ca575f80fd5b843567ffffffffffffffff8111156110e0575f80fd5b6110ec87828801610dfc565b9450506110fb60208601610f7c565b93969395505050506040820135916060013590565b5f60208284031215611120575f80fd5b81356001600160a01b03811681146110b0575f80fd5b5f8251611147818460208701610fe3565b9190910192915050565b600181811c9082168061116557607f821691505b60208210810361118357634e487b7160e01b5f52602260045260245ffd5b50919050565b601f8211156111d2575f81815260208120601f850160051c810160208610156111af5750805b601f850160051c820191505b818110156111ce578281556001016111bb565b5050505b505050565b815167ffffffffffffffff8111156111f1576111f1610de8565b611205816111ff8454611151565b84611189565b602080601f831160018114611238575f84156112215750858301515b5f19600386901b1c1916600185901b1785556111ce565b5f85815260208120601f198616915b8281101561126657888601518255948401946001909101908401611247565b508582101561128357878501515f19600388901b60f8161c191681555b5050505050600190811b0190555056fea2646970667358221220c234c3bf784e2d00048b82ce6777c22de00e169e5690e879a7ec3fa7a145646164736f6c63430008140033",
  "immutableReferences": {},
  "source": "// SPDX-License-Identifier: MIT\npragma solidity ^0.8.0;\n\nimport \"@openzeppelin/contracts/access/Ownable.sol\";\nimport \"@openzeppelin/contracts/security/Pausable.sol\";\nimport \"@openzeppelin/contracts/security/ReentrancyGuard.sol\";\n\n/**\n * @title BlockchainRegistryBase\n * @dev Base contract containing shared data structures and events\n */\ncontract BlockchainRegistryBase {\n    struct BlockchainInfo {\n        string blockchainID;          // Unique identifier for the blockchain\n        string dataStructure;         // Data structure format\n        string programmingLanguage;   // Primary programming language\n        string networkProtocol;       // Network protocol format\n        uint256 currentState;         // Current state of the blockchain\n        uint256 registrationTime;     // When the blockchain was registered\n        bool isActive;                // Whether the blockchain is currently active\n        mapping(bytes32 => bool) metRequirements;  // Track which requirements are met\n    }\n\n    // Events\n    event BlockchainRegistered(string indexed blockchainID, uint256 timestamp);\n    event BlockchainDeactivated(string indexed blockchainID, uint256 timestamp);\n    event RequirementUpdated(string indexed blockchainID, bytes32 requirement, bool met);\n    event SecurityAlertRaised(string indexed blockchainID, string alertType, uint256 timestamp);\n    \n    // Mapping from blockchain ID to its information\n    mapping(string => BlockchainInfo) public registeredBlockchains;\n    \n    // Array to keep track of all registered blockchain IDs\n    string[] public allBlockchainIDs;\n    \n    // Required characteristics for registration\n    bytes32[] public registrationRequirements;\n}\n\n/**\n * @title BlockchainRegistry\n * @dev Handles the registration of blockchains in the PAYS system\n */\ncontract BlockchainRegistry is BlockchainRegistryBase, Ownable, Pausable, ReentrancyGuard {\n    constructor() {\n        // Initialize default registration requirements\n        registrationRequirements.push(keccak256(\"VALID_CONSENSUS\"));\n        registrationRequirements.push(keccak256(\"SECURE_PROTOCOL\"));\n        registrationRequirements.push(keccak256(\"HEADER_VERIFICATION\"));\n    }\n\n    /**\n     * @dev Register a new blockchain with the system\n     */\n    function registerBlockchain(\n        string memory _blockchainID,\n        string memory _dataStructure,\n        string memory _programmingLanguage,\n        string memory _networkProtocol\n    ) external whenNotPaused nonReentrant {\n        require(bytes(_blockchainID).length > 0, \"Invalid blockchain ID\");\n        require(!registeredBlockchains[_blockchainID].isActive, \"Already registered\");\n\n        BlockchainInfo storage newChain = registeredBlockchains[_blockchainID];\n        newChain.blockchainID = _blockchainID;\n        newChain.dataStructure = _dataStructure;\n        newChain.programmingLanguage = _programmingLanguage;\n        newChain.networkProtocol = _networkProtocol;\n        newChain.registrationTime = block.timestamp;\n        newChain.isActive = true;\n        \n        allBlockchainIDs.push(_blockchainID);\n        \n        emit BlockchainRegistered(_blockchainID, block.timestamp);\n    }\n\n    /**\n     * @dev Update requirement status for a blockchain\n     */\n    function updateRequirementStatus(\n        string memory _blockchainID,\n        bytes32 _requirement,\n        bool _met\n    ) external onlyOwner {\n        require(registeredBlockchains[_blockchainID].isActive, \"Blockchain not registered\");\n        \n        registeredBlockchains[_blockchainID].metRequirements[_requirement] = _met;\n        emit RequirementUpdated(_blockchainID, _requirement, _met);\n    }\n\n    /**\n     * @dev Deactivate a blockchain registration\n     */\n    function deactivateBlockchain(string memory _blockchainID) external onlyOwner {\n        require(registeredBlockchains[_blockchainID].isActive, \"Blockchain not active\");\n        \n        registeredBlockchains[_blockchainID].isActive = false;\n        emit BlockchainDeactivated(_blockchainID, block.timestamp);\n    }\n}\n\n/**\n * @title BlockchainMonitor\n * @dev Monitors registered blockchains for security and connectivity\n */\ncontract BlockchainMonitor is BlockchainRegistry {\n    struct MonitoringInfo {\n        uint256 lastCheckTimestamp;\n        uint256 connectionQuality;    // 0-100 scale\n        uint256 securityScore;        // 0-100 scale\n        bool isConnected;\n    }\n\n    mapping(string => MonitoringInfo) public blockchainMonitoring;\n\n    event ConnectionStatusUpdated(string indexed blockchainID, bool connected, uint256 quality);\n    event SecurityScoreUpdated(string indexed blockchainID, uint256 score);\n\n    /**\n     * @dev Update monitoring information for a blockchain\n     */\n    function updateMonitoringInfo(\n        string memory _blockchainID,\n        bool _isConnected,\n        uint256 _connectionQuality,\n        uint256 _securityScore\n    ) external onlyOwner {\n        require(registeredBlockchains[_blockchainID].isActive, \"Blockchain not active\");\n        require(_connectionQuality <= 100, \"Invalid connection quality\");\n        require(_securityScore <= 100, \"Invalid security score\");\n\n        MonitoringInfo storage info = blockchainMonitoring[_blockchainID];\n        info.lastCheckTimestamp = block.timestamp;\n        info.isConnected = _isConnected;\n        info.connectionQuality = _connectionQuality;\n        info.securityScore = _securityScore;\n\n        emit ConnectionStatusUpdated(_blockchainID, _isConnected, _connectionQuality);\n        emit SecurityScoreUpdated(_blockchainID, _securityScore);\n\n        // Raise security alert if score is too low\n        if (_securityScore < 50) {\n            emit SecurityAlertRaised(_blockchainID, \"LOW_SECURITY_SCORE\", block.timestamp);\n        }\n    }\n\n    /**\n     * @dev Get monitoring information for a blockchain\n     */\n    function getMonitoringInfo(string memory _blockchainID) \n        external \n        view \n        returns (\n            uint256 lastCheck,\n            bool connected,\n            uint256 connectionQuality,\n            uint256 securityScore\n        )\n    {\n        MonitoringInfo storage info = blockchainMonitoring[_blockchainID];\n        return (\n            info.lastCheckTimestamp,\n            info.isConnected,\n            info.connectionQuality,\n            info.securityScore\n        );\n    }\n}",
  "sourcePath": "C:\\Users\\Bonsu\\Documents\\CLEANER PRODUCTION\\renewalclimateproject\\ClimateProjectFull\\contracts\\blockchain\\BlockchainRegistryBase.sol",
  "compiler": {
    "name": "solc",
    "version": "0.8.20+commit.a1b79de6.Emscripten.clang"
  },
  "schemaVersion": "3.4.16",
  "updatedAt": "2025-02-21T06:43:13.841Z",
  "devdoc": {
    "details": "Monitors registered blockchains for security and connectivity",
    "events": {
      "Paused(address)": {
        "details": "Emitted when the pause is triggered by `account`."
      },
      "Unpaused(address)": {
        "details": "Emitted when the pause is lifted by `account`."
      }
    },
    "kind": "dev",
    "methods": {
      "deactivateBlockchain(string)": {
        "details": "Deactivate a blockchain registration"
      },
      "getMonitoringInfo(string)": {
        "details": "Get monitoring information for a blockchain"
      },
      "owner()": {
        "details": "Returns the address of the current owner."
      },
      "paused()": {
        "details": "Returns true if the contract is paused, and false otherwise."
      },
      "registerBlockchain(string,string,string,string)": {
        "details": "Register a new blockchain with the system"
      },
      "renounceOwnership()": {
        "details": "Leaves the contract without owner. It will not be possible to call `onlyOwner` functions. Can only be called by the current owner. NOTE: Renouncing ownership will leave the contract without an owner, thereby disabling any functionality that is only available to the owner."
      },
      "transferOwnership(address)": {
        "details": "Transfers ownership of the contract to a new account (`newOwner`). Can only be called by the current owner."
      },
      "updateMonitoringInfo(string,bool,uint256,uint256)": {
        "details": "Update monitoring information for a blockchain"
      },
      "updateRequirementStatus(string,bytes32,bool)": {
        "details": "Update requirement status for a blockchain"
      }
    },
    "title": "BlockchainMonitor",
    "version": 1
  },
  "userdoc": {
    "kind": "user",
    "methods": {},
    "version": 1
  }
}