{
  "contractName": "BlockchainRegistryBase",
  "abi": [
    {
      "anonymous": false,
      "inputs": [
        {
          "indexed": true,
          "internalType": "string",
          "name": "blockchainID",
          "type": "string"
        },
        {
          "indexed": false,
          "internalType": "uint256",
          "name": "timestamp",
          "type": "uint256"
        }
      ],
      "name": "BlockchainDeactivated",
      "type": "event"
    },
    {
      "anonymous": false,
      "inputs": [
        {
          "indexed": true,
          "internalType": "string",
          "name": "blockchainID",
          "type": "string"
        },
        {
          "indexed": false,
          "internalType": "uint256",
          "name": "timestamp",
          "type": "uint256"
        }
      ],
      "name": "BlockchainRegistered",
      "type": "event"
    },
    {
      "anonymous": false,
      "inputs": [
        {
          "indexed": true,
          "internalType": "string",
          "name": "blockchainID",
          "type": "string"
        },
        {
          "indexed": false,
          "internalType": "bytes32",
          "name": "requirement",
          "type": "bytes32"
        },
        {
          "indexed": false,
          "internalType": "bool",
          "name": "met",
          "type": "bool"
        }
      ],
      "name": "RequirementUpdated",
      "type": "event"
    },
    {
      "anonymous": false,
      "inputs": [
        {
          "indexed": true,
          "internalType": "string",
          "name": "blockchainID",
          "type": "string"
        },
        {
          "indexed": false,
          "internalType": "string",
          "name": "alertType",
          "type": "string"
        },
        {
          "indexed": false,
          "internalType": "uint256",
          "name": "timestamp",
          "type": "uint256"
        }
      ],
      "name": "SecurityAlertRaised",
      "type": "event"
    },
    {
      "inputs": [
        {
          "internalType": "uint256",
          "name": "",
          "type": "uint256"
        }
      ],
      "name": "allBlockchainIDs",
      "outputs": [
        {
          "internalType": "string",
          "name": "",
          "type": "string"
        }
      ],
      "stateMutability": "view",
      "type": "function"
    },
    {
      "inputs": [
        {
          "internalType": "string",
          "name": "",
          "type": "string"
        }
      ],
      "name": "registeredBlockchains",
      "outputs": [
        {
          "internalType": "string",
          "name": "blockchainID",
          "type": "string"
        },
        {
          "internalType": "string",
          "name": "dataStructure",
          "type": "string"
        },
        {
          "internalType": "string",
          "name": "programmingLanguage",
          "type": "string"
        },
        {
          "internalType": "string",
          "name": "networkProtocol",
          "type": "string"
        },
        {
          "internalType": "uint256",
          "name": "currentState",
          "type": "uint256"
        },
        {
          "internalType": "uint256",
          "name": "registrationTime",
          "type": "uint256"
        },
        {
          "internalType": "bool",
          "name": "isActive",
          "type": "bool"
        }
      ],
      "stateMutability": "view",
      "type": "function"
    },
    {
      "inputs": [
        {
          "internalType": "uint256",
          "name": "",
          "type": "uint256"
        }
      ],
      "name": "registrationRequirements",
      "outputs": [
        {
          "internalType": "bytes32",
          "name": "",
          "type": "bytes32"
        }
      ],
      "stateMutability": "view",
      "type": "function"
    }
  ],
  "bytecode": "0x608060405234801561000f575f80fd5b506105e38061001d5f395ff3fe608060405234801561000f575f80fd5b506004361061003f575f3560e01c80632ae741be1461004357806338cf37f0146100695780635d6cf7681461008f575b5f80fd5b6100566100513660046103d5565b6100af565b6040519081526020015b60405180910390f35b61007c610077366004610400565b6100ce565b60405161006097969594939291906104ee565b6100a261009d3660046103d5565b61032f565b604051610060919061055c565b600281815481106100be575f80fd5b5f91825260209091200154905081565b80516020818301810180515f825292820191909301209152805481906100f390610575565b80601f016020809104026020016040519081016040528092919081815260200182805461011f90610575565b801561016a5780601f106101415761010080835404028352916020019161016a565b820191905f5260205f20905b81548152906001019060200180831161014d57829003601f168201915b50505050509080600101805461017f90610575565b80601f01602080910402602001604051908101604052809291908181526020018280546101ab90610575565b80156101f65780601f106101cd576101008083540402835291602001916101f6565b820191905f5260205f20905b8154815290600101906020018083116101d957829003601f168201915b50505050509080600201805461020b90610575565b80601f016020809104026020016040519081016040528092919081815260200182805461023790610575565b80156102825780601f1061025957610100808354040283529160200191610282565b820191905f5260205f20905b81548152906001019060200180831161026557829003601f168201915b50505050509080600301805461029790610575565b80601f01602080910402602001604051908101604052809291908181526020018280546102c390610575565b801561030e5780601f106102e55761010080835404028352916020019161030e565b820191905f5260205f20905b8154815290600101906020018083116102f157829003601f168201915b50505050600483015460058401546006909401549293909290915060ff1687565b6001818154811061033e575f80fd5b905f5260205f20015f91509050805461035690610575565b80601f016020809104026020016040519081016040528092919081815260200182805461038290610575565b80156103cd5780601f106103a4576101008083540402835291602001916103cd565b820191905f5260205f20905b8154815290600101906020018083116103b057829003601f168201915b505050505081565b5f602082840312156103e5575f80fd5b5035919050565b634e487b7160e01b5f52604160045260245ffd5b5f60208284031215610410575f80fd5b813567ffffffffffffffff80821115610427575f80fd5b818401915084601f83011261043a575f80fd5b81358181111561044c5761044c6103ec565b604051601f8201601f19908116603f01168101908382118183101715610474576104746103ec565b8160405282815287602084870101111561048c575f80fd5b826020860160208301375f928101602001929092525095945050505050565b5f81518084525f5b818110156104cf576020818501810151868301820152016104b3565b505f602082860101526020601f19601f83011685010191505092915050565b60e081525f61050060e083018a6104ab565b8281036020840152610512818a6104ab565b9050828103604084015261052681896104ab565b9050828103606084015261053a81886104ab565b6080840196909652505060a0810192909252151560c090910152949350505050565b602081525f61056e60208301846104ab565b9392505050565b600181811c9082168061058957607f821691505b6020821081036105a757634e487b7160e01b5f52602260045260245ffd5b5091905056fea264697066735822122089e340242301c6d742386ee9d9a3989b350e2bd00be5d7b2134a0a619e77c67964736f6c63430008140033",
  "immutableReferences": {},
  "source": "// SPDX-License-Identifier: MIT\npragma solidity ^0.8.0;\n\nimport \"@openzeppelin/contracts/access/Ownable.sol\";\nimport \"@openzeppelin/contracts/security/Pausable.sol\";\nimport \"@openzeppelin/contracts/security/ReentrancyGuard.sol\";\n\n/**\n * @title BlockchainRegistryBase\n * @dev Base contract containing shared data structures and events\n */\ncontract BlockchainRegistryBase {\n    struct BlockchainInfo {\n        string blockchainID;          // Unique identifier for the blockchain\n        string dataStructure;         // Data structure format\n        string programmingLanguage;   // Primary programming language\n        string networkProtocol;       // Network protocol format\n        uint256 currentState;         // Current state of the blockchain\n        uint256 registrationTime;     // When the blockchain was registered\n        bool isActive;                // Whether the blockchain is currently active\n        mapping(bytes32 => bool) metRequirements;  // Track which requirements are met\n    }\n\n    // Events\n    event BlockchainRegistered(string indexed blockchainID, uint256 timestamp);\n    event BlockchainDeactivated(string indexed blockchainID, uint256 timestamp);\n    event RequirementUpdated(string indexed blockchainID, bytes32 requirement, bool met);\n    event SecurityAlertRaised(string indexed blockchainID, string alertType, uint256 timestamp);\n    \n    // Mapping from blockchain ID to its information\n    mapping(string => BlockchainInfo) public registeredBlockchains;\n    \n    // Array to keep track of all registered blockchain IDs\n    string[] public allBlockchainIDs;\n    \n    // Required characteristics for registration\n    bytes32[] public registrationRequirements;\n}\n\n/**\n * @title BlockchainRegistry\n * @dev Handles the registration of blockchains in the PAYS system\n */\ncontract BlockchainRegistry is BlockchainRegistryBase, Ownable, Pausable, ReentrancyGuard {\n    constructor() {\n        // Initialize default registration requirements\n        registrationRequirements.push(keccak256(\"VALID_CONSENSUS\"));\n        registrationRequirements.push(keccak256(\"SECURE_PROTOCOL\"));\n        registrationRequirements.push(keccak256(\"HEADER_VERIFICATION\"));\n    }\n\n    /**\n     * @dev Register a new blockchain with the system\n     */\n    function registerBlockchain(\n        string memory _blockchainID,\n        string memory _dataStructure,\n        string memory _programmingLanguage,\n        string memory _networkProtocol\n    ) external whenNotPaused nonReentrant {\n        require(bytes(_blockchainID).length > 0, \"Invalid blockchain ID\");\n        require(!registeredBlockchains[_blockchainID].isActive, \"Already registered\");\n\n        BlockchainInfo storage newChain = registeredBlockchains[_blockchainID];\n        newChain.blockchainID = _blockchainID;\n        newChain.dataStructure = _dataStructure;\n        newChain.programmingLanguage = _programmingLanguage;\n        newChain.networkProtocol = _networkProtocol;\n        newChain.registrationTime = block.timestamp;\n        newChain.isActive = true;\n        \n        allBlockchainIDs.push(_blockchainID);\n        \n        emit BlockchainRegistered(_blockchainID, block.timestamp);\n    }\n\n    /**\n     * @dev Update requirement status for a blockchain\n     */\n    function updateRequirementStatus(\n        string memory _blockchainID,\n        bytes32 _requirement,\n        bool _met\n    ) external onlyOwner {\n        require(registeredBlockchains[_blockchainID].isActive, \"Blockchain not registered\");\n        \n        registeredBlockchains[_blockchainID].metRequirements[_requirement] = _met;\n        emit RequirementUpdated(_blockchainID, _requirement, _met);\n    }\n\n    /**\n     * @dev Deactivate a blockchain registration\n     */\n    function deactivateBlockchain(string memory _blockchainID) external onlyOwner {\n        require(registeredBlockchains[_blockchainID].isActive, \"Blockchain not active\");\n        \n        registeredBlockchains[_blockchainID].isActive = false;\n        emit BlockchainDeactivated(_blockchainID, block.timestamp);\n    }\n}\n\n/**\n * @title BlockchainMonitor\n * @dev Monitors registered blockchains for security and connectivity\n */\ncontract BlockchainMonitor is BlockchainRegistry {\n    struct MonitoringInfo {\n        uint256 lastCheckTimestamp;\n        uint256 connectionQuality;    // 0-100 scale\n        uint256 securityScore;        // 0-100 scale\n        bool isConnected;\n    }\n\n    mapping(string => MonitoringInfo) public blockchainMonitoring;\n\n    event ConnectionStatusUpdated(string indexed blockchainID, bool connected, uint256 quality);\n    event SecurityScoreUpdated(string indexed blockchainID, uint256 score);\n\n    /**\n     * @dev Update monitoring information for a blockchain\n     */\n    function updateMonitoringInfo(\n        string memory _blockchainID,\n        bool _isConnected,\n        uint256 _connectionQuality,\n        uint256 _securityScore\n    ) external onlyOwner {\n        require(registeredBlockchains[_blockchainID].isActive, \"Blockchain not active\");\n        require(_connectionQuality <= 100, \"Invalid connection quality\");\n        require(_securityScore <= 100, \"Invalid security score\");\n\n        MonitoringInfo storage info = blockchainMonitoring[_blockchainID];\n        info.lastCheckTimestamp = block.timestamp;\n        info.isConnected = _isConnected;\n        info.connectionQuality = _connectionQuality;\n        info.securityScore = _securityScore;\n\n        emit ConnectionStatusUpdated(_blockchainID, _isConnected, _connectionQuality);\n        emit SecurityScoreUpdated(_blockchainID, _securityScore);\n\n        // Raise security alert if score is too low\n        if (_securityScore < 50) {\n            emit SecurityAlertRaised(_blockchainID, \"LOW_SECURITY_SCORE\", block.timestamp);\n        }\n    }\n\n    /**\n     * @dev Get monitoring information for a blockchain\n     */\n    function getMonitoringInfo(string memory _blockchainID) \n        external \n        view \n        returns (\n            uint256 lastCheck,\n            bool connected,\n            uint256 connectionQuality,\n            uint256 securityScore\n        )\n    {\n        MonitoringInfo storage info = blockchainMonitoring[_blockchainID];\n        return (\n            info.lastCheckTimestamp,\n            info.isConnected,\n            info.connectionQuality,\n            info.securityScore\n        );\n    }\n}",
  "sourcePath": "C:\\Users\\Bonsu\\Documents\\CLEANER PRODUCTION\\renewalclimateproject\\ClimateProjectFull\\contracts\\blockchain\\BlockchainRegistryBase.sol",
  "compiler": {
    "name": "solc",
    "version": "0.8.20+commit.a1b79de6.Emscripten.clang"
  },
  "schemaVersion": "3.4.16",
  "updatedAt": "2025-02-21T06:43:13.849Z",
  "devdoc": {
    "details": "Base contract containing shared data structures and events",
    "kind": "dev",
    "methods": {},
    "title": "BlockchainRegistryBase",
    "version": 1
  },
  "userdoc": {
    "kind": "user",
    "methods": {},
    "version": 1
  }
}