{
  "contractName": "CarbonCreditMarket",
  "abi": [
    {
      "inputs": [
        {
          "internalType": "address",
          "name": "_uniswapRouter",
          "type": "address"
        },
        {
          "internalType": "address",
          "name": "_carbonCreditToken",
          "type": "address"
        },
        {
          "internalType": "address",
          "name": "_usdToken",
          "type": "address"
        }
      ],
      "stateMutability": "nonpayable",
      "type": "constructor"
    },
    {
      "anonymous": false,
      "inputs": [
        {
          "indexed": false,
          "internalType": "string",
          "name": "city",
          "type": "string"
        },
        {
          "indexed": false,
          "internalType": "uint256",
          "name": "newAllowance",
          "type": "uint256"
        }
      ],
      "name": "AllowanceUpdated",
      "type": "event"
    },
    {
      "anonymous": false,
      "inputs": [
        {
          "indexed": true,
          "internalType": "address",
          "name": "buyer",
          "type": "address"
        }
      ],
      "name": "BuyerAdded",
      "type": "event"
    },
    {
      "anonymous": false,
      "inputs": [
        {
          "indexed": true,
          "internalType": "address",
          "name": "company",
          "type": "address"
        }
      ],
      "name": "CompanyRegistered",
      "type": "event"
    },
    {
      "anonymous": false,
      "inputs": [
        {
          "indexed": true,
          "internalType": "address",
          "name": "previousOwner",
          "type": "address"
        },
        {
          "indexed": true,
          "internalType": "address",
          "name": "newOwner",
          "type": "address"
        }
      ],
      "name": "OwnershipTransferred",
      "type": "event"
    },
    {
      "anonymous": false,
      "inputs": [
        {
          "indexed": false,
          "internalType": "address",
          "name": "account",
          "type": "address"
        }
      ],
      "name": "Paused",
      "type": "event"
    },
    {
      "anonymous": false,
      "inputs": [
        {
          "indexed": false,
          "internalType": "string",
          "name": "city",
          "type": "string"
        },
        {
          "indexed": false,
          "internalType": "string",
          "name": "sector",
          "type": "string"
        },
        {
          "indexed": false,
          "internalType": "uint256",
          "name": "reduction",
          "type": "uint256"
        }
      ],
      "name": "ReductionRecorded",
      "type": "event"
    },
    {
      "anonymous": false,
      "inputs": [
        {
          "indexed": false,
          "internalType": "string",
          "name": "city",
          "type": "string"
        },
        {
          "indexed": false,
          "internalType": "string",
          "name": "sector",
          "type": "string"
        },
        {
          "indexed": false,
          "internalType": "uint256",
          "name": "timestamp",
          "type": "uint256"
        },
        {
          "indexed": false,
          "internalType": "uint256",
          "name": "credits",
          "type": "uint256"
        }
      ],
      "name": "RenewalProcessed",
      "type": "event"
    },
    {
      "anonymous": false,
      "inputs": [
        {
          "indexed": true,
          "internalType": "address",
          "name": "seller",
          "type": "address"
        }
      ],
      "name": "SellerAdded",
      "type": "event"
    },
    {
      "anonymous": false,
      "inputs": [
        {
          "indexed": true,
          "internalType": "address",
          "name": "buyer",
          "type": "address"
        },
        {
          "indexed": true,
          "internalType": "address",
          "name": "seller",
          "type": "address"
        },
        {
          "indexed": false,
          "internalType": "uint256",
          "name": "carbonCredits",
          "type": "uint256"
        },
        {
          "indexed": false,
          "internalType": "uint256",
          "name": "usdAmount",
          "type": "uint256"
        },
        {
          "indexed": false,
          "internalType": "string",
          "name": "city",
          "type": "string"
        },
        {
          "indexed": false,
          "internalType": "string",
          "name": "sector",
          "type": "string"
        }
      ],
      "name": "TradeExecuted",
      "type": "event"
    },
    {
      "anonymous": false,
      "inputs": [
        {
          "indexed": false,
          "internalType": "address",
          "name": "account",
          "type": "address"
        }
      ],
      "name": "Unpaused",
      "type": "event"
    },
    {
      "inputs": [],
      "name": "BASE_IMPACT",
      "outputs": [
        {
          "internalType": "uint256",
          "name": "",
          "type": "uint256"
        }
      ],
      "stateMutability": "view",
      "type": "function"
    },
    {
      "inputs": [],
      "name": "MAX_RENEWAL_RATE",
      "outputs": [
        {
          "internalType": "uint256",
          "name": "",
          "type": "uint256"
        }
      ],
      "stateMutability": "view",
      "type": "function"
    },
    {
      "inputs": [],
      "name": "MAX_TRADE_AMOUNT",
      "outputs": [
        {
          "internalType": "uint256",
          "name": "",
          "type": "uint256"
        }
      ],
      "stateMutability": "view",
      "type": "function"
    },
    {
      "inputs": [],
      "name": "MIN_RENEWAL_INTERVAL",
      "outputs": [
        {
          "internalType": "uint256",
          "name": "",
          "type": "uint256"
        }
      ],
      "stateMutability": "view",
      "type": "function"
    },
    {
      "inputs": [],
      "name": "MIN_TRADE_AMOUNT",
      "outputs": [
        {
          "internalType": "uint256",
          "name": "",
          "type": "uint256"
        }
      ],
      "stateMutability": "view",
      "type": "function"
    },
    {
      "inputs": [],
      "name": "SEASONAL_VARIATION",
      "outputs": [
        {
          "internalType": "uint256",
          "name": "",
          "type": "uint256"
        }
      ],
      "stateMutability": "view",
      "type": "function"
    },
    {
      "inputs": [],
      "name": "SLIPPAGE_TOLERANCE",
      "outputs": [
        {
          "internalType": "uint256",
          "name": "",
          "type": "uint256"
        }
      ],
      "stateMutability": "view",
      "type": "function"
    },
    {
      "inputs": [
        {
          "internalType": "string",
          "name": "city",
          "type": "string"
        },
        {
          "internalType": "string",
          "name": "sector",
          "type": "string"
        }
      ],
      "name": "calculateCreditAmount",
      "outputs": [
        {
          "internalType": "uint256",
          "name": "",
          "type": "uint256"
        }
      ],
      "stateMutability": "view",
      "type": "function"
    },
    {
      "inputs": [
        {
          "internalType": "uint256",
          "name": "credits",
          "type": "uint256"
        }
      ],
      "name": "calculateReduction",
      "outputs": [
        {
          "internalType": "uint256",
          "name": "",
          "type": "uint256"
        }
      ],
      "stateMutability": "pure",
      "type": "function"
    },
    {
      "inputs": [
        {
          "internalType": "string",
          "name": "city",
          "type": "string"
        },
        {
          "internalType": "string",
          "name": "sector",
          "type": "string"
        }
      ],
      "name": "canRenew",
      "outputs": [
        {
          "internalType": "bool",
          "name": "",
          "type": "bool"
        }
      ],
      "stateMutability": "view",
      "type": "function"
    },
    {
      "inputs": [],
      "name": "carbonCreditToken",
      "outputs": [
        {
          "internalType": "address",
          "name": "",
          "type": "address"
        }
      ],
      "stateMutability": "view",
      "type": "function"
    },
    {
      "inputs": [
        {
          "internalType": "string",
          "name": "",
          "type": "string"
        }
      ],
      "name": "cities",
      "outputs": [
        {
          "internalType": "uint256",
          "name": "baseAllowance",
          "type": "uint256"
        },
        {
          "internalType": "uint256",
          "name": "seasonalFactor",
          "type": "uint256"
        },
        {
          "internalType": "uint256",
          "name": "emergencyBuffer",
          "type": "uint256"
        },
        {
          "internalType": "uint256",
          "name": "lastCalculationTime",
          "type": "uint256"
        }
      ],
      "stateMutability": "view",
      "type": "function"
    },
    {
      "inputs": [
        {
          "internalType": "address",
          "name": "",
          "type": "address"
        }
      ],
      "name": "companies",
      "outputs": [
        {
          "internalType": "bool",
          "name": "isRegistered",
          "type": "bool"
        },
        {
          "internalType": "uint256",
          "name": "carbonCredits",
          "type": "uint256"
        },
        {
          "internalType": "bool",
          "name": "isBuying",
          "type": "bool"
        },
        {
          "internalType": "bool",
          "name": "isSelling",
          "type": "bool"
        },
        {
          "internalType": "uint256",
          "name": "lastTradeTimestamp",
          "type": "uint256"
        }
      ],
      "stateMutability": "view",
      "type": "function"
    },
    {
      "inputs": [
        {
          "internalType": "string",
          "name": "city",
          "type": "string"
        },
        {
          "internalType": "uint256",
          "name": "baseAllowance",
          "type": "uint256"
        }
      ],
      "name": "initializeCity",
      "outputs": [],
      "stateMutability": "nonpayable",
      "type": "function"
    },
    {
      "inputs": [
        {
          "internalType": "string",
          "name": "city",
          "type": "string"
        },
        {
          "internalType": "string",
          "name": "sector",
          "type": "string"
        }
      ],
      "name": "isEmergencyCondition",
      "outputs": [
        {
          "internalType": "bool",
          "name": "",
          "type": "bool"
        }
      ],
      "stateMutability": "view",
      "type": "function"
    },
    {
      "inputs": [],
      "name": "owner",
      "outputs": [
        {
          "internalType": "address",
          "name": "",
          "type": "address"
        }
      ],
      "stateMutability": "view",
      "type": "function"
    },
    {
      "inputs": [],
      "name": "paused",
      "outputs": [
        {
          "internalType": "bool",
          "name": "",
          "type": "bool"
        }
      ],
      "stateMutability": "view",
      "type": "function"
    },
    {
      "inputs": [
        {
          "internalType": "string",
          "name": "city",
          "type": "string"
        },
        {
          "internalType": "string",
          "name": "sector",
          "type": "string"
        },
        {
          "internalType": "uint256",
          "name": "value",
          "type": "uint256"
        },
        {
          "internalType": "uint256",
          "name": "timestamp",
          "type": "uint256"
        }
      ],
      "name": "recordSectorValue",
      "outputs": [],
      "stateMutability": "nonpayable",
      "type": "function"
    },
    {
      "inputs": [],
      "name": "renounceOwnership",
      "outputs": [],
      "stateMutability": "nonpayable",
      "type": "function"
    },
    {
      "inputs": [
        {
          "internalType": "address",
          "name": "newOwner",
          "type": "address"
        }
      ],
      "name": "transferOwnership",
      "outputs": [],
      "stateMutability": "nonpayable",
      "type": "function"
    },
    {
      "inputs": [],
      "name": "uniswapRouter",
      "outputs": [
        {
          "internalType": "contract IUniswapV2Router02",
          "name": "",
          "type": "address"
        }
      ],
      "stateMutability": "view",
      "type": "function"
    },
    {
      "inputs": [],
      "name": "usdToken",
      "outputs": [
        {
          "internalType": "address",
          "name": "",
          "type": "address"
        }
      ],
      "stateMutability": "view",
      "type": "function"
    },
    {
      "inputs": [
        {
          "internalType": "address",
          "name": "company",
          "type": "address"
        }
      ],
      "name": "registerCompany",
      "outputs": [],
      "stateMutability": "nonpayable",
      "type": "function"
    },
    {
      "inputs": [],
      "name": "wantToBuy",
      "outputs": [],
      "stateMutability": "nonpayable",
      "type": "function"
    },
    {
      "inputs": [],
      "name": "wantToSell",
      "outputs": [],
      "stateMutability": "nonpayable",
      "type": "function"
    },
    {
      "inputs": [
        {
          "internalType": "address",
          "name": "buyer",
          "type": "address"
        },
        {
          "internalType": "address",
          "name": "seller",
          "type": "address"
        },
        {
          "internalType": "uint256",
          "name": "carbonCredits",
          "type": "uint256"
        },
        {
          "internalType": "uint256",
          "name": "usdAmount",
          "type": "uint256"
        },
        {
          "internalType": "string",
          "name": "city",
          "type": "string"
        },
        {
          "internalType": "string",
          "name": "sector",
          "type": "string"
        }
      ],
      "name": "trade",
      "outputs": [],
      "stateMutability": "nonpayable",
      "type": "function"
    },
    {
      "inputs": [
        {
          "internalType": "uint256",
          "name": "carbonCredits",
          "type": "uint256"
        }
      ],
      "name": "getExpectedSwapAmount",
      "outputs": [
        {
          "internalType": "uint256",
          "name": "",
          "type": "uint256"
        }
      ],
      "stateMutability": "view",
      "type": "function"
    },
    {
      "inputs": [],
      "name": "pause",
      "outputs": [],
      "stateMutability": "nonpayable",
      "type": "function"
    },
    {
      "inputs": [],
      "name": "unpause",
      "outputs": [],
      "stateMutability": "nonpayable",
      "type": "function"
    },
    {
      "inputs": [
        {
          "internalType": "address",
          "name": "token",
          "type": "address"
        }
      ],
      "name": "emergencyWithdraw",
      "outputs": [],
      "stateMutability": "nonpayable",
      "type": "function"
    }
  ],
  "bytecode": "0x60e060405234801562000010575f80fd5b506040516200272e3803806200272e8339810160408190526200003391620001f3565b6200003e3362000186565b60016002556003805460ff191690556001600160a01b038316620000a95760405162461bcd60e51b815260206004820152601660248201527f496e76616c696420726f7574657220616464726573730000000000000000000060448201526064015b60405180910390fd5b6001600160a01b038216620001015760405162461bcd60e51b815260206004820152601c60248201527f496e76616c696420636172626f6e20746f6b656e2061646472657373000000006044820152606401620000a0565b6001600160a01b038116620001595760405162461bcd60e51b815260206004820152601960248201527f496e76616c69642055534420746f6b656e2061646472657373000000000000006044820152606401620000a0565b6001600160a01b0380841660805282811660a052811660c0526200017d3362000186565b5050506200023a565b600180546001600160a01b038381166001600160a01b0319831681179093556040519116919082907f8be0079c531659141344cd1fd0a4f28419497f9722a3daafe3b4186f6b6457e0905f90a35050565b80516001600160a01b0381168114620001ee575f80fd5b919050565b5f805f6060848603121562000206575f80fd5b6200021184620001d7565b92506200022160208501620001d7565b91506200023160408501620001d7565b90509250925092565b60805160a05160c051612483620002ab5f395f818161049001528181610f73015281816112ea015281816115610152611c2c01525f8181610321015281816106b001528181610f2001528181611210015281816114750152611b4601525f81816103ba0152610fcc01526124835ff3fe608060405234801561000f575f80fd5b50600436106101d1575f3560e01c8063715018a6116100fe578063a5fef0571161009e578063e9ba0f691161006e578063e9ba0f6914610465578063f2fde38b14610478578063f897a22b1461048b578063ffb364f4146104b2575f80fd5b8063a5fef05714610423578063c6cc10e614610436578063ccbedf2114610449578063e1973eba14610452575f80fd5b8063821876b1116100d9578063821876b1146103ef5780638456cb59146104025780638da5cb5b1461040a57806399e8a4971461041b575f80fd5b8063715018a6146103ad578063735de9f7146103b5578063768ffd9b146103dc575f80fd5b80635c975abb116101745780636afed266116101445780636afed266146103635780636d1293e2146103765780636f4d5730146103895780636ff1c9bc1461039a575f80fd5b80635c975abb146102af57806365eae2db146102ba57806366dea3581461031c578063681d5b841461035b575f80fd5b806341cc92b2116101af57806341cc92b21461027457806342ef27441461029757806344dd1fea1461029f5780634c203786146102a7575f80fd5b806331b7d413146101d5578063355e6ce8146101f75780633f4ba83a1461026a575b5f80fd5b6101e4670de0b6b3a764000081565b6040519081526020015b60405180910390f35b61023a610205366004611ea4565b60046020525f9081526040902080546001820154600283015460039093015460ff928316939192828116926101009004169085565b6040805195151586526020860194909452911515928401929092529015156060830152608082015260a0016101ee565b6102726104bc565b005b610287610282366004611f6e565b6104ce565b60405190151581526020016101ee565b6101e4601481565b6101e4606481565b6101e4603281565b60035460ff16610287565b6102fc6102c8366004611fce565b80516020818301810180515f8252928201919093012091526001810154600282015460038301546004909301549192909184565b6040805194855260208501939093529183015260608201526080016101ee565b6103437f000000000000000000000000000000000000000000000000000000000000000081565b6040516001600160a01b0390911681526020016101ee565b61027261056c565b6101e4610371366004612008565b610801565b610287610384366004611f6e565b610819565b6101e469d3c21bcecceda100000081565b6102726103a8366004611ea4565b610867565b6102726109b5565b6103437f000000000000000000000000000000000000000000000000000000000000000081565b6102726103ea36600461201f565b6109c6565b6102726103fd36600461208e565b610a83565b610272610b91565b6001546001600160a01b0316610343565b610272610ba1565b610272610431366004611ea4565b610d46565b6101e4610444366004611f6e565b610e5d565b6101e461016d81565b6101e4610460366004612008565b610efa565b6102726104733660046120d0565b61106a565b610272610486366004611ea4565b611756565b6103437f000000000000000000000000000000000000000000000000000000000000000081565b6101e46201518081565b6104c46117cf565b6104cc611829565b565b5f805f846040516104df9190612183565b908152604051908190036020018120906104fa908590612183565b9081526020016040518091039020905080600201545f0361051f576001915050610566565b6003810180545f9190610534906001906121b2565b81548110610544576105446121c5565b5f918252602082200154915061055a428361187b565b62015180111593505050505b92915050565b335f9081526004602052604090205460ff166105c85760405162461bcd60e51b815260206004820152601660248201527510dbdb5c185b9e481b9bdd081c9959da5cdd195c995960521b60448201526064015b60405180910390fd5b6105d061188d565b335f90815260046020526040902060020154610100900460ff16156106375760405162461bcd60e51b815260206004820152601760248201527f416c726561647920696e2073656c6c657273206c69737400000000000000000060448201526064016105bf565b335f9081526004602052604090206002015460ff16156106995760405162461bcd60e51b815260206004820152601860248201527f43616e6e6f742073656c6c207768696c6520627579696e67000000000000000060448201526064016105bf565b6040516370a0823160e01b81523360048201525f907f00000000000000000000000000000000000000000000000000000000000000006001600160a01b0316906370a0823190602401602060405180830381865afa1580156106fd573d5f803e3d5ffd5b505050506040513d601f19601f8201168201806040525081019061072191906121d9565b9050670de0b6b3a764000081101561077b5760405162461bcd60e51b815260206004820152601b60248201527f496e73756666696369656e7420636172626f6e2063726564697473000000000060448201526064016105bf565b335f81815260046020526040808220600201805461ff001916610100179055600680546001810182559083527ff652222313e28459528d920b65115c16c04f3efc82aaedc97be59f3f377c0d3f0180546001600160a01b03191684179055517f3d78526f2568d430fd8e20719601f7bc3f979936f8880236cc284e8127251b429190a250565b5f6105666127106108138460646118d3565b906118de565b5f805f8460405161082a9190612183565b90815260405190819003602001812090610845908590612183565b9081526040519081900360200190205466038d7ea4c680001091505092915050565b61086f6117cf565b6040516370a0823160e01b81523060048201525f906001600160a01b038316906370a0823190602401602060405180830381865afa1580156108b3573d5f803e3d5ffd5b505050506040513d601f19601f820116820180604052508101906108d791906121d9565b90505f81116109215760405162461bcd60e51b81526020600482015260166024820152754e6f2062616c616e636520746f20776974686472617760501b60448201526064016105bf565b816001600160a01b031663a9059cbb6109426001546001600160a01b031690565b6040516001600160e01b031960e084901b1681526001600160a01b039091166004820152602481018490526044016020604051808303815f875af115801561098c573d5f803e3d5ffd5b505050506040513d601f19601f820116820180604052508101906109b091906121f0565b505050565b6109bd6117cf565b6104cc5f6118e9565b5f846040516109d59190612183565b9081526020016040518091039020600101545f03610a2c5760405162461bcd60e51b815260206004820152601460248201527310da5d1e481b9bdd081a5b9a5d1a585b1a5e995960621b60448201526064016105bf565b5f8085604051610a3c9190612183565b90815260405190819003602001812090610a57908690612183565b908152604051908190036020019020838155600181018390559050610a7c858561193a565b5050505050565b5f82604051610a929190612183565b9081526020016040518091039020600101545f14610af25760405162461bcd60e51b815260206004820152601860248201527f4369747920616c726561647920696e697469616c697a6564000000000000000060448201526064016105bf565b805f83604051610b029190612183565b90815260200160405180910390206001018190555060645f83604051610b289190612183565b90815260405190819003602001902060020155610b4681600a6118de565b5f83604051610b559190612183565b908152602001604051809103902060030181905550425f83604051610b7a9190612183565b908152604051908190036020019020600401555050565b610b996117cf565b6104cc611a77565b335f9081526004602052604090205460ff16610bf85760405162461bcd60e51b815260206004820152601660248201527510dbdb5c185b9e481b9bdd081c9959da5cdd195c995960521b60448201526064016105bf565b610c0061188d565b335f9081526004602052604090206002015460ff1615610c5b5760405162461bcd60e51b8152602060048201526016602482015275105b1c9958591e481a5b88189d5e595c9cc81b1a5cdd60521b60448201526064016105bf565b335f90815260046020526040902060020154610100900460ff1615610cc25760405162461bcd60e51b815260206004820152601860248201527f43616e6e6f7420627579207768696c652073656c6c696e67000000000000000060448201526064016105bf565b335f81815260046020526040808220600201805460ff1916600190811790915560058054918201815583527f036b6384b5eca791c62761152d0c79bb0604c104a5fb6f4eb0703f3154bb3db00180546001600160a01b03191684179055517f6599d9dd7f97ccdc3d99ab507544f9f6ebfca20c63a7e3c018da49eeaefb164a9190a2565b610d4e6117cf565b6001600160a01b038116610da45760405162461bcd60e51b815260206004820152601760248201527f496e76616c696420636f6d70616e79206164647265737300000000000000000060448201526064016105bf565b6001600160a01b0381165f9081526004602052604090205460ff1615610e0c5760405162461bcd60e51b815260206004820152601a60248201527f436f6d70616e7920616c7265616479207265676973746572656400000000000060448201526064016105bf565b6001600160a01b0381165f81815260046020526040808220805460ff19166001178155600301829055517f62806c829f7c8d0f1563dbdcf4f05f12a6b3c0e29ab581b0ccdffd608e9939389190a250565b5f805f84604051610e6e9190612183565b90815260405190819003602001812091505f908290610e8e908690612183565b908152602001604051809103902090505f610ebf6064610813856002015486600101546118d390919063ffffffff16565b9050610ecb8686610819565b15610ee3576003830154610ee0908290611ab4565b90505b8154610ef09082906118d3565b9695505050505050565b6040805160028082526060820183525f92839291906020830190803683370190505090507f0000000000000000000000000000000000000000000000000000000000000000815f81518110610f5157610f516121c5565b60200260200101906001600160a01b031690816001600160a01b0316815250507f000000000000000000000000000000000000000000000000000000000000000081600181518110610fa557610fa56121c5565b6001600160a01b03928316602091820292909201015260405163d06ca61f60e01b81525f917f0000000000000000000000000000000000000000000000000000000000000000169063d06ca61f90611003908790869060040161220f565b5f60405180830381865afa15801561101d573d5f803e3d5ffd5b505050506040513d5f823e601f3d908101601f191682016040526110449190810190612264565b905080600181518110611059576110596121c5565b602002602001015192505050919050565b6110726117cf565b61107a61188d565b611082611abf565b83670de0b6b3a76400008110156110d45760405162461bcd60e51b8152602060048201526016602482015275151c98591948185b5bdd5b9d081d1bdbc81cdb585b1b60521b60448201526064016105bf565b69d3c21bcecceda10000008111156111275760405162461bcd60e51b8152602060048201526016602482015275547261646520616d6f756e7420746f6f206c6172676560501b60448201526064016105bf565b6001600160a01b0387165f9081526004602052604090206002015460ff166111885760405162461bcd60e51b8152602060048201526014602482015273109d5e595c881b9bdd081a5b9d195c995cdd195960621b60448201526064016105bf565b6001600160a01b0386165f90815260046020526040902060020154610100900460ff166111ef5760405162461bcd60e51b815260206004820152601560248201527414d95b1b195c881b9bdd081a5b9d195c995cdd1959605a1b60448201526064016105bf565b6040516370a0823160e01b81526001600160a01b03878116600483015286917f0000000000000000000000000000000000000000000000000000000000000000909116906370a0823190602401602060405180830381865afa158015611257573d5f803e3d5ffd5b505050506040513d601f19601f8201168201806040525081019061127b91906121d9565b10156112c95760405162461bcd60e51b815260206004820152601b60248201527f496e73756666696369656e742073656c6c65722062616c616e6365000000000060448201526064016105bf565b6040516370a0823160e01b81526001600160a01b03888116600483015285917f0000000000000000000000000000000000000000000000000000000000000000909116906370a0823190602401602060405180830381865afa158015611331573d5f803e3d5ffd5b505050506040513d601f19601f8201168201806040525081019061135591906121d9565b10156113a35760405162461bcd60e51b815260206004820152601e60248201527f496e73756666696369656e74206275796572205553442062616c616e6365000060448201526064016105bf565b5f80846040516113b39190612183565b908152604051908190036020018120906113ce908590612183565b908152602001604051809103902090506113f6600382600501546118d390919063ffffffff16565b6114018760046118d3565b1161144e5760405162461bcd60e51b815260206004820152601b60248201527f496e73756666696369656e7420636172626f6e2063726564697473000000000060448201526064016105bf565b604051636eb1769f60e11b81526001600160a01b03888116600483015230602483015287917f00000000000000000000000000000000000000000000000000000000000000009091169063dd62ed3e90604401602060405180830381865afa1580156114bc573d5f803e3d5ffd5b505050506040513d601f19601f820116820180604052508101906114e091906121d9565b101561153a5760405162461bcd60e51b8152602060048201526024808201527f496e73756666696369656e7420636172626f6e2063726564697420616c6c6f77604482015263616e636560e01b60648201526084016105bf565b604051636eb1769f60e11b81526001600160a01b03898116600483015230602483015286917f00000000000000000000000000000000000000000000000000000000000000009091169063dd62ed3e90604401602060405180830381865afa1580156115a8573d5f803e3d5ffd5b505050506040513d601f19601f820116820180604052508101906115cc91906121d9565b101561161a5760405162461bcd60e51b815260206004820152601a60248201527f496e73756666696369656e742055534420616c6c6f77616e636500000000000060448201526064016105bf565b5f61162487610efa565b90506116416103e861081361163a6032836121b2565b84906118d3565b8610156116905760405162461bcd60e51b815260206004820152601760248201527f507269636520736c69707061676520746f6f206869676800000000000000000060448201526064016105bf565b5f61169d8a8a8a8a611b16565b9050806116e55760405162461bcd60e51b8152602060048201526016602482015275151c98591948195e1958dd5d1a5bdb8819985a5b195960521b60448201526064016105bf565b6116ef8a8a611ce3565b886001600160a01b03168a6001600160a01b03167f8dcf34b4bd0ea72d3ff2d337f72665c390bdd7ef344c902c8845259c54a1fb708a8a8a8a6040516117389493929190612330565b60405180910390a35050505061174e6001600255565b505050505050565b61175e6117cf565b6001600160a01b0381166117c35760405162461bcd60e51b815260206004820152602660248201527f4f776e61626c653a206e6577206f776e657220697320746865207a65726f206160448201526564647265737360d01b60648201526084016105bf565b6117cc816118e9565b50565b6001546001600160a01b031633146104cc5760405162461bcd60e51b815260206004820181905260248201527f4f776e61626c653a2063616c6c6572206973206e6f7420746865206f776e657260448201526064016105bf565b611831611d41565b6003805460ff191690557f5db9ee0a495bf2e6ff9c91a7834c1ba4fdd244a5e8aa4e537bd38aeae4b073aa335b6040516001600160a01b03909116815260200160405180910390a1565b5f61188682846121b2565b9392505050565b60035460ff16156104cc5760405162461bcd60e51b815260206004820152601060248201526f14185d5cd8589b194e881c185d5cd95960821b60448201526064016105bf565b5f611886828461236b565b5f6118868284612382565b600180546001600160a01b038381166001600160a01b0319831681179093556040519116919082907f8be0079c531659141344cd1fd0a4f28419497f9722a3daafe3b4186f6b6457e0905f90a35050565b5f808360405161194a9190612183565b90815260405190819003602001812090611965908490612183565b9081526020016040518091039020905061197f83836104ce565b156109b0575f61198f8484610e5d565b90505f61199b82610801565b60028401549091506119ae906001611ab4565b6002840155600383018054600181810183555f9283526020808420429301929092556004860180549182018155835291200182905560058301546119f29082611ab4565b60058401556040517f2697dd2e57247d45c7bc81aa89ec5ce7df66826fd073fd5677bc01491d05266b90611a2d9087908790429087906123a1565b60405180910390a17fa766da82be27913514abf5fe031b28bde4ba71c987bc9425b9593b65a80e66b5858583604051611a68939291906123d9565b60405180910390a15050505050565b611a7f61188d565b6003805460ff191660011790557f62e78cea01bee320cd4e420270b5ea74000d11b0c9f74754ebdbfc544b05a25861185e3390565b5f611886828461240e565b6002805403611b105760405162461bcd60e51b815260206004820152601f60248201527f5265656e7472616e637947756172643a207265656e7472616e742063616c6c0060448201526064016105bf565b60028055565b6040516323b872dd60e01b81526001600160a01b0384811660048301528581166024830152604482018490525f917f0000000000000000000000000000000000000000000000000000000000000000909116906323b872dd906064016020604051808303815f875af1158015611b8e573d5f803e3d5ffd5b505050506040513d601f19601f82011682018060405250810190611bb291906121f0565b611bfe5760405162461bcd60e51b815260206004820152601d60248201527f436172626f6e20637265646974207472616e73666572206661696c656400000060448201526064016105bf565b6040516323b872dd60e01b81526001600160a01b0386811660048301528581166024830152604482018490527f000000000000000000000000000000000000000000000000000000000000000016906323b872dd906064016020604051808303815f875af1158015611c72573d5f803e3d5ffd5b505050506040513d601f19601f82011682018060405250810190611c9691906121f0565b611cd85760405162461bcd60e51b81526020600482015260136024820152721554d1081d1c985b9cd9995c8819985a5b1959606a1b60448201526064016105bf565b506001949350505050565b611cee826005611d8a565b611cf9816006611d8a565b6001600160a01b039182165f908152600460205260408082206002808201805460ff191690559390941682529020908101805461ff0019169055426003928301819055910155565b60035460ff166104cc5760405162461bcd60e51b815260206004820152601460248201527314185d5cd8589b194e881b9bdd081c185d5cd95960621b60448201526064016105bf565b5f5b81548110156109b057826001600160a01b0316828281548110611db157611db16121c5565b5f918252602090912001546001600160a01b031603611e775781548290611dda906001906121b2565b81548110611dea57611dea6121c5565b905f5260205f20015f9054906101000a90046001600160a01b0316828281548110611e1757611e176121c5565b905f5260205f20015f6101000a8154816001600160a01b0302191690836001600160a01b0316021790555081805480611e5257611e52612421565b5f8281526020902081015f1990810180546001600160a01b0319169055019055505050565b80611e8181612435565b915050611d8c565b80356001600160a01b0381168114611e9f575f80fd5b919050565b5f60208284031215611eb4575f80fd5b61188682611e89565b634e487b7160e01b5f52604160045260245ffd5b604051601f8201601f1916810167ffffffffffffffff81118282101715611efa57611efa611ebd565b604052919050565b5f82601f830112611f11575f80fd5b813567ffffffffffffffff811115611f2b57611f2b611ebd565b611f3e601f8201601f1916602001611ed1565b818152846020838601011115611f52575f80fd5b816020850160208301375f918101602001919091529392505050565b5f8060408385031215611f7f575f80fd5b823567ffffffffffffffff80821115611f96575f80fd5b611fa286838701611f02565b93506020850135915080821115611fb7575f80fd5b50611fc485828601611f02565b9150509250929050565b5f60208284031215611fde575f80fd5b813567ffffffffffffffff811115611ff4575f80fd5b61200084828501611f02565b949350505050565b5f60208284031215612018575f80fd5b5035919050565b5f805f8060808587031215612032575f80fd5b843567ffffffffffffffff80821115612049575f80fd5b61205588838901611f02565b9550602087013591508082111561206a575f80fd5b5061207787828801611f02565b949794965050505060408301359260600135919050565b5f806040838503121561209f575f80fd5b823567ffffffffffffffff8111156120b5575f80fd5b6120c185828601611f02565b95602094909401359450505050565b5f805f805f8060c087890312156120e5575f80fd5b6120ee87611e89565b95506120fc60208801611e89565b94506040870135935060608701359250608087013567ffffffffffffffff80821115612126575f80fd5b6121328a838b01611f02565b935060a0890135915080821115612147575f80fd5b5061215489828a01611f02565b9150509295509295509295565b5f5b8381101561217b578181015183820152602001612163565b50505f910152565b5f8251612194818460208701612161565b9190910192915050565b634e487b7160e01b5f52601160045260245ffd5b818103818111156105665761056661219e565b634e487b7160e01b5f52603260045260245ffd5b5f602082840312156121e9575f80fd5b5051919050565b5f60208284031215612200575f80fd5b81518015158114611886575f80fd5b5f60408201848352602060408185015281855180845260608601915082870193505f5b818110156122575784516001600160a01b031683529383019391830191600101612232565b5090979650505050505050565b5f6020808385031215612275575f80fd5b825167ffffffffffffffff8082111561228c575f80fd5b818501915085601f83011261229f575f80fd5b8151818111156122b1576122b1611ebd565b8060051b91506122c2848301611ed1565b81815291830184019184810190888411156122db575f80fd5b938501935b838510156122f9578451825293850193908501906122e0565b98975050505050505050565b5f815180845261231c816020860160208601612161565b601f01601f19169290920160200192915050565b848152836020820152608060408201525f61234e6080830185612305565b82810360608401526123608185612305565b979650505050505050565b80820281158282048414176105665761056661219e565b5f8261239c57634e487b7160e01b5f52601260045260245ffd5b500490565b608081525f6123b36080830187612305565b82810360208401526123c58187612305565b604084019590955250506060015292915050565b606081525f6123eb6060830186612305565b82810360208401526123fd8186612305565b915050826040830152949350505050565b808201808211156105665761056661219e565b634e487b7160e01b5f52603160045260245ffd5b5f600182016124465761244661219e565b506001019056fea26469706673582212203b84e1bb7d8c4a0ab11b6cacba5d0e07c378d4dff5a01f0cf5114f54f14932d064736f6c63430008140033",
  "immutableReferences": {
    "8506": [
      {
        "length": 32,
        "start": 954
      },
      {
        "length": 32,
        "start": 4044
      }
    ],
    "8508": [
      {
        "length": 32,
        "start": 801
      },
      {
        "length": 32,
        "start": 1712
      },
      {
        "length": 32,
        "start": 3872
      },
      {
        "length": 32,
        "start": 4624
      },
      {
        "length": 32,
        "start": 5237
      },
      {
        "length": 32,
        "start": 6982
      }
    ],
    "8510": [
      {
        "length": 32,
        "start": 1168
      },
      {
        "length": 32,
        "start": 3955
      },
      {
        "length": 32,
        "start": 4842
      },
      {
        "length": 32,
        "start": 5473
      },
      {
        "length": 32,
        "start": 7212
      }
    ]
  },
  "source": "// SPDX-License-Identifier: MIT\npragma solidity ^0.8.20;\n\nimport \"@openzeppelin/contracts/utils/math/SafeMath.sol\";\nimport \"@openzeppelin/contracts/token/ERC20/IERC20.sol\";\nimport \"@uniswap/v2-periphery/contracts/interfaces/IUniswapV2Router02.sol\";\nimport \"@openzeppelin/contracts/access/Ownable.sol\";\nimport \"@openzeppelin/contracts/security/ReentrancyGuard.sol\";\nimport \"@openzeppelin/contracts/security/Pausable.sol\";\n\n// Base contract for handling renewal theory calculations\ncontract RenewalTheoryContract {\n\n    \n    using SafeMath for uint256;\n\n    struct SectorData {\n        uint256 value;\n        uint256 timestamp;\n        uint256 totalRenewals;\n        uint256[] renewalTimes;\n        uint256[] creditAmounts;\n        uint256 cumulativeReduction;\n    }\n\n    struct CityData {\n        mapping(string => SectorData) sectors;\n        uint256 baseAllowance;\n        uint256 seasonalFactor;\n        uint256 emergencyBuffer;\n        uint256 lastCalculationTime;\n    }\n\n    mapping(string => CityData) public cities;\n\n    // Constants\n    uint256 public constant MIN_RENEWAL_INTERVAL = 1 days;\n    uint256 public constant MAX_RENEWAL_RATE = 365; // Daily data\n    uint256 public constant BASE_IMPACT = 100; // 1 unit in basis points\n    uint256 public constant SEASONAL_VARIATION = 20; // 20% seasonal variation\n\n    event RenewalProcessed(string city, string sector, uint256 timestamp, uint256 credits);\n    event AllowanceUpdated(string city, uint256 newAllowance);\n    event ReductionRecorded(string city, string sector, uint256 reduction);\n\n    function initializeCity(string memory city, uint256 baseAllowance) external {\n        require(cities[city].baseAllowance == 0, \"City already initialized\");\n        \n        cities[city].baseAllowance = baseAllowance;\n        cities[city].seasonalFactor = 100;\n        cities[city].emergencyBuffer = baseAllowance.div(10);\n        cities[city].lastCalculationTime = block.timestamp;\n    }\n\n    function recordSectorValue(\n        string memory city,\n        string memory sector,\n        uint256 value,\n        uint256 timestamp\n    ) external {\n        require(cities[city].baseAllowance != 0, \"City not initialized\");\n        \n        SectorData storage sectorData = cities[city].sectors[sector];\n        sectorData.value = value;\n        sectorData.timestamp = timestamp;\n        \n        processRenewal(city, sector);\n    }\n\n    function processRenewal(string memory city, string memory sector) internal {\n        SectorData storage sectorData = cities[city].sectors[sector];\n        \n        if (canRenew(city, sector)) {\n            uint256 credits = calculateCreditAmount(city, sector);\n            uint256 reduction = calculateReduction(credits);\n\n            sectorData.totalRenewals = sectorData.totalRenewals.add(1);\n            sectorData.renewalTimes.push(block.timestamp);\n            sectorData.creditAmounts.push(credits);\n            sectorData.cumulativeReduction = sectorData.cumulativeReduction.add(reduction);\n\n            emit RenewalProcessed(city, sector, block.timestamp, credits);\n            emit ReductionRecorded(city, sector, reduction);\n        }\n    }\n\n    function canRenew(string memory city, string memory sector) public view returns (bool) {\n        SectorData storage sectorData = cities[city].sectors[sector];\n        \n        if (sectorData.totalRenewals == 0) return true;\n        \n        uint256 lastRenewalTime = sectorData.renewalTimes[sectorData.renewalTimes.length - 1];\n        uint256 timeSinceLastRenewal = block.timestamp.sub(lastRenewalTime);\n        \n        return timeSinceLastRenewal >= MIN_RENEWAL_INTERVAL;\n    }\n\n    function calculateCreditAmount(string memory city, string memory sector) public view returns (uint256) {\n        CityData storage cityData = cities[city];\n        SectorData storage sectorData = cityData.sectors[sector];\n        \n        uint256 baseAmount = cityData.baseAllowance.mul(cityData.seasonalFactor).div(100);\n        \n        if (isEmergencyCondition(city, sector)) {\n            baseAmount = baseAmount.add(cityData.emergencyBuffer);\n        }\n        \n        return baseAmount.mul(sectorData.value);\n    }\n\n    function calculateReduction(uint256 credits) public pure returns (uint256) {\n        return credits.mul(BASE_IMPACT).div(1e4);\n    }\n\n    function isEmergencyCondition(string memory city, string memory sector) public view returns (bool) {\n        SectorData storage sectorData = cities[city].sectors[sector];\n        return sectorData.value > 0.001 ether; // Example threshold\n    }\n}\n\ncontract CarbonCreditMarket is RenewalTheoryContract, Ownable, ReentrancyGuard, Pausable {\n    using SafeMath for uint256;\n\n    IUniswapV2Router02 public immutable uniswapRouter;\n    address public immutable carbonCreditToken;\n    address public immutable usdToken;\n    \n    uint256 public constant MIN_TRADE_AMOUNT = 1e18;\n    uint256 public constant MAX_TRADE_AMOUNT = 1000000e18;\n    uint256 public constant SLIPPAGE_TOLERANCE = 50; // 0.5%\n\n    struct CompanyData {\n        bool isRegistered;\n        uint256 carbonCredits;\n        bool isBuying;\n        bool isSelling;\n        uint256 lastTradeTimestamp;\n    }\n\n    mapping(address => CompanyData) public companies;\n    address[] private buyersList;\n    address[] private sellersList;\n\n    event CompanyRegistered(address indexed company);\n    event BuyerAdded(address indexed buyer);\n    event SellerAdded(address indexed seller);\n    event TradeExecuted(\n        address indexed buyer,\n        address indexed seller,\n        uint256 carbonCredits,\n        uint256 usdAmount,\n        string city,\n        string sector\n    );\nconstructor(\n    address _uniswapRouter,\n    address _carbonCreditToken,\n    address _usdToken\n) {\n    require(_uniswapRouter != address(0), \"Invalid router address\");\n    require(_carbonCreditToken != address(0), \"Invalid carbon token address\");\n    require(_usdToken != address(0), \"Invalid USD token address\");\n    \n    uniswapRouter = IUniswapV2Router02(_uniswapRouter);\n    carbonCreditToken = _carbonCreditToken;\n    usdToken = _usdToken;\n    \n    _transferOwnership(msg.sender);\n}\n\n    modifier onlyRegisteredCompany() {\n        require(companies[msg.sender].isRegistered, \"Company not registered\");\n        _;\n    }\n\n    modifier validTradeAmount(uint256 amount) {\n        require(amount >= MIN_TRADE_AMOUNT, \"Trade amount too small\");\n        require(amount <= MAX_TRADE_AMOUNT, \"Trade amount too large\");\n        _;\n    }\n\n    function registerCompany(address company) external onlyOwner {\n        require(company != address(0), \"Invalid company address\");\n        require(!companies[company].isRegistered, \"Company already registered\");\n        \n        companies[company].isRegistered = true;\n        companies[company].lastTradeTimestamp = 0;\n        \n        emit CompanyRegistered(company);\n    }\n\n    function wantToBuy() external onlyRegisteredCompany whenNotPaused {\n        require(!companies[msg.sender].isBuying, \"Already in buyers list\");\n        require(!companies[msg.sender].isSelling, \"Cannot buy while selling\");\n        \n        companies[msg.sender].isBuying = true;\n        buyersList.push(msg.sender);\n        \n        emit BuyerAdded(msg.sender);\n    }\n\n    function wantToSell() external onlyRegisteredCompany whenNotPaused {\n        require(!companies[msg.sender].isSelling, \"Already in sellers list\");\n        require(!companies[msg.sender].isBuying, \"Cannot sell while buying\");\n        \n        // Check if seller has enough carbon credits\n        uint256 balance = IERC20(carbonCreditToken).balanceOf(msg.sender);\n        require(balance >= MIN_TRADE_AMOUNT, \"Insufficient carbon credits\");\n        \n        companies[msg.sender].isSelling = true;\n        sellersList.push(msg.sender);\n        \n        emit SellerAdded(msg.sender);\n    }\n\n    function trade(\n        address buyer,\n        address seller,\n        uint256 carbonCredits,\n        uint256 usdAmount,\n        string memory city,\n        string memory sector\n    ) \n        external \n        onlyOwner \n        whenNotPaused \n        nonReentrant \n        validTradeAmount(carbonCredits) \n    {\n        require(companies[buyer].isBuying, \"Buyer not interested\");\n        require(companies[seller].isSelling, \"Seller not interested\");\n        require(\n            IERC20(carbonCreditToken).balanceOf(seller) >= carbonCredits,\n            \"Insufficient seller balance\"\n        );\n        require(\n            IERC20(usdToken).balanceOf(buyer) >= usdAmount,\n            \"Insufficient buyer USD balance\"\n        );\n        \n        SectorData storage sectorData = cities[city].sectors[sector];\n        require(\n            carbonCredits.mul(4) > sectorData.cumulativeReduction.mul(3),\n            \"Insufficient carbon credits\"\n        );\n\n        // Check for allowances\n        require(\n            IERC20(carbonCreditToken).allowance(seller, address(this)) >= carbonCredits,\n            \"Insufficient carbon credit allowance\"\n        );\n        require(\n            IERC20(usdToken).allowance(buyer, address(this)) >= usdAmount,\n            \"Insufficient USD allowance\"\n        );\n\n        // Get expected swap amount\n        uint256 expectedAmount = getExpectedSwapAmount(carbonCredits);\n        require(\n            usdAmount >= expectedAmount.mul(1000 - SLIPPAGE_TOLERANCE).div(1000),\n            \"Price slippage too high\"\n        );\n\n        // Execute trades\n        bool success = executeTokenTransfers(buyer, seller, carbonCredits, usdAmount);\n        require(success, \"Trade execution failed\");\n\n        // Update company status\n        updateTradeStatus(buyer, seller);\n        \n        emit TradeExecuted(buyer, seller, carbonCredits, usdAmount, city, sector);\n    }\n\n    function executeTokenTransfers(\n        address buyer,\n        address seller,\n        uint256 carbonCredits,\n        uint256 usdAmount\n    ) private returns (bool) {\n        // Transfer carbon credits\n        require(\n            IERC20(carbonCreditToken).transferFrom(seller, buyer, carbonCredits),\n            \"Carbon credit transfer failed\"\n        );\n        \n        // Transfer USD\n        require(\n            IERC20(usdToken).transferFrom(buyer, seller, usdAmount),\n            \"USD transfer failed\"\n        );\n        \n        return true;\n    }\n\n    function updateTradeStatus(address buyer, address seller) private {\n        removeFromList(buyer, buyersList);\n        removeFromList(seller, sellersList);\n        \n        companies[buyer].isBuying = false;\n        companies[seller].isSelling = false;\n        companies[buyer].lastTradeTimestamp = block.timestamp;\n        companies[seller].lastTradeTimestamp = block.timestamp;\n    }\n\n    function removeFromList(address company, address[] storage list) private {\n        for (uint256 i = 0; i < list.length; i++) {\n            if (list[i] == company) {\n                list[i] = list[list.length - 1];\n                list.pop();\n                break;\n            }\n        }\n    }\n\n    function getExpectedSwapAmount(uint256 carbonCredits) public view returns (uint256) {\n        address[] memory path = new address[](2);\n        path[0] = carbonCreditToken;\n        path[1] = usdToken;\n        \n        uint256[] memory amounts = uniswapRouter.getAmountsOut(carbonCredits, path);\n        return amounts[1];\n    }\n\n    function pause() external onlyOwner {\n        _pause();\n    }\n\n    function unpause() external onlyOwner {\n        _unpause();\n    }\n\n    // Emergency withdrawal function\n    function emergencyWithdraw(address token) external onlyOwner {\n        uint256 balance = IERC20(token).balanceOf(address(this));\n        require(balance > 0, \"No balance to withdraw\");\n        IERC20(token).transfer(owner(), balance);\n    }\n}\n",
  "sourcePath": "C:\\Users\\Bonsu\\Documents\\CLEANER PRODUCTION\\renewalclimateproject\\ClimateProjectFull\\contracts\\climate\\RenewalTheoryContract.sol",
  "compiler": {
    "name": "solc",
    "version": "0.8.20+commit.a1b79de6.Emscripten.clang"
  },
  "schemaVersion": "3.4.16",
  "updatedAt": "2025-02-21T06:43:13.887Z",
  "devdoc": {
    "events": {
      "Paused(address)": {
        "details": "Emitted when the pause is triggered by `account`."
      },
      "Unpaused(address)": {
        "details": "Emitted when the pause is lifted by `account`."
      }
    },
    "kind": "dev",
    "methods": {
      "owner()": {
        "details": "Returns the address of the current owner."
      },
      "paused()": {
        "details": "Returns true if the contract is paused, and false otherwise."
      },
      "renounceOwnership()": {
        "details": "Leaves the contract without owner. It will not be possible to call `onlyOwner` functions. Can only be called by the current owner. NOTE: Renouncing ownership will leave the contract without an owner, thereby disabling any functionality that is only available to the owner."
      },
      "transferOwnership(address)": {
        "details": "Transfers ownership of the contract to a new account (`newOwner`). Can only be called by the current owner."
      }
    },
    "version": 1
  },
  "userdoc": {
    "kind": "user",
    "methods": {},
    "version": 1
  }
}