{
  "contractName": "CityEmissionsContract",
  "abi": [
    {
      "anonymous": false,
      "inputs": [
        {
          "indexed": false,
          "internalType": "string",
          "name": "city",
          "type": "string"
        },
        {
          "indexed": false,
          "internalType": "uint256",
          "name": "amount",
          "type": "uint256"
        },
        {
          "indexed": false,
          "internalType": "uint256",
          "name": "cost",
          "type": "uint256"
        }
      ],
      "name": "CarbonCreditRequested",
      "type": "event"
    },
    {
      "anonymous": false,
      "inputs": [
        {
          "indexed": false,
          "internalType": "string",
          "name": "city",
          "type": "string"
        },
        {
          "indexed": false,
          "internalType": "uint256",
          "name": "timestamp",
          "type": "uint256"
        },
        {
          "indexed": false,
          "internalType": "string",
          "name": "sector",
          "type": "string"
        },
        {
          "indexed": false,
          "internalType": "uint256",
          "name": "value",
          "type": "uint256"
        }
      ],
      "name": "EmissionDataAdded",
      "type": "event"
    },
    {
      "anonymous": false,
      "inputs": [
        {
          "indexed": false,
          "internalType": "string",
          "name": "city",
          "type": "string"
        },
        {
          "indexed": false,
          "internalType": "uint256",
          "name": "timestamp",
          "type": "uint256"
        },
        {
          "indexed": false,
          "internalType": "uint256",
          "name": "creditsUsed",
          "type": "uint256"
        }
      ],
      "name": "RenewalProcessed",
      "type": "event"
    },
    {
      "inputs": [],
      "name": "BASE_CREDIT_COST",
      "outputs": [
        {
          "internalType": "uint256",
          "name": "",
          "type": "uint256"
        }
      ],
      "stateMutability": "view",
      "type": "function"
    },
    {
      "inputs": [],
      "name": "CARBON_TO_TEMP_FACTOR",
      "outputs": [
        {
          "internalType": "uint256",
          "name": "",
          "type": "uint256"
        }
      ],
      "stateMutability": "view",
      "type": "function"
    },
    {
      "inputs": [],
      "name": "MAX_RENEWALS",
      "outputs": [
        {
          "internalType": "uint256",
          "name": "",
          "type": "uint256"
        }
      ],
      "stateMutability": "view",
      "type": "function"
    },
    {
      "inputs": [],
      "name": "RENEWAL_PERIOD",
      "outputs": [
        {
          "internalType": "uint256",
          "name": "",
          "type": "uint256"
        }
      ],
      "stateMutability": "view",
      "type": "function"
    },
    {
      "inputs": [],
      "name": "TEMP_REDUCTION_PER_CREDIT",
      "outputs": [
        {
          "internalType": "uint256",
          "name": "",
          "type": "uint256"
        }
      ],
      "stateMutability": "view",
      "type": "function"
    },
    {
      "inputs": [
        {
          "internalType": "string",
          "name": "",
          "type": "string"
        },
        {
          "internalType": "uint256",
          "name": "",
          "type": "uint256"
        }
      ],
      "name": "cityEmissionTimestamps",
      "outputs": [
        {
          "internalType": "uint256",
          "name": "",
          "type": "uint256"
        }
      ],
      "stateMutability": "view",
      "type": "function"
    },
    {
      "inputs": [
        {
          "internalType": "string",
          "name": "",
          "type": "string"
        },
        {
          "internalType": "uint256",
          "name": "",
          "type": "uint256"
        }
      ],
      "name": "cityEmissions",
      "outputs": [
        {
          "internalType": "uint256",
          "name": "timestamp",
          "type": "uint256"
        },
        {
          "internalType": "string",
          "name": "sector",
          "type": "string"
        },
        {
          "internalType": "uint256",
          "name": "value",
          "type": "uint256"
        },
        {
          "internalType": "uint256",
          "name": "airQualityIndex",
          "type": "uint256"
        },
        {
          "internalType": "uint256",
          "name": "temperature",
          "type": "uint256"
        }
      ],
      "stateMutability": "view",
      "type": "function"
    },
    {
      "inputs": [
        {
          "internalType": "string",
          "name": "",
          "type": "string"
        }
      ],
      "name": "cityMetrics",
      "outputs": [
        {
          "internalType": "uint256",
          "name": "totalEmissions",
          "type": "uint256"
        },
        {
          "internalType": "uint256",
          "name": "averageTemperature",
          "type": "uint256"
        },
        {
          "internalType": "uint256",
          "name": "averageAQI",
          "type": "uint256"
        },
        {
          "internalType": "uint256",
          "name": "lastUpdateTime",
          "type": "uint256"
        },
        {
          "internalType": "uint256",
          "name": "carbonCreditsRequested",
          "type": "uint256"
        },
        {
          "internalType": "uint256",
          "name": "renewalCount",
          "type": "uint256"
        },
        {
          "internalType": "uint256",
          "name": "lastRenewalTime",
          "type": "uint256"
        }
      ],
      "stateMutability": "view",
      "type": "function"
    },
    {
      "inputs": [
        {
          "internalType": "string",
          "name": "city",
          "type": "string"
        },
        {
          "internalType": "uint256",
          "name": "timestamp",
          "type": "uint256"
        },
        {
          "internalType": "string",
          "name": "sector",
          "type": "string"
        },
        {
          "internalType": "uint256",
          "name": "value",
          "type": "uint256"
        },
        {
          "internalType": "uint256",
          "name": "aqi",
          "type": "uint256"
        }
      ],
      "name": "addEmissionData",
      "outputs": [],
      "stateMutability": "nonpayable",
      "type": "function"
    },
    {
      "inputs": [
        {
          "internalType": "uint256",
          "name": "emissions",
          "type": "uint256"
        }
      ],
      "name": "calculateTemperature",
      "outputs": [
        {
          "internalType": "uint256",
          "name": "",
          "type": "uint256"
        }
      ],
      "stateMutability": "pure",
      "type": "function"
    },
    {
      "inputs": [
        {
          "internalType": "string",
          "name": "city",
          "type": "string"
        }
      ],
      "name": "calculateRequiredCredits",
      "outputs": [
        {
          "internalType": "uint256",
          "name": "",
          "type": "uint256"
        }
      ],
      "stateMutability": "view",
      "type": "function"
    },
    {
      "inputs": [
        {
          "internalType": "string",
          "name": "city",
          "type": "string"
        }
      ],
      "name": "requestCarbonCredits",
      "outputs": [
        {
          "internalType": "uint256",
          "name": "",
          "type": "uint256"
        }
      ],
      "stateMutability": "payable",
      "type": "function"
    },
    {
      "inputs": [
        {
          "internalType": "string",
          "name": "city",
          "type": "string"
        }
      ],
      "name": "getCityMetrics",
      "outputs": [
        {
          "internalType": "uint256",
          "name": "totalEmissions",
          "type": "uint256"
        },
        {
          "internalType": "uint256",
          "name": "avgTemp",
          "type": "uint256"
        },
        {
          "internalType": "uint256",
          "name": "avgAQI",
          "type": "uint256"
        },
        {
          "internalType": "uint256",
          "name": "creditsRequested",
          "type": "uint256"
        },
        {
          "internalType": "uint256",
          "name": "renewals",
          "type": "uint256"
        }
      ],
      "stateMutability": "view",
      "type": "function"
    }
  ],
  "bytecode": "0x608060405234801561000f575f80fd5b50610d8e8061001d5f395ff3fe6080604052600436106100bf575f3560e01c80637eb6f99b1161007c578063b409be1d11610057578063b409be1d14610279578063b85bde781461028c578063e23ca01c146102a0578063fc9d4b01146102b6575f80fd5b80637eb6f99b1461017857806382bb5e90146101975780639835253214610232575f80fd5b8063100b7d2e146100c35780633b487fb6146100f55780634ac5b0e5146101095780634b34dcfa1461011d57806350a6c139146101385780636d87787f14610157575b5f80fd5b3480156100ce575f80fd5b506100e26100dd36600461099d565b6102e6565b6040519081526020015b60405180910390f35b348015610100575f80fd5b506100e2606481565b348015610114575f80fd5b506100e2600181565b348015610128575f80fd5b506100e2670de0b6b3a764000081565b348015610143575f80fd5b506100e26101523660046109df565b610322565b348015610162575f80fd5b506101766101713660046109f6565b610342565b005b348015610183575f80fd5b506100e2610192366004610a6f565b61045a565b3480156101a2575f80fd5b506101fd6101b1366004610a6f565b8051602081830181018051600180835293830192909401919091209290528154908201546002830154600384015460048501546005860154600690960154949593949293919290919087565b604080519788526020880196909652948601939093526060850191909152608084015260a083015260c082015260e0016100ec565b34801561023d575f80fd5b5061025161024c366004610a6f565b610506565b604080519586526020860194909452928401919091526060830152608082015260a0016100ec565b6100e2610287366004610a6f565b610554565b348015610297575f80fd5b506100e2600c81565b3480156102ab575f80fd5b506100e262278d0081565b3480156102c1575f80fd5b506102d56102d036600461099d565b610765565b6040516100ec959493929190610af6565b81516020818401810180516002825292820191850191909120919052805482908110610310575f80fd5b905f5260205f20015f91509150505481565b5f6105dc61033b610334846064610832565b8290610846565b9392505050565b5f61034c83610322565b90506040518060a00160405280868152602001858152602001848152602001838152602001828152505f876040516103849190610b2b565b90815260408051602092819003830190205f89815290835220825181559082015160018201906103b49082610bcc565b506040820151816002015560608201518160030155608082015181600401559050506002866040516103e69190610b2b565b9081526040516020918190038201902080546001810182555f9182529190200185905561041586848484610851565b7fb37fd5de95228ee1783618422dddd4a9736a54cd7d8f134270249790ded19bb38686868660405161044a9493929190610c88565b60405180910390a1505050505050565b5f8060018360405161046c9190610b2b565b908152602001604051809103902090505f8160030154116104c75760405162461bcd60e51b815260206004820152601060248201526f4e6f206461746120666f72206369747960801b60448201526064015b60405180910390fd5b60018101546107d09081106104df57505f9392505050565b60018201545f906104f090836108ea565b90506104fd8160016108f5565b95945050505050565b5f805f805f8060018760405161051c9190610b2b565b9081526040519081900360200190208054600182015460028301546004840154600590940154929b919a509850919650945092505050565b5f806001836040516105669190610b2b565b9081526020016040518091039020905062278d006105918260060154426108ea90919063ffffffff16565b10156105df5760405162461bcd60e51b815260206004820152601a60248201527f52656e6577616c20706572696f64206e6f7420656c617073656400000000000060448201526064016104be565b600c81600501541061062a5760405162461bcd60e51b815260206004820152601460248201527313585e081c995b995dd85b1cc81c995858da195960621b60448201526064016104be565b5f6106348461045a565b90505f61064982670de0b6b3a7640000610832565b9050803410156106925760405162461bcd60e51b8152602060048201526014602482015273125b9cdd59999a58da595b9d081c185e5b595b9d60621b60448201526064016104be565b60048301546106a19083610846565b600484015560058301546106b6906001610846565b60058401554260068401555f6106cd836001610832565b60018501549091506106df90826108ea565b60018501556040517f77a56a79a2e33ce5e37a17632d54879e3813500a540a8890deeb2edcc34419429061071890889086908690610cc4565b60405180910390a17f38dc947acda60479cdd86a6a8dfbb8764cec009254767acace38cf223195aa8e86428560405161075393929190610cc4565b60405180910390a15090949350505050565b81516020818401810180515f8083529383019583019590952094905292909252815260409020805460018201805491929161079f90610b46565b80601f01602080910402602001604051908101604052809291908181526020018280546107cb90610b46565b80156108165780601f106107ed57610100808354040283529160200191610816565b820191905f5260205f20905b8154815290600101906020018083116107f957829003601f168201915b5050505050908060020154908060030154908060040154905085565b5f61083d8284610cfc565b90505b92915050565b5f61083d8284610d13565b5f6001856040516108629190610b2b565b9081526020016040518091039020905080600301545f036108935783815560018101829055600281018390556108dd565b805461089f9085610846565b815560018101546108bd906002906108b79085610846565b906108f5565b60018201556002808201546108d791906108b79086610846565b60028201555b4260039091015550505050565b5f61083d8284610d26565b5f61083d8284610d39565b634e487b7160e01b5f52604160045260245ffd5b5f82601f830112610923575f80fd5b813567ffffffffffffffff8082111561093e5761093e610900565b604051601f8301601f19908116603f0116810190828211818310171561096657610966610900565b8160405283815286602085880101111561097e575f80fd5b836020870160208301375f602085830101528094505050505092915050565b5f80604083850312156109ae575f80fd5b823567ffffffffffffffff8111156109c4575f80fd5b6109d085828601610914565b95602094909401359450505050565b5f602082840312156109ef575f80fd5b5035919050565b5f805f805f60a08688031215610a0a575f80fd5b853567ffffffffffffffff80821115610a21575f80fd5b610a2d89838a01610914565b9650602088013595506040880135915080821115610a49575f80fd5b50610a5688828901610914565b9598949750949560608101359550608001359392505050565b5f60208284031215610a7f575f80fd5b813567ffffffffffffffff811115610a95575f80fd5b610aa184828501610914565b949350505050565b5f5b83811015610ac3578181015183820152602001610aab565b50505f910152565b5f8151808452610ae2816020860160208601610aa9565b601f01601f19169290920160200192915050565b85815260a060208201525f610b0e60a0830187610acb565b604083019590955250606081019290925260809091015292915050565b5f8251610b3c818460208701610aa9565b9190910192915050565b600181811c90821680610b5a57607f821691505b602082108103610b7857634e487b7160e01b5f52602260045260245ffd5b50919050565b601f821115610bc7575f81815260208120601f850160051c81016020861015610ba45750805b601f850160051c820191505b81811015610bc357828155600101610bb0565b5050505b505050565b815167ffffffffffffffff811115610be657610be6610900565b610bfa81610bf48454610b46565b84610b7e565b602080601f831160018114610c2d575f8415610c165750858301515b5f19600386901b1c1916600185901b178555610bc3565b5f85815260208120601f198616915b82811015610c5b57888601518255948401946001909101908401610c3c565b5085821015610c7857878501515f19600388901b60f8161c191681555b5050505050600190811b01905550565b608081525f610c9a6080830187610acb565b8560208401528281036040840152610cb28186610acb565b91505082606083015295945050505050565b606081525f610cd66060830186610acb565b60208301949094525060400152919050565b634e487b7160e01b5f52601160045260245ffd5b808202811582820484141761084057610840610ce8565b8082018082111561084057610840610ce8565b8181038181111561084057610840610ce8565b5f82610d5357634e487b7160e01b5f52601260045260245ffd5b50049056fea2646970667358221220951a55695ec4220ca07a9fe4ef7f546e403225631238f0e40fabeb57bbf263e664736f6c63430008140033",
  "immutableReferences": {},
  "source": "// SPDX-License-Identifier: MIT\npragma solidity ^0.8.0;\n\nimport \"@openzeppelin/contracts/utils/math/SafeMath.sol\";\n\ncontract CityEmissionsContract {\n    using SafeMath for uint256;\n\n    struct EmissionData {\n        uint256 timestamp;\n        string sector;\n        uint256 value;\n        uint256 airQualityIndex;\n        uint256 temperature;    // in Celsius * 100 for precision\n    }\n\n    struct CityMetrics {\n        uint256 totalEmissions;\n        uint256 averageTemperature;\n        uint256 averageAQI;\n        uint256 lastUpdateTime;\n        uint256 carbonCreditsRequested;\n        uint256 renewalCount;\n        uint256 lastRenewalTime;\n    }\n\n    // Constants\n    uint256 public constant RENEWAL_PERIOD = 30 days;\n    uint256 public constant MAX_RENEWALS = 12;  // Maximum renewals per year\n    uint256 public constant TEMP_REDUCTION_PER_CREDIT = 1;  // 0.01C per credit\n    uint256 public constant BASE_CREDIT_COST = 1 ether;\n    uint256 public constant CARBON_TO_TEMP_FACTOR = 100;  // Conversion factor\n\n    mapping(string => mapping(uint256 => EmissionData)) public cityEmissions;\n    mapping(string => CityMetrics) public cityMetrics;\n    mapping(string => uint256[]) public cityEmissionTimestamps;\n\n    event EmissionDataAdded(string city, uint256 timestamp, string sector, uint256 value);\n    event CarbonCreditRequested(string city, uint256 amount, uint256 cost);\n    event RenewalProcessed(string city, uint256 timestamp, uint256 creditsUsed);\n\n    // Add emission data for a city\n    function addEmissionData(\n        string memory city,\n        uint256 timestamp,\n        string memory sector,\n        uint256 value,\n        uint256 aqi\n    ) external {\n        // Calculate temperature based on emissions (simplified formula)\n        uint256 temperature = calculateTemperature(value);\n        \n        cityEmissions[city][timestamp] = EmissionData({\n            timestamp: timestamp,\n            sector: sector,\n            value: value,\n            airQualityIndex: aqi,\n            temperature: temperature\n        });\n\n        cityEmissionTimestamps[city].push(timestamp);\n        updateCityMetrics(city, value, aqi, temperature);\n        \n        emit EmissionDataAdded(city, timestamp, sector, value);\n    }\n\n    // Calculate temperature from emissions using simplified formula\n    function calculateTemperature(uint256 emissions) public pure returns (uint256) {\n        // T = T_base + (emissions * CARBON_TO_TEMP_FACTOR)\n        uint256 baseTemp = 1500; // 15.00C\n        return baseTemp.add(emissions.mul(CARBON_TO_TEMP_FACTOR));\n    }\n\n    // Update city metrics\n    function updateCityMetrics(\n        string memory city,\n        uint256 newEmissions,\n        uint256 newAQI,\n        uint256 newTemp\n    ) internal {\n        CityMetrics storage metrics = cityMetrics[city];\n        \n        if (metrics.lastUpdateTime == 0) {\n            metrics.totalEmissions = newEmissions;\n            metrics.averageTemperature = newTemp;\n            metrics.averageAQI = newAQI;\n        } else {\n            metrics.totalEmissions = metrics.totalEmissions.add(newEmissions);\n            metrics.averageTemperature = (metrics.averageTemperature.add(newTemp)).div(2);\n            metrics.averageAQI = (metrics.averageAQI.add(newAQI)).div(2);\n        }\n        \n        metrics.lastUpdateTime = block.timestamp;\n    }\n\n    // Calculate required carbon credits based on renewal theory\n    function calculateRequiredCredits(string memory city) public view returns (uint256) {\n        CityMetrics storage metrics = cityMetrics[city];\n        require(metrics.lastUpdateTime > 0, \"No data for city\");\n\n        // Calculate based on temperature difference from target (20C)\n        uint256 targetTemp = 2000; // 20.00C\n        if (metrics.averageTemperature <= targetTemp) return 0;\n\n        uint256 tempDiff = metrics.averageTemperature.sub(targetTemp);\n        return tempDiff.div(TEMP_REDUCTION_PER_CREDIT);\n    }\n\n    // Request carbon credits using renewal theory\n    function requestCarbonCredits(string memory city) external payable returns (uint256) {\n        CityMetrics storage metrics = cityMetrics[city];\n        require(block.timestamp.sub(metrics.lastRenewalTime) >= RENEWAL_PERIOD, \"Renewal period not elapsed\");\n        require(metrics.renewalCount < MAX_RENEWALS, \"Max renewals reached\");\n\n        uint256 requiredCredits = calculateRequiredCredits(city);\n        uint256 cost = requiredCredits.mul(BASE_CREDIT_COST);\n        require(msg.value >= cost, \"Insufficient payment\");\n\n        metrics.carbonCreditsRequested = metrics.carbonCreditsRequested.add(requiredCredits);\n        metrics.renewalCount = metrics.renewalCount.add(1);\n        metrics.lastRenewalTime = block.timestamp;\n\n        // Calculate temperature reduction\n        uint256 tempReduction = requiredCredits.mul(TEMP_REDUCTION_PER_CREDIT);\n        metrics.averageTemperature = metrics.averageTemperature.sub(tempReduction);\n\n        emit CarbonCreditRequested(city, requiredCredits, cost);\n        emit RenewalProcessed(city, block.timestamp, requiredCredits);\n\n        return requiredCredits;\n    }\n\n    // Get city metrics\n    function getCityMetrics(string memory city) external view returns (\n        uint256 totalEmissions,\n        uint256 avgTemp,\n        uint256 avgAQI,\n        uint256 creditsRequested,\n        uint256 renewals\n    ) {\n        CityMetrics storage metrics = cityMetrics[city];\n        return (\n            metrics.totalEmissions,\n            metrics.averageTemperature,\n            metrics.averageAQI,\n            metrics.carbonCreditsRequested,\n            metrics.renewalCount\n        );\n    }\n}\n",
  "sourcePath": "C:\\Users\\Bonsu\\Documents\\CLEANER PRODUCTION\\renewalclimateproject\\ClimateProjectFull\\contracts\\climate\\CityEmissionsContract.sol",
  "compiler": {
    "name": "solc",
    "version": "0.8.20+commit.a1b79de6.Emscripten.clang"
  },
  "schemaVersion": "3.4.16",
  "updatedAt": "2025-02-21T06:43:13.857Z",
  "devdoc": {
    "kind": "dev",
    "methods": {},
    "version": 1
  },
  "userdoc": {
    "kind": "user",
    "methods": {},
    "version": 1
  }
}