{
  "contractName": "CityRegister",
  "abi": [
    {
      "inputs": [
        {
          "internalType": "string",
          "name": "name",
          "type": "string"
        },
        {
          "internalType": "string",
          "name": "symbol",
          "type": "string"
        }
      ],
      "stateMutability": "nonpayable",
      "type": "constructor"
    },
    {
      "anonymous": false,
      "inputs": [
        {
          "indexed": true,
          "internalType": "address",
          "name": "owner",
          "type": "address"
        },
        {
          "indexed": true,
          "internalType": "address",
          "name": "spender",
          "type": "address"
        },
        {
          "indexed": false,
          "internalType": "uint256",
          "name": "value",
          "type": "uint256"
        }
      ],
      "name": "Approval",
      "type": "event"
    },
    {
      "anonymous": false,
      "inputs": [
        {
          "indexed": true,
          "internalType": "string",
          "name": "cityName",
          "type": "string"
        },
        {
          "indexed": false,
          "internalType": "uint256",
          "name": "timestamp",
          "type": "uint256"
        }
      ],
      "name": "CityRegistered",
      "type": "event"
    },
    {
      "anonymous": false,
      "inputs": [
        {
          "indexed": true,
          "internalType": "string",
          "name": "cityName",
          "type": "string"
        },
        {
          "indexed": true,
          "internalType": "string",
          "name": "sector",
          "type": "string"
        },
        {
          "indexed": false,
          "internalType": "uint256",
          "name": "timestamp",
          "type": "uint256"
        },
        {
          "indexed": false,
          "internalType": "uint256",
          "name": "value",
          "type": "uint256"
        }
      ],
      "name": "DailyDataRecorded",
      "type": "event"
    },
    {
      "anonymous": false,
      "inputs": [
        {
          "indexed": true,
          "internalType": "address",
          "name": "previousOwner",
          "type": "address"
        },
        {
          "indexed": true,
          "internalType": "address",
          "name": "newOwner",
          "type": "address"
        }
      ],
      "name": "OwnershipTransferred",
      "type": "event"
    },
    {
      "anonymous": false,
      "inputs": [
        {
          "indexed": true,
          "internalType": "string",
          "name": "cityName",
          "type": "string"
        },
        {
          "indexed": true,
          "internalType": "string",
          "name": "sectorName",
          "type": "string"
        },
        {
          "indexed": false,
          "internalType": "uint256",
          "name": "timestamp",
          "type": "uint256"
        }
      ],
      "name": "SectorAdded",
      "type": "event"
    },
    {
      "anonymous": false,
      "inputs": [
        {
          "indexed": true,
          "internalType": "address",
          "name": "from",
          "type": "address"
        },
        {
          "indexed": true,
          "internalType": "address",
          "name": "to",
          "type": "address"
        },
        {
          "indexed": false,
          "internalType": "uint256",
          "name": "value",
          "type": "uint256"
        }
      ],
      "name": "Transfer",
      "type": "event"
    },
    {
      "inputs": [],
      "name": "ROLLING_AVERAGE_DAYS",
      "outputs": [
        {
          "internalType": "uint256",
          "name": "",
          "type": "uint256"
        }
      ],
      "stateMutability": "view",
      "type": "function"
    },
    {
      "inputs": [],
      "name": "SCALE_FACTOR",
      "outputs": [
        {
          "internalType": "uint256",
          "name": "",
          "type": "uint256"
        }
      ],
      "stateMutability": "view",
      "type": "function"
    },
    {
      "inputs": [
        {
          "internalType": "address",
          "name": "owner",
          "type": "address"
        },
        {
          "internalType": "address",
          "name": "spender",
          "type": "address"
        }
      ],
      "name": "allowance",
      "outputs": [
        {
          "internalType": "uint256",
          "name": "",
          "type": "uint256"
        }
      ],
      "stateMutability": "view",
      "type": "function"
    },
    {
      "inputs": [
        {
          "internalType": "address",
          "name": "spender",
          "type": "address"
        },
        {
          "internalType": "uint256",
          "name": "amount",
          "type": "uint256"
        }
      ],
      "name": "approve",
      "outputs": [
        {
          "internalType": "bool",
          "name": "",
          "type": "bool"
        }
      ],
      "stateMutability": "nonpayable",
      "type": "function"
    },
    {
      "inputs": [
        {
          "internalType": "address",
          "name": "account",
          "type": "address"
        }
      ],
      "name": "balanceOf",
      "outputs": [
        {
          "internalType": "uint256",
          "name": "",
          "type": "uint256"
        }
      ],
      "stateMutability": "view",
      "type": "function"
    },
    {
      "inputs": [
        {
          "internalType": "string",
          "name": "",
          "type": "string"
        }
      ],
      "name": "cities",
      "outputs": [
        {
          "internalType": "string",
          "name": "name",
          "type": "string"
        },
        {
          "internalType": "bool",
          "name": "isRegistered",
          "type": "bool"
        },
        {
          "internalType": "uint256",
          "name": "registrationDate",
          "type": "uint256"
        }
      ],
      "stateMutability": "view",
      "type": "function"
    },
    {
      "inputs": [],
      "name": "decimals",
      "outputs": [
        {
          "internalType": "uint8",
          "name": "",
          "type": "uint8"
        }
      ],
      "stateMutability": "view",
      "type": "function"
    },
    {
      "inputs": [
        {
          "internalType": "address",
          "name": "spender",
          "type": "address"
        },
        {
          "internalType": "uint256",
          "name": "subtractedValue",
          "type": "uint256"
        }
      ],
      "name": "decreaseAllowance",
      "outputs": [
        {
          "internalType": "bool",
          "name": "",
          "type": "bool"
        }
      ],
      "stateMutability": "nonpayable",
      "type": "function"
    },
    {
      "inputs": [
        {
          "internalType": "address",
          "name": "spender",
          "type": "address"
        },
        {
          "internalType": "uint256",
          "name": "addedValue",
          "type": "uint256"
        }
      ],
      "name": "increaseAllowance",
      "outputs": [
        {
          "internalType": "bool",
          "name": "",
          "type": "bool"
        }
      ],
      "stateMutability": "nonpayable",
      "type": "function"
    },
    {
      "inputs": [],
      "name": "name",
      "outputs": [
        {
          "internalType": "string",
          "name": "",
          "type": "string"
        }
      ],
      "stateMutability": "view",
      "type": "function"
    },
    {
      "inputs": [],
      "name": "owner",
      "outputs": [
        {
          "internalType": "address",
          "name": "",
          "type": "address"
        }
      ],
      "stateMutability": "view",
      "type": "function"
    },
    {
      "inputs": [
        {
          "internalType": "uint256",
          "name": "",
          "type": "uint256"
        }
      ],
      "name": "registeredCityNames",
      "outputs": [
        {
          "internalType": "string",
          "name": "",
          "type": "string"
        }
      ],
      "stateMutability": "view",
      "type": "function"
    },
    {
      "inputs": [],
      "name": "renounceOwnership",
      "outputs": [],
      "stateMutability": "nonpayable",
      "type": "function"
    },
    {
      "inputs": [],
      "name": "symbol",
      "outputs": [
        {
          "internalType": "string",
          "name": "",
          "type": "string"
        }
      ],
      "stateMutability": "view",
      "type": "function"
    },
    {
      "inputs": [],
      "name": "totalSupply",
      "outputs": [
        {
          "internalType": "uint256",
          "name": "",
          "type": "uint256"
        }
      ],
      "stateMutability": "view",
      "type": "function"
    },
    {
      "inputs": [
        {
          "internalType": "address",
          "name": "to",
          "type": "address"
        },
        {
          "internalType": "uint256",
          "name": "amount",
          "type": "uint256"
        }
      ],
      "name": "transfer",
      "outputs": [
        {
          "internalType": "bool",
          "name": "",
          "type": "bool"
        }
      ],
      "stateMutability": "nonpayable",
      "type": "function"
    },
    {
      "inputs": [
        {
          "internalType": "address",
          "name": "from",
          "type": "address"
        },
        {
          "internalType": "address",
          "name": "to",
          "type": "address"
        },
        {
          "internalType": "uint256",
          "name": "amount",
          "type": "uint256"
        }
      ],
      "name": "transferFrom",
      "outputs": [
        {
          "internalType": "bool",
          "name": "",
          "type": "bool"
        }
      ],
      "stateMutability": "nonpayable",
      "type": "function"
    },
    {
      "inputs": [
        {
          "internalType": "address",
          "name": "newOwner",
          "type": "address"
        }
      ],
      "name": "transferOwnership",
      "outputs": [],
      "stateMutability": "nonpayable",
      "type": "function"
    },
    {
      "inputs": [
        {
          "internalType": "string",
          "name": "cityName",
          "type": "string"
        }
      ],
      "name": "registerCity",
      "outputs": [],
      "stateMutability": "nonpayable",
      "type": "function"
    },
    {
      "inputs": [
        {
          "internalType": "string",
          "name": "cityName",
          "type": "string"
        },
        {
          "internalType": "string",
          "name": "sectorName",
          "type": "string"
        }
      ],
      "name": "addSector",
      "outputs": [],
      "stateMutability": "nonpayable",
      "type": "function"
    },
    {
      "inputs": [
        {
          "internalType": "string",
          "name": "cityName",
          "type": "string"
        },
        {
          "internalType": "string",
          "name": "sectorName",
          "type": "string"
        },
        {
          "internalType": "uint256",
          "name": "timestamp",
          "type": "uint256"
        },
        {
          "internalType": "uint256",
          "name": "value",
          "type": "uint256"
        }
      ],
      "name": "recordDailyValue",
      "outputs": [],
      "stateMutability": "nonpayable",
      "type": "function"
    },
    {
      "inputs": [
        {
          "internalType": "string",
          "name": "cityName",
          "type": "string"
        },
        {
          "internalType": "string",
          "name": "sectorName",
          "type": "string"
        }
      ],
      "name": "getSectorStats",
      "outputs": [
        {
          "internalType": "uint256",
          "name": "totalRecordings",
          "type": "uint256"
        },
        {
          "internalType": "uint256",
          "name": "maxValue",
          "type": "uint256"
        },
        {
          "internalType": "uint256",
          "name": "rollingAverage",
          "type": "uint256"
        }
      ],
      "stateMutability": "view",
      "type": "function"
    },
    {
      "inputs": [
        {
          "internalType": "string",
          "name": "cityName",
          "type": "string"
        }
      ],
      "name": "getActiveSectors",
      "outputs": [
        {
          "internalType": "string[]",
          "name": "",
          "type": "string[]"
        }
      ],
      "stateMutability": "view",
      "type": "function"
    },
    {
      "inputs": [
        {
          "internalType": "string",
          "name": "cityName",
          "type": "string"
        },
        {
          "internalType": "string",
          "name": "sectorName",
          "type": "string"
        },
        {
          "internalType": "uint256",
          "name": "timestamp",
          "type": "uint256"
        }
      ],
      "name": "calculateCarbonCredit",
      "outputs": [
        {
          "internalType": "uint256",
          "name": "",
          "type": "uint256"
        }
      ],
      "stateMutability": "view",
      "type": "function"
    }
  ],
  "bytecode": "0x608060405234801562000010575f80fd5b50604051620021df380380620021df833981016040819052620000339162000286565b8181600362000043838262000377565b50600462000052828262000377565b5050506200006f62000069620000aa60201b60201c565b620000ae565b6200009733620000826012600a6200054e565b6200009190620f424062000565565b620000ff565b620000a233620000ae565b505062000595565b3390565b600580546001600160a01b038381166001600160a01b0319831681179093556040519116919082907f8be0079c531659141344cd1fd0a4f28419497f9722a3daafe3b4186f6b6457e0905f90a35050565b6001600160a01b0382166200015a5760405162461bcd60e51b815260206004820152601f60248201527f45524332303a206d696e7420746f20746865207a65726f206164647265737300604482015260640160405180910390fd5b8060025f8282546200016d91906200057f565b90915550506001600160a01b0382165f81815260208181526040808320805486019055518481527fddf252ad1be2c89b69c2b068fc378daa952ba7f163c4a11628f55a4df523b3ef910160405180910390a35050565b505050565b634e487b7160e01b5f52604160045260245ffd5b5f82601f830112620001ec575f80fd5b81516001600160401b0380821115620002095762000209620001c8565b604051601f8301601f19908116603f01168101908282118183101715620002345762000234620001c8565b8160405283815260209250868385880101111562000250575f80fd5b5f91505b8382101562000273578582018301518183018401529082019062000254565b5f93810190920192909252949350505050565b5f806040838503121562000298575f80fd5b82516001600160401b0380821115620002af575f80fd5b620002bd86838701620001dc565b93506020850151915080821115620002d3575f80fd5b50620002e285828601620001dc565b9150509250929050565b600181811c908216806200030157607f821691505b6020821081036200032057634e487b7160e01b5f52602260045260245ffd5b50919050565b601f821115620001c3575f81815260208120601f850160051c810160208610156200034e5750805b601f850160051c820191505b818110156200036f578281556001016200035a565b505050505050565b81516001600160401b03811115620003935762000393620001c8565b620003ab81620003a48454620002ec565b8462000326565b602080601f831160018114620003e1575f8415620003c95750858301515b5f19600386901b1c1916600185901b1785556200036f565b5f85815260208120601f198616915b828110156200041157888601518255948401946001909101908401620003f0565b50858210156200042f57878501515f19600388901b60f8161c191681555b5050505050600190811b01905550565b634e487b7160e01b5f52601160045260245ffd5b600181815b808511156200049357815f19048211156200047757620004776200043f565b808516156200048557918102915b93841c939080029062000458565b509250929050565b5f82620004ab5750600162000548565b81620004b957505f62000548565b8160018114620004d25760028114620004dd57620004fd565b600191505062000548565b60ff841115620004f157620004f16200043f565b50506001821b62000548565b5060208310610133831016604e8410600b841016171562000522575081810a62000548565b6200052e838362000453565b805f19048211156200054457620005446200043f565b0290505b92915050565b5f6200055e60ff8416836200049b565b9392505050565b80820281158282048414176200054857620005486200043f565b808201808211156200054857620005486200043f565b611c3c80620005a35f395ff3fe608060405234801561000f575f80fd5b5060043610610153575f3560e01c806387cb40a6116100bf578063b8315d6d11610079578063b8315d6d146102db578063ca7de72e14610309578063cac6ec8414610329578063ce4b5bbe14610331578063dd62ed3e14610340578063f2fde38b14610353575f80fd5b806387cb40a61461026c578063892d56c11461027f5780638da5cb5b1461029257806395d89b41146102ad578063a457c2d7146102b5578063a9059cbb146102c8575f80fd5b8063395093511161011057806339509351146101e15780633cfe2e1e146101f45780634ceebf251461020757806365eae2db1461021a57806370a082311461023c578063715018a614610264575f80fd5b806306fdde0314610157578063081a8e0614610175578063095ea7b31461018a57806318160ddd146101ad57806323b872dd146101bf578063313ce567146101d2575b5f80fd5b61015f610366565b60405161016c91906115fe565b60405180910390f35b6101886101833660046116ad565b6103f6565b005b61019d610198366004611737565b6106ed565b604051901515815260200161016c565b6002545b60405190815260200161016c565b61019d6101cd36600461175f565b610706565b6040516012815260200161016c565b61019d6101ef366004611737565b61072b565b610188610202366004611798565b61074c565b61015f6102153660046117d2565b6108ae565b61022d610228366004611798565b610954565b60405161016c939291906117e9565b6101b161024a36600461180d565b6001600160a01b03165f9081526020819052604090205490565b610188610a0b565b6101b161027a366004611826565b610a1e565b61018861028d36600461188e565b610b9b565b6005546040516001600160a01b03909116815260200161016c565b61015f610d6e565b61019d6102c3366004611737565b610d7d565b61019d6102d6366004611737565b610e02565b6102ee6102e936600461188e565b610e0f565b6040805193845260208401929092529082015260600161016c565b61031c610317366004611798565b610f14565b60405161016c91906118ee565b6101b1600781565b6101b1670de0b6b3a764000081565b6101b161034e36600461194e565b61104b565b61018861036136600461180d565b611075565b6060600380546103759061197f565b80601f01602080910402602001604051908101604052809291908181526020018280546103a19061197f565b80156103ec5780601f106103c3576101008083540402835291602001916103ec565b820191905f5260205f20905b8154815290600101906020018083116103cf57829003601f168201915b5050505050905090565b6103fe6110ee565b835f8151116104285760405162461bcd60e51b815260040161041f906119b7565b60405180910390fd5b60068160405161043891906119ee565b9081526040519081900360200190206001015460ff1661046a5760405162461bcd60e51b815260040161041f90611a09565b848460068260405161047c91906119ee565b90815260200160405180910390206002018160405161049b91906119ee565b9081526040519081900360200190206005015460ff166104cd5760405162461bcd60e51b815260040161041f90611a36565b4285111561051d5760405162461bcd60e51b815260206004820152601c60248201527f4675747572652074696d657374616d70206e6f7420616c6c6f77656400000000604482015260640161041f565b5f841161056c5760405162461bcd60e51b815260206004820152601c60248201527f56616c7565206d7573742062652067726561746572207468616e203000000000604482015260640161041f565b5f61057f670de0b6b3a764000086611a75565b90505f60068960405161059291906119ee565b9081526020016040518091039020600201886040516105b191906119ee565b90815260408051602092819003830190205f8a815292819052912060028101549192509060ff16156106315760405162461bcd60e51b815260206004820152602360248201527f4461746120616c7265616479207265636f7264656420666f722074686973206460448201526261746560e81b606482015260840161041f565b878155600180820184905560028201805460ff191682179055828101805491820181555f9081526020902001889055600482015483111561067457600482018390555b61067d82611148565b8860405161068b91906119ee565b60405180910390208a6040516106a191906119ee565b604080519182900382208b835260208301879052917f897d27f89fed805011457db91608e078c670c44abe9031664c073da4e1999110910160405180910390a350505050505050505050565b5f336106fa8185856111fd565b60019150505b92915050565b5f33610713858285611320565b61071e858585611398565b60019150505b9392505050565b5f336106fa81858561073d838361104b565b6107479190611a8c565b6111fd565b6107546110ee565b5f8151116107745760405162461bcd60e51b815260040161041f906119b7565b60068160405161078491906119ee565b9081526040519081900360200190206001015460ff16156107e75760405162461bcd60e51b815260206004820152601760248201527f4369747920616c72656164792072656769737465726564000000000000000000604482015260640161041f565b5f6006826040516107f891906119ee565b9081526040519081900360200190209050806108148382611aec565b506001818101805460ff1916821790554260048301556007805491820181555f527fa66cc928b5edb82af9bd49922954155ab7b0942694bea4ce44661d9a8736c688016108618382611aec565b508160405161087091906119ee565b604051908190038120428252907fd0f14ee9fb1005a27f2a7812d6d8ade21aea779d58f322cc40ac1202a297da909060200160405180910390a25050565b600781815481106108bd575f80fd5b905f5260205f20015f9150905080546108d59061197f565b80601f01602080910402602001604051908101604052809291908181526020018280546109019061197f565b801561094c5780601f106109235761010080835404028352916020019161094c565b820191905f5260205f20905b81548152906001019060200180831161092f57829003601f168201915b505050505081565b805160208183018101805160068252928201919093012091528054819061097a9061197f565b80601f01602080910402602001604051908101604052809291908181526020018280546109a69061197f565b80156109f15780601f106109c8576101008083540402835291602001916109f1565b820191905f5260205f20905b8154815290600101906020018083116109d457829003601f168201915b505050506001830154600490930154919260ff1691905083565b610a136110ee565b610a1c5f61153a565b565b5f600684604051610a2f91906119ee565b9081526040519081900360200190206001015460ff16610a615760405162461bcd60e51b815260040161041f90611a09565b600684604051610a7191906119ee565b908152602001604051809103902060020183604051610a9091906119ee565b9081526040519081900360200190206005015460ff16610ac25760405162461bcd60e51b815260040161041f90611a36565b5f600685604051610ad391906119ee565b908152602001604051809103902060020184604051610af291906119ee565b90815260408051602092819003830190205f86815292819052912060028101549192509060ff16610b655760405162461bcd60e51b815260206004820152601e60248201527f4e6f2064617461207265636f7264656420666f72207468697320646174650000604482015260640161041f565b8160040154816001015410610b7e575f92505050610724565b60018101546004830154610b919161158b565b9695505050505050565b610ba36110ee565b815f815111610bc45760405162461bcd60e51b815260040161041f906119b7565b600681604051610bd491906119ee565b9081526040519081900360200190206001015460ff16610c065760405162461bcd60e51b815260040161041f90611a09565b600683604051610c1691906119ee565b908152602001604051809103902060020182604051610c3591906119ee565b9081526040519081900360200190206005015460ff1615610c905760405162461bcd60e51b8152602060048201526015602482015274536563746f7220616c72656164792065786973747360581b604482015260640161041f565b5f600684604051610ca191906119ee565b908152602001604051809103902090505f8160020184604051610cc491906119ee565b90815260405160209181900382019020600581018054600160ff19909116811790915560038501805491820181555f9081529290922090925001610d088582611aec565b5083604051610d1791906119ee565b604051809103902085604051610d2d91906119ee565b604051908190038120428252907f0b7076de452ade41a7d5d566862838046f25eee8e442fcf9cbcc748d5d488c0e9060200160405180910390a35050505050565b6060600480546103759061197f565b5f3381610d8a828661104b565b905083811015610dea5760405162461bcd60e51b815260206004820152602560248201527f45524332303a2064656372656173656420616c6c6f77616e63652062656c6f77604482015264207a65726f60d81b606482015260840161041f565b610df782868684036111fd565b506001949350505050565b5f336106fa818585611398565b5f805f600685604051610e2291906119ee565b9081526040519081900360200190206001015460ff16610e545760405162461bcd60e51b815260040161041f90611a09565b600685604051610e6491906119ee565b908152602001604051809103902060020184604051610e8391906119ee565b9081526040519081900360200190206005015460ff16610eb55760405162461bcd60e51b815260040161041f90611a36565b5f600686604051610ec691906119ee565b908152602001604051809103902060020185604051610ee591906119ee565b908152604051908190036020019020600181015460048201546003909201549095509093509150509250925092565b6060600682604051610f2691906119ee565b9081526040519081900360200190206001015460ff16610f585760405162461bcd60e51b815260040161041f90611a09565b600682604051610f6891906119ee565b9081526020016040518091039020600301805480602002602001604051908101604052809291908181526020015f905b82821015611040578382905f5260205f20018054610fb59061197f565b80601f0160208091040260200160405190810160405280929190818152602001828054610fe19061197f565b801561102c5780601f106110035761010080835404028352916020019161102c565b820191905f5260205f20905b81548152906001019060200180831161100f57829003601f168201915b505050505081526020019060010190610f98565b505050509050919050565b6001600160a01b039182165f90815260016020908152604080832093909416825291909152205490565b61107d6110ee565b6001600160a01b0381166110e25760405162461bcd60e51b815260206004820152602660248201527f4f776e61626c653a206e6577206f776e657220697320746865207a65726f206160448201526564647265737360d01b606482015260840161041f565b6110eb8161153a565b50565b6005546001600160a01b03163314610a1c5760405162461bcd60e51b815260206004820181905260248201527f4f776e61626c653a2063616c6c6572206973206e6f7420746865206f776e6572604482015260640161041f565b60018101545f908190816007821015611161575f61116c565b61116c600783611ba8565b9050805b828110156111df576111bd865f015f88600101848154811061119457611194611bbb565b905f5260205f20015481526020019081526020015f20600101548661159690919063ffffffff16565b9450836111c981611bcf565b94505080806111d790611bcf565b915050611170565b5082156111f6576111f084846115a1565b60038601555b5050505050565b6001600160a01b03831661125f5760405162461bcd60e51b8152602060048201526024808201527f45524332303a20617070726f76652066726f6d20746865207a65726f206164646044820152637265737360e01b606482015260840161041f565b6001600160a01b0382166112c05760405162461bcd60e51b815260206004820152602260248201527f45524332303a20617070726f766520746f20746865207a65726f206164647265604482015261737360f01b606482015260840161041f565b6001600160a01b038381165f8181526001602090815260408083209487168084529482529182902085905590518481527f8c5be1e5ebec7d5bd14f71427d1e84f3dd0314c0f7b2291e5b200ac8c7c3b925910160405180910390a3505050565b5f61132b848461104b565b90505f19811461139257818110156113855760405162461bcd60e51b815260206004820152601d60248201527f45524332303a20696e73756666696369656e7420616c6c6f77616e6365000000604482015260640161041f565b61139284848484036111fd565b50505050565b6001600160a01b0383166113fc5760405162461bcd60e51b815260206004820152602560248201527f45524332303a207472616e736665722066726f6d20746865207a65726f206164604482015264647265737360d81b606482015260840161041f565b6001600160a01b03821661145e5760405162461bcd60e51b815260206004820152602360248201527f45524332303a207472616e7366657220746f20746865207a65726f206164647260448201526265737360e81b606482015260840161041f565b6001600160a01b0383165f90815260208190526040902054818110156114d55760405162461bcd60e51b815260206004820152602660248201527f45524332303a207472616e7366657220616d6f756e7420657863656564732062604482015265616c616e636560d01b606482015260840161041f565b6001600160a01b038481165f81815260208181526040808320878703905593871680835291849020805487019055925185815290927fddf252ad1be2c89b69c2b068fc378daa952ba7f163c4a11628f55a4df523b3ef910160405180910390a3611392565b600580546001600160a01b038381166001600160a01b0319831681179093556040519116919082907f8be0079c531659141344cd1fd0a4f28419497f9722a3daafe3b4186f6b6457e0905f90a35050565b5f6107248284611ba8565b5f6107248284611a8c565b5f6107248284611be7565b505050565b5f5b838110156115cb5781810151838201526020016115b3565b50505f910152565b5f81518084526115ea8160208601602086016115b1565b601f01601f19169290920160200192915050565b602081525f61072460208301846115d3565b634e487b7160e01b5f52604160045260245ffd5b5f82601f830112611633575f80fd5b813567ffffffffffffffff8082111561164e5761164e611610565b604051601f8301601f19908116603f0116810190828211818310171561167657611676611610565b8160405283815286602085880101111561168e575f80fd5b836020870160208301375f602085830101528094505050505092915050565b5f805f80608085870312156116c0575f80fd5b843567ffffffffffffffff808211156116d7575f80fd5b6116e388838901611624565b955060208701359150808211156116f8575f80fd5b5061170587828801611624565b949794965050505060408301359260600135919050565b80356001600160a01b0381168114611732575f80fd5b919050565b5f8060408385031215611748575f80fd5b6117518361171c565b946020939093013593505050565b5f805f60608486031215611771575f80fd5b61177a8461171c565b92506117886020850161171c565b9150604084013590509250925092565b5f602082840312156117a8575f80fd5b813567ffffffffffffffff8111156117be575f80fd5b6117ca84828501611624565b949350505050565b5f602082840312156117e2575f80fd5b5035919050565b606081525f6117fb60608301866115d3565b93151560208301525060400152919050565b5f6020828403121561181d575f80fd5b6107248261171c565b5f805f60608486031215611838575f80fd5b833567ffffffffffffffff8082111561184f575f80fd5b61185b87838801611624565b94506020860135915080821115611870575f80fd5b5061187d86828701611624565b925050604084013590509250925092565b5f806040838503121561189f575f80fd5b823567ffffffffffffffff808211156118b6575f80fd5b6118c286838701611624565b935060208501359150808211156118d7575f80fd5b506118e485828601611624565b9150509250929050565b5f602080830181845280855180835260408601915060408160051b87010192508387015f5b8281101561194157603f1988860301845261192f8583516115d3565b94509285019290850190600101611913565b5092979650505050505050565b5f806040838503121561195f575f80fd5b6119688361171c565b91506119766020840161171c565b90509250929050565b600181811c9082168061199357607f821691505b6020821081036119b157634e487b7160e01b5f52602260045260245ffd5b50919050565b60208082526019908201527f43697479206e616d652063616e6e6f7420626520656d70747900000000000000604082015260600190565b5f82516119ff8184602087016115b1565b9190910192915050565b60208082526013908201527210da5d1e481b9bdd081c9959da5cdd195c9959606a1b604082015260600190565b602080825260119082015270536563746f72206e6f742061637469766560781b604082015260600190565b634e487b7160e01b5f52601160045260245ffd5b808202811582820484141761070057610700611a61565b8082018082111561070057610700611a61565b601f8211156115ac575f81815260208120601f850160051c81016020861015611ac55750805b601f850160051c820191505b81811015611ae457828155600101611ad1565b505050505050565b815167ffffffffffffffff811115611b0657611b06611610565b611b1a81611b14845461197f565b84611a9f565b602080601f831160018114611b4d575f8415611b365750858301515b5f19600386901b1c1916600185901b178555611ae4565b5f85815260208120601f198616915b82811015611b7b57888601518255948401946001909101908401611b5c565b5085821015611b9857878501515f19600388901b60f8161c191681555b5050505050600190811b01905550565b8181038181111561070057610700611a61565b634e487b7160e01b5f52603260045260245ffd5b5f60018201611be057611be0611a61565b5060010190565b5f82611c0157634e487b7160e01b5f52601260045260245ffd5b50049056fea26469706673582212207548f67c292c78aa41ed16c8058409fcde1feb055610ae022e780b15b31d862964736f6c63430008140033",
  "immutableReferences": {},
  "source": "// SPDX-License-Identifier: MIT\npragma solidity ^0.8.0;\n\nimport \"@openzeppelin/contracts/token/ERC20/ERC20.sol\";\nimport \"@openzeppelin/contracts/access/Ownable.sol\";\nimport \"@openzeppelin/contracts/utils/math/SafeMath.sol\";\n\ncontract CityRegister is ERC20, Ownable {\n    using SafeMath for uint256;\n\n    constructor(string memory name, string memory symbol) ERC20(name, symbol) {\n        _mint(msg.sender, 1000000 * 10 ** decimals());\n        _transferOwnership(msg.sender);\n    }\n\n    using SafeMath for uint256;\n\n    // Struct to store daily measurement\n    struct DailyMeasurement {\n        uint256 timestamp;\n        uint256 value;     // Stored as value * 1e18 for precision\n        bool recorded;\n    }\n\n    // Struct to store sector data\n    struct SectorData {\n        mapping(uint256 => DailyMeasurement) dailyData;  // timestamp => measurement\n        uint256[] recordedDates;\n        uint256 baselineValue;\n        uint256 rollingAverage;    // Stored as value * 1e18\n        uint256 maxHistoricalValue;\n        bool isActive;\n    }\n\n    struct City {\n        string name;\n        bool isRegistered;\n        mapping(string => SectorData) sectors;\n        string[] activeSectors;\n        uint256 registrationDate;\n    }\n\n    mapping(string => City) public cities;\n    string[] public registeredCityNames;\n    \n    uint256 public constant SCALE_FACTOR = 1e18;\n    uint256 public constant ROLLING_AVERAGE_DAYS = 7;\n\n    // Events\n    event CityRegistered(string indexed cityName, uint256 timestamp);\n    event SectorAdded(string indexed cityName, string indexed sectorName, uint256 timestamp);\n    event DailyDataRecorded(\n        string indexed cityName,\n        string indexed sector,\n        uint256 timestamp,\n        uint256 value\n    );\n\n   \n\n    modifier validCity(string memory cityName) {\n        require(bytes(cityName).length > 0, \"City name cannot be empty\");\n        require(cities[cityName].isRegistered, \"City not registered\");\n        _;\n    }\n\n    modifier validSector(string memory cityName, string memory sectorName) {\n        require(cities[cityName].sectors[sectorName].isActive, \"Sector not active\");\n        _;\n    }\n\n    function registerCity(string memory cityName) external onlyOwner {\n        require(bytes(cityName).length > 0, \"City name cannot be empty\");\n        require(!cities[cityName].isRegistered, \"City already registered\");\n\n        City storage newCity = cities[cityName];\n        newCity.name = cityName;\n        newCity.isRegistered = true;\n        newCity.registrationDate = block.timestamp;\n\n        registeredCityNames.push(cityName);\n        \n        emit CityRegistered(cityName, block.timestamp);\n    }\n\n    function addSector(string memory cityName, string memory sectorName) \n        external \n        onlyOwner \n        validCity(cityName) \n    {\n        require(!cities[cityName].sectors[sectorName].isActive, \"Sector already exists\");\n\n        City storage city = cities[cityName];\n        SectorData storage newSector = city.sectors[sectorName];\n        newSector.isActive = true;\n        city.activeSectors.push(sectorName);\n\n        emit SectorAdded(cityName, sectorName, block.timestamp);\n    }\n\n    function recordDailyValue(\n        string memory cityName,\n        string memory sectorName,\n        uint256 timestamp,\n        uint256 value\n    ) \n        external \n        onlyOwner \n        validCity(cityName)\n        validSector(cityName, sectorName)\n    {\n        require(timestamp <= block.timestamp, \"Future timestamp not allowed\");\n        require(value > 0, \"Value must be greater than 0\");\n\n        uint256 scaledValue = value * SCALE_FACTOR;\n        \n        SectorData storage sector = cities[cityName].sectors[sectorName];\n        \n        DailyMeasurement storage measurement = sector.dailyData[timestamp];\n        require(!measurement.recorded, \"Data already recorded for this date\");\n        \n        measurement.timestamp = timestamp;\n        measurement.value = scaledValue;\n        measurement.recorded = true;\n        sector.recordedDates.push(timestamp);\n\n        if (scaledValue > sector.maxHistoricalValue) {\n            sector.maxHistoricalValue = scaledValue;\n        }\n\n        _updateRollingAverage(sector);\n\n        emit DailyDataRecorded(cityName, sectorName, timestamp, scaledValue);\n    }\n\n    function _updateRollingAverage(SectorData storage sector) private {\n        uint256 totalValues = 0;\n        uint256 count = 0;\n        \n        uint256 length = sector.recordedDates.length;\n        uint256 startIndex = length >= ROLLING_AVERAGE_DAYS ? length - ROLLING_AVERAGE_DAYS : 0;\n        \n        for (uint256 i = startIndex; i < length; i++) {\n            totalValues = totalValues.add(sector.dailyData[sector.recordedDates[i]].value);\n            count++;\n        }\n        \n        if (count > 0) {\n            sector.rollingAverage = totalValues.div(count);\n        }\n    }\n\n    function getSectorStats(\n        string memory cityName,\n        string memory sectorName\n    ) external view returns (\n        uint256 totalRecordings,\n        uint256 maxValue,\n        uint256 rollingAverage\n    ) {\n        require(cities[cityName].isRegistered, \"City not registered\");\n        require(cities[cityName].sectors[sectorName].isActive, \"Sector not active\");\n\n        SectorData storage sector = cities[cityName].sectors[sectorName];\n        return (\n            sector.recordedDates.length,\n            sector.maxHistoricalValue,\n            sector.rollingAverage\n        );\n    }\n\n    function getActiveSectors(string memory cityName) \n        external \n        view \n        returns (string[] memory) \n    {\n        require(cities[cityName].isRegistered, \"City not registered\");\n        return cities[cityName].activeSectors;\n    }\n\n    function calculateCarbonCredit(\n        string memory cityName,\n        string memory sectorName,\n        uint256 timestamp\n    ) external view returns (uint256) {\n        require(cities[cityName].isRegistered, \"City not registered\");\n        require(cities[cityName].sectors[sectorName].isActive, \"Sector not active\");\n\n        SectorData storage sector = cities[cityName].sectors[sectorName];\n        DailyMeasurement storage measurement = sector.dailyData[timestamp];\n        require(measurement.recorded, \"No data recorded for this date\");\n\n        if (measurement.value >= sector.maxHistoricalValue) {\n            return 0;\n        }\n\n        return sector.maxHistoricalValue.sub(measurement.value);\n    }\n}\n",
  "sourcePath": "C:\\Users\\Bonsu\\Documents\\CLEANER PRODUCTION\\renewalclimateproject\\ClimateProjectFull\\contracts\\climate\\CityRegister.sol",
  "compiler": {
    "name": "solc",
    "version": "0.8.20+commit.a1b79de6.Emscripten.clang"
  },
  "schemaVersion": "3.4.16",
  "updatedAt": "2025-02-21T06:43:13.867Z",
  "devdoc": {
    "events": {
      "Approval(address,address,uint256)": {
        "details": "Emitted when the allowance of a `spender` for an `owner` is set by a call to {approve}. `value` is the new allowance."
      },
      "Transfer(address,address,uint256)": {
        "details": "Emitted when `value` tokens are moved from one account (`from`) to another (`to`). Note that `value` may be zero."
      }
    },
    "kind": "dev",
    "methods": {
      "allowance(address,address)": {
        "details": "See {IERC20-allowance}."
      },
      "approve(address,uint256)": {
        "details": "See {IERC20-approve}. NOTE: If `amount` is the maximum `uint256`, the allowance is not updated on `transferFrom`. This is semantically equivalent to an infinite approval. Requirements: - `spender` cannot be the zero address."
      },
      "balanceOf(address)": {
        "details": "See {IERC20-balanceOf}."
      },
      "decimals()": {
        "details": "Returns the number of decimals used to get its user representation. For example, if `decimals` equals `2`, a balance of `505` tokens should be displayed to a user as `5.05` (`505 / 10 ** 2`). Tokens usually opt for a value of 18, imitating the relationship between Ether and Wei. This is the default value returned by this function, unless it's overridden. NOTE: This information is only used for _display_ purposes: it in no way affects any of the arithmetic of the contract, including {IERC20-balanceOf} and {IERC20-transfer}."
      },
      "decreaseAllowance(address,uint256)": {
        "details": "Atomically decreases the allowance granted to `spender` by the caller. This is an alternative to {approve} that can be used as a mitigation for problems described in {IERC20-approve}. Emits an {Approval} event indicating the updated allowance. Requirements: - `spender` cannot be the zero address. - `spender` must have allowance for the caller of at least `subtractedValue`."
      },
      "increaseAllowance(address,uint256)": {
        "details": "Atomically increases the allowance granted to `spender` by the caller. This is an alternative to {approve} that can be used as a mitigation for problems described in {IERC20-approve}. Emits an {Approval} event indicating the updated allowance. Requirements: - `spender` cannot be the zero address."
      },
      "name()": {
        "details": "Returns the name of the token."
      },
      "owner()": {
        "details": "Returns the address of the current owner."
      },
      "renounceOwnership()": {
        "details": "Leaves the contract without owner. It will not be possible to call `onlyOwner` functions. Can only be called by the current owner. NOTE: Renouncing ownership will leave the contract without an owner, thereby disabling any functionality that is only available to the owner."
      },
      "symbol()": {
        "details": "Returns the symbol of the token, usually a shorter version of the name."
      },
      "totalSupply()": {
        "details": "See {IERC20-totalSupply}."
      },
      "transfer(address,uint256)": {
        "details": "See {IERC20-transfer}. Requirements: - `to` cannot be the zero address. - the caller must have a balance of at least `amount`."
      },
      "transferFrom(address,address,uint256)": {
        "details": "See {IERC20-transferFrom}. Emits an {Approval} event indicating the updated allowance. This is not required by the EIP. See the note at the beginning of {ERC20}. NOTE: Does not update the allowance if the current allowance is the maximum `uint256`. Requirements: - `from` and `to` cannot be the zero address. - `from` must have a balance of at least `amount`. - the caller must have allowance for ``from``'s tokens of at least `amount`."
      },
      "transferOwnership(address)": {
        "details": "Transfers ownership of the contract to a new account (`newOwner`). Can only be called by the current owner."
      }
    },
    "version": 1
  },
  "userdoc": {
    "kind": "user",
    "methods": {},
    "version": 1
  }
}