{
  "contractName": "ClimateReductionContract",
  "abi": [
    {
      "inputs": [
        {
          "internalType": "address",
          "name": "_creditMarket",
          "type": "address"
        }
      ],
      "stateMutability": "nonpayable",
      "type": "constructor"
    },
    {
      "anonymous": false,
      "inputs": [
        {
          "indexed": false,
          "internalType": "string",
          "name": "city",
          "type": "string"
        },
        {
          "indexed": false,
          "internalType": "uint256",
          "name": "newEmissions",
          "type": "uint256"
        },
        {
          "indexed": false,
          "internalType": "uint256",
          "name": "timestamp",
          "type": "uint256"
        }
      ],
      "name": "ReductionUpdated",
      "type": "event"
    },
    {
      "anonymous": false,
      "inputs": [
        {
          "indexed": false,
          "internalType": "string",
          "name": "city",
          "type": "string"
        },
        {
          "indexed": false,
          "internalType": "uint256",
          "name": "timestamp",
          "type": "uint256"
        }
      ],
      "name": "TargetAchieved",
      "type": "event"
    },
    {
      "inputs": [
        {
          "internalType": "string",
          "name": "",
          "type": "string"
        }
      ],
      "name": "cityTargets",
      "outputs": [
        {
          "internalType": "uint256",
          "name": "initialEmissions",
          "type": "uint256"
        },
        {
          "internalType": "uint256",
          "name": "targetEmissions",
          "type": "uint256"
        },
        {
          "internalType": "uint256",
          "name": "deadline",
          "type": "uint256"
        },
        {
          "internalType": "uint256",
          "name": "currentEmissions",
          "type": "uint256"
        },
        {
          "internalType": "bool",
          "name": "achieved",
          "type": "bool"
        }
      ],
      "stateMutability": "view",
      "type": "function"
    },
    {
      "inputs": [],
      "name": "creditMarket",
      "outputs": [
        {
          "internalType": "contract ICreditMarketContract",
          "name": "",
          "type": "address"
        }
      ],
      "stateMutability": "view",
      "type": "function"
    },
    {
      "inputs": [
        {
          "internalType": "string",
          "name": "city",
          "type": "string"
        },
        {
          "internalType": "uint256",
          "name": "initial",
          "type": "uint256"
        },
        {
          "internalType": "uint256",
          "name": "target",
          "type": "uint256"
        },
        {
          "internalType": "uint256",
          "name": "timeframe",
          "type": "uint256"
        }
      ],
      "name": "setReductionTarget",
      "outputs": [],
      "stateMutability": "nonpayable",
      "type": "function"
    },
    {
      "inputs": [
        {
          "internalType": "string",
          "name": "city",
          "type": "string"
        },
        {
          "internalType": "uint256",
          "name": "newEmissions",
          "type": "uint256"
        }
      ],
      "name": "updateEmissions",
      "outputs": [],
      "stateMutability": "nonpayable",
      "type": "function"
    },
    {
      "inputs": [
        {
          "internalType": "string",
          "name": "city",
          "type": "string"
        }
      ],
      "name": "calculateRequiredCredits",
      "outputs": [
        {
          "internalType": "uint256",
          "name": "",
          "type": "uint256"
        }
      ],
      "stateMutability": "view",
      "type": "function"
    }
  ],
  "bytecode": "0x608060405234801561000f575f80fd5b5060405161070838038061070883398101604081905261002e91610053565b600180546001600160a01b0319166001600160a01b0392909216919091179055610080565b5f60208284031215610063575f80fd5b81516001600160a01b0381168114610079575f80fd5b9392505050565b61067b8061008d5f395ff3fe608060405234801561000f575f80fd5b5060043610610055575f3560e01c80631f598f58146100595780632ae1e0181461006e5780632f7b847a1461009e578063774118a9146100b15780637eb6f99b14610125575b5f80fd5b61006c61006736600461045e565b610146565b005b600154610081906001600160a01b031681565b6040516001600160a01b0390911681526020015b60405180910390f35b61006c6100ac3660046104ae565b6101d9565b6100fb6100bf3660046104f0565b80516020818301810180515f82529282019190930120915280546001820154600283015460038401546004909401549293919290919060ff1685565b6040805195865260208601949094529284019190915260608301521515608082015260a001610095565b6101386101333660046104f0565b6102f0565b604051908152602001610095565b6040518060a001604052808481526020018381526020018242610169919061053e565b81526020018481526020015f15158152505f856040516101899190610579565b9081526040805160209281900383019020835181559183015160018301558201516002820155606082015160038201556080909101516004909101805460ff191691151591909117905550505050565b5f80836040516101e99190610579565b908152602001604051809103902090505f815f0154116102405760405162461bcd60e51b815260206004820152600e60248201526d15185c99d95d081b9bdd081cd95d60921b604482015260640160405180910390fd5b600381018290556040517f3c0319452fe4695b90c216f14c833bdd5f9e01f6dec05d8aaa118a8783466ca39061027b908590859042906105bf565b60405180910390a18060010154821115801561029c5750600481015460ff16155b156102eb5760048101805460ff191660011790556040517fde79b03a75dea4cdccbfb70e6977e8dbc1d880eb0c326c98cdf5164e343066eb906102e290859042906105e3565b60405180910390a15b505050565b5f805f836040516103019190610579565b90815260200160405180910390209050806001015481600301541161032857505f92915050565b60015f9054906101000a90046001600160a01b03166001600160a01b03166398d5fdca6040518163ffffffff1660e01b8152600401602060405180830381865afa158015610378573d5f803e3d5ffd5b505050506040513d601f19601f8201168201806040525081019061039c9190610604565b816001015482600301546103b0919061061b565b6103ba919061062e565b9392505050565b634e487b7160e01b5f52604160045260245ffd5b5f82601f8301126103e4575f80fd5b813567ffffffffffffffff808211156103ff576103ff6103c1565b604051601f8301601f19908116603f01168101908282118183101715610427576104276103c1565b8160405283815286602085880101111561043f575f80fd5b836020870160208301375f602085830101528094505050505092915050565b5f805f8060808587031215610471575f80fd5b843567ffffffffffffffff811115610487575f80fd5b610493878288016103d5565b97602087013597506040870135966060013595509350505050565b5f80604083850312156104bf575f80fd5b823567ffffffffffffffff8111156104d5575f80fd5b6104e1858286016103d5565b95602094909401359450505050565b5f60208284031215610500575f80fd5b813567ffffffffffffffff811115610516575f80fd5b610522848285016103d5565b949350505050565b634e487b7160e01b5f52601160045260245ffd5b808201808211156105515761055161052a565b92915050565b5f5b83811015610571578181015183820152602001610559565b50505f910152565b5f825161058a818460208701610557565b9190910192915050565b5f81518084526105ab816020860160208601610557565b601f01601f19169290920160200192915050565b606081525f6105d16060830186610594565b60208301949094525060400152919050565b604081525f6105f56040830185610594565b90508260208301529392505050565b5f60208284031215610614575f80fd5b5051919050565b818103818111156105515761055161052a565b80820281158282048414176105515761055161052a56fea2646970667358221220bd6fe84b73fa8a5e02b9bdadc455e1114408cb8909560020e5f4d4ea255b5de764736f6c63430008140033",
  "immutableReferences": {},
  "source": "// SPDX-License-Identifier: MIT\npragma solidity ^0.8.0;\n\n// Interface for existing credit market contract\ninterface ICreditMarketContract {\n    function requestCarbonCredits(uint256 amount) external;\n    function getPrice() external view returns (uint256);\n}\n\ncontract TemperatureRenewalContract {\n    struct CityTemperature {\n        uint256 currentTemp;     // Current temperature in Kelvin * 1e18\n        uint256 targetTemp;      // Target temperature in Kelvin * 1e18\n        uint256 tickSize;        // Temperature reduction per tick * 1e18\n        uint256 lastUpdateTime;  // Last update timestamp\n        mapping(uint256 => uint256) historicalTemps; // timestamp -> temperature\n    }\n\n    struct EmissionData {\n        string sector;\n        uint256 value;\n        uint256 timestamp;\n    }\n\n    mapping(string => CityTemperature) public cityTemperatures;\n    mapping(string => EmissionData[]) public cityEmissions;\n    \n    uint256 public constant SECONDS_PER_TICK = 1 days;\n    uint256 public constant PRECISION = 1e18;\n    \n    event TemperatureUpdated(string city, uint256 temperature, uint256 timestamp);\n    event EmissionRecorded(string city, string sector, uint256 value, uint256 timestamp);\n    event RenewalExecuted(string city, uint256 tempReduction, uint256 timestamp);\n\n    // Calculate number of ticks needed for temperature reduction\n    function calculateRequiredTicks(string memory city) public view returns (uint256) {\n        CityTemperature storage cityTemp = cityTemperatures[city];\n        require(cityTemp.currentTemp > 0, \"City not initialized\");\n        \n        if (cityTemp.currentTemp <= cityTemp.targetTemp) return 0;\n        \n        return ((cityTemp.currentTemp - cityTemp.targetTemp) * PRECISION) / cityTemp.tickSize;\n    }\n\n    // Calculate carbon intensity for a city over a time period\n    function calculateCarbonIntensity(\n        string memory city,\n        uint256 startTime,\n        uint256 endTime\n    ) public view returns (uint256) {\n        EmissionData[] storage emissions = cityEmissions[city];\n        uint256 totalEmissions = 0;\n        uint256 dataPoints = 0;\n        \n        for (uint256 i = 0; i < emissions.length; i++) {\n            if (emissions[i].timestamp >= startTime && emissions[i].timestamp <= endTime) {\n                totalEmissions += emissions[i].value;\n                dataPoints++;\n            }\n        }\n        \n        return dataPoints > 0 ? totalEmissions / dataPoints : 0;\n    }\n\n    // Record new emission data\n    function recordEmission(\n        string memory city,\n        string memory sector,\n        uint256 value,\n        uint256 timestamp\n    ) external {\n        EmissionData memory newData = EmissionData(sector, value, timestamp);\n        cityEmissions[city].push(newData);\n        emit EmissionRecorded(city, sector, value, timestamp);\n    }\n\n    // Execute renewal theory-based temperature reduction\n    function executeRenewal(string memory city) external returns (uint256) {\n        CityTemperature storage cityTemp = cityTemperatures[city];\n        require(cityTemp.currentTemp > 0, \"City not initialized\");\n        \n        uint256 timePassed = block.timestamp - cityTemp.lastUpdateTime;\n        uint256 ticks = timePassed / SECONDS_PER_TICK;\n        \n        if (ticks > 0 && cityTemp.currentTemp > cityTemp.targetTemp) {\n            uint256 tempReduction = ticks * cityTemp.tickSize;\n            \n            // Ensure we don't reduce below target\n            if (cityTemp.currentTemp - tempReduction < cityTemp.targetTemp) {\n                tempReduction = cityTemp.currentTemp - cityTemp.targetTemp;\n            }\n            \n            cityTemp.currentTemp -= tempReduction;\n            cityTemp.lastUpdateTime = block.timestamp;\n            \n            emit RenewalExecuted(city, tempReduction, block.timestamp);\n            return tempReduction;\n        }\n        \n        return 0;\n    }\n}\n\ncontract ClimateReductionContract {\n    struct ReductionTarget {\n        uint256 initialEmissions;\n        uint256 targetEmissions;\n        uint256 deadline;\n        uint256 currentEmissions;\n        bool achieved;\n    }\n\n    mapping(string => ReductionTarget) public cityTargets;\n    ICreditMarketContract public creditMarket;\n    \n    event TargetAchieved(string city, uint256 timestamp);\n    event ReductionUpdated(string city, uint256 newEmissions, uint256 timestamp);\n\n    constructor(address _creditMarket) {\n        creditMarket = ICreditMarketContract(_creditMarket);\n    }\n\n    // Set reduction target for a city\n    function setReductionTarget(\n        string memory city,\n        uint256 initial,\n        uint256 target,\n        uint256 timeframe\n    ) external {\n        cityTargets[city] = ReductionTarget({\n            initialEmissions: initial,\n            targetEmissions: target,\n            deadline: block.timestamp + timeframe,\n            currentEmissions: initial,\n            achieved: false\n        });\n    }\n\n    // Update current emissions and check target achievement\n    function updateEmissions(string memory city, uint256 newEmissions) external {\n        ReductionTarget storage target = cityTargets[city];\n        require(target.initialEmissions > 0, \"Target not set\");\n        \n        target.currentEmissions = newEmissions;\n        emit ReductionUpdated(city, newEmissions, block.timestamp);\n        \n        if (newEmissions <= target.targetEmissions && !target.achieved) {\n            target.achieved = true;\n            emit TargetAchieved(city, block.timestamp);\n        }\n    }\n\n    // Calculate required carbon credits based on current vs target emissions\n    function calculateRequiredCredits(string memory city) public view returns (uint256) {\n        ReductionTarget storage target = cityTargets[city];\n        if (target.currentEmissions <= target.targetEmissions) return 0;\n        \n        return (target.currentEmissions - target.targetEmissions) * creditMarket.getPrice();\n    }\n}\n",
  "sourcePath": "C:\\Users\\Bonsu\\Documents\\CLEANER PRODUCTION\\renewalclimateproject\\ClimateProjectFull\\contracts\\climate\\TemperatureRenewalContract.sol",
  "compiler": {
    "name": "solc",
    "version": "0.8.20+commit.a1b79de6.Emscripten.clang"
  },
  "schemaVersion": "3.4.16",
  "updatedAt": "2025-02-21T06:43:13.898Z",
  "devdoc": {
    "kind": "dev",
    "methods": {},
    "version": 1
  },
  "userdoc": {
    "kind": "user",
    "methods": {},
    "version": 1
  }
}