{
  "contractName": "ClusterCommunication",
  "abi": [
    {
      "anonymous": false,
      "inputs": [
        {
          "indexed": true,
          "internalType": "bytes32",
          "name": "clusterId",
          "type": "bytes32"
        },
        {
          "indexed": false,
          "internalType": "address",
          "name": "leader",
          "type": "address"
        }
      ],
      "name": "ClusterFormed",
      "type": "event"
    },
    {
      "anonymous": false,
      "inputs": [
        {
          "indexed": true,
          "internalType": "bytes32",
          "name": "messageId",
          "type": "bytes32"
        },
        {
          "indexed": true,
          "internalType": "address",
          "name": "recipient",
          "type": "address"
        }
      ],
      "name": "MessageSent",
      "type": "event"
    },
    {
      "anonymous": false,
      "inputs": [
        {
          "indexed": true,
          "internalType": "address",
          "name": "node",
          "type": "address"
        },
        {
          "indexed": true,
          "internalType": "bytes32",
          "name": "clusterId",
          "type": "bytes32"
        }
      ],
      "name": "NodeAssigned",
      "type": "event"
    },
    {
      "anonymous": false,
      "inputs": [
        {
          "indexed": true,
          "internalType": "bytes32",
          "name": "role",
          "type": "bytes32"
        },
        {
          "indexed": true,
          "internalType": "bytes32",
          "name": "previousAdminRole",
          "type": "bytes32"
        },
        {
          "indexed": true,
          "internalType": "bytes32",
          "name": "newAdminRole",
          "type": "bytes32"
        }
      ],
      "name": "RoleAdminChanged",
      "type": "event"
    },
    {
      "anonymous": false,
      "inputs": [
        {
          "indexed": true,
          "internalType": "bytes32",
          "name": "role",
          "type": "bytes32"
        },
        {
          "indexed": true,
          "internalType": "address",
          "name": "account",
          "type": "address"
        },
        {
          "indexed": true,
          "internalType": "address",
          "name": "sender",
          "type": "address"
        }
      ],
      "name": "RoleGranted",
      "type": "event"
    },
    {
      "anonymous": false,
      "inputs": [
        {
          "indexed": true,
          "internalType": "bytes32",
          "name": "role",
          "type": "bytes32"
        },
        {
          "indexed": true,
          "internalType": "address",
          "name": "account",
          "type": "address"
        },
        {
          "indexed": true,
          "internalType": "address",
          "name": "sender",
          "type": "address"
        }
      ],
      "name": "RoleRevoked",
      "type": "event"
    },
    {
      "anonymous": false,
      "inputs": [
        {
          "indexed": true,
          "internalType": "bytes32",
          "name": "clusterId",
          "type": "bytes32"
        },
        {
          "indexed": false,
          "internalType": "bytes32",
          "name": "sessionKey",
          "type": "bytes32"
        }
      ],
      "name": "SessionKeyGenerated",
      "type": "event"
    },
    {
      "anonymous": false,
      "inputs": [
        {
          "indexed": true,
          "internalType": "bytes32",
          "name": "txId",
          "type": "bytes32"
        },
        {
          "indexed": false,
          "internalType": "bool",
          "name": "isValid",
          "type": "bool"
        }
      ],
      "name": "ValidationComplete",
      "type": "event"
    },
    {
      "anonymous": false,
      "inputs": [
        {
          "indexed": true,
          "internalType": "bytes32",
          "name": "txId",
          "type": "bytes32"
        },
        {
          "indexed": true,
          "internalType": "bytes32",
          "name": "clusterId",
          "type": "bytes32"
        }
      ],
      "name": "ValidationStarted",
      "type": "event"
    },
    {
      "anonymous": false,
      "inputs": [
        {
          "indexed": true,
          "internalType": "bytes32",
          "name": "txId",
          "type": "bytes32"
        },
        {
          "indexed": false,
          "internalType": "address",
          "name": "validator",
          "type": "address"
        },
        {
          "indexed": false,
          "internalType": "bool",
          "name": "result",
          "type": "bool"
        }
      ],
      "name": "ValidationSubmitted",
      "type": "event"
    },
    {
      "inputs": [],
      "name": "CLUSTER_ADMIN",
      "outputs": [
        {
          "internalType": "bytes32",
          "name": "",
          "type": "bytes32"
        }
      ],
      "stateMutability": "view",
      "type": "function"
    },
    {
      "inputs": [],
      "name": "DEFAULT_ADMIN_ROLE",
      "outputs": [
        {
          "internalType": "bytes32",
          "name": "",
          "type": "bytes32"
        }
      ],
      "stateMutability": "view",
      "type": "function"
    },
    {
      "inputs": [],
      "name": "MAX_CLUSTER_SIZE",
      "outputs": [
        {
          "internalType": "uint256",
          "name": "",
          "type": "uint256"
        }
      ],
      "stateMutability": "view",
      "type": "function"
    },
    {
      "inputs": [],
      "name": "MIN_CLUSTER_SIZE",
      "outputs": [
        {
          "internalType": "uint256",
          "name": "",
          "type": "uint256"
        }
      ],
      "stateMutability": "view",
      "type": "function"
    },
    {
      "inputs": [],
      "name": "VALIDATION_THRESHOLD",
      "outputs": [
        {
          "internalType": "uint256",
          "name": "",
          "type": "uint256"
        }
      ],
      "stateMutability": "view",
      "type": "function"
    },
    {
      "inputs": [
        {
          "internalType": "bytes32",
          "name": "",
          "type": "bytes32"
        },
        {
          "internalType": "address",
          "name": "",
          "type": "address"
        }
      ],
      "name": "clusterMembers",
      "outputs": [
        {
          "internalType": "bool",
          "name": "",
          "type": "bool"
        }
      ],
      "stateMutability": "view",
      "type": "function"
    },
    {
      "inputs": [
        {
          "internalType": "bytes32",
          "name": "",
          "type": "bytes32"
        }
      ],
      "name": "clusters",
      "outputs": [
        {
          "internalType": "bytes32",
          "name": "id",
          "type": "bytes32"
        },
        {
          "internalType": "address",
          "name": "leader",
          "type": "address"
        },
        {
          "internalType": "uint256",
          "name": "formationTime",
          "type": "uint256"
        },
        {
          "internalType": "uint256",
          "name": "nodeCount",
          "type": "uint256"
        },
        {
          "internalType": "uint256",
          "name": "processedTxCount",
          "type": "uint256"
        },
        {
          "internalType": "bytes32",
          "name": "sessionKey",
          "type": "bytes32"
        },
        {
          "internalType": "bool",
          "name": "isActive",
          "type": "bool"
        }
      ],
      "stateMutability": "view",
      "type": "function"
    },
    {
      "inputs": [
        {
          "internalType": "bytes32",
          "name": "txId",
          "type": "bytes32"
        },
        {
          "internalType": "uint256",
          "name": "txSize",
          "type": "uint256"
        },
        {
          "internalType": "enum NodeTypes.NodeRole[]",
          "name": "requiredRoles",
          "type": "uint8[]"
        }
      ],
      "name": "findOptimalRoute",
      "outputs": [
        {
          "internalType": "bytes32[]",
          "name": "",
          "type": "bytes32[]"
        }
      ],
      "stateMutability": "nonpayable",
      "type": "function"
    },
    {
      "inputs": [
        {
          "internalType": "bytes32",
          "name": "role",
          "type": "bytes32"
        }
      ],
      "name": "getRoleAdmin",
      "outputs": [
        {
          "internalType": "bytes32",
          "name": "",
          "type": "bytes32"
        }
      ],
      "stateMutability": "view",
      "type": "function"
    },
    {
      "inputs": [
        {
          "internalType": "bytes32",
          "name": "role",
          "type": "bytes32"
        },
        {
          "internalType": "address",
          "name": "account",
          "type": "address"
        }
      ],
      "name": "grantRole",
      "outputs": [],
      "stateMutability": "nonpayable",
      "type": "function"
    },
    {
      "inputs": [
        {
          "internalType": "bytes32",
          "name": "role",
          "type": "bytes32"
        },
        {
          "internalType": "address",
          "name": "account",
          "type": "address"
        }
      ],
      "name": "hasRole",
      "outputs": [
        {
          "internalType": "bool",
          "name": "",
          "type": "bool"
        }
      ],
      "stateMutability": "view",
      "type": "function"
    },
    {
      "inputs": [
        {
          "internalType": "bytes32",
          "name": "txId",
          "type": "bytes32"
        },
        {
          "internalType": "bytes",
          "name": "txData",
          "type": "bytes"
        }
      ],
      "name": "initiateValidation",
      "outputs": [],
      "stateMutability": "nonpayable",
      "type": "function"
    },
    {
      "inputs": [
        {
          "internalType": "bytes32",
          "name": "",
          "type": "bytes32"
        }
      ],
      "name": "messages",
      "outputs": [
        {
          "internalType": "bytes32",
          "name": "messageId",
          "type": "bytes32"
        },
        {
          "internalType": "bytes",
          "name": "encryptedContent",
          "type": "bytes"
        },
        {
          "internalType": "bytes",
          "name": "mac",
          "type": "bytes"
        },
        {
          "internalType": "address",
          "name": "sender",
          "type": "address"
        },
        {
          "internalType": "address",
          "name": "recipient",
          "type": "address"
        },
        {
          "internalType": "uint256",
          "name": "timestamp",
          "type": "uint256"
        }
      ],
      "stateMutability": "view",
      "type": "function"
    },
    {
      "inputs": [
        {
          "internalType": "address",
          "name": "",
          "type": "address"
        }
      ],
      "name": "nodes",
      "outputs": [
        {
          "internalType": "address",
          "name": "nodeAddress",
          "type": "address"
        },
        {
          "internalType": "enum NodeTypes.NodeRole",
          "name": "role",
          "type": "uint8"
        },
        {
          "internalType": "uint256",
          "name": "capacity",
          "type": "uint256"
        },
        {
          "internalType": "uint256",
          "name": "performance",
          "type": "uint256"
        },
        {
          "internalType": "bool",
          "name": "isActive",
          "type": "bool"
        },
        {
          "internalType": "bytes32",
          "name": "clusterId",
          "type": "bytes32"
        }
      ],
      "stateMutability": "view",
      "type": "function"
    },
    {
      "inputs": [
        {
          "internalType": "bytes32",
          "name": "role",
          "type": "bytes32"
        },
        {
          "internalType": "address",
          "name": "account",
          "type": "address"
        }
      ],
      "name": "renounceRole",
      "outputs": [],
      "stateMutability": "nonpayable",
      "type": "function"
    },
    {
      "inputs": [
        {
          "internalType": "bytes32",
          "name": "role",
          "type": "bytes32"
        },
        {
          "internalType": "address",
          "name": "account",
          "type": "address"
        }
      ],
      "name": "revokeRole",
      "outputs": [],
      "stateMutability": "nonpayable",
      "type": "function"
    },
    {
      "inputs": [
        {
          "internalType": "bytes32",
          "name": "",
          "type": "bytes32"
        }
      ],
      "name": "routes",
      "outputs": [
        {
          "internalType": "uint256",
          "name": "pathScore",
          "type": "uint256"
        },
        {
          "internalType": "bool",
          "name": "isOptimal",
          "type": "bool"
        }
      ],
      "stateMutability": "view",
      "type": "function"
    },
    {
      "inputs": [
        {
          "internalType": "bytes32",
          "name": "txId",
          "type": "bytes32"
        },
        {
          "internalType": "bool",
          "name": "isValid",
          "type": "bool"
        }
      ],
      "name": "submitValidation",
      "outputs": [],
      "stateMutability": "nonpayable",
      "type": "function"
    },
    {
      "inputs": [
        {
          "internalType": "bytes4",
          "name": "interfaceId",
          "type": "bytes4"
        }
      ],
      "name": "supportsInterface",
      "outputs": [
        {
          "internalType": "bool",
          "name": "",
          "type": "bool"
        }
      ],
      "stateMutability": "view",
      "type": "function"
    },
    {
      "inputs": [
        {
          "internalType": "bytes32",
          "name": "",
          "type": "bytes32"
        }
      ],
      "name": "validationProcesses",
      "outputs": [
        {
          "internalType": "bytes32",
          "name": "txId",
          "type": "bytes32"
        },
        {
          "internalType": "bytes32",
          "name": "clusterId",
          "type": "bytes32"
        },
        {
          "internalType": "uint256",
          "name": "validationsRequired",
          "type": "uint256"
        },
        {
          "internalType": "uint256",
          "name": "validationsReceived",
          "type": "uint256"
        },
        {
          "internalType": "uint256",
          "name": "validationsPositive",
          "type": "uint256"
        },
        {
          "internalType": "bool",
          "name": "isComplete",
          "type": "bool"
        }
      ],
      "stateMutability": "view",
      "type": "function"
    },
    {
      "inputs": [
        {
          "internalType": "bytes32",
          "name": "clusterId",
          "type": "bytes32"
        },
        {
          "internalType": "address",
          "name": "recipient",
          "type": "address"
        },
        {
          "internalType": "bytes",
          "name": "content",
          "type": "bytes"
        }
      ],
      "name": "sendClusterMessage",
      "outputs": [],
      "stateMutability": "nonpayable",
      "type": "function"
    }
  ],
  "bytecode": "0x608060405234801562000010575f80fd5b506200001d5f3362000028565b6001600555620000d6565b62000034828262000038565b5050565b5f828152602081815260408083206001600160a01b038516845290915290205460ff1662000034575f828152602081815260408083206001600160a01b03851684529091529020805460ff19166001179055620000923390565b6001600160a01b0316816001600160a01b0316837f2f8788117e7eff1d82e926ec794901d17c78024a50270940304540a733656f0d60405160405180910390a45050565b611f0780620000e45f395ff3fe608060405234801561000f575f80fd5b5060043610610132575f3560e01c806337b89061116100b45780638ec1daee116100795780638ec1daee146103b157806391d14854146103b95780639c5ca623146103cc578063a217fddf146103ec578063a5ac22bc146103f3578063d547741f14610467575f80fd5b806337b89061146103245780634789015c146103375780634c7b87101461036457806360523156146103775780637f747c541461038a575f80fd5b806329399528116100fa578063293995281461023a5780632bbd59ca146102425780632e41e2e8146102675780632f2ff15d146102fc57806336568abe14610311575f80fd5b806301ffc9a714610136578063066e94811461015e57806314552f261461019f578063189a5a17146101b5578063248a9ca314610218575b5f80fd5b6101496101443660046116fe565b61047a565b60405190151581526020015b60405180910390f35b61018a61016c366004611725565b60046020525f90815260409020600181015460029091015460ff1682565b60408051928352901515602083015201610155565b6101a7604681565b604051908152602001610155565b6102066101c3366004611757565b600160208190525f9182526040909120805491810154600282015460038301546004909301546001600160a01b0385169460ff600160a01b909104811694169086565b604051610155969594939291906117a4565b6101a7610226366004611725565b5f9081526020819052604090206001015490565b6101a7600a81565b610255610250366004611725565b6104b0565b60405161015596959493929190611832565b6102bd610275366004611725565b600260208190525f9182526040909120805460018201549282015460038301546004840154600585015460069095015493956001600160a01b03169492939192909160ff1687565b604080519788526001600160a01b039096166020880152948601939093526060850191909152608084015260a0830152151560c082015260e001610155565b61030f61030a366004611882565b6105fd565b005b61030f61031f366004611882565b610626565b61030f61033236600461195d565b6106a9565b610149610345366004611882565b600360209081525f928352604080842090915290825290205460ff1681565b61030f6103723660046119b0565b610890565b61030f6103853660046119e2565b610ab8565b6101a77f494524d2d1f4acd3eed6a4679ede5f8aa5fa9493ca9319f21d8a90f197e849bc81565b6101a7600381565b6101496103c7366004611882565b610d65565b6103df6103da366004611a49565b610d8d565b6040516101559190611afb565b6101a75f81565b610438610401366004611725565b60066020525f9081526040902080546001820154600283015460038401546004850154600590950154939492939192909160ff1686565b6040805196875260208701959095529385019290925260608401526080830152151560a082015260c001610155565b61030f610475366004611882565b610df0565b5f6001600160e01b03198216637965db0b60e01b14806104aa57506301ffc9a760e01b6001600160e01b03198316145b92915050565b60076020525f9081526040902080546001820180549192916104d190611b3e565b80601f01602080910402602001604051908101604052809291908181526020018280546104fd90611b3e565b80156105485780601f1061051f57610100808354040283529160200191610548565b820191905f5260205f20905b81548152906001019060200180831161052b57829003601f168201915b50505050509080600201805461055d90611b3e565b80601f016020809104026020016040519081016040528092919081815260200182805461058990611b3e565b80156105d45780601f106105ab576101008083540402835291602001916105d4565b820191905f5260205f20905b8154815290600101906020018083116105b757829003601f168201915b505050506003830154600484015460059094015492936001600160a01b03918216939116915086565b5f8281526020819052604090206001015461061781610e14565b6106218383610e21565b505050565b6001600160a01b038116331461069b5760405162461bcd60e51b815260206004820152602f60248201527f416363657373436f6e74726f6c3a2063616e206f6e6c792072656e6f756e636560448201526e103937b632b9903337b91039b2b63360891b60648201526084015b60405180910390fd5b6106a58282610ea4565b5050565b6106b1610f08565b5f83815260036020908152604080832033845290915290205460ff1661070a5760405162461bcd60e51b815260206004820152600e60248201526d2737ba1034b71031b63ab9ba32b960911b6044820152606401610692565b6040805160208082018690526bffffffffffffffffffffffff1933606090811b82168486015286901b16605483015242606880840191909152835180840390910181526088830184528051908201205f878152600290925292812060050154849261077991849160a801611b76565b60408051601f198184030181528282528051602091820120908301520160408051601f1981840301815260c08301825285835260208381018681528484018390523360608601526001600160a01b038a1660808601524260a08601525f888152600790925292902083518155915190935060018201906107f99082611be4565b506040820151600282019061080e9082611be4565b5060608201516003820180546001600160a01b03199081166001600160a01b0393841617909155608084015160048401805490921690831617905560a0909201516005909101556040519086169084907f7b9d8fb801d8b8dfd8524633c9f2b8732cc5d5b98db2cebad68362d07be64132905f90a35050506106216001600555565b610898610f08565b5f828152600660205260409020600581015460ff16156108f05760405162461bcd60e51b815260206004820152601360248201527256616c69646174696f6e20636f6d706c65746560681b6044820152606401610692565b335f90815260068201602052604090205460ff16156109455760405162461bcd60e51b8152602060048201526011602482015270105b1c9958591e481d985b1a59185d1959607a1b6044820152606401610692565b60018101545f90815260036020908152604080832033845290915290205460ff166109a75760405162461bcd60e51b81526020600482015260126024820152712737ba1031b63ab9ba32b91036b2b6b132b960711b6044820152606401610692565b335f9081526006820160205260408120805460ff19166001179055600382018054916109d283611cb4565b919050555081156109f457600481018054905f6109ee83611cb4565b91905055505b60408051338152831515602082015284917f7fa8b9eab985b7a737fe8267cd6f77b362ae6c8a9b93c1196cb45869d95de00c910160405180910390a28060020154816003015410610aad575f6046826003015483600401546064610a589190611ccc565b610a629190611ce3565b60058401805460ff19166001179055604051911115808252915084907fa668712c0b8f59efdf687dfbc672df6d8a1ab624717f5dfd9a794099f3ad48849060200160405180910390a2505b506106a56001600555565b610ac0610f08565b5f8281526006602052604090206005015460ff1615610b155760405162461bcd60e51b8152602060048201526011602482015270105b1c9958591e481d985b1a59185d1959607a1b6044820152606401610692565b604080516003808252608082019092525f91602082016060803683370190505090505f815f81518110610b4a57610b4a611d02565b60200260200101906002811115610b6357610b63611770565b90816002811115610b7657610b76611770565b81525050600181600181518110610b8f57610b8f611d02565b60200260200101906002811115610ba857610ba8611770565b90816002811115610bbb57610bbb611770565b81525050600281600281518110610bd457610bd4611d02565b60200260200101906002811115610bed57610bed611770565b90816002811115610c0057610c00611770565b9052508151604051639c5ca62360e01b81525f913091639c5ca62391610c2d918891908790600401611d16565b5f604051808303815f875af1158015610c48573d5f803e3d5ffd5b505050506040513d5f823e601f3d908101601f19168201604052610c6f9190810190611d70565b90505f815111610cb85760405162461bcd60e51b8152602060048201526014602482015273139bc81d985b1a59081c9bdd5d1948199bdd5b9960621b6044820152606401610692565b5f848152600660205260408120858155825190918391610cda57610cda611d02565b60200260200101518160010181905550610d0c825f81518110610cff57610cff611d02565b6020026020010151610f61565b6002820155815182905f90610d2357610d23611d02565b6020026020010151857f6a9b29eadfefca54b5659f637b613d396224569d6f801425810df6cf4800818360405160405180910390a35050506106a56001600555565b5f918252602082815260408084206001600160a01b0393909316845291905290205460ff1690565b5f838152600460205260408120606091610da78585610f94565b90505f80610db58388611204565b81519193509150610dcc90859060208501906116a1565b506001848101919091556002909301805460ff191690931790925550949350505050565b5f82815260208190526040902060010154610e0a81610e14565b6106218383610ea4565b610e1e8133611336565b50565b610e2b8282610d65565b6106a5575f828152602081815260408083206001600160a01b03851684529091529020805460ff19166001179055610e603390565b6001600160a01b0316816001600160a01b0316837f2f8788117e7eff1d82e926ec794901d17c78024a50270940304540a733656f0d60405160405180910390a45050565b610eae8282610d65565b156106a5575f828152602081815260408083206001600160a01b0385168085529252808320805460ff1916905551339285917ff6391f5c32d9c69d2a47ea670b442974b53935d1edc7fd64eb21e047a839171b9190a45050565b600260055403610f5a5760405162461bcd60e51b815260206004820152601f60248201527f5265656e7472616e637947756172643a207265656e7472616e742063616c6c006044820152606401610692565b6002600555565b5f818152600260208190526040822060038082015491929091610f8391611ccc565b610f8d9190611ce3565b9392505050565b60408051600a80825261016082019092526060915f91829160208201610140803683370190505090505f5b600a811015611160575f81815260026020526040812054829103610fe35750611160565b5f818152600260205260409020600681015460ff1661100357505061114e565b60015f5b8851811015611107575f8061101b8661138f565b90505f5b81518110156110e2575f60015f84848151811061103e5761103e611d02565b60200260200101516001600160a01b03166001600160a01b031681526020019081526020015f2090508c858151811061107957611079611d02565b6020026020010151600281111561109257611092611770565b8154600160a01b900460ff1660028111156110af576110af611770565b1480156110c05750600381015460ff165b156110cf5760019350506110e2565b50806110da81611cb4565b91505061101f565b50816110f2575f93505050611107565b505080806110ff90611cb4565b915050611007565b50808015611119575088826003015410155b1561114a578285878151811061113157611131611d02565b60209081029190910101528561114681611cb4565b9650505b5050505b8061115881611cb4565b915050610fbf565b505f8267ffffffffffffffff81111561117b5761117b6118ac565b6040519080825280602002602001820160405280156111a4578160200160208202803683370190505b5090505f5b838110156111fa578281815181106111c3576111c3611d02565b60200260200101518282815181106111dd576111dd611d02565b6020908102919091010152806111f281611cb4565b9150506111a9565b5095945050505050565b60605f83515f03611226575050604080515f808252602082019092529061132f565b6040805160018082528183019092525f91602080830190803683370190505090505f805b8651811015611328575f60025f89848151811061126957611269611d02565b602002602001015181526020019081526020015f2090505f6064602883600301546112949190611ccc565b61129e9190611ce3565b90505f6064603c84600401546112b49190611ccc565b6112be9190611ce3565b90505f6112cb8284611dfc565b905085811115611311578095508a85815181106112ea576112ea611d02565b6020026020010151875f8151811061130457611304611d02565b6020026020010181815250505b50505050808061132090611cb4565b91505061124a565b5090925090505b9250929050565b6113408282610d65565b6106a55761134d816114f9565b61135883602061150b565b604051602001611369929190611e0f565b60408051601f198184030181529082905262461bcd60e51b825261069291600401611e83565b60408051600a80825261016082019092526060915f91829160208201610140803683370190505090505f5b6001600160a01b038181161015611449575f8581526003602090815260408083206001600160a01b038516845290915290205460ff1615611437578082848151811061140857611408611d02565b6001600160a01b03909216602092830291909101909101528261142a81611cb4565b935050600a831015611449575b611442816001611e95565b90506113ba565b505f8267ffffffffffffffff811115611464576114646118ac565b60405190808252806020026020018201604052801561148d578160200160208202803683370190505b5090505f5b838110156114f0578281815181106114ac576114ac611d02565b60200260200101518282815181106114c6576114c6611d02565b6001600160a01b0390921660209283029190910190910152806114e881611cb4565b915050611492565b50949350505050565b60606104aa6001600160a01b03831660145b60605f611519836002611ccc565b611524906002611dfc565b67ffffffffffffffff81111561153c5761153c6118ac565b6040519080825280601f01601f191660200182016040528015611566576020820181803683370190505b509050600360fc1b815f8151811061158057611580611d02565b60200101906001600160f81b03191690815f1a905350600f60fb1b816001815181106115ae576115ae611d02565b60200101906001600160f81b03191690815f1a9053505f6115d0846002611ccc565b6115db906001611dfc565b90505b6001811115611652576f181899199a1a9b1b9c1cb0b131b232b360811b85600f166010811061160f5761160f611d02565b1a60f81b82828151811061162557611625611d02565b60200101906001600160f81b03191690815f1a90535060049490941c9361164b81611ebc565b90506115de565b508315610f8d5760405162461bcd60e51b815260206004820181905260248201527f537472696e67733a20686578206c656e67746820696e73756666696369656e746044820152606401610692565b828054828255905f5260205f209081019282156116da579160200282015b828111156116da5782518255916020019190600101906116bf565b506116e69291506116ea565b5090565b5b808211156116e6575f81556001016116eb565b5f6020828403121561170e575f80fd5b81356001600160e01b031981168114610f8d575f80fd5b5f60208284031215611735575f80fd5b5035919050565b80356001600160a01b0381168114611752575f80fd5b919050565b5f60208284031215611767575f80fd5b610f8d8261173c565b634e487b7160e01b5f52602160045260245ffd5b600381106117a057634e487b7160e01b5f52602160045260245ffd5b9052565b6001600160a01b038716815260c081016117c16020830188611784565b60408201959095526060810193909352901515608083015260a09091015292915050565b5f5b838110156117ff5781810151838201526020016117e7565b50505f910152565b5f815180845261181e8160208601602086016117e5565b601f01601f19169290920160200192915050565b86815260c060208201525f61184a60c0830188611807565b828103604084015261185c8188611807565b6001600160a01b0396871660608501529490951660808301525060a00152949350505050565b5f8060408385031215611893575f80fd5b823591506118a36020840161173c565b90509250929050565b634e487b7160e01b5f52604160045260245ffd5b604051601f8201601f1916810167ffffffffffffffff811182821017156118e9576118e96118ac565b604052919050565b5f82601f830112611900575f80fd5b813567ffffffffffffffff81111561191a5761191a6118ac565b61192d601f8201601f19166020016118c0565b818152846020838601011115611941575f80fd5b816020850160208301375f918101602001919091529392505050565b5f805f6060848603121561196f575f80fd5b8335925061197f6020850161173c565b9150604084013567ffffffffffffffff81111561199a575f80fd5b6119a6868287016118f1565b9150509250925092565b5f80604083850312156119c1575f80fd5b82359150602083013580151581146119d7575f80fd5b809150509250929050565b5f80604083850312156119f3575f80fd5b82359150602083013567ffffffffffffffff811115611a10575f80fd5b611a1c858286016118f1565b9150509250929050565b5f67ffffffffffffffff821115611a3f57611a3f6118ac565b5060051b60200190565b5f805f60608486031215611a5b575f80fd5b833592506020808501359250604085013567ffffffffffffffff811115611a80575f80fd5b8501601f81018713611a90575f80fd5b8035611aa3611a9e82611a26565b6118c0565b81815260059190911b82018301908381019089831115611ac1575f80fd5b928401925b82841015611aec57833560038110611add575f8081fd5b82529284019290840190611ac6565b80955050505050509250925092565b602080825282518282018190525f9190848201906040850190845b81811015611b3257835183529284019291840191600101611b16565b50909695505050505050565b600181811c90821680611b5257607f821691505b602082108103611b7057634e487b7160e01b5f52602260045260245ffd5b50919050565b5f8351611b878184602088016117e5565b9190910191825250602001919050565b601f821115610621575f81815260208120601f850160051c81016020861015611bbd5750805b601f850160051c820191505b81811015611bdc57828155600101611bc9565b505050505050565b815167ffffffffffffffff811115611bfe57611bfe6118ac565b611c1281611c0c8454611b3e565b84611b97565b602080601f831160018114611c45575f8415611c2e5750858301515b5f19600386901b1c1916600185901b178555611bdc565b5f85815260208120601f198616915b82811015611c7357888601518255948401946001909101908401611c54565b5085821015611c9057878501515f19600388901b60f8161c191681555b5050505050600190811b01905550565b634e487b7160e01b5f52601160045260245ffd5b5f60018201611cc557611cc5611ca0565b5060010190565b80820281158282048414176104aa576104aa611ca0565b5f82611cfd57634e487b7160e01b5f52601260045260245ffd5b500490565b634e487b7160e01b5f52603260045260245ffd5b5f60608201858352602085818501526060604085015281855180845260808601915082870193505f5b81811015611d6257611d52838651611784565b9383019391830191600101611d3f565b509098975050505050505050565b5f6020808385031215611d81575f80fd5b825167ffffffffffffffff811115611d97575f80fd5b8301601f81018513611da7575f80fd5b8051611db5611a9e82611a26565b81815260059190911b82018301908381019087831115611dd3575f80fd5b928401925b82841015611df157835182529284019290840190611dd8565b979650505050505050565b808201808211156104aa576104aa611ca0565b7f416363657373436f6e74726f6c3a206163636f756e742000000000000000000081525f8351611e468160178501602088016117e5565b7001034b99036b4b9b9b4b733903937b6329607d1b6017918401918201528351611e778160288401602088016117e5565b01602801949350505050565b602081525f610f8d6020830184611807565b6001600160a01b03818116838216019080821115611eb557611eb5611ca0565b5092915050565b5f81611eca57611eca611ca0565b505f19019056fea2646970667358221220f6cb69fc90037c1c9bb5c835dbb39d7b4ce66bacc1804deade7142b50315fa1d64736f6c63430008140033",
  "immutableReferences": {},
  "source": "// SPDX-License-Identifier: MIT\npragma solidity ^0.8.0;\n\nimport \"@openzeppelin/contracts/security/ReentrancyGuard.sol\";\nimport \"@openzeppelin/contracts/access/AccessControl.sol\";\n\n// NodeTypes library remains unchanged\nlibrary NodeTypes {\n    enum NodeRole {\n        DESIGNATOR,\n        VALIDATOR,\n        EXECUTOR\n    }\n\n    struct Node {\n        address nodeAddress;\n        NodeRole role;\n        uint256 capacity;\n        uint256 performance;\n        bool isActive;\n        bytes32 clusterId;\n    }\n\n    struct Cluster {\n        bytes32 id;\n        address leader;\n        uint256 formationTime;\n        uint256 nodeCount;\n        uint256 processedTxCount;\n        bytes32 sessionKey;\n        bool isActive;\n    }\n}\n\ncontract ClusterManager is AccessControl {\n    using NodeTypes for NodeTypes.Node;\n    using NodeTypes for NodeTypes.Cluster;\n\n    bytes32 public constant CLUSTER_ADMIN = keccak256(\"CLUSTER_ADMIN\");\n    \n    mapping(address => NodeTypes.Node) public nodes;\n    mapping(bytes32 => NodeTypes.Cluster) public clusters;\n    mapping(bytes32 => mapping(address => bool)) public clusterMembers;\n    \n    uint256 public constant MIN_CLUSTER_SIZE = 3;\n    uint256 public constant MAX_CLUSTER_SIZE = 10;\n    uint256 public constant VALIDATION_THRESHOLD = 70;\n    \n    event ClusterFormed(bytes32 indexed clusterId, address leader);\n    event NodeAssigned(address indexed node, bytes32 indexed clusterId);\n    event SessionKeyGenerated(bytes32 indexed clusterId, bytes32 sessionKey);\n    \n    constructor() {\n        _setupRole(DEFAULT_ADMIN_ROLE, msg.sender);\n    }\n    \n    function generateSessionKey(\n        bytes32 clusterId\n    ) internal returns (bytes32) {\n        NodeTypes.Cluster storage cluster = clusters[clusterId];\n        require(cluster.isActive, \"Cluster not active\");\n        \n        bytes32 randomValue = keccak256(abi.encodePacked(\n            block.timestamp,\n            block.number,\n            blockhash(block.number - 1), // Use blockhash as a source of randomness\n            clusterId,\n            msg.sender\n        ));\n        \n        cluster.sessionKey = randomValue;\n        emit SessionKeyGenerated(clusterId, randomValue);\n        \n        return randomValue;\n    } // Added closing brace here\n}\n\ncontract BeeRoutingAlgorithm is ClusterManager {\n    struct Route {\n        bytes32[] clusterPath;\n        uint256 pathScore;\n        bool isOptimal;\n    }\n    \n    mapping(bytes32 => Route) public routes;\n    \n    // Routing parameters\n    uint256 private constant CAPACITY_WEIGHT = 40;\n    uint256 private constant PERFORMANCE_WEIGHT = 60;\n    uint256 private constant SCORE_THRESHOLD = 75;\n    \n    function findOptimalRoute(\n        bytes32 txId,\n        uint256 txSize,\n        NodeTypes.NodeRole[] memory requiredRoles\n    ) public returns (bytes32[] memory) {\n        Route storage route = routes[txId];\n        \n        bytes32[] memory eligibleClusters = findEligibleClusters(\n            txSize,\n            requiredRoles\n        );\n        \n        (bytes32[] memory optimalPath, uint256 pathScore) = calculateOptimalPath(\n            eligibleClusters,\n            txSize\n        );\n        \n        route.clusterPath = optimalPath;\n        route.pathScore = pathScore;\n        route.isOptimal = true;\n        \n        return optimalPath;\n    }\n    \n   function findEligibleClusters(\n    uint256 txSize,\n    NodeTypes.NodeRole[] memory requiredRoles\n) internal view returns (bytes32[] memory) {\n    uint256 clusterCount = 0;\n    bytes32[] memory tempClusters = new bytes32[](10); // Temporary fixed size array\n    \n    // Iterate through clusters using a counter approach\n    for (uint256 i = 0; i < 10; i++) { // Assuming max 10 clusters, adjust as needed\n        bytes32 clusterId = bytes32(i); // Convert index to bytes32\n        \n        if (clusters[clusterId].id == 0) break; // Stop if cluster doesn't exist\n        \n        NodeTypes.Cluster storage cluster = clusters[clusterId];\n        if (!cluster.isActive) continue;\n        \n        // Check if cluster has required roles\n        bool hasAllRoles = true;\n        for (uint j = 0; j < requiredRoles.length; j++) {\n            bool roleFound = false;\n            \n            // Iterate through possible node addresses \n            // (you'll need to track these separately)\n            address[] memory clusterNodeAddresses = getClusterNodeAddresses(clusterId);\n            \n            for (uint k = 0; k < clusterNodeAddresses.length; k++) {\n                NodeTypes.Node storage node = nodes[clusterNodeAddresses[k]];\n                if (node.role == requiredRoles[j] && node.isActive) {\n                    roleFound = true;\n                    break;\n                }\n            }\n            \n            if (!roleFound) {\n                hasAllRoles = false;\n                break;\n            }\n        }\n        \n        // Check capacity\n        if (hasAllRoles && cluster.nodeCount >= txSize) {\n            tempClusters[clusterCount] = clusterId;\n            clusterCount++;\n        }\n    }\n    \n    // Create correctly sized array\n    bytes32[] memory eligibleClusters = new bytes32[](clusterCount);\n    for (uint256 k = 0; k < clusterCount; k++) {\n        eligibleClusters[k] = tempClusters[k];\n    }\n    \n    return eligibleClusters;\n}\n\n// Helper function to get node addresses for a cluster\nfunction getClusterNodeAddresses(bytes32 clusterId) internal view returns (address[] memory) {\n    uint256 nodeCount = 0;\n    address[] memory tempAddresses = new address[](10); // Assuming max 10 nodes per cluster\n    \n    for (address nodeAddr = address(0); nodeAddr < address(type(uint160).max); nodeAddr = address(uint160(nodeAddr) + 1)) {\n        if (clusterMembers[clusterId][nodeAddr]) {\n            tempAddresses[nodeCount] = nodeAddr;\n            nodeCount++;\n            \n            if (nodeCount >= 10) break; // Prevent potential infinite loop\n        }\n    }\n    \n    // Create correctly sized array\n    address[] memory clusterNodeAddresses = new address[](nodeCount);\n    for (uint256 i = 0; i < nodeCount; i++) {\n        clusterNodeAddresses[i] = tempAddresses[i];\n    }\n    \n    return clusterNodeAddresses;\n}\n    \nfunction calculateOptimalPath(\n    bytes32[] memory eligibleClusters,\n    uint256 /* txSize */\n) internal view returns (bytes32[] memory, uint256) {\n    if (eligibleClusters.length == 0) {\n        return (new bytes32[](0), 0);\n    }\n    \n    bytes32[] memory optimalPath = new bytes32[](1);\n    uint256 highestScore = 0;\n    \n    for (uint256 i = 0; i < eligibleClusters.length; i++) {\n        NodeTypes.Cluster storage cluster = clusters[eligibleClusters[i]];\n        \n        // Calculate weighted score based on node count and processed transactions\n        uint256 nodeCountScore = (cluster.nodeCount * CAPACITY_WEIGHT) / 100;\n        uint256 performanceScore = (cluster.processedTxCount * PERFORMANCE_WEIGHT) / 100;\n        uint256 totalScore = nodeCountScore + performanceScore;\n        \n        if (totalScore > highestScore) {\n            highestScore = totalScore;\n            optimalPath[0] = eligibleClusters[i];\n        }\n    }\n    \n    return (optimalPath, highestScore);\n}\n}\n/**\n * @title PasschainValidator\n * @dev Manages PoA validation process for transactions\n */\ncontract PasschainValidator is BeeRoutingAlgorithm, ReentrancyGuard {\n    struct ValidationProcess {\n        bytes32 txId;\n        bytes32 clusterId;\n        uint256 validationsRequired;\n        uint256 validationsReceived;\n        uint256 validationsPositive;\n        bool isComplete;\n        mapping(address => bool) hasValidated;\n    }\n    \n    mapping(bytes32 => ValidationProcess) public validationProcesses;\n    \n    event ValidationStarted(bytes32 indexed txId, bytes32 indexed clusterId);\n    event ValidationSubmitted(bytes32 indexed txId, address validator, bool result);\n    event ValidationComplete(bytes32 indexed txId, bool isValid);\n    \n    function initiateValidation(\n        bytes32 txId,\n        bytes memory txData\n    ) external nonReentrant {\n        require(!validationProcesses[txId].isComplete, \"Already validated\");\n        \n        // Find optimal cluster route\n        NodeTypes.NodeRole[] memory roles = new NodeTypes.NodeRole[](3);\n        roles[0] = NodeTypes.NodeRole.DESIGNATOR;\n        roles[1] = NodeTypes.NodeRole.VALIDATOR;\n        roles[2] = NodeTypes.NodeRole.EXECUTOR;\n        \n        bytes32[] memory routePath = this.findOptimalRoute(\n            txId,\n            txData.length,\n            roles\n        );\n        require(routePath.length > 0, \"No valid route found\");\n        \n        // Setup validation process\n        ValidationProcess storage process = validationProcesses[txId];\n        process.txId = txId;\n        process.clusterId = routePath[0];\n        process.validationsRequired = calculateRequiredValidations(routePath[0]);\n        \n        emit ValidationStarted(txId, routePath[0]);\n    }\n    \n    function submitValidation(\n        bytes32 txId,\n        bool isValid\n    ) external nonReentrant {\n        ValidationProcess storage process = validationProcesses[txId];\n        require(!process.isComplete, \"Validation complete\");\n        require(!process.hasValidated[msg.sender], \"Already validated\");\n        require(\n            clusterMembers[process.clusterId][msg.sender],\n            \"Not cluster member\"\n        );\n        \n        process.hasValidated[msg.sender] = true;\n        process.validationsReceived++;\n        if (isValid) {\n            process.validationsPositive++;\n        }\n        \n        emit ValidationSubmitted(txId, msg.sender, isValid);\n        \n        // Check if validation is complete\n        if (process.validationsReceived >= process.validationsRequired) {\n            bool validationResult = (\n                process.validationsPositive * 100 / process.validationsReceived\n            ) >= VALIDATION_THRESHOLD;\n            \n            process.isComplete = true;\n            emit ValidationComplete(txId, validationResult);\n        }\n    }\n    \n    function calculateRequiredValidations(\n        bytes32 clusterId\n    ) internal view returns (uint256) {\n        NodeTypes.Cluster storage cluster = clusters[clusterId];\n        return (cluster.nodeCount * 2) / 3; // Require 2/3 majority\n    }\n}\n\n/**\n * @title ClusterCommunication\n * @dev Handles secure communication within and between clusters\n */\ncontract ClusterCommunication is PasschainValidator {\n    struct SecureMessage {\n        bytes32 messageId;\n        bytes encryptedContent;\n        bytes mac;\n        address sender;\n        address recipient;\n        uint256 timestamp;\n    }\n    \n    mapping(bytes32 => SecureMessage) public messages;\n    \n    event MessageSent(bytes32 indexed messageId, address indexed recipient);\n    \n    function sendClusterMessage(\n        bytes32 clusterId,\n        address recipient,\n        bytes memory content\n    ) external nonReentrant {\n        require(\n            clusterMembers[clusterId][msg.sender],\n            \"Not in cluster\"\n        );\n        \n        bytes32 messageId = keccak256(abi.encodePacked(\n            clusterId,\n            msg.sender,\n            recipient,\n            block.timestamp\n        ));\n        \n        // AES-GCM encryption would be implemented here\n        bytes memory encrypted = content; // Placeholder\n        \n        // HMAC generation\n        bytes memory mac = abi.encodePacked(\n            keccak256(abi.encodePacked(content, clusters[clusterId].sessionKey))\n        );\n        \n        messages[messageId] = SecureMessage({\n            messageId: messageId,\n            encryptedContent: encrypted,\n            mac: mac,\n            sender: msg.sender,\n            recipient: recipient,\n            timestamp: block.timestamp\n        });\n        \n        emit MessageSent(messageId, recipient);\n    }\n}",
  "sourcePath": "C:\\Users\\Bonsu\\Documents\\CLEANER PRODUCTION\\renewalclimateproject\\ClimateProjectFull\\contracts\\passchain\\ClusterManager.sol",
  "compiler": {
    "name": "solc",
    "version": "0.8.20+commit.a1b79de6.Emscripten.clang"
  },
  "schemaVersion": "3.4.16",
  "updatedAt": "2025-02-21T06:43:13.915Z",
  "devdoc": {
    "details": "Handles secure communication within and between clusters",
    "events": {
      "RoleAdminChanged(bytes32,bytes32,bytes32)": {
        "details": "Emitted when `newAdminRole` is set as ``role``'s admin role, replacing `previousAdminRole` `DEFAULT_ADMIN_ROLE` is the starting admin for all roles, despite {RoleAdminChanged} not being emitted signaling this. _Available since v3.1._"
      },
      "RoleGranted(bytes32,address,address)": {
        "details": "Emitted when `account` is granted `role`. `sender` is the account that originated the contract call, an admin role bearer except when using {AccessControl-_setupRole}."
      },
      "RoleRevoked(bytes32,address,address)": {
        "details": "Emitted when `account` is revoked `role`. `sender` is the account that originated the contract call:   - if using `revokeRole`, it is the admin role bearer   - if using `renounceRole`, it is the role bearer (i.e. `account`)"
      }
    },
    "kind": "dev",
    "methods": {
      "getRoleAdmin(bytes32)": {
        "details": "Returns the admin role that controls `role`. See {grantRole} and {revokeRole}. To change a role's admin, use {_setRoleAdmin}."
      },
      "grantRole(bytes32,address)": {
        "details": "Grants `role` to `account`. If `account` had not been already granted `role`, emits a {RoleGranted} event. Requirements: - the caller must have ``role``'s admin role. May emit a {RoleGranted} event."
      },
      "hasRole(bytes32,address)": {
        "details": "Returns `true` if `account` has been granted `role`."
      },
      "renounceRole(bytes32,address)": {
        "details": "Revokes `role` from the calling account. Roles are often managed via {grantRole} and {revokeRole}: this function's purpose is to provide a mechanism for accounts to lose their privileges if they are compromised (such as when a trusted device is misplaced). If the calling account had been revoked `role`, emits a {RoleRevoked} event. Requirements: - the caller must be `account`. May emit a {RoleRevoked} event."
      },
      "revokeRole(bytes32,address)": {
        "details": "Revokes `role` from `account`. If `account` had been granted `role`, emits a {RoleRevoked} event. Requirements: - the caller must have ``role``'s admin role. May emit a {RoleRevoked} event."
      },
      "supportsInterface(bytes4)": {
        "details": "See {IERC165-supportsInterface}."
      }
    },
    "title": "ClusterCommunication",
    "version": 1
  },
  "userdoc": {
    "kind": "user",
    "methods": {},
    "version": 1
  }
}