{
  "contractName": "CompanyRegister",
  "abi": [
    {
      "inputs": [
        {
          "internalType": "string",
          "name": "name",
          "type": "string"
        },
        {
          "internalType": "string",
          "name": "symbol",
          "type": "string"
        }
      ],
      "stateMutability": "nonpayable",
      "type": "constructor"
    },
    {
      "anonymous": false,
      "inputs": [
        {
          "indexed": true,
          "internalType": "address",
          "name": "owner",
          "type": "address"
        },
        {
          "indexed": true,
          "internalType": "address",
          "name": "spender",
          "type": "address"
        },
        {
          "indexed": false,
          "internalType": "uint256",
          "name": "value",
          "type": "uint256"
        }
      ],
      "name": "Approval",
      "type": "event"
    },
    {
      "anonymous": false,
      "inputs": [
        {
          "indexed": true,
          "internalType": "string",
          "name": "cityName",
          "type": "string"
        },
        {
          "indexed": false,
          "internalType": "uint256",
          "name": "timestamp",
          "type": "uint256"
        }
      ],
      "name": "CityRegistered",
      "type": "event"
    },
    {
      "anonymous": false,
      "inputs": [
        {
          "indexed": true,
          "internalType": "string",
          "name": "cityName",
          "type": "string"
        },
        {
          "indexed": true,
          "internalType": "string",
          "name": "sector",
          "type": "string"
        },
        {
          "indexed": false,
          "internalType": "uint256",
          "name": "timestamp",
          "type": "uint256"
        },
        {
          "indexed": false,
          "internalType": "uint256",
          "name": "value",
          "type": "uint256"
        }
      ],
      "name": "DailyDataRecorded",
      "type": "event"
    },
    {
      "anonymous": false,
      "inputs": [
        {
          "indexed": true,
          "internalType": "address",
          "name": "previousOwner",
          "type": "address"
        },
        {
          "indexed": true,
          "internalType": "address",
          "name": "newOwner",
          "type": "address"
        }
      ],
      "name": "OwnershipTransferred",
      "type": "event"
    },
    {
      "anonymous": false,
      "inputs": [
        {
          "indexed": true,
          "internalType": "string",
          "name": "cityName",
          "type": "string"
        },
        {
          "indexed": true,
          "internalType": "string",
          "name": "sectorName",
          "type": "string"
        },
        {
          "indexed": false,
          "internalType": "uint256",
          "name": "timestamp",
          "type": "uint256"
        }
      ],
      "name": "SectorAdded",
      "type": "event"
    },
    {
      "anonymous": false,
      "inputs": [
        {
          "indexed": true,
          "internalType": "address",
          "name": "from",
          "type": "address"
        },
        {
          "indexed": true,
          "internalType": "address",
          "name": "to",
          "type": "address"
        },
        {
          "indexed": false,
          "internalType": "uint256",
          "name": "value",
          "type": "uint256"
        }
      ],
      "name": "Transfer",
      "type": "event"
    },
    {
      "inputs": [],
      "name": "ROLLING_AVERAGE_DAYS",
      "outputs": [
        {
          "internalType": "uint256",
          "name": "",
          "type": "uint256"
        }
      ],
      "stateMutability": "view",
      "type": "function"
    },
    {
      "inputs": [],
      "name": "SCALE_FACTOR",
      "outputs": [
        {
          "internalType": "uint256",
          "name": "",
          "type": "uint256"
        }
      ],
      "stateMutability": "view",
      "type": "function"
    },
    {
      "inputs": [
        {
          "internalType": "string",
          "name": "cityName",
          "type": "string"
        },
        {
          "internalType": "string",
          "name": "sectorName",
          "type": "string"
        }
      ],
      "name": "addSector",
      "outputs": [],
      "stateMutability": "nonpayable",
      "type": "function"
    },
    {
      "inputs": [
        {
          "internalType": "address",
          "name": "owner",
          "type": "address"
        },
        {
          "internalType": "address",
          "name": "spender",
          "type": "address"
        }
      ],
      "name": "allowance",
      "outputs": [
        {
          "internalType": "uint256",
          "name": "",
          "type": "uint256"
        }
      ],
      "stateMutability": "view",
      "type": "function"
    },
    {
      "inputs": [
        {
          "internalType": "address",
          "name": "spender",
          "type": "address"
        },
        {
          "internalType": "uint256",
          "name": "amount",
          "type": "uint256"
        }
      ],
      "name": "approve",
      "outputs": [
        {
          "internalType": "bool",
          "name": "",
          "type": "bool"
        }
      ],
      "stateMutability": "nonpayable",
      "type": "function"
    },
    {
      "inputs": [
        {
          "internalType": "address",
          "name": "account",
          "type": "address"
        }
      ],
      "name": "balanceOf",
      "outputs": [
        {
          "internalType": "uint256",
          "name": "",
          "type": "uint256"
        }
      ],
      "stateMutability": "view",
      "type": "function"
    },
    {
      "inputs": [
        {
          "internalType": "string",
          "name": "cityName",
          "type": "string"
        },
        {
          "internalType": "string",
          "name": "sectorName",
          "type": "string"
        },
        {
          "internalType": "uint256",
          "name": "timestamp",
          "type": "uint256"
        }
      ],
      "name": "calculateCarbonCredit",
      "outputs": [
        {
          "internalType": "uint256",
          "name": "",
          "type": "uint256"
        }
      ],
      "stateMutability": "view",
      "type": "function"
    },
    {
      "inputs": [
        {
          "internalType": "address",
          "name": "",
          "type": "address"
        },
        {
          "internalType": "uint256",
          "name": "",
          "type": "uint256"
        }
      ],
      "name": "carbonCapacityCompany",
      "outputs": [
        {
          "internalType": "uint256",
          "name": "",
          "type": "uint256"
        }
      ],
      "stateMutability": "view",
      "type": "function"
    },
    {
      "inputs": [
        {
          "internalType": "address",
          "name": "",
          "type": "address"
        },
        {
          "internalType": "address",
          "name": "",
          "type": "address"
        }
      ],
      "name": "checkIfCompanyIsInCity",
      "outputs": [
        {
          "internalType": "bool",
          "name": "",
          "type": "bool"
        }
      ],
      "stateMutability": "view",
      "type": "function"
    },
    {
      "inputs": [
        {
          "internalType": "string",
          "name": "",
          "type": "string"
        }
      ],
      "name": "cities",
      "outputs": [
        {
          "internalType": "string",
          "name": "name",
          "type": "string"
        },
        {
          "internalType": "bool",
          "name": "isRegistered",
          "type": "bool"
        },
        {
          "internalType": "uint256",
          "name": "registrationDate",
          "type": "uint256"
        }
      ],
      "stateMutability": "view",
      "type": "function"
    },
    {
      "inputs": [
        {
          "internalType": "address",
          "name": "",
          "type": "address"
        }
      ],
      "name": "companyStore",
      "outputs": [
        {
          "internalType": "address payable",
          "name": "companyAddress",
          "type": "address"
        },
        {
          "internalType": "address",
          "name": "city",
          "type": "address"
        },
        {
          "internalType": "string",
          "name": "location",
          "type": "string"
        },
        {
          "internalType": "uint256",
          "name": "longitude",
          "type": "uint256"
        },
        {
          "internalType": "uint256",
          "name": "latitude",
          "type": "uint256"
        },
        {
          "internalType": "uint256",
          "name": "carbonCapacity",
          "type": "uint256"
        }
      ],
      "stateMutability": "view",
      "type": "function"
    },
    {
      "inputs": [
        {
          "internalType": "address",
          "name": "",
          "type": "address"
        }
      ],
      "name": "companycarbonLevels",
      "outputs": [
        {
          "internalType": "uint256",
          "name": "",
          "type": "uint256"
        }
      ],
      "stateMutability": "view",
      "type": "function"
    },
    {
      "inputs": [
        {
          "internalType": "address",
          "name": "",
          "type": "address"
        }
      ],
      "name": "companycarboncredit",
      "outputs": [
        {
          "internalType": "uint256",
          "name": "",
          "type": "uint256"
        }
      ],
      "stateMutability": "view",
      "type": "function"
    },
    {
      "inputs": [
        {
          "internalType": "address",
          "name": "",
          "type": "address"
        }
      ],
      "name": "companymaxCreditLevels",
      "outputs": [
        {
          "internalType": "uint256",
          "name": "",
          "type": "uint256"
        }
      ],
      "stateMutability": "view",
      "type": "function"
    },
    {
      "inputs": [],
      "name": "decimals",
      "outputs": [
        {
          "internalType": "uint8",
          "name": "",
          "type": "uint8"
        }
      ],
      "stateMutability": "view",
      "type": "function"
    },
    {
      "inputs": [
        {
          "internalType": "address",
          "name": "spender",
          "type": "address"
        },
        {
          "internalType": "uint256",
          "name": "subtractedValue",
          "type": "uint256"
        }
      ],
      "name": "decreaseAllowance",
      "outputs": [
        {
          "internalType": "bool",
          "name": "",
          "type": "bool"
        }
      ],
      "stateMutability": "nonpayable",
      "type": "function"
    },
    {
      "inputs": [
        {
          "internalType": "string",
          "name": "cityName",
          "type": "string"
        }
      ],
      "name": "getActiveSectors",
      "outputs": [
        {
          "internalType": "string[]",
          "name": "",
          "type": "string[]"
        }
      ],
      "stateMutability": "view",
      "type": "function"
    },
    {
      "inputs": [
        {
          "internalType": "string",
          "name": "cityName",
          "type": "string"
        },
        {
          "internalType": "string",
          "name": "sectorName",
          "type": "string"
        }
      ],
      "name": "getSectorStats",
      "outputs": [
        {
          "internalType": "uint256",
          "name": "totalRecordings",
          "type": "uint256"
        },
        {
          "internalType": "uint256",
          "name": "maxValue",
          "type": "uint256"
        },
        {
          "internalType": "uint256",
          "name": "rollingAverage",
          "type": "uint256"
        }
      ],
      "stateMutability": "view",
      "type": "function"
    },
    {
      "inputs": [
        {
          "internalType": "address",
          "name": "",
          "type": "address"
        },
        {
          "internalType": "uint256",
          "name": "",
          "type": "uint256"
        }
      ],
      "name": "humidity",
      "outputs": [
        {
          "internalType": "uint256",
          "name": "",
          "type": "uint256"
        }
      ],
      "stateMutability": "view",
      "type": "function"
    },
    {
      "inputs": [
        {
          "internalType": "address",
          "name": "spender",
          "type": "address"
        },
        {
          "internalType": "uint256",
          "name": "addedValue",
          "type": "uint256"
        }
      ],
      "name": "increaseAllowance",
      "outputs": [
        {
          "internalType": "bool",
          "name": "",
          "type": "bool"
        }
      ],
      "stateMutability": "nonpayable",
      "type": "function"
    },
    {
      "inputs": [],
      "name": "name",
      "outputs": [
        {
          "internalType": "string",
          "name": "",
          "type": "string"
        }
      ],
      "stateMutability": "view",
      "type": "function"
    },
    {
      "inputs": [],
      "name": "owner",
      "outputs": [
        {
          "internalType": "address",
          "name": "",
          "type": "address"
        }
      ],
      "stateMutability": "view",
      "type": "function"
    },
    {
      "inputs": [
        {
          "internalType": "address",
          "name": "",
          "type": "address"
        }
      ],
      "name": "paidCompanyEscrowFee",
      "outputs": [
        {
          "internalType": "bool",
          "name": "",
          "type": "bool"
        }
      ],
      "stateMutability": "view",
      "type": "function"
    },
    {
      "inputs": [
        {
          "internalType": "string",
          "name": "cityName",
          "type": "string"
        },
        {
          "internalType": "string",
          "name": "sectorName",
          "type": "string"
        },
        {
          "internalType": "uint256",
          "name": "timestamp",
          "type": "uint256"
        },
        {
          "internalType": "uint256",
          "name": "value",
          "type": "uint256"
        }
      ],
      "name": "recordDailyValue",
      "outputs": [],
      "stateMutability": "nonpayable",
      "type": "function"
    },
    {
      "inputs": [
        {
          "internalType": "string",
          "name": "cityName",
          "type": "string"
        }
      ],
      "name": "registerCity",
      "outputs": [],
      "stateMutability": "nonpayable",
      "type": "function"
    },
    {
      "inputs": [
        {
          "internalType": "uint256",
          "name": "",
          "type": "uint256"
        }
      ],
      "name": "registeredCityNames",
      "outputs": [
        {
          "internalType": "string",
          "name": "",
          "type": "string"
        }
      ],
      "stateMutability": "view",
      "type": "function"
    },
    {
      "inputs": [
        {
          "internalType": "address",
          "name": "",
          "type": "address"
        }
      ],
      "name": "registeredCompanies",
      "outputs": [
        {
          "internalType": "bool",
          "name": "",
          "type": "bool"
        }
      ],
      "stateMutability": "view",
      "type": "function"
    },
    {
      "inputs": [],
      "name": "renounceOwnership",
      "outputs": [],
      "stateMutability": "nonpayable",
      "type": "function"
    },
    {
      "inputs": [],
      "name": "symbol",
      "outputs": [
        {
          "internalType": "string",
          "name": "",
          "type": "string"
        }
      ],
      "stateMutability": "view",
      "type": "function"
    },
    {
      "inputs": [
        {
          "internalType": "address",
          "name": "",
          "type": "address"
        },
        {
          "internalType": "uint256",
          "name": "",
          "type": "uint256"
        }
      ],
      "name": "temperature",
      "outputs": [
        {
          "internalType": "uint256",
          "name": "",
          "type": "uint256"
        }
      ],
      "stateMutability": "view",
      "type": "function"
    },
    {
      "inputs": [],
      "name": "totalSupply",
      "outputs": [
        {
          "internalType": "uint256",
          "name": "",
          "type": "uint256"
        }
      ],
      "stateMutability": "view",
      "type": "function"
    },
    {
      "inputs": [
        {
          "internalType": "address",
          "name": "to",
          "type": "address"
        },
        {
          "internalType": "uint256",
          "name": "amount",
          "type": "uint256"
        }
      ],
      "name": "transfer",
      "outputs": [
        {
          "internalType": "bool",
          "name": "",
          "type": "bool"
        }
      ],
      "stateMutability": "nonpayable",
      "type": "function"
    },
    {
      "inputs": [
        {
          "internalType": "address",
          "name": "from",
          "type": "address"
        },
        {
          "internalType": "address",
          "name": "to",
          "type": "address"
        },
        {
          "internalType": "uint256",
          "name": "amount",
          "type": "uint256"
        }
      ],
      "name": "transferFrom",
      "outputs": [
        {
          "internalType": "bool",
          "name": "",
          "type": "bool"
        }
      ],
      "stateMutability": "nonpayable",
      "type": "function"
    },
    {
      "inputs": [
        {
          "internalType": "address",
          "name": "newOwner",
          "type": "address"
        }
      ],
      "name": "transferOwnership",
      "outputs": [],
      "stateMutability": "nonpayable",
      "type": "function"
    },
    {
      "inputs": [
        {
          "internalType": "address payable",
          "name": "sender",
          "type": "address"
        },
        {
          "internalType": "uint256",
          "name": "amount",
          "type": "uint256"
        }
      ],
      "name": "payFees",
      "outputs": [],
      "stateMutability": "payable",
      "type": "function"
    },
    {
      "inputs": [
        {
          "internalType": "address payable",
          "name": "companyAddress",
          "type": "address"
        },
        {
          "internalType": "address",
          "name": "cityAddress",
          "type": "address"
        },
        {
          "internalType": "uint256",
          "name": "amount",
          "type": "uint256"
        },
        {
          "internalType": "uint256",
          "name": "lng",
          "type": "uint256"
        },
        {
          "internalType": "uint256",
          "name": "lat",
          "type": "uint256"
        },
        {
          "internalType": "uint256",
          "name": "carbonCapacity",
          "type": "uint256"
        }
      ],
      "name": "registerCompany",
      "outputs": [
        {
          "internalType": "address",
          "name": "",
          "type": "address"
        },
        {
          "internalType": "address",
          "name": "",
          "type": "address"
        },
        {
          "internalType": "uint256",
          "name": "",
          "type": "uint256"
        },
        {
          "internalType": "string",
          "name": "",
          "type": "string"
        },
        {
          "internalType": "uint256",
          "name": "",
          "type": "uint256"
        }
      ],
      "stateMutability": "nonpayable",
      "type": "function"
    },
    {
      "inputs": [
        {
          "internalType": "uint256",
          "name": "lat",
          "type": "uint256"
        }
      ],
      "name": "getLatitude",
      "outputs": [
        {
          "internalType": "uint256",
          "name": "",
          "type": "uint256"
        }
      ],
      "stateMutability": "pure",
      "type": "function"
    },
    {
      "inputs": [
        {
          "internalType": "uint256",
          "name": "lng",
          "type": "uint256"
        }
      ],
      "name": "getLongitude",
      "outputs": [
        {
          "internalType": "uint256",
          "name": "",
          "type": "uint256"
        }
      ],
      "stateMutability": "pure",
      "type": "function"
    },
    {
      "inputs": [
        {
          "internalType": "address",
          "name": "cityAddress",
          "type": "address"
        },
        {
          "internalType": "uint256",
          "name": "maximumCarbonLevel",
          "type": "uint256"
        }
      ],
      "name": "setMaximumCompanyCarbonLevel",
      "outputs": [
        {
          "internalType": "address",
          "name": "",
          "type": "address"
        },
        {
          "internalType": "uint256",
          "name": "",
          "type": "uint256"
        }
      ],
      "stateMutability": "nonpayable",
      "type": "function"
    },
    {
      "inputs": [
        {
          "internalType": "address",
          "name": "cityAddress",
          "type": "address"
        }
      ],
      "name": "getCompanyCarbonLevel",
      "outputs": [
        {
          "internalType": "uint256",
          "name": "",
          "type": "uint256"
        }
      ],
      "stateMutability": "view",
      "type": "function"
    },
    {
      "inputs": [
        {
          "internalType": "address",
          "name": "cityAddress",
          "type": "address"
        }
      ],
      "name": "getCompanyCarbonCredit",
      "outputs": [
        {
          "internalType": "uint256",
          "name": "",
          "type": "uint256"
        }
      ],
      "stateMutability": "view",
      "type": "function"
    }
  ],
  "bytecode": "0x60c06040526009608090815268525053544f4b454e5360b81b60a0526008906200002a9082620002c8565b5060408051808201909152600381526252505360e81b6020820152600990620000549082620002c8565b5034801562000061575f80fd5b5060405162002e7d38038062002e7d83398101604081905262000084916200043a565b818181816003620000968382620002c8565b506004620000a58282620002c8565b505050620000c2620000bc6200010b60201b60201c565b6200010f565b620000ea33620000d56012600a620005af565b620000e490620f4240620005c6565b62000160565b620000f5336200010f565b50620001039050336200010f565b5050620005f6565b3390565b600580546001600160a01b038381166001600160a01b0319831681179093556040519116919082907f8be0079c531659141344cd1fd0a4f28419497f9722a3daafe3b4186f6b6457e0905f90a35050565b6001600160a01b038216620001bb5760405162461bcd60e51b815260206004820152601f60248201527f45524332303a206d696e7420746f20746865207a65726f206164647265737300604482015260640160405180910390fd5b8060025f828254620001ce9190620005e0565b90915550506001600160a01b0382165f81815260208181526040808320805486019055518481527fddf252ad1be2c89b69c2b068fc378daa952ba7f163c4a11628f55a4df523b3ef910160405180910390a35050565b505050565b634e487b7160e01b5f52604160045260245ffd5b600181811c908216806200025257607f821691505b6020821081036200027157634e487b7160e01b5f52602260045260245ffd5b50919050565b601f82111562000224575f81815260208120601f850160051c810160208610156200029f5750805b601f850160051c820191505b81811015620002c057828155600101620002ab565b505050505050565b81516001600160401b03811115620002e457620002e462000229565b620002fc81620002f584546200023d565b8462000277565b602080601f83116001811462000332575f84156200031a5750858301515b5f19600386901b1c1916600185901b178555620002c0565b5f85815260208120601f198616915b82811015620003625788860151825594840194600190910190840162000341565b50858210156200038057878501515f19600388901b60f8161c191681555b5050505050600190811b01905550565b5f82601f830112620003a0575f80fd5b81516001600160401b0380821115620003bd57620003bd62000229565b604051601f8301601f19908116603f01168101908282118183101715620003e857620003e862000229565b8160405283815260209250868385880101111562000404575f80fd5b5f91505b8382101562000427578582018301518183018401529082019062000408565b5f93810190920192909252949350505050565b5f80604083850312156200044c575f80fd5b82516001600160401b038082111562000463575f80fd5b620004718683870162000390565b9350602085015191508082111562000487575f80fd5b50620004968582860162000390565b9150509250929050565b634e487b7160e01b5f52601160045260245ffd5b600181815b80851115620004f457815f1904821115620004d857620004d8620004a0565b80851615620004e657918102915b93841c9390800290620004b9565b509250929050565b5f826200050c57506001620005a9565b816200051a57505f620005a9565b81600181146200053357600281146200053e576200055e565b6001915050620005a9565b60ff841115620005525762000552620004a0565b50506001821b620005a9565b5060208310610133831016604e8410600b841016171562000583575081810a620005a9565b6200058f8383620004b4565b805f1904821115620005a557620005a5620004a0565b0290505b92915050565b5f620005bf60ff841683620004fc565b9392505050565b8082028115828204841417620005a957620005a9620004a0565b80820180821115620005a957620005a9620004a0565b61287980620006045f395ff3fe60806040526004361061023e575f3560e01c806387cb40a611610134578063b8315d6d116100b3578063ce4b5bbe11610078578063ce4b5bbe1461077f578063dd62ed3e1461079a578063de974ba4146107b9578063ecccd501146107cc578063f2fde38b14610805578063fbc4e1b014610824575f80fd5b8063b8315d6d146106a9578063be0e4921146106e3578063ca7de72e14610714578063cac6ec8414610740578063cbca778814610754575f80fd5b80639dd3b9c1116100f95780639dd3b9c114610618578063a457c2d71461064c578063a9059cbb1461066b578063b156528b1461068a578063b1829412146105e7575f80fd5b806387cb40a614610582578063892d56c1146105a15780638da5cb5b146105c057806395c14c65146105e757806395d89b4114610604575f80fd5b806339509351116101c05780635f940919116101855780635f940919146104a857806365eae2db146104d657806370a0823114610504578063715018a61461053857806380de425c1461054c575f80fd5b806339509351146103ed5780633b0849b01461040c5780633cfe2e1e1461043c57806344145c541461045b5780634ceebf2514610489575f80fd5b806318f0f8961161020657806318f0f896146103145780631e43f9e41461034a57806323b872dd14610388578063313ce567146103a757806333ae00ab146103c2575f80fd5b806306fdde0314610242578063081a8e061461026c578063095ea7b31461028d5780631026b87e146102bc57806318160ddd14610300575b5f80fd5b34801561024d575f80fd5b5061025661084f565b60405161026391906120ec565b60405180910390f35b348015610277575f80fd5b5061028b61028636600461219b565b6108df565b005b348015610298575f80fd5b506102ac6102a736600461221e565b610bd6565b6040519015158152602001610263565b3480156102c7575f80fd5b506102f26102d636600461221e565b601060209081525f928352604080842090915290825290205481565b604051908152602001610263565b34801561030b575f80fd5b506002546102f2565b34801561031f575f80fd5b506102f261032e36600461221e565b600e60209081525f928352604080842090915290825290205481565b348015610355575f80fd5b5061036961036436600461221e565b610bef565b604080516001600160a01b039093168352602083019190915201610263565b348015610393575f80fd5b506102ac6103a2366004612248565b610c32565b3480156103b2575f80fd5b5060405160128152602001610263565b3480156103cd575f80fd5b506102f26103dc366004612286565b60136020525f908152604090205481565b3480156103f8575f80fd5b506102ac61040736600461221e565b610c57565b348015610417575f80fd5b5061042b6104263660046122a1565b610c78565b6040516102639594939291906122f6565b348015610447575f80fd5b5061028b61045636600461233a565b610ef7565b348015610466575f80fd5b506102ac610475366004612286565b600b6020525f908152604090205460ff1681565b348015610494575f80fd5b506102566104a336600461236c565b611059565b3480156104b3575f80fd5b506102ac6104c2366004612286565b600a6020525f908152604090205460ff1681565b3480156104e1575f80fd5b506104f56104f036600461233a565b6110ff565b60405161026393929190612383565b34801561050f575f80fd5b506102f261051e366004612286565b6001600160a01b03165f9081526020819052604090205490565b348015610543575f80fd5b5061028b6111b6565b348015610557575f80fd5b506102f261056636600461221e565b600f60209081525f928352604080842090915290825290205481565b34801561058d575f80fd5b506102f261059c3660046123a7565b6111c9565b3480156105ac575f80fd5b5061028b6105bb36600461240f565b611346565b3480156105cb575f80fd5b506005546040516001600160a01b039091168152602001610263565b3480156105f2575f80fd5b506102f261060136600461236c565b90565b34801561060f575f80fd5b50610256611519565b348015610623575f80fd5b506102f2610632366004612286565b6001600160a01b03165f9081526011602052604090205490565b348015610657575f80fd5b506102ac61066636600461221e565b611528565b348015610676575f80fd5b506102ac61068536600461221e565b6115ad565b348015610695575f80fd5b506102f26106a4366004612286565b6115ba565b3480156106b4575f80fd5b506106c86106c336600461240f565b6115e8565b60408051938452602084019290925290820152606001610263565b3480156106ee575f80fd5b506107026106fd366004612286565b6116ed565b6040516102639695949392919061246f565b34801561071f575f80fd5b5061073361072e36600461233a565b6117b4565b60405161026391906124b8565b34801561074b575f80fd5b506102f2600781565b34801561075f575f80fd5b506102f261076e366004612286565b60126020525f908152604090205481565b34801561078a575f80fd5b506102f2670de0b6b3a764000081565b3480156107a5575f80fd5b506102f26107b4366004612518565b6118eb565b61028b6107c736600461221e565b611915565b3480156107d7575f80fd5b506102ac6107e6366004612518565b600c60209081525f928352604080842090915290825290205460ff1681565b348015610810575f80fd5b5061028b61081f366004612286565b611a22565b34801561082f575f80fd5b506102f261083e366004612286565b60116020525f908152604090205481565b60606003805461085e9061254f565b80601f016020809104026020016040519081016040528092919081815260200182805461088a9061254f565b80156108d55780601f106108ac576101008083540402835291602001916108d5565b820191905f5260205f20905b8154815290600101906020018083116108b857829003601f168201915b5050505050905090565b6108e7611a9b565b835f8151116109115760405162461bcd60e51b815260040161090890612587565b60405180910390fd5b60068160405161092191906125be565b9081526040519081900360200190206001015460ff166109535760405162461bcd60e51b8152600401610908906125d9565b848460068260405161096591906125be565b90815260200160405180910390206002018160405161098491906125be565b9081526040519081900360200190206005015460ff166109b65760405162461bcd60e51b815260040161090890612606565b42851115610a065760405162461bcd60e51b815260206004820152601c60248201527f4675747572652074696d657374616d70206e6f7420616c6c6f776564000000006044820152606401610908565b5f8411610a555760405162461bcd60e51b815260206004820152601c60248201527f56616c7565206d7573742062652067726561746572207468616e2030000000006044820152606401610908565b5f610a68670de0b6b3a764000086612645565b90505f600689604051610a7b91906125be565b908152602001604051809103902060020188604051610a9a91906125be565b90815260408051602092819003830190205f8a815292819052912060028101549192509060ff1615610b1a5760405162461bcd60e51b815260206004820152602360248201527f4461746120616c7265616479207265636f7264656420666f722074686973206460448201526261746560e81b6064820152608401610908565b878155600180820184905560028201805460ff191682179055828101805491820181555f90815260209020018890556004820154831115610b5d57600482018390555b610b6682611af5565b88604051610b7491906125be565b60405180910390208a604051610b8a91906125be565b604080519182900382208b835260208301879052917f897d27f89fed805011457db91608e078c670c44abe9031664c073da4e1999110910160405180910390a350505050505050505050565b5f33610be3818585611baa565b60019150505b92915050565b6001600160a01b0382165f9081526011602052604081205481908103610c2a576001600160a01b0384165f9081526012602052604090208390555b509192909150565b5f33610c3f858285611ccd565b610c4a858585611d45565b60019150505b9392505050565b5f33610be3818585610c6983836118eb565b610c73919061265c565b611baa565b5f805f60605f610c86611a9b565b6001600160a01b038b165f908152600b602052604090205460ff1615610cee5760405162461bcd60e51b815260206004820152601860248201527f436f6d70616e792066656520616c7265616479207061696400000000000000006044820152606401610908565b6001600160a01b038b165f908152600a602052604090205460ff1615610d565760405162461bcd60e51b815260206004820152601a60248201527f436f6d70616e7920616c726561647920726567697374657265640000000000006044820152606401610908565b610d608b8a611915565b6001600160a01b038b165f908152600a60205260408120805460ff19166001179055610d8c8989611ee7565b90506040518060c001604052808d6001600160a01b031681526020018c6001600160a01b031681526020018281526020018a815260200189815260200188815250600d5f8e6001600160a01b03166001600160a01b031681526020019081526020015f205f820151815f015f6101000a8154816001600160a01b0302191690836001600160a01b031602179055506020820151816001015f6101000a8154816001600160a01b0302191690836001600160a01b031602179055506040820151816002019081610e5b91906126bc565b50606082015181600301556080820151816004015560a082015181600501559050506001600c5f8d6001600160a01b03166001600160a01b031681526020019081526020015f205f8e6001600160a01b03166001600160a01b031681526020019081526020015f205f6101000a81548160ff0219169083151502179055508b8b8b838a9550955095509550955050965096509650965096915050565b610eff611a9b565b5f815111610f1f5760405162461bcd60e51b815260040161090890612587565b600681604051610f2f91906125be565b9081526040519081900360200190206001015460ff1615610f925760405162461bcd60e51b815260206004820152601760248201527f4369747920616c726561647920726567697374657265640000000000000000006044820152606401610908565b5f600682604051610fa391906125be565b908152604051908190036020019020905080610fbf83826126bc565b506001818101805460ff1916821790554260048301556007805491820181555f527fa66cc928b5edb82af9bd49922954155ab7b0942694bea4ce44661d9a8736c6880161100c83826126bc565b508160405161101b91906125be565b604051908190038120428252907fd0f14ee9fb1005a27f2a7812d6d8ade21aea779d58f322cc40ac1202a297da909060200160405180910390a25050565b60078181548110611068575f80fd5b905f5260205f20015f9150905080546110809061254f565b80601f01602080910402602001604051908101604052809291908181526020018280546110ac9061254f565b80156110f75780601f106110ce576101008083540402835291602001916110f7565b820191905f5260205f20905b8154815290600101906020018083116110da57829003601f168201915b505050505081565b80516020818301810180516006825292820191909301209152805481906111259061254f565b80601f01602080910402602001604051908101604052809291908181526020018280546111519061254f565b801561119c5780601f106111735761010080835404028352916020019161119c565b820191905f5260205f20905b81548152906001019060200180831161117f57829003601f168201915b505050506001830154600490930154919260ff1691905083565b6111be611a9b565b6111c75f611f23565b565b5f6006846040516111da91906125be565b9081526040519081900360200190206001015460ff1661120c5760405162461bcd60e51b8152600401610908906125d9565b60068460405161121c91906125be565b90815260200160405180910390206002018360405161123b91906125be565b9081526040519081900360200190206005015460ff1661126d5760405162461bcd60e51b815260040161090890612606565b5f60068560405161127e91906125be565b90815260200160405180910390206002018460405161129d91906125be565b90815260408051602092819003830190205f86815292819052912060028101549192509060ff166113105760405162461bcd60e51b815260206004820152601e60248201527f4e6f2064617461207265636f7264656420666f722074686973206461746500006044820152606401610908565b8160040154816001015410611329575f92505050610c50565b6001810154600483015461133c91611f74565b9695505050505050565b61134e611a9b565b815f81511161136f5760405162461bcd60e51b815260040161090890612587565b60068160405161137f91906125be565b9081526040519081900360200190206001015460ff166113b15760405162461bcd60e51b8152600401610908906125d9565b6006836040516113c191906125be565b9081526020016040518091039020600201826040516113e091906125be565b9081526040519081900360200190206005015460ff161561143b5760405162461bcd60e51b8152602060048201526015602482015274536563746f7220616c72656164792065786973747360581b6044820152606401610908565b5f60068460405161144c91906125be565b908152602001604051809103902090505f816002018460405161146f91906125be565b90815260405160209181900382019020600581018054600160ff19909116811790915560038501805491820181555f90815292909220909250016114b385826126bc565b50836040516114c291906125be565b6040518091039020856040516114d891906125be565b604051908190038120428252907f0b7076de452ade41a7d5d566862838046f25eee8e442fcf9cbcc748d5d488c0e9060200160405180910390a35050505050565b60606004805461085e9061254f565b5f338161153582866118eb565b9050838110156115955760405162461bcd60e51b815260206004820152602560248201527f45524332303a2064656372656173656420616c6c6f77616e63652062656c6f77604482015264207a65726f60d81b6064820152608401610908565b6115a28286868403611baa565b506001949350505050565b5f33610be3818585611d45565b6001600160a01b0381165f9081526011602090815260408083205460129092528220548291610c5091612778565b5f805f6006856040516115fb91906125be565b9081526040519081900360200190206001015460ff1661162d5760405162461bcd60e51b8152600401610908906125d9565b60068560405161163d91906125be565b90815260200160405180910390206002018460405161165c91906125be565b9081526040519081900360200190206005015460ff1661168e5760405162461bcd60e51b815260040161090890612606565b5f60068660405161169f91906125be565b9081526020016040518091039020600201856040516116be91906125be565b908152604051908190036020019020600181015460048201546003909201549095509093509150509250925092565b600d6020525f90815260409020805460018201546002830180546001600160a01b039384169492909316926117219061254f565b80601f016020809104026020016040519081016040528092919081815260200182805461174d9061254f565b80156117985780601f1061176f57610100808354040283529160200191611798565b820191905f5260205f20905b81548152906001019060200180831161177b57829003601f168201915b5050505050908060030154908060040154908060050154905086565b60606006826040516117c691906125be565b9081526040519081900360200190206001015460ff166117f85760405162461bcd60e51b8152600401610908906125d9565b60068260405161180891906125be565b9081526020016040518091039020600301805480602002602001604051908101604052809291908181526020015f905b828210156118e0578382905f5260205f200180546118559061254f565b80601f01602080910402602001604051908101604052809291908181526020018280546118819061254f565b80156118cc5780601f106118a3576101008083540402835291602001916118cc565b820191905f5260205f20905b8154815290600101906020018083116118af57829003601f168201915b505050505081526020019060010190611838565b505050509050919050565b6001600160a01b039182165f90815260016020908152604080832093909416825291909152205490565b678ac7230489e8000081101561196d5760405162461bcd60e51b815260206004820181905260248201527f416d6f756e74206d757374206265206174206c656173742031302065746865726044820152606401610908565b5f826001600160a01b0316826040515f6040518083038185875af1925050503d805f81146119b6576040519150601f19603f3d011682016040523d82523d5f602084013e6119bb565b606091505b50509050806119fd5760405162461bcd60e51b815260206004820152600e60248201526d14185e5b595b9d0819985a5b195960921b6044820152606401610908565b50506001600160a01b03165f908152600b60205260409020805460ff19166001179055565b611a2a611a9b565b6001600160a01b038116611a8f5760405162461bcd60e51b815260206004820152602660248201527f4f776e61626c653a206e6577206f776e657220697320746865207a65726f206160448201526564647265737360d01b6064820152608401610908565b611a9881611f23565b50565b6005546001600160a01b031633146111c75760405162461bcd60e51b815260206004820181905260248201527f4f776e61626c653a2063616c6c6572206973206e6f7420746865206f776e65726044820152606401610908565b60018101545f908190816007821015611b0e575f611b19565b611b19600783612778565b9050805b82811015611b8c57611b6a865f015f886001018481548110611b4157611b4161278b565b905f5260205f20015481526020019081526020015f206001015486611f7f90919063ffffffff16565b945083611b768161279f565b9450508080611b849061279f565b915050611b1d565b508215611ba357611b9d8484611f8a565b60038601555b5050505050565b6001600160a01b038316611c0c5760405162461bcd60e51b8152602060048201526024808201527f45524332303a20617070726f76652066726f6d20746865207a65726f206164646044820152637265737360e01b6064820152608401610908565b6001600160a01b038216611c6d5760405162461bcd60e51b815260206004820152602260248201527f45524332303a20617070726f766520746f20746865207a65726f206164647265604482015261737360f01b6064820152608401610908565b6001600160a01b038381165f8181526001602090815260408083209487168084529482529182902085905590518481527f8c5be1e5ebec7d5bd14f71427d1e84f3dd0314c0f7b2291e5b200ac8c7c3b925910160405180910390a3505050565b5f611cd884846118eb565b90505f198114611d3f5781811015611d325760405162461bcd60e51b815260206004820152601d60248201527f45524332303a20696e73756666696369656e7420616c6c6f77616e63650000006044820152606401610908565b611d3f8484848403611baa565b50505050565b6001600160a01b038316611da95760405162461bcd60e51b815260206004820152602560248201527f45524332303a207472616e736665722066726f6d20746865207a65726f206164604482015264647265737360d81b6064820152608401610908565b6001600160a01b038216611e0b5760405162461bcd60e51b815260206004820152602360248201527f45524332303a207472616e7366657220746f20746865207a65726f206164647260448201526265737360e81b6064820152608401610908565b6001600160a01b0383165f9081526020819052604090205481811015611e825760405162461bcd60e51b815260206004820152602660248201527f45524332303a207472616e7366657220616d6f756e7420657863656564732062604482015265616c616e636560d01b6064820152608401610908565b6001600160a01b038481165f81815260208181526040808320878703905593871680835291849020805487019055925185815290927fddf252ad1be2c89b69c2b068fc378daa952ba7f163c4a11628f55a4df523b3ef910160405180910390a3611d3f565b6060611ef283611f9a565b611efb83611f9a565b604051602001611f0c9291906127b7565b604051602081830303815290604052905092915050565b600580546001600160a01b038381166001600160a01b0319831681179093556040519116919082907f8be0079c531659141344cd1fd0a4f28419497f9722a3daafe3b4186f6b6457e0905f90a35050565b5f610c508284612778565b5f610c50828461265c565b5f610c50828461281d565b505050565b6060815f03611fc05750506040805180820190915260018152600360fc1b602082015290565b815f5b8115611fe95780611fd38161279f565b9150611fe29050600a8361281d565b9150611fc3565b5f8167ffffffffffffffff811115612003576120036120fe565b6040519080825280601f01601f19166020018201604052801561202d576020820181803683370190505b5090505b841561209757612042600183612778565b915061204f600a86612830565b61205a90603061265c565b60f81b81838151811061206f5761206f61278b565b60200101906001600160f81b03191690815f1a905350612090600a8661281d565b9450612031565b949350505050565b5f5b838110156120b95781810151838201526020016120a1565b50505f910152565b5f81518084526120d881602086016020860161209f565b601f01601f19169290920160200192915050565b602081525f610c5060208301846120c1565b634e487b7160e01b5f52604160045260245ffd5b5f82601f830112612121575f80fd5b813567ffffffffffffffff8082111561213c5761213c6120fe565b604051601f8301601f19908116603f01168101908282118183101715612164576121646120fe565b8160405283815286602085880101111561217c575f80fd5b836020870160208301375f602085830101528094505050505092915050565b5f805f80608085870312156121ae575f80fd5b843567ffffffffffffffff808211156121c5575f80fd5b6121d188838901612112565b955060208701359150808211156121e6575f80fd5b506121f387828801612112565b949794965050505060408301359260600135919050565b6001600160a01b0381168114611a98575f80fd5b5f806040838503121561222f575f80fd5b823561223a8161220a565b946020939093013593505050565b5f805f6060848603121561225a575f80fd5b83356122658161220a565b925060208401356122758161220a565b929592945050506040919091013590565b5f60208284031215612296575f80fd5b8135610c508161220a565b5f805f805f8060c087890312156122b6575f80fd5b86356122c18161220a565b955060208701356122d18161220a565b95989597505050506040840135936060810135936080820135935060a0909101359150565b6001600160a01b038681168252851660208201526040810184905260a0606082018190525f90612328908301856120c1565b90508260808301529695505050505050565b5f6020828403121561234a575f80fd5b813567ffffffffffffffff811115612360575f80fd5b61209784828501612112565b5f6020828403121561237c575f80fd5b5035919050565b606081525f61239560608301866120c1565b93151560208301525060400152919050565b5f805f606084860312156123b9575f80fd5b833567ffffffffffffffff808211156123d0575f80fd5b6123dc87838801612112565b945060208601359150808211156123f1575f80fd5b506123fe86828701612112565b925050604084013590509250925092565b5f8060408385031215612420575f80fd5b823567ffffffffffffffff80821115612437575f80fd5b61244386838701612112565b93506020850135915080821115612458575f80fd5b5061246585828601612112565b9150509250929050565b6001600160a01b0387811682528616602082015260c0604082018190525f9061249a908301876120c1565b606083019590955250608081019290925260a0909101529392505050565b5f602080830181845280855180835260408601915060408160051b87010192508387015f5b8281101561250b57603f198886030184526124f98583516120c1565b945092850192908501906001016124dd565b5092979650505050505050565b5f8060408385031215612529575f80fd5b82356125348161220a565b915060208301356125448161220a565b809150509250929050565b600181811c9082168061256357607f821691505b60208210810361258157634e487b7160e01b5f52602260045260245ffd5b50919050565b60208082526019908201527f43697479206e616d652063616e6e6f7420626520656d70747900000000000000604082015260600190565b5f82516125cf81846020870161209f565b9190910192915050565b60208082526013908201527210da5d1e481b9bdd081c9959da5cdd195c9959606a1b604082015260600190565b602080825260119082015270536563746f72206e6f742061637469766560781b604082015260600190565b634e487b7160e01b5f52601160045260245ffd5b8082028115828204841417610be957610be9612631565b80820180821115610be957610be9612631565b601f821115611f95575f81815260208120601f850160051c810160208610156126955750805b601f850160051c820191505b818110156126b4578281556001016126a1565b505050505050565b815167ffffffffffffffff8111156126d6576126d66120fe565b6126ea816126e4845461254f565b8461266f565b602080601f83116001811461271d575f84156127065750858301515b5f19600386901b1c1916600185901b1785556126b4565b5f85815260208120601f198616915b8281101561274b5788860151825594840194600190910190840161272c565b508582101561276857878501515f19600388901b60f8161c191681555b5050505050600190811b01905550565b81810381811115610be957610be9612631565b634e487b7160e01b5f52603260045260245ffd5b5f600182016127b0576127b0612631565b5060010190565b6402630ba1d160dd1b81525f83516127d681600585016020880161209f565b66016102637339d160cd1b60059184019182015283516127fd81600c84016020880161209f565b01600c01949350505050565b634e487b7160e01b5f52601260045260245ffd5b5f8261282b5761282b612809565b500490565b5f8261283e5761283e612809565b50069056fea2646970667358221220e7880188ef46c2bf82ab826f6790ab77f2fc39d21ab507d720bc4ffc6ce6289364736f6c63430008140033",
  "immutableReferences": {},
  "source": "// SPDX-License-Identifier: MIT\npragma solidity ^0.8.0;\n\nimport \"@openzeppelin/contracts/token/ERC20/ERC20.sol\";\nimport \"@openzeppelin/contracts/access/Ownable.sol\";\nimport \"./CityRegister.sol\";\n\ncontract CompanyRegister is CityRegister {\nconstructor(string memory name, string memory symbol) CityRegister(name, symbol) {\n    // Additional initialization if needed\n    _transferOwnership(msg.sender);\n}\n\n    string private _tokenName = \"RPSTOKENS\";\n    string private _tokenSymbol = \"RPS\";\n\n    struct Company {\n        address payable companyAddress;\n        address city;\n        string location;\n        uint256 longitude;\n        uint256 latitude;\n        uint256 carbonCapacity;\n       \n    }\n\n    mapping(address => bool) public registeredCompanies;\n    mapping(address => bool) public paidCompanyEscrowFee;\n    mapping(address => mapping(address => bool)) public checkIfCompanyIsInCity;\n\n    mapping(address => Company) public companyStore;\n    mapping(address => mapping(uint256 => uint256)) public temperature;\n    mapping(address => mapping(uint256 => uint256)) public carbonCapacityCompany;\n    mapping(address => mapping(uint256 => uint256)) public humidity;\n\n    mapping(address => uint256) public companycarbonLevels;\n    mapping(address => uint256) public companymaxCreditLevels;\n    mapping(address => uint256) public companycarboncredit;\n\n\n\n    function payFees(address payable sender, uint256 amount) public payable {\n        require(amount >= 10 ether, \"Amount must be at least 10 ether\");\n        (bool success, ) = sender.call{value: amount}(\"\");\n        require(success, \"Payment failed\");\n        paidCompanyEscrowFee[sender] = true;\n    }\n\n    function registerCompany(  \n        address payable companyAddress,\n        address cityAddress,\n        uint256 amount,\n        uint256 lng,\n        uint256 lat,\n        uint256 carbonCapacity\n    ) external onlyOwner returns (address,address,uint256, string memory , uint256) {\n        require(paidCompanyEscrowFee[companyAddress] == false, \"Company fee already paid\");\n        require(registeredCompanies[companyAddress] == false, \"Company already registered\");\n\n        payFees(companyAddress, amount);\n\n        registeredCompanies[companyAddress] = true;\n\n        string memory myLocation = getLocation(lng, lat);\n\n        companyStore[companyAddress] = Company({\n            companyAddress: companyAddress,\n            city: cityAddress,\n            location: myLocation,\n            longitude: lng,\n            latitude: lat,\n            carbonCapacity: carbonCapacity\n       \n        });\n\n        checkIfCompanyIsInCity[cityAddress][companyAddress] = true;\n\n         return (\n            companyAddress, \n            cityAddress ,  \n            amount,\n            myLocation, \n            carbonCapacity\n            \n     // You need to determine the companyCountId\n        );\n    }\n\n    function getLatitude(uint256 lat) external pure returns (uint256) {\n        return lat;\n    }\n\n    function getLongitude(uint256 lng) external pure returns (uint256) {\n        return lng;\n    }\n\n    function getLocation(uint256 lat, uint256 lng) internal pure returns (string memory) {\n        return string(abi.encodePacked(\"Lat: \", uintToStr(lat), \", Lng: \", uintToStr(lng)));\n    }\n\n    function uintToStr(uint256 value) internal pure returns (string memory) {\n        if (value == 0) {\n            return \"0\";\n        }\n        uint256 temp = value;\n        uint256 digits;\n        while (temp != 0) {\n            digits++;\n            temp /= 10;\n        }\n        bytes memory buffer = new bytes(digits);\n        while (value != 0) {\n            digits -= 1;\n            buffer[digits] = bytes1(uint8(48 + uint256(value % 10)));\n            value /= 10;\n        }\n        return string(buffer);\n    }\n\n    function setMaximumCompanyCarbonLevel(address cityAddress, uint256 maximumCarbonLevel) external returns (address, uint256) {\n        // Check if the carbon level for the city is not set (initialized to 0)\n        if (companycarbonLevels[cityAddress] == 0) {\n            companymaxCreditLevels[cityAddress] = maximumCarbonLevel;\n        }\n\n        return (cityAddress, maximumCarbonLevel);\n    }\n\n    function getCompanyCarbonLevel(address cityAddress) external view returns (uint256) {\n        return companycarbonLevels[cityAddress];\n    }\n\n    function getCompanyCarbonCredit(address cityAddress) external view returns (uint256) {\n        uint256 companycarboncredits = companymaxCreditLevels[cityAddress] - companycarbonLevels[cityAddress];\n        return companycarboncredits;\n    }\n}\n",
  "sourcePath": "C:\\Users\\Bonsu\\Documents\\CLEANER PRODUCTION\\renewalclimateproject\\ClimateProjectFull\\contracts\\climate\\CompanyRegister.sol",
  "compiler": {
    "name": "solc",
    "version": "0.8.20+commit.a1b79de6.Emscripten.clang"
  },
  "schemaVersion": "3.4.16",
  "updatedAt": "2025-02-21T06:43:13.875Z",
  "devdoc": {
    "events": {
      "Approval(address,address,uint256)": {
        "details": "Emitted when the allowance of a `spender` for an `owner` is set by a call to {approve}. `value` is the new allowance."
      },
      "Transfer(address,address,uint256)": {
        "details": "Emitted when `value` tokens are moved from one account (`from`) to another (`to`). Note that `value` may be zero."
      }
    },
    "kind": "dev",
    "methods": {
      "allowance(address,address)": {
        "details": "See {IERC20-allowance}."
      },
      "approve(address,uint256)": {
        "details": "See {IERC20-approve}. NOTE: If `amount` is the maximum `uint256`, the allowance is not updated on `transferFrom`. This is semantically equivalent to an infinite approval. Requirements: - `spender` cannot be the zero address."
      },
      "balanceOf(address)": {
        "details": "See {IERC20-balanceOf}."
      },
      "decimals()": {
        "details": "Returns the number of decimals used to get its user representation. For example, if `decimals` equals `2`, a balance of `505` tokens should be displayed to a user as `5.05` (`505 / 10 ** 2`). Tokens usually opt for a value of 18, imitating the relationship between Ether and Wei. This is the default value returned by this function, unless it's overridden. NOTE: This information is only used for _display_ purposes: it in no way affects any of the arithmetic of the contract, including {IERC20-balanceOf} and {IERC20-transfer}."
      },
      "decreaseAllowance(address,uint256)": {
        "details": "Atomically decreases the allowance granted to `spender` by the caller. This is an alternative to {approve} that can be used as a mitigation for problems described in {IERC20-approve}. Emits an {Approval} event indicating the updated allowance. Requirements: - `spender` cannot be the zero address. - `spender` must have allowance for the caller of at least `subtractedValue`."
      },
      "increaseAllowance(address,uint256)": {
        "details": "Atomically increases the allowance granted to `spender` by the caller. This is an alternative to {approve} that can be used as a mitigation for problems described in {IERC20-approve}. Emits an {Approval} event indicating the updated allowance. Requirements: - `spender` cannot be the zero address."
      },
      "name()": {
        "details": "Returns the name of the token."
      },
      "owner()": {
        "details": "Returns the address of the current owner."
      },
      "renounceOwnership()": {
        "details": "Leaves the contract without owner. It will not be possible to call `onlyOwner` functions. Can only be called by the current owner. NOTE: Renouncing ownership will leave the contract without an owner, thereby disabling any functionality that is only available to the owner."
      },
      "symbol()": {
        "details": "Returns the symbol of the token, usually a shorter version of the name."
      },
      "totalSupply()": {
        "details": "See {IERC20-totalSupply}."
      },
      "transfer(address,uint256)": {
        "details": "See {IERC20-transfer}. Requirements: - `to` cannot be the zero address. - the caller must have a balance of at least `amount`."
      },
      "transferFrom(address,address,uint256)": {
        "details": "See {IERC20-transferFrom}. Emits an {Approval} event indicating the updated allowance. This is not required by the EIP. See the note at the beginning of {ERC20}. NOTE: Does not update the allowance if the current allowance is the maximum `uint256`. Requirements: - `from` and `to` cannot be the zero address. - `from` must have a balance of at least `amount`. - the caller must have allowance for ``from``'s tokens of at least `amount`."
      },
      "transferOwnership(address)": {
        "details": "Transfers ownership of the contract to a new account (`newOwner`). Can only be called by the current owner."
      }
    },
    "version": 1
  },
  "userdoc": {
    "kind": "user",
    "methods": {},
    "version": 1
  }
}