{
  "contractName": "FixedPointMath",
  "abi": [
    {
      "inputs": [],
      "name": "E",
      "outputs": [
        {
          "internalType": "uint256",
          "name": "",
          "type": "uint256"
        }
      ],
      "stateMutability": "view",
      "type": "function"
    },
    {
      "inputs": [],
      "name": "PRECISION",
      "outputs": [
        {
          "internalType": "uint256",
          "name": "",
          "type": "uint256"
        }
      ],
      "stateMutability": "view",
      "type": "function"
    }
  ],
  "bytecode": "0x60a4610033600b8282823980515f1a607314602757634e487b7160e01b5f525f60045260245ffd5b305f52607381538281f3fe7300000000000000000000000000000000000000003014608060405260043610603c575f3560e01c806392bbf6e8146040578063aaf5eb68146060575b5f80fd5b604e6725b946ebc0b3617381565b60405190815260200160405180910390f35b604e670de0b6b3a76400008156fea26469706673582212205a62c845953d3e0b62f2575fd4d0093332f21e45f4d6105822f8931ed81abe5064736f6c63430008140033",
  "immutableReferences": {},
  "source": "// SPDX-License-Identifier: MIT\n pragma solidity ^0.8.0;\n/**\n * @title FixedPointMath\n * @dev Library for fixed-point arithmetic operations\n */\n\nlibrary FixedPointMath {\n    uint256 public constant PRECISION = 1e18;\n    uint256 public constant E = 2718281828459045235; // e * 1e18\n\n    function multiplyFixedPoint(uint256 a, uint256 b) internal pure returns (uint256) {\n        return (a * b) / PRECISION;\n    }\n\n    function addFixedPoint(uint256 a, uint256 b) internal pure returns (uint256) {\n        return a + b;\n    }\n\n    function exponentialDecay(uint256 x) internal pure returns (uint256) {\n        // Taylor series approximation of e^(-x)\n        // e^(-x) ≈ 1 - x + x²/2! - x³/3! + x⁴/4! - x⁵/5!\n        uint256 result = PRECISION; // 1\n        uint256 term = PRECISION;   // First term\n        \n        for (uint256 i = 1; i <= 5; i++) {\n            term = multiplyFixedPoint(term, x) / i;\n            if (i % 2 == 1) {\n                result = result > term ? result - term : 0;\n            } else {\n                result = addFixedPoint(result, term);\n            }\n        }\n        \n        return result;\n    }\n   function exponentialGrowth(uint256 x) internal pure returns (uint256) {\n        // Taylor series approximation of e^x\n        uint256 result = PRECISION;\n        uint256 term = PRECISION;\n        \n        for (uint256 i = 1; i <= 5; i++) {\n            term = multiplyFixedPoint(term, x) / i;\n            result = addFixedPoint(result, term);\n        }\n        \n        return result;\n    }\n}",
  "sourcePath": "C:\\Users\\Bonsu\\Documents\\CLEANER PRODUCTION\\renewalclimateproject\\ClimateProjectFull\\library\\FixedPointMath.sol",
  "compiler": {
    "name": "solc",
    "version": "0.8.20+commit.a1b79de6.Emscripten.clang"
  },
  "schemaVersion": "3.4.16",
  "updatedAt": "2025-02-21T06:43:14.036Z",
  "devdoc": {
    "details": "Library for fixed-point arithmetic operations",
    "kind": "dev",
    "methods": {},
    "title": "FixedPointMath",
    "version": 1
  },
  "userdoc": {
    "kind": "user",
    "methods": {},
    "version": 1
  }
}