{
  "contractName": "HospitalCoin",
  "abi": [
    {
      "inputs": [],
      "stateMutability": "nonpayable",
      "type": "constructor"
    },
    {
      "anonymous": false,
      "inputs": [
        {
          "indexed": true,
          "internalType": "uint256",
          "name": "appointmentId",
          "type": "uint256"
        },
        {
          "indexed": false,
          "internalType": "address",
          "name": "doctor",
          "type": "address"
        }
      ],
      "name": "AppointmentApproved",
      "type": "event"
    },
    {
      "anonymous": false,
      "inputs": [
        {
          "indexed": true,
          "internalType": "uint256",
          "name": "appointmentId",
          "type": "uint256"
        },
        {
          "indexed": false,
          "internalType": "address",
          "name": "patient",
          "type": "address"
        },
        {
          "indexed": false,
          "internalType": "uint256",
          "name": "amount",
          "type": "uint256"
        }
      ],
      "name": "AppointmentPaid",
      "type": "event"
    },
    {
      "anonymous": false,
      "inputs": [
        {
          "indexed": true,
          "internalType": "uint256",
          "name": "appointmentId",
          "type": "uint256"
        },
        {
          "indexed": true,
          "internalType": "address",
          "name": "patient",
          "type": "address"
        },
        {
          "indexed": true,
          "internalType": "address",
          "name": "doctor",
          "type": "address"
        },
        {
          "indexed": false,
          "internalType": "uint256",
          "name": "fee",
          "type": "uint256"
        }
      ],
      "name": "AppointmentRequested",
      "type": "event"
    },
    {
      "anonymous": false,
      "inputs": [
        {
          "indexed": true,
          "internalType": "address",
          "name": "owner",
          "type": "address"
        },
        {
          "indexed": true,
          "internalType": "address",
          "name": "spender",
          "type": "address"
        },
        {
          "indexed": false,
          "internalType": "uint256",
          "name": "value",
          "type": "uint256"
        }
      ],
      "name": "Approval",
      "type": "event"
    },
    {
      "anonymous": false,
      "inputs": [
        {
          "indexed": false,
          "internalType": "address",
          "name": "newFeeCollector",
          "type": "address"
        }
      ],
      "name": "FeeCollectorUpdated",
      "type": "event"
    },
    {
      "anonymous": false,
      "inputs": [
        {
          "indexed": false,
          "internalType": "uint256",
          "name": "newPercentage",
          "type": "uint256"
        }
      ],
      "name": "FeePercentageUpdated",
      "type": "event"
    },
    {
      "anonymous": false,
      "inputs": [
        {
          "indexed": true,
          "internalType": "address",
          "name": "previousOwner",
          "type": "address"
        },
        {
          "indexed": true,
          "internalType": "address",
          "name": "newOwner",
          "type": "address"
        }
      ],
      "name": "OwnershipTransferred",
      "type": "event"
    },
    {
      "anonymous": false,
      "inputs": [
        {
          "indexed": true,
          "internalType": "address",
          "name": "from",
          "type": "address"
        },
        {
          "indexed": true,
          "internalType": "address",
          "name": "to",
          "type": "address"
        },
        {
          "indexed": false,
          "internalType": "uint256",
          "name": "value",
          "type": "uint256"
        }
      ],
      "name": "Transfer",
      "type": "event"
    },
    {
      "inputs": [],
      "name": "INITIAL_SUPPLY",
      "outputs": [
        {
          "internalType": "uint256",
          "name": "",
          "type": "uint256"
        }
      ],
      "stateMutability": "view",
      "type": "function"
    },
    {
      "inputs": [],
      "name": "MAX_SUPPLY",
      "outputs": [
        {
          "internalType": "uint256",
          "name": "",
          "type": "uint256"
        }
      ],
      "stateMutability": "view",
      "type": "function"
    },
    {
      "inputs": [
        {
          "internalType": "address",
          "name": "owner",
          "type": "address"
        },
        {
          "internalType": "address",
          "name": "spender",
          "type": "address"
        }
      ],
      "name": "allowance",
      "outputs": [
        {
          "internalType": "uint256",
          "name": "",
          "type": "uint256"
        }
      ],
      "stateMutability": "view",
      "type": "function"
    },
    {
      "inputs": [
        {
          "internalType": "uint256",
          "name": "",
          "type": "uint256"
        }
      ],
      "name": "appointments",
      "outputs": [
        {
          "internalType": "address",
          "name": "patient",
          "type": "address"
        },
        {
          "internalType": "address",
          "name": "doctor",
          "type": "address"
        },
        {
          "internalType": "uint256",
          "name": "fee",
          "type": "uint256"
        },
        {
          "internalType": "bool",
          "name": "isPaid",
          "type": "bool"
        },
        {
          "internalType": "bool",
          "name": "isApproved",
          "type": "bool"
        }
      ],
      "stateMutability": "view",
      "type": "function"
    },
    {
      "inputs": [
        {
          "internalType": "address",
          "name": "spender",
          "type": "address"
        },
        {
          "internalType": "uint256",
          "name": "amount",
          "type": "uint256"
        }
      ],
      "name": "approve",
      "outputs": [
        {
          "internalType": "bool",
          "name": "",
          "type": "bool"
        }
      ],
      "stateMutability": "nonpayable",
      "type": "function"
    },
    {
      "inputs": [
        {
          "internalType": "address",
          "name": "account",
          "type": "address"
        }
      ],
      "name": "balanceOf",
      "outputs": [
        {
          "internalType": "uint256",
          "name": "",
          "type": "uint256"
        }
      ],
      "stateMutability": "view",
      "type": "function"
    },
    {
      "inputs": [],
      "name": "decimals",
      "outputs": [
        {
          "internalType": "uint8",
          "name": "",
          "type": "uint8"
        }
      ],
      "stateMutability": "view",
      "type": "function"
    },
    {
      "inputs": [
        {
          "internalType": "address",
          "name": "spender",
          "type": "address"
        },
        {
          "internalType": "uint256",
          "name": "subtractedValue",
          "type": "uint256"
        }
      ],
      "name": "decreaseAllowance",
      "outputs": [
        {
          "internalType": "bool",
          "name": "",
          "type": "bool"
        }
      ],
      "stateMutability": "nonpayable",
      "type": "function"
    },
    {
      "inputs": [
        {
          "internalType": "address",
          "name": "",
          "type": "address"
        }
      ],
      "name": "doctorConsultationCount",
      "outputs": [
        {
          "internalType": "uint256",
          "name": "",
          "type": "uint256"
        }
      ],
      "stateMutability": "view",
      "type": "function"
    },
    {
      "inputs": [],
      "name": "feeCollector",
      "outputs": [
        {
          "internalType": "address",
          "name": "",
          "type": "address"
        }
      ],
      "stateMutability": "view",
      "type": "function"
    },
    {
      "inputs": [],
      "name": "hospitalFeePercentage",
      "outputs": [
        {
          "internalType": "uint256",
          "name": "",
          "type": "uint256"
        }
      ],
      "stateMutability": "view",
      "type": "function"
    },
    {
      "inputs": [
        {
          "internalType": "address",
          "name": "spender",
          "type": "address"
        },
        {
          "internalType": "uint256",
          "name": "addedValue",
          "type": "uint256"
        }
      ],
      "name": "increaseAllowance",
      "outputs": [
        {
          "internalType": "bool",
          "name": "",
          "type": "bool"
        }
      ],
      "stateMutability": "nonpayable",
      "type": "function"
    },
    {
      "inputs": [],
      "name": "name",
      "outputs": [
        {
          "internalType": "string",
          "name": "",
          "type": "string"
        }
      ],
      "stateMutability": "view",
      "type": "function"
    },
    {
      "inputs": [],
      "name": "owner",
      "outputs": [
        {
          "internalType": "address",
          "name": "",
          "type": "address"
        }
      ],
      "stateMutability": "view",
      "type": "function"
    },
    {
      "inputs": [
        {
          "internalType": "address",
          "name": "",
          "type": "address"
        }
      ],
      "name": "patientAppointmentCount",
      "outputs": [
        {
          "internalType": "uint256",
          "name": "",
          "type": "uint256"
        }
      ],
      "stateMutability": "view",
      "type": "function"
    },
    {
      "inputs": [],
      "name": "renounceOwnership",
      "outputs": [],
      "stateMutability": "nonpayable",
      "type": "function"
    },
    {
      "inputs": [],
      "name": "symbol",
      "outputs": [
        {
          "internalType": "string",
          "name": "",
          "type": "string"
        }
      ],
      "stateMutability": "view",
      "type": "function"
    },
    {
      "inputs": [],
      "name": "totalAppointments",
      "outputs": [
        {
          "internalType": "uint256",
          "name": "",
          "type": "uint256"
        }
      ],
      "stateMutability": "view",
      "type": "function"
    },
    {
      "inputs": [],
      "name": "totalSupply",
      "outputs": [
        {
          "internalType": "uint256",
          "name": "",
          "type": "uint256"
        }
      ],
      "stateMutability": "view",
      "type": "function"
    },
    {
      "inputs": [
        {
          "internalType": "address",
          "name": "to",
          "type": "address"
        },
        {
          "internalType": "uint256",
          "name": "amount",
          "type": "uint256"
        }
      ],
      "name": "transfer",
      "outputs": [
        {
          "internalType": "bool",
          "name": "",
          "type": "bool"
        }
      ],
      "stateMutability": "nonpayable",
      "type": "function"
    },
    {
      "inputs": [
        {
          "internalType": "address",
          "name": "from",
          "type": "address"
        },
        {
          "internalType": "address",
          "name": "to",
          "type": "address"
        },
        {
          "internalType": "uint256",
          "name": "amount",
          "type": "uint256"
        }
      ],
      "name": "transferFrom",
      "outputs": [
        {
          "internalType": "bool",
          "name": "",
          "type": "bool"
        }
      ],
      "stateMutability": "nonpayable",
      "type": "function"
    },
    {
      "inputs": [
        {
          "internalType": "address",
          "name": "newOwner",
          "type": "address"
        }
      ],
      "name": "transferOwnership",
      "outputs": [],
      "stateMutability": "nonpayable",
      "type": "function"
    },
    {
      "inputs": [
        {
          "internalType": "uint256",
          "name": "amount",
          "type": "uint256"
        }
      ],
      "name": "burn",
      "outputs": [],
      "stateMutability": "nonpayable",
      "type": "function"
    },
    {
      "inputs": [
        {
          "internalType": "address",
          "name": "account",
          "type": "address"
        },
        {
          "internalType": "uint256",
          "name": "amount",
          "type": "uint256"
        }
      ],
      "name": "burnFrom",
      "outputs": [],
      "stateMutability": "nonpayable",
      "type": "function"
    },
    {
      "inputs": [
        {
          "internalType": "address",
          "name": "_feeCollector",
          "type": "address"
        }
      ],
      "name": "setFeeCollector",
      "outputs": [],
      "stateMutability": "nonpayable",
      "type": "function"
    },
    {
      "inputs": [
        {
          "internalType": "uint256",
          "name": "_feePercentage",
          "type": "uint256"
        }
      ],
      "name": "setHospitalFeePercentage",
      "outputs": [],
      "stateMutability": "nonpayable",
      "type": "function"
    },
    {
      "inputs": [
        {
          "internalType": "address",
          "name": "doctor",
          "type": "address"
        },
        {
          "internalType": "uint256",
          "name": "appointmentFee",
          "type": "uint256"
        }
      ],
      "name": "requestAppointment",
      "outputs": [
        {
          "internalType": "uint256",
          "name": "",
          "type": "uint256"
        }
      ],
      "stateMutability": "nonpayable",
      "type": "function"
    },
    {
      "inputs": [
        {
          "internalType": "uint256",
          "name": "appointmentId",
          "type": "uint256"
        }
      ],
      "name": "payForAppointment",
      "outputs": [],
      "stateMutability": "nonpayable",
      "type": "function"
    },
    {
      "inputs": [
        {
          "internalType": "uint256",
          "name": "appointmentId",
          "type": "uint256"
        }
      ],
      "name": "approveAppointment",
      "outputs": [],
      "stateMutability": "nonpayable",
      "type": "function"
    },
    {
      "inputs": [
        {
          "internalType": "address",
          "name": "recipient",
          "type": "address"
        },
        {
          "internalType": "uint256",
          "name": "amount",
          "type": "uint256"
        }
      ],
      "name": "mintHospitalRewards",
      "outputs": [],
      "stateMutability": "nonpayable",
      "type": "function"
    },
    {
      "inputs": [
        {
          "internalType": "uint256",
          "name": "appointmentId",
          "type": "uint256"
        }
      ],
      "name": "getAppointmentDetails",
      "outputs": [
        {
          "components": [
            {
              "internalType": "address",
              "name": "patient",
              "type": "address"
            },
            {
              "internalType": "address",
              "name": "doctor",
              "type": "address"
            },
            {
              "internalType": "uint256",
              "name": "fee",
              "type": "uint256"
            },
            {
              "internalType": "bool",
              "name": "isPaid",
              "type": "bool"
            },
            {
              "internalType": "bool",
              "name": "isApproved",
              "type": "bool"
            }
          ],
          "internalType": "struct HospitalCoin.Appointment",
          "name": "",
          "type": "tuple"
        }
      ],
      "stateMutability": "view",
      "type": "function"
    },
    {
      "inputs": [
        {
          "internalType": "address",
          "name": "tokenAddress",
          "type": "address"
        },
        {
          "internalType": "uint256",
          "name": "tokenAmount",
          "type": "uint256"
        }
      ],
      "name": "recoverERC20",
      "outputs": [],
      "stateMutability": "nonpayable",
      "type": "function"
    }
  ],
  "bytecode": "0x608060405260c8600b5534801562000015575f80fd5b5060405180604001604052806009815260200168242c2634baa1b7b4b760b91b8152506040518060400160405280600381526020016209098b60eb1b81525081600390816200006591906200026f565b5060046200007482826200026f565b505050620000916200008b620000b260201b60201c565b620000b6565b6001600655620000ac3369d3c21bcecceda100000062000107565b6200035d565b3390565b600580546001600160a01b038381166001600160a01b0319831681179093556040519116919082907f8be0079c531659141344cd1fd0a4f28419497f9722a3daafe3b4186f6b6457e0905f90a35050565b6001600160a01b038216620001625760405162461bcd60e51b815260206004820152601f60248201527f45524332303a206d696e7420746f20746865207a65726f206164647265737300604482015260640160405180910390fd5b8060025f82825462000175919062000337565b90915550506001600160a01b0382165f81815260208181526040808320805486019055518481527fddf252ad1be2c89b69c2b068fc378daa952ba7f163c4a11628f55a4df523b3ef910160405180910390a35050565b505050565b634e487b7160e01b5f52604160045260245ffd5b600181811c90821680620001f957607f821691505b6020821081036200021857634e487b7160e01b5f52602260045260245ffd5b50919050565b601f821115620001cb575f81815260208120601f850160051c81016020861015620002465750805b601f850160051c820191505b81811015620002675782815560010162000252565b505050505050565b81516001600160401b038111156200028b576200028b620001d0565b620002a3816200029c8454620001e4565b846200021e565b602080601f831160018114620002d9575f8415620002c15750858301515b5f19600386901b1c1916600185901b17855562000267565b5f85815260208120601f198616915b828110156200030957888601518255948401946001909101908401620002e8565b50858210156200032757878501515f19600388901b60f8161c191681555b5050505050600190811b01905550565b808201808211156200035757634e487b7160e01b5f52601160045260245ffd5b92915050565b61174e806200036b5f395ff3fe608060405234801561000f575f80fd5b50600436106101e7575f3560e01c806370a0823111610109578063a42dce801161009e578063cda8fd6c1161006e578063cda8fd6c14610573578063dd62ed3e14610586578063f2fde38b14610599578063fbe52f57146105ac575f80fd5b8063a42dce8014610527578063a457c2d71461053a578063a9059cbb1461054d578063c415b95c14610560575f80fd5b806379cc6790116100d957806379cc6790146104d45780638980f11f146104e75780638da5cb5b146104fa57806395d89b411461051f575f80fd5b806370a082311461047c578063715018a6146104a4578063750df3ed146104ac57806375e078c9146104b5575f80fd5b80632ff2e9dc1161017f57806342966c681161014f57806342966c681461042e57806352a041331461044157806367aa5fa71461046057806368a6e52014610469575f80fd5b80632ff2e9dc146103e9578063313ce567146103fa57806332cb6b0c14610409578063395093511461041b575f80fd5b806318160ddd116101ba57806318160ddd146102c557806321396dfa146102d757806323b872dd146102ea578063274894d7146102fd575f80fd5b8063064eac8a146101eb57806306fdde0314610200578063095ea7b31461021e57806312dc901314610241575b5f80fd5b6101fe6101f936600461150a565b6105bf565b005b6102086106fc565b6040516102159190611521565b60405180910390f35b61023161022c366004611587565b61078c565b6040519015158152602001610215565b61028e61024f36600461150a565b60096020525f908152604090208054600182015460028301546003909301546001600160a01b0392831693919092169160ff8082169161010090041685565b604080516001600160a01b03968716815295909416602086015292840191909152151560608301521515608082015260a001610215565b6002545b604051908152602001610215565b6101fe6102e5366004611587565b6107a5565b6102316102f83660046115af565b610834565b61039a61030b36600461150a565b6040805160a0810182525f80825260208201819052918101829052606081018290526080810191909152505f90815260096020908152604091829020825160a08101845281546001600160a01b0390811682526001830154169281019290925260028101549282019290925260039091015460ff80821615156060840152610100909104161515608082015290565b604051610215919081516001600160a01b039081168252602080840151909116908201526040808301519082015260608083015115159082015260809182015115159181019190915260a00190565b6102c969d3c21bcecceda100000081565b60405160128152602001610215565b6102c96a084595161401484a00000081565b610231610429366004611587565b610857565b6101fe61043c36600461150a565b610878565b6102c961044f3660046115e8565b60086020525f908152604090205481565b6102c9600a5481565b6101fe61047736600461150a565b610882565b6102c961048a3660046115e8565b6001600160a01b03165f9081526020819052604090205490565b6101fe610910565b6102c9600b5481565b6102c96104c33660046115e8565b60076020525f908152604090205481565b6101fe6104e2366004611587565b610923565b6101fe6104f5366004611587565b610935565b6005546001600160a01b03165b6040516001600160a01b039091168152602001610215565b6102086109df565b6101fe6105353660046115e8565b6109ee565b610231610548366004611587565b610a44565b61023161055b366004611587565b610abe565b600c54610507906001600160a01b031681565b6102c9610581366004611587565b610acb565b6102c9610594366004611608565b610bd8565b6101fe6105a73660046115e8565b610c02565b6101fe6105ba36600461150a565b610c78565b6105c7610ee3565b5f81815260096020526040902060018101546001600160a01b031633146106355760405162461bcd60e51b815260206004820181905260248201527f4f6e6c792061737369676e656420646f63746f722063616e20617070726f766560448201526064015b60405180910390fd5b600381015460ff166106895760405162461bcd60e51b815260206004820152601e60248201527f4170706f696e746d656e74206d75737420626520706169642066697273740000604482015260640161062c565b60038101805461ff001916610100179055335f9081526008602052604081208054916106b48361164d565b909155505060405133815282907f84beffd54f5407544459b5beacd3e675291d775c7866cc5050b215d585d287969060200160405180910390a2506106f96001600655565b50565b60606003805461070b90611665565b80601f016020809104026020016040519081016040528092919081815260200182805461073790611665565b80156107825780601f1061075957610100808354040283529160200191610782565b820191905f5260205f20905b81548152906001019060200180831161076557829003601f168201915b5050505050905090565b5f33610799818585610f3c565b60019150505b92915050565b6107ad611060565b6107b5610ee3565b6a084595161401484a000000816107cb60025490565b6107d5919061169d565b111561081c5760405162461bcd60e51b815260206004820152601660248201527545786365656473206d6178696d756d20737570706c7960501b604482015260640161062c565b61082682826110ba565b6108306001600655565b5050565b5f33610841858285611177565b61084c8585856111ef565b506001949350505050565b5f336107998185856108698383610bd8565b610873919061169d565b610f3c565b6106f93382611391565b61088a611060565b6103e88111156108d45760405162461bcd60e51b81526020600482015260156024820152744665652063616e6e6f74206578636565642031302560581b604482015260640161062c565b600b8190556040518181527f74516f05eb4bd2461d57aa1e935ee553f86a3e02bfed7759f2f772915de3d9be906020015b60405180910390a150565b610918611060565b6109215f6114b9565b565b61092b611060565b6108308282611391565b61093d611060565b610945610ee3565b816001600160a01b031663a9059cbb6109666005546001600160a01b031690565b6040516001600160e01b031960e084901b1681526001600160a01b039091166004820152602481018490526044016020604051808303815f875af11580156109b0573d5f803e3d5ffd5b505050506040513d601f19601f820116820180604052508101906109d491906116b0565b506108306001600655565b60606004805461070b90611665565b6109f6611060565b600c80546001600160a01b0319166001600160a01b0383169081179091556040519081527fe5693914d19c789bdee50a362998c0bc8d035a835f9871da5d51152f0582c34f90602001610905565b5f3381610a518286610bd8565b905083811015610ab15760405162461bcd60e51b815260206004820152602560248201527f45524332303a2064656372656173656420616c6c6f77616e63652062656c6f77604482015264207a65726f60d81b606482015260840161062c565b61084c8286868403610f3c565b5f336107998185856111ef565b5f610ad4610ee3565b600a8054905f610ae38361164d565b90915550506040805160a081018252338082526001600160a01b0386811660208085018281528587018981525f6060880181815260808901828152600a805484526009909652918a9020985189549088166001600160a01b0319918216178a55935160018a018054919098169416939093179095555160028701555160039095018054935115156101000261ff00199615159690961661ffff19909416939093179490941790915591549251919290917f2d3b79f0206d52208ed3fd7bcefd665b5800acfbed130897d8da64d27f32448290610bc29087815260200190565b60405180910390a450600a5461079f6001600655565b6001600160a01b039182165f90815260016020908152604080832093909416825291909152205490565b610c0a611060565b6001600160a01b038116610c6f5760405162461bcd60e51b815260206004820152602660248201527f4f776e61626c653a206e6577206f776e657220697320746865207a65726f206160448201526564647265737360d01b606482015260840161062c565b6106f9816114b9565b610c80610ee3565b5f81815260096020526040902080546001600160a01b03163314610cf85760405162461bcd60e51b815260206004820152602960248201527f4f6e6c792070617469656e742063616e2070617920666f7220746869732061706044820152681c1bda5b9d1b595b9d60ba1b606482015260840161062c565b600381015460ff1615610d4d5760405162461bcd60e51b815260206004820152601860248201527f4170706f696e746d656e7420616c726561647920706169640000000000000000604482015260640161062c565b5f612710600b548360020154610d6391906116cf565b610d6d91906116e6565b90505f818360020154610d809190611705565b6001840154909150610d9b906001600160a01b031682610abe565b610de75760405162461bcd60e51b815260206004820152601e60248201527f446f63746f72207061796d656e74207472616e73666572206661696c65640000604482015260640161062c565b600c546001600160a01b031615801590610e0057505f82115b15610e6757600c54610e1b906001600160a01b031683610abe565b610e675760405162461bcd60e51b815260206004820152601c60248201527f486f73706974616c20666565207472616e73666572206661696c656400000000604482015260640161062c565b60038301805460ff19166001179055335f908152600760205260408120805491610e908361164d565b9091555050600283015460408051338152602081019290925285917f73663bc90b039cea994688298a25f2b2b716b880f20f65e698621837e7edc73a910160405180910390a25050506106f96001600655565b600260065403610f355760405162461bcd60e51b815260206004820152601f60248201527f5265656e7472616e637947756172643a207265656e7472616e742063616c6c00604482015260640161062c565b6002600655565b6001600160a01b038316610f9e5760405162461bcd60e51b8152602060048201526024808201527f45524332303a20617070726f76652066726f6d20746865207a65726f206164646044820152637265737360e01b606482015260840161062c565b6001600160a01b038216610fff5760405162461bcd60e51b815260206004820152602260248201527f45524332303a20617070726f766520746f20746865207a65726f206164647265604482015261737360f01b606482015260840161062c565b6001600160a01b038381165f8181526001602090815260408083209487168084529482529182902085905590518481527f8c5be1e5ebec7d5bd14f71427d1e84f3dd0314c0f7b2291e5b200ac8c7c3b92591015b60405180910390a3505050565b6005546001600160a01b031633146109215760405162461bcd60e51b815260206004820181905260248201527f4f776e61626c653a2063616c6c6572206973206e6f7420746865206f776e6572604482015260640161062c565b6001600160a01b0382166111105760405162461bcd60e51b815260206004820152601f60248201527f45524332303a206d696e7420746f20746865207a65726f206164647265737300604482015260640161062c565b8060025f828254611121919061169d565b90915550506001600160a01b0382165f81815260208181526040808320805486019055518481527fddf252ad1be2c89b69c2b068fc378daa952ba7f163c4a11628f55a4df523b3ef910160405180910390a35050565b5f6111828484610bd8565b90505f1981146111e957818110156111dc5760405162461bcd60e51b815260206004820152601d60248201527f45524332303a20696e73756666696369656e7420616c6c6f77616e6365000000604482015260640161062c565b6111e98484848403610f3c565b50505050565b6001600160a01b0383166112535760405162461bcd60e51b815260206004820152602560248201527f45524332303a207472616e736665722066726f6d20746865207a65726f206164604482015264647265737360d81b606482015260840161062c565b6001600160a01b0382166112b55760405162461bcd60e51b815260206004820152602360248201527f45524332303a207472616e7366657220746f20746865207a65726f206164647260448201526265737360e81b606482015260840161062c565b6001600160a01b0383165f908152602081905260409020548181101561132c5760405162461bcd60e51b815260206004820152602660248201527f45524332303a207472616e7366657220616d6f756e7420657863656564732062604482015265616c616e636560d01b606482015260840161062c565b6001600160a01b038481165f81815260208181526040808320878703905593871680835291849020805487019055925185815290927fddf252ad1be2c89b69c2b068fc378daa952ba7f163c4a11628f55a4df523b3ef910160405180910390a36111e9565b6001600160a01b0382166113f15760405162461bcd60e51b815260206004820152602160248201527f45524332303a206275726e2066726f6d20746865207a65726f206164647265736044820152607360f81b606482015260840161062c565b6001600160a01b0382165f90815260208190526040902054818110156114645760405162461bcd60e51b815260206004820152602260248201527f45524332303a206275726e20616d6f756e7420657863656564732062616c616e604482015261636560f01b606482015260840161062c565b6001600160a01b0383165f818152602081815260408083208686039055600280548790039055518581529192917fddf252ad1be2c89b69c2b068fc378daa952ba7f163c4a11628f55a4df523b3ef9101611053565b600580546001600160a01b038381166001600160a01b0319831681179093556040519116919082907f8be0079c531659141344cd1fd0a4f28419497f9722a3daafe3b4186f6b6457e0905f90a35050565b5f6020828403121561151a575f80fd5b5035919050565b5f6020808352835180828501525f5b8181101561154c57858101830151858201604001528201611530565b505f604082860101526040601f19601f8301168501019250505092915050565b80356001600160a01b0381168114611582575f80fd5b919050565b5f8060408385031215611598575f80fd5b6115a18361156c565b946020939093013593505050565b5f805f606084860312156115c1575f80fd5b6115ca8461156c565b92506115d86020850161156c565b9150604084013590509250925092565b5f602082840312156115f8575f80fd5b6116018261156c565b9392505050565b5f8060408385031215611619575f80fd5b6116228361156c565b91506116306020840161156c565b90509250929050565b634e487b7160e01b5f52601160045260245ffd5b5f6001820161165e5761165e611639565b5060010190565b600181811c9082168061167957607f821691505b60208210810361169757634e487b7160e01b5f52602260045260245ffd5b50919050565b8082018082111561079f5761079f611639565b5f602082840312156116c0575f80fd5b81518015158114611601575f80fd5b808202811582820484141761079f5761079f611639565b5f8261170057634e487b7160e01b5f52601260045260245ffd5b500490565b8181038181111561079f5761079f61163956fea26469706673582212208e7dc304ad97d2be47038d4d0b95277a4417ae52d658c184cc479fec3e185e9364736f6c63430008140033",
  "immutableReferences": {},
  "source": "// SPDX-License-Identifier: MIT\r\npragma solidity ^0.8.0;\r\n\r\nimport \"@openzeppelin/contracts/token/ERC20/ERC20.sol\";\r\nimport \"@openzeppelin/contracts/access/Ownable.sol\";\r\nimport \"@openzeppelin/contracts/security/ReentrancyGuard.sol\";\r\n\r\ncontract HospitalCoin is ERC20(\"HXLiuCoin\", \"HLX\"), Ownable, ReentrancyGuard {\r\n  \r\n    // Coin details\r\n    uint256 public constant MAX_SUPPLY = 10_000_000 * 10**18;  // 10 million tokens\r\n    uint256 public constant INITIAL_SUPPLY = 1_000_000 * 10**18;  // 1 million initial supply\r\n\r\n  constructor() {\r\n        _mint(msg.sender, INITIAL_SUPPLY); // Owner is auto-set to deployer\r\n    }\r\n    // Appointment-specific structures\r\n    struct Appointment {\r\n        address patient;\r\n        address doctor;\r\n        uint256 fee;\r\n        bool isPaid;\r\n        bool isApproved;\r\n    }\r\n\r\n    // Mappings\r\n    mapping(address => uint256) public patientAppointmentCount;\r\n    mapping(address => uint256) public doctorConsultationCount;\r\n    mapping(uint256 => Appointment) public appointments;\r\n    uint256 public totalAppointments;\r\n\r\n    // Hospital fee mechanism\r\n    uint256 public hospitalFeePercentage = 200; // 2.00% (percentage * 100)\r\n    address public feeCollector;\r\n\r\n    // Events\r\n    event AppointmentRequested(\r\n        uint256 indexed appointmentId, \r\n        address indexed patient, \r\n        address indexed doctor, \r\n        uint256 fee\r\n    );\r\n    event AppointmentPaid(\r\n        uint256 indexed appointmentId, \r\n        address patient, \r\n        uint256 amount\r\n    );\r\n    event AppointmentApproved(\r\n        uint256 indexed appointmentId, \r\n        address doctor\r\n    );\r\n    event FeeCollectorUpdated(address newFeeCollector);\r\n    event FeePercentageUpdated(uint256 newPercentage);\r\n\r\n   \r\n    // Burn tokens from caller's address\r\n    function burn(uint256 amount) public {\r\n        _burn(msg.sender, amount);\r\n    }\r\n\r\n    // Owner can burn tokens from any address (requires approval)\r\n    function burnFrom(address account, uint256 amount) public onlyOwner {\r\n        _burn(account, amount);\r\n    }\r\n\r\n    // Set fee collector address\r\n    function setFeeCollector(address _feeCollector) public onlyOwner {\r\n        feeCollector = _feeCollector;\r\n        emit FeeCollectorUpdated(_feeCollector);\r\n    }\r\n\r\n    // Set hospital fee percentage\r\n    function setHospitalFeePercentage(uint256 _feePercentage) public onlyOwner {\r\n        require(_feePercentage <= 1000, \"Fee cannot exceed 10%\"); // Safety limit\r\n        hospitalFeePercentage = _feePercentage;\r\n        emit FeePercentageUpdated(_feePercentage);\r\n    }\r\n\r\n    // Request an appointment\r\n    function requestAppointment(\r\n        address doctor, \r\n        uint256 appointmentFee\r\n    ) public nonReentrant returns (uint256) {\r\n        // Increment total appointments\r\n        totalAppointments++;\r\n\r\n        // Create new appointment\r\n        appointments[totalAppointments] = Appointment({\r\n            patient: msg.sender,\r\n            doctor: doctor,\r\n            fee: appointmentFee,\r\n            isPaid: false,\r\n            isApproved: false\r\n        });\r\n\r\n        // Emit event\r\n        emit AppointmentRequested(\r\n            totalAppointments, \r\n            msg.sender, \r\n            doctor, \r\n            appointmentFee\r\n        );\r\n\r\n        return totalAppointments;\r\n    }\r\n\r\n    // Pay for appointment with fee mechanism\r\n    function payForAppointment(uint256 appointmentId) public nonReentrant {\r\n        Appointment storage appointment = appointments[appointmentId];\r\n        \r\n        // Validate appointment\r\n        require(\r\n            appointment.patient == msg.sender, \r\n            \"Only patient can pay for this appointment\"\r\n        );\r\n        require(!appointment.isPaid, \"Appointment already paid\");\r\n        \r\n        // Calculate hospital fee\r\n        uint256 hospitalFee = (appointment.fee * hospitalFeePercentage) / 10000;\r\n        uint256 doctorPayment = appointment.fee - hospitalFee;\r\n        \r\n        // Transfer coins for doctor fee\r\n        require(\r\n            transfer(appointment.doctor, doctorPayment), \r\n            \"Doctor payment transfer failed\"\r\n        );\r\n        \r\n        // Transfer hospital fee if fee collector is set\r\n        if (feeCollector != address(0) && hospitalFee > 0) {\r\n            require(\r\n                transfer(feeCollector, hospitalFee),\r\n                \"Hospital fee transfer failed\"\r\n            );\r\n        }\r\n\r\n        // Mark as paid\r\n        appointment.isPaid = true;\r\n\r\n        // Increment counts\r\n        patientAppointmentCount[msg.sender]++;\r\n\r\n        // Emit event\r\n        emit AppointmentPaid(\r\n            appointmentId, \r\n            msg.sender, \r\n            appointment.fee\r\n        );\r\n    }\r\n\r\n    // Doctor approves appointment\r\n    function approveAppointment(uint256 appointmentId) public nonReentrant {\r\n        Appointment storage appointment = appointments[appointmentId];\r\n        \r\n        // Validate approval\r\n        require(\r\n            appointment.doctor == msg.sender, \r\n            \"Only assigned doctor can approve\"\r\n        );\r\n        require(appointment.isPaid, \"Appointment must be paid first\");\r\n        \r\n        // Mark as approved\r\n        appointment.isApproved = true;\r\n        doctorConsultationCount[msg.sender]++;\r\n\r\n        // Emit event\r\n        emit AppointmentApproved(appointmentId, msg.sender);\r\n    }\r\n\r\n    // Mint tokens for hospital rewards\r\n    function mintHospitalRewards(\r\n        address recipient, \r\n        uint256 amount\r\n    ) public onlyOwner nonReentrant {\r\n        require(\r\n            totalSupply() + amount <= MAX_SUPPLY, \r\n            \"Exceeds maximum supply\"\r\n        );\r\n        _mint(recipient, amount);\r\n    }\r\n\r\n    // Get appointment details\r\n    function getAppointmentDetails(uint256 appointmentId) \r\n        public \r\n        view \r\n        returns (Appointment memory) \r\n    {\r\n        return appointments[appointmentId];\r\n    }\r\n\r\n    // Emergency token recovery (in case tokens get stuck)\r\n    function recoverERC20(address tokenAddress, uint256 tokenAmount) public onlyOwner nonReentrant {\r\n        IERC20(tokenAddress).transfer(owner(), tokenAmount);\r\n    }\r\n}",
  "sourcePath": "C:\\Users\\Bonsu\\Documents\\HuaxiBa Blockchain  Project\\HuaxiBa Project\\Huaxi\\Huaxi\\contracts\\HospitalCoin.sol",
  "compiler": {
    "name": "solc",
    "version": "0.8.20+commit.a1b79de6.Emscripten.clang"
  },
  "schemaVersion": "3.4.16",
  "updatedAt": "2025-04-23T14:58:29.392Z",
  "devdoc": {
    "events": {
      "Approval(address,address,uint256)": {
        "details": "Emitted when the allowance of a `spender` for an `owner` is set by a call to {approve}. `value` is the new allowance."
      },
      "Transfer(address,address,uint256)": {
        "details": "Emitted when `value` tokens are moved from one account (`from`) to another (`to`). Note that `value` may be zero."
      }
    },
    "kind": "dev",
    "methods": {
      "allowance(address,address)": {
        "details": "See {IERC20-allowance}."
      },
      "approve(address,uint256)": {
        "details": "See {IERC20-approve}. NOTE: If `amount` is the maximum `uint256`, the allowance is not updated on `transferFrom`. This is semantically equivalent to an infinite approval. Requirements: - `spender` cannot be the zero address."
      },
      "balanceOf(address)": {
        "details": "See {IERC20-balanceOf}."
      },
      "decimals()": {
        "details": "Returns the number of decimals used to get its user representation. For example, if `decimals` equals `2`, a balance of `505` tokens should be displayed to a user as `5.05` (`505 / 10 ** 2`). Tokens usually opt for a value of 18, imitating the relationship between Ether and Wei. This is the default value returned by this function, unless it's overridden. NOTE: This information is only used for _display_ purposes: it in no way affects any of the arithmetic of the contract, including {IERC20-balanceOf} and {IERC20-transfer}."
      },
      "decreaseAllowance(address,uint256)": {
        "details": "Atomically decreases the allowance granted to `spender` by the caller. This is an alternative to {approve} that can be used as a mitigation for problems described in {IERC20-approve}. Emits an {Approval} event indicating the updated allowance. Requirements: - `spender` cannot be the zero address. - `spender` must have allowance for the caller of at least `subtractedValue`."
      },
      "increaseAllowance(address,uint256)": {
        "details": "Atomically increases the allowance granted to `spender` by the caller. This is an alternative to {approve} that can be used as a mitigation for problems described in {IERC20-approve}. Emits an {Approval} event indicating the updated allowance. Requirements: - `spender` cannot be the zero address."
      },
      "name()": {
        "details": "Returns the name of the token."
      },
      "owner()": {
        "details": "Returns the address of the current owner."
      },
      "renounceOwnership()": {
        "details": "Leaves the contract without owner. It will not be possible to call `onlyOwner` functions. Can only be called by the current owner. NOTE: Renouncing ownership will leave the contract without an owner, thereby disabling any functionality that is only available to the owner."
      },
      "symbol()": {
        "details": "Returns the symbol of the token, usually a shorter version of the name."
      },
      "totalSupply()": {
        "details": "See {IERC20-totalSupply}."
      },
      "transfer(address,uint256)": {
        "details": "See {IERC20-transfer}. Requirements: - `to` cannot be the zero address. - the caller must have a balance of at least `amount`."
      },
      "transferFrom(address,address,uint256)": {
        "details": "See {IERC20-transferFrom}. Emits an {Approval} event indicating the updated allowance. This is not required by the EIP. See the note at the beginning of {ERC20}. NOTE: Does not update the allowance if the current allowance is the maximum `uint256`. Requirements: - `from` and `to` cannot be the zero address. - `from` must have a balance of at least `amount`. - the caller must have allowance for ``from``'s tokens of at least `amount`."
      },
      "transferOwnership(address)": {
        "details": "Transfers ownership of the contract to a new account (`newOwner`). Can only be called by the current owner."
      }
    },
    "version": 1
  },
  "userdoc": {
    "kind": "user",
    "methods": {},
    "version": 1
  }
}