{
  "contractName": "MetadataParser",
  "abi": [
    {
      "inputs": [],
      "stateMutability": "nonpayable",
      "type": "constructor"
    },
    {
      "anonymous": false,
      "inputs": [
        {
          "indexed": true,
          "internalType": "bytes32",
          "name": "transactionId",
          "type": "bytes32"
        },
        {
          "indexed": false,
          "internalType": "bool",
          "name": "isSpeculative",
          "type": "bool"
        }
      ],
      "name": "MetadataParsed",
      "type": "event"
    },
    {
      "anonymous": false,
      "inputs": [
        {
          "indexed": true,
          "internalType": "bytes32",
          "name": "originalProtocol",
          "type": "bytes32"
        },
        {
          "indexed": true,
          "internalType": "bytes32",
          "name": "convertedProtocol",
          "type": "bytes32"
        }
      ],
      "name": "ProtocolConverted",
      "type": "event"
    },
    {
      "anonymous": false,
      "inputs": [
        {
          "indexed": true,
          "internalType": "bytes32",
          "name": "transactionId",
          "type": "bytes32"
        },
        {
          "indexed": false,
          "internalType": "enum MetadataParser.TransactionStatus",
          "name": "status",
          "type": "uint8"
        }
      ],
      "name": "TransactionStatusUpdated",
      "type": "event"
    },
    {
      "inputs": [],
      "name": "encryptionHandler",
      "outputs": [
        {
          "internalType": "contract ChaCha20Poly1305",
          "name": "",
          "type": "address"
        }
      ],
      "stateMutability": "view",
      "type": "function"
    },
    {
      "inputs": [
        {
          "internalType": "bytes32",
          "name": "",
          "type": "bytes32"
        }
      ],
      "name": "irNodes",
      "outputs": [
        {
          "internalType": "bytes32",
          "name": "nodeType",
          "type": "bytes32"
        },
        {
          "internalType": "bytes",
          "name": "value",
          "type": "bytes"
        }
      ],
      "stateMutability": "view",
      "type": "function"
    },
    {
      "inputs": [
        {
          "internalType": "bytes32",
          "name": "",
          "type": "bytes32"
        }
      ],
      "name": "parsedTransactions",
      "outputs": [
        {
          "internalType": "bytes32",
          "name": "transactionId",
          "type": "bytes32"
        },
        {
          "internalType": "address",
          "name": "sender",
          "type": "address"
        },
        {
          "internalType": "address",
          "name": "recipient",
          "type": "address"
        },
        {
          "internalType": "uint256",
          "name": "timestamp",
          "type": "uint256"
        },
        {
          "internalType": "bytes32",
          "name": "sourceProtocol",
          "type": "bytes32"
        },
        {
          "internalType": "bytes32",
          "name": "targetProtocol",
          "type": "bytes32"
        },
        {
          "internalType": "bytes",
          "name": "encryptedPayload",
          "type": "bytes"
        },
        {
          "internalType": "bytes",
          "name": "authTag",
          "type": "bytes"
        },
        {
          "internalType": "bool",
          "name": "isSpeculative",
          "type": "bool"
        },
        {
          "internalType": "enum MetadataParser.TransactionStatus",
          "name": "status",
          "type": "uint8"
        }
      ],
      "stateMutability": "view",
      "type": "function"
    },
    {
      "inputs": [
        {
          "internalType": "bytes32",
          "name": "",
          "type": "bytes32"
        }
      ],
      "name": "protocolInstructions",
      "outputs": [
        {
          "internalType": "bytes32",
          "name": "originalProtocol",
          "type": "bytes32"
        },
        {
          "internalType": "bytes32",
          "name": "convertedProtocol",
          "type": "bytes32"
        }
      ],
      "stateMutability": "view",
      "type": "function"
    },
    {
      "inputs": [
        {
          "internalType": "address",
          "name": "_recipient",
          "type": "address"
        },
        {
          "internalType": "bytes32",
          "name": "_sourceProtocol",
          "type": "bytes32"
        },
        {
          "internalType": "bytes32",
          "name": "_targetProtocol",
          "type": "bytes32"
        },
        {
          "internalType": "bytes",
          "name": "_payload",
          "type": "bytes"
        },
        {
          "internalType": "bool",
          "name": "_isSpeculative",
          "type": "bool"
        }
      ],
      "name": "prepareTransactionMetadata",
      "outputs": [
        {
          "internalType": "bytes32",
          "name": "",
          "type": "bytes32"
        }
      ],
      "stateMutability": "nonpayable",
      "type": "function"
    },
    {
      "inputs": [
        {
          "internalType": "bytes32",
          "name": "_nodeId",
          "type": "bytes32"
        },
        {
          "internalType": "bytes32",
          "name": "_nodeType",
          "type": "bytes32"
        },
        {
          "internalType": "bytes",
          "name": "_value",
          "type": "bytes"
        }
      ],
      "name": "parseToIRNode",
      "outputs": [
        {
          "internalType": "bytes32",
          "name": "",
          "type": "bytes32"
        }
      ],
      "stateMutability": "nonpayable",
      "type": "function"
    },
    {
      "inputs": [
        {
          "internalType": "bytes32",
          "name": "_nodeId",
          "type": "bytes32"
        },
        {
          "internalType": "bytes32",
          "name": "_key",
          "type": "bytes32"
        },
        {
          "internalType": "bytes32",
          "name": "_value",
          "type": "bytes32"
        }
      ],
      "name": "addKeyValueToNode",
      "outputs": [],
      "stateMutability": "nonpayable",
      "type": "function"
    },
    {
      "inputs": [
        {
          "internalType": "bytes32",
          "name": "_originalProtocol",
          "type": "bytes32"
        },
        {
          "internalType": "bytes32",
          "name": "_targetProtocol",
          "type": "bytes32"
        },
        {
          "internalType": "bytes32[]",
          "name": "_opcodes",
          "type": "bytes32[]"
        },
        {
          "internalType": "bytes32[]",
          "name": "_convertedOpcodes",
          "type": "bytes32[]"
        }
      ],
      "name": "convertProtocolInstructions",
      "outputs": [],
      "stateMutability": "nonpayable",
      "type": "function"
    },
    {
      "inputs": [
        {
          "internalType": "bytes32",
          "name": "_transactionId",
          "type": "bytes32"
        },
        {
          "internalType": "enum MetadataParser.TransactionStatus",
          "name": "_status",
          "type": "uint8"
        }
      ],
      "name": "updateTransactionStatus",
      "outputs": [],
      "stateMutability": "nonpayable",
      "type": "function"
    },
    {
      "inputs": [
        {
          "internalType": "bytes",
          "name": "_payload",
          "type": "bytes"
        },
        {
          "internalType": "bytes32",
          "name": "_key",
          "type": "bytes32"
        },
        {
          "internalType": "bytes12",
          "name": "_nonce",
          "type": "bytes12"
        }
      ],
      "name": "encryptPayload",
      "outputs": [
        {
          "internalType": "bytes",
          "name": "encryptedPayload",
          "type": "bytes"
        },
        {
          "internalType": "bytes",
          "name": "authTag",
          "type": "bytes"
        }
      ],
      "stateMutability": "view",
      "type": "function"
    }
  ],
  "bytecode": "0x60a060405234801561000f575f80fd5b5060015f556040516100209061004b565b604051809103905ff080158015610039573d5f803e3d5ffd5b506001600160a01b0316608052610058565b610bd28061118983390190565b6080516111126100775f395f818161011a015261072401526111125ff3fe608060405234801561000f575f80fd5b506004361061009b575f3560e01c806375e630031161006357806375e63003146101805780637e63f29e146101a15780638f21b431146101ca578063924b75a4146101dd578063d94c2aed146101fe575f80fd5b8063103e36291461009f57806315ba99b9146100df578063241faa9a146101005780635fe57ac014610115578063752dd7d614610154575b5f80fd5b6100c56100ad366004610952565b60026020525f90815260409020805460019091015482565b604080519283526020830191909152015b60405180910390f35b6100f26100ed3660046109ae565b610211565b6040519081526020016100d6565b61011361010e366004610a75565b6103e6565b005b61013c7f000000000000000000000000000000000000000000000000000000000000000081565b6040516001600160a01b0390911681526020016100d6565b610113610162366004610af2565b5f928352600360208181526040808620948652939091019052912055565b61019361018e366004610952565b6104e4565b6040516100d6929190610b68565b6101b46101af366004610952565b610586565b6040516100d69a99989796959493929190610bbc565b6100f26101d8366004610c40565b6106f5565b6101f06101eb366004610c8f565b61071f565b6040516100d6929190610cf6565b61011361020c366004610d23565b6107c2565b5f61021a610891565b5f6102236108e8565b60408051624b455960e81b602080830191909152602380830185905283518084039091018152604383018452805190820120644e4f4e434560d81b6063840152606880840186905284518085039091018152608890930190935281519101209192505f9182919060a01b915091505f60015f8581526020019081526020015f20905083815f018190555033816001015f6101000a8154816001600160a01b0302191690836001600160a01b031602179055508a816002015f6101000a8154816001600160a01b0302191690836001600160a01b0316021790555042816003018190555089816004018190555088816005018190555085816008015f6101000a81548160ff0219169083151502179055505f8160080160016101000a81548160ff0219169083600381111561035957610359610b88565b02179055505f8061036c8a8a878761071f565b90925090506006830161037f8382610dee565b506007830161038e8282610dee565b50857f90dcf39cdb73bf1f33205d7a345409be4e2503e21df5dcc2e0835ff690091e42896040516103c3911515815260200190565b60405180910390a250939450505050506103dc60015f55565b9695505050505050565b8281146104325760405162461bcd60e51b8152602060048201526015602482015274082e4e4c2f240d8cadccee8d040dad2e6dac2e8c6d605b1b60448201526064015b60405180910390fd5b5f86815260026020526040812087815560018101879055905b848110156104ae5783838281811061046557610465610eaa565b90506020020135826002015f88888581811061048357610483610eaa565b9050602002013581526020019081526020015f208190555080806104a690610ebe565b91505061044b565b50604051869088907f3785136c97f95352c5835e6c0a78bb71b2e81f92c7297ff5dc00fb682ff8751d905f90a350505050505050565b60036020525f90815260409020805460018201805491929161050590610d68565b80601f016020809104026020016040519081016040528092919081815260200182805461053190610d68565b801561057c5780601f106105535761010080835404028352916020019161057c565b820191905f5260205f20905b81548152906001019060200180831161055f57829003601f168201915b5050505050905082565b600160208190525f918252604090912080549181015460028201546003830154600484015460058501546006860180546001600160a01b039687169796909516959394929391926105d690610d68565b80601f016020809104026020016040519081016040528092919081815260200182805461060290610d68565b801561064d5780601f106106245761010080835404028352916020019161064d565b820191905f5260205f20905b81548152906001019060200180831161063057829003601f168201915b50505050509080600701805461066290610d68565b80601f016020809104026020016040519081016040528092919081815260200182805461068e90610d68565b80156106d95780601f106106b0576101008083540402835291602001916106d9565b820191905f5260205f20905b8154815290600101906020018083116106bc57829003601f168201915b5050506008909301549192505060ff808216916101009004168a565b5f84815260036020526040812084815560018101610714848683610ee2565b509495945050505050565b6060807f00000000000000000000000000000000000000000000000000000000000000006001600160a01b031663aa4e0747878787876040518563ffffffff1660e01b81526004016107749493929190610f9e565b5f60405180830381865afa15801561078e573d5f803e3d5ffd5b505050506040513d5f823e601f3d908101601f191682016040526107b59190810190611068565b9150915094509492505050565b5f82815260016020819052604090912001546001600160a01b03166108215760405162461bcd60e51b8152602060048201526015602482015274151c985b9cd858dd1a5bdb881b9bdd08199bdd5b99605a1b6044820152606401610429565b5f828152600160205260409020600801805482919061ff00191661010083600381111561085057610850610b88565b0217905550817f173ab1457fc3724e88edbcecbc7bf4bca405ec2c1e8e29b06238e3c183ed4e968260405161088591906110c8565b60405180910390a25050565b60025f54036108e25760405162461bcd60e51b815260206004820152601f60248201527f5265656e7472616e637947756172643a207265656e7472616e742063616c6c006044820152606401610429565b60025f55565b5f6108f7600480546001019055565b423361090260045490565b6040516020016109379392919092835260609190911b6bffffffffffffffffffffffff19166020830152603482015260540190565b60405160208183030381529060405280519060200120905090565b5f60208284031215610962575f80fd5b5035919050565b5f8083601f840112610979575f80fd5b50813567ffffffffffffffff811115610990575f80fd5b6020830191508360208285010111156109a7575f80fd5b9250929050565b5f805f805f8060a087890312156109c3575f80fd5b86356001600160a01b03811681146109d9575f80fd5b95506020870135945060408701359350606087013567ffffffffffffffff811115610a02575f80fd5b610a0e89828a01610969565b90945092505060808701358015158114610a26575f80fd5b809150509295509295509295565b5f8083601f840112610a44575f80fd5b50813567ffffffffffffffff811115610a5b575f80fd5b6020830191508360208260051b85010111156109a7575f80fd5b5f805f805f8060808789031215610a8a575f80fd5b8635955060208701359450604087013567ffffffffffffffff80821115610aaf575f80fd5b610abb8a838b01610a34565b90965094506060890135915080821115610ad3575f80fd5b50610ae089828a01610a34565b979a9699509497509295939492505050565b5f805f60608486031215610b04575f80fd5b505081359360208301359350604090920135919050565b5f5b83811015610b35578181015183820152602001610b1d565b50505f910152565b5f8151808452610b54816020860160208601610b1b565b601f01601f19169290920160200192915050565b828152604060208201525f610b806040830184610b3d565b949350505050565b634e487b7160e01b5f52602160045260245ffd5b60048110610bb857634e487b7160e01b5f52602160045260245ffd5b9052565b8a81526001600160a01b038a8116602083015289166040820152606081018890526080810187905260a0810186905261014060c082018190525f90610c0383820188610b3d565b905082810360e0840152610c178187610b3d565b915050831515610100830152610c31610120830184610b9c565b9b9a5050505050505050505050565b5f805f8060608587031215610c53575f80fd5b8435935060208501359250604085013567ffffffffffffffff811115610c77575f80fd5b610c8387828801610969565b95989497509550505050565b5f805f8060608587031215610ca2575f80fd5b843567ffffffffffffffff811115610cb8575f80fd5b610cc487828801610969565b9095509350506020850135915060408501356001600160a01b031981168114610ceb575f80fd5b939692955090935050565b604081525f610d086040830185610b3d565b8281036020840152610d1a8185610b3d565b95945050505050565b5f8060408385031215610d34575f80fd5b82359150602083013560048110610d49575f80fd5b809150509250929050565b634e487b7160e01b5f52604160045260245ffd5b600181811c90821680610d7c57607f821691505b602082108103610d9a57634e487b7160e01b5f52602260045260245ffd5b50919050565b601f821115610de9575f81815260208120601f850160051c81016020861015610dc65750805b601f850160051c820191505b81811015610de557828155600101610dd2565b5050505b505050565b815167ffffffffffffffff811115610e0857610e08610d54565b610e1c81610e168454610d68565b84610da0565b602080601f831160018114610e4f575f8415610e385750858301515b5f19600386901b1c1916600185901b178555610de5565b5f85815260208120601f198616915b82811015610e7d57888601518255948401946001909101908401610e5e565b5085821015610e9a57878501515f19600388901b60f8161c191681555b5050505050600190811b01905550565b634e487b7160e01b5f52603260045260245ffd5b5f60018201610edb57634e487b7160e01b5f52601160045260245ffd5b5060010190565b67ffffffffffffffff831115610efa57610efa610d54565b610f0e83610f088354610d68565b83610da0565b5f601f841160018114610f3f575f8515610f285750838201355b5f19600387901b1c1916600186901b178355610f97565b5f83815260209020601f19861690835b82811015610f6f5786850135825560209485019460019092019101610f4f565b5086821015610f8b575f1960f88860031b161c19848701351681555b505060018560011b0183555b5050505050565b60608152836060820152838560808301375f608085830101525f6080601f19601f87011683010190508360208301526bffffffffffffffffffffffff60a01b8316604083015295945050505050565b5f82601f830112610ffc575f80fd5b815167ffffffffffffffff8082111561101757611017610d54565b604051601f8301601f19908116603f0116810190828211818310171561103f5761103f610d54565b81604052838152866020858801011115611057575f80fd5b6103dc846020830160208901610b1b565b5f8060408385031215611079575f80fd5b825167ffffffffffffffff80821115611090575f80fd5b61109c86838701610fed565b935060208501519150808211156110b1575f80fd5b506110be85828601610fed565b9150509250929050565b602081016110d68284610b9c565b9291505056fea2646970667358221220c1300846fbb2c085f135deb31de5be652d27a96348596a9f96d254d25fc3a33d64736f6c63430008140033608060405234801561000f575f80fd5b50610bb58061001d5f395ff3fe608060405234801561000f575f80fd5b5060043610610029575f3560e01c8063aa4e07471461002d575b5f80fd5b61004061003b36600461096e565b610057565b60405161004e929190610a75565b60405180910390f35b6060805f61006685855f610165565b90505f61007282610358565b9050865167ffffffffffffffff81111561008e5761008e61093e565b6040519080825280601f01601f1916602001820160405280156100b8576020820181803683370190505b5093505f5b875181101561014e57816100d2604083610aa2565b815181106100e2576100e2610ac1565b602001015160f81c60f81b60f81c88828151811061010257610102610ac1565b602001015160f81c60f81b60f81c1860f81b85828151811061012657610126610ac1565b60200101906001600160f81b03191690815f1a9053508061014681610ae9565b9150506100bd565b5061015984876106ca565b92505050935093915050565b61016d610907565b610175610907565b8051636170786590528051633320646e60209091015280516379622d326040909101528051636b2065746060909101525f5b60088110156101ff576101bb816020610b01565b82519087901c906101cd836004610b18565b601081106101dd576101dd610ac1565b63ffffffff9092166020929092020152806101f781610ae9565b9150506101a7565b50805163ffffffff841661018090910152604080516001600160a01b0319861660208201528151600c818303018152602c9091019091525f5b600381101561034d5760188261024f836004610b01565b61025a906003610b18565b8151811061026a5761026a610ac1565b016020015160f81c901b601083610282846004610b01565b61028d906002610b18565b8151811061029d5761029d610ac1565b016020015160f81c901b6008846102b5856004610b01565b6102c0906001610b18565b815181106102d0576102d0610ac1565b016020015160f81c901b846102e6856004610b01565b815181106102f6576102f6610ac1565b602001015160f81c60f81b60f81c60ff16171717835f015182600d61031b9190610b18565b6010811061032b5761032b610ac1565b63ffffffff90921660209290920201528061034581610ae9565b915050610238565b509095945050505050565b606061036261091f565b5f5b60108110156103b9578351816010811061038057610380610ac1565b602002015182826010811061039757610397610ac1565b63ffffffff9092166020929092020152806103b181610ae9565b915050610364565b505f5b60148110156105d557815160808301516103e891908460085b602002015185600c5b6020020151610857565b63ffffffff9081166101808701529081166101008601529081166080850152168252602082015160a083015161042a91908460095b602002015185600d6103de565b63ffffffff9081166101a087015290811661012086015290811660a0850152166020830152604082015160c083015161046f919084600a5b602002015185600e6103de565b63ffffffff9081166101c087015290811661014086015290811660c0850152166040830152606082015160e08301516104b4919084600b5b602002015185600f6103de565b63ffffffff9081166101e087015290811661016086015290811660e0850152166060830152815160a08301516104ed919084600a6104a7565b63ffffffff9081166101e087015290811661014086015290811660a0850152168252602082015160c0830151610526919084600b6103d5565b63ffffffff90811661018087015290811661016086015290811660c0850152166020830152604082015160e0830151610562919084600861041d565b63ffffffff9081166101a087015290811661010086015290811660e08501521660408301526060820151608083015161059e9190846009610462565b63ffffffff9081166101c087015290811661012086015290811660808501521660608301526105ce600282610b18565b90506103bc565b50604080518181526060810182525f916020820181803683370190505090505f5b60108110156106c25784515f90826010811061061457610614610ac1565b602002015184836010811061062b5761062b610ac1565b602002015161063a9190610b2b565b90505f5b60048110156106ad57610652816008610b01565b63ffffffff8316901c60f81b848261066b866004610b01565b6106759190610b18565b8151811061068557610685610ac1565b60200101906001600160f81b03191690815f1a905350806106a581610ae9565b91505061063e565b505080806106ba90610ae9565b9150506105f6565b509392505050565b60606106e760405180604001604052805f81526020015f81525090565b6f0ffffffc0ffffffc0ffffffc0fffffff831681525f602082018190526010905b85518110156107cd575f81875161071f9190610b4f565b90508281111561072c5750815b5f805b8281101561077e57610742816008610b01565b8961074d8387610b18565b8151811061075d5761075d610ac1565b016020015160f81c901b91909117908061077681610ae9565b91505061072f565b508382101561079857610792826008610b01565b6001901b175b600160821b81866020015108602086018190528551600160821b91096020860152506107c690508282610b18565b9050610708565b506040805160108082528183019092525f9160208201818036833750505060208401519091505f5b601081101561084957610809816008610b01565b82901c60f81b83828151811061082157610821610ac1565b60200101906001600160f81b03191690815f1a9053508061084181610ae9565b9150506107f5565b509093505050505b92915050565b5f8080806108658789610b2b565b975061087488861860106108d3565b94506108808587610b2b565b955061088f868818600c6108d3565b965061089b8789610b2b565b97506108aa88861860086108d3565b94506108b68587610b2b565b95506108c586881860076108d3565b979895965093949350505050565b5f6108df826020610b62565b63ffffffff168363ffffffff16901c8263ffffffff168463ffffffff16901b17905092915050565b604051806020016040528061091a61091f565b905290565b6040518061020001604052806010906020820280368337509192915050565b634e487b7160e01b5f52604160045260245ffd5b80356001600160a01b031981168114610969575f80fd5b919050565b5f805f60608486031215610980575f80fd5b833567ffffffffffffffff80821115610997575f80fd5b818601915086601f8301126109aa575f80fd5b8135818111156109bc576109bc61093e565b604051601f8201601f19908116603f011681019083821181831017156109e4576109e461093e565b816040528281528960208487010111156109fc575f80fd5b826020860160208301375f60208483010152809750505050505060208401359150610a2960408501610952565b90509250925092565b5f81518084525f5b81811015610a5657602081850181015186830182015201610a3a565b505f602082860101526020601f19601f83011685010191505092915050565b604081525f610a876040830185610a32565b8281036020840152610a998185610a32565b95945050505050565b5f82610abc57634e487b7160e01b5f52601260045260245ffd5b500690565b634e487b7160e01b5f52603260045260245ffd5b634e487b7160e01b5f52601160045260245ffd5b5f60018201610afa57610afa610ad5565b5060010190565b808202811582820484141761085157610851610ad5565b8082018082111561085157610851610ad5565b63ffffffff818116838216019080821115610b4857610b48610ad5565b5092915050565b8181038181111561085157610851610ad5565b63ffffffff828116828216039080821115610b4857610b48610ad556fea26469706673582212201c9a61f6eaf3e6e53bab0228e51e6b758663805297332cbaf5f2be5ecad51e7d64736f6c63430008140033",
  "immutableReferences": {
    "10801": [
      {
        "length": 32,
        "start": 282
      },
      {
        "length": 32,
        "start": 1828
      }
    ]
  },
  "source": "// SPDX-License-Identifier: MIT\npragma solidity ^0.8.0;\n\nimport \"@openzeppelin/contracts/security/ReentrancyGuard.sol\";\nimport \"@openzeppelin/contracts/utils/Counters.sol\";\nimport \"../blockchain/ChaCha20Poly1305.sol\";\n\n/**\n * @title MetadataParser\n * @dev Enhanced version with actual encryption and detailed protocol conversion\n */\ncontract MetadataParser is ReentrancyGuard {\n    using Counters for Counters.Counter;\n    \n    ChaCha20Poly1305 public immutable encryptionHandler;\n    \n    struct ProtocolInstruction {\n        bytes32 originalProtocol;\n        bytes32 convertedProtocol;\n        mapping(bytes32 => bytes32) opcodeMapping;\n    }\n\n    struct ParsedMetadata {\n        bytes32 transactionId;\n        address sender;\n        address recipient;\n        uint256 timestamp;\n        bytes32 sourceProtocol;\n        bytes32 targetProtocol;\n        bytes encryptedPayload;\n        bytes authTag;\n        bool isSpeculative;\n        TransactionStatus status;\n    }\n\n    struct IRNode {\n        bytes32 nodeType;\n        bytes value;\n        bytes32[] childrenIds;\n        mapping(bytes32 => bytes32) keyValuePairs;\n    }\n\n    enum TransactionStatus {\n        Pending,\n        Speculative,\n        Confirmed,\n        Failed\n    }\n\n    mapping(bytes32 => ParsedMetadata) public parsedTransactions;\n    mapping(bytes32 => ProtocolInstruction) public protocolInstructions;\n    mapping(bytes32 => IRNode) public irNodes;\n    Counters.Counter private _transactionIdCounter;\n\n    event MetadataParsed(bytes32 indexed transactionId, bool isSpeculative);\n    event ProtocolConverted(bytes32 indexed originalProtocol, bytes32 indexed convertedProtocol);\n    event TransactionStatusUpdated(bytes32 indexed transactionId, TransactionStatus status);\n\n    constructor() {\n        encryptionHandler = new ChaCha20Poly1305();\n    }\n\n    function generateEncryptionParams(\n        bytes32 transactionId\n    ) internal pure returns (bytes32 key, bytes12 nonce) {\n        key = keccak256(abi.encodePacked(\"KEY\", transactionId));\n        nonce = bytes12(uint96(uint256(keccak256(abi.encodePacked(\"NONCE\", transactionId)))));\n        return (key, nonce);\n    }\n\n    function prepareTransactionMetadata(\n        address _recipient,\n        bytes32 _sourceProtocol,\n        bytes32 _targetProtocol,\n        bytes calldata _payload,\n        bool _isSpeculative\n    ) external nonReentrant returns (bytes32) {\n        bytes32 transactionId = generateTransactionId();\n        (bytes32 key, bytes12 nonce) = generateEncryptionParams(transactionId);\n        \n        ParsedMetadata storage metadata = parsedTransactions[transactionId];\n        metadata.transactionId = transactionId;\n        metadata.sender = msg.sender;\n        metadata.recipient = _recipient;\n        metadata.timestamp = block.timestamp;\n        metadata.sourceProtocol = _sourceProtocol;\n        metadata.targetProtocol = _targetProtocol;\n        metadata.isSpeculative = _isSpeculative;\n        metadata.status = TransactionStatus.Pending;\n\n        (bytes memory encryptedPayload, bytes memory authTag) = encryptPayload(_payload, key, nonce);\n        metadata.encryptedPayload = encryptedPayload;\n        metadata.authTag = authTag;\n\n        emit MetadataParsed(transactionId, _isSpeculative);\n        return transactionId;\n    }\n\n    function parseToIRNode(\n        bytes32 _nodeId,\n        bytes32 _nodeType,\n        bytes calldata _value\n    ) external returns (bytes32) {\n        IRNode storage node = irNodes[_nodeId];\n        node.nodeType = _nodeType;\n        node.value = _value;\n        return _nodeId;\n    }\n\n    function addKeyValueToNode(\n        bytes32 _nodeId,\n        bytes32 _key,\n        bytes32 _value\n    ) external {\n        IRNode storage node = irNodes[_nodeId];\n        node.keyValuePairs[_key] = _value;\n    }\n\n    function convertProtocolInstructions(\n        bytes32 _originalProtocol,\n        bytes32 _targetProtocol,\n        bytes32[] calldata _opcodes,\n        bytes32[] calldata _convertedOpcodes\n    ) external {\n        require(_opcodes.length == _convertedOpcodes.length, \"Array length mismatch\");\n        \n        ProtocolInstruction storage instruction = protocolInstructions[_originalProtocol];\n        instruction.originalProtocol = _originalProtocol;\n        instruction.convertedProtocol = _targetProtocol;\n\n        for (uint i = 0; i < _opcodes.length; i++) {\n            instruction.opcodeMapping[_opcodes[i]] = _convertedOpcodes[i];\n        }\n\n        emit ProtocolConverted(_originalProtocol, _targetProtocol);\n    }\n\n    function updateTransactionStatus(\n        bytes32 _transactionId,\n        TransactionStatus _status\n    ) external {\n        require(parsedTransactions[_transactionId].sender != address(0), \"Transaction not found\");\n        parsedTransactions[_transactionId].status = _status;\n        emit TransactionStatusUpdated(_transactionId, _status);\n    }\n\n    function generateTransactionId() private returns (bytes32) {\n        _transactionIdCounter.increment();\n        return keccak256(abi.encodePacked(block.timestamp, msg.sender, _transactionIdCounter.current()));\n    }\n\n    function encryptPayload(\n        bytes calldata _payload,\n        bytes32 _key,\n        bytes12 _nonce\n    ) public view returns (bytes memory encryptedPayload, bytes memory authTag) {\n        return encryptionHandler.encrypt(_payload, _key, _nonce);\n    }\n}",
  "sourcePath": "C:\\Users\\Bonsu\\Documents\\CLEANER PRODUCTION\\renewalclimateproject\\ClimateProjectFull\\contracts\\passchain\\MetadataParser.sol",
  "compiler": {
    "name": "solc",
    "version": "0.8.20+commit.a1b79de6.Emscripten.clang"
  },
  "schemaVersion": "3.4.16",
  "updatedAt": "2025-02-21T06:43:13.942Z",
  "devdoc": {
    "details": "Enhanced version with actual encryption and detailed protocol conversion",
    "kind": "dev",
    "methods": {},
    "title": "MetadataParser",
    "version": 1
  },
  "userdoc": {
    "kind": "user",
    "methods": {},
    "version": 1
  }
}