{
  "contractName": "MitigationContract",
  "abi": [
    {
      "inputs": [
        {
          "internalType": "address",
          "name": "_carbonLevelFeed",
          "type": "address"
        },
        {
          "internalType": "address",
          "name": "_temperatureFeed",
          "type": "address"
        }
      ],
      "stateMutability": "nonpayable",
      "type": "constructor"
    },
    {
      "anonymous": false,
      "inputs": [
        {
          "indexed": false,
          "internalType": "address",
          "name": "participant",
          "type": "address"
        },
        {
          "indexed": false,
          "internalType": "uint256",
          "name": "amount",
          "type": "uint256"
        }
      ],
      "name": "CarbonCreditsAdjusted",
      "type": "event"
    },
    {
      "anonymous": false,
      "inputs": [
        {
          "indexed": false,
          "internalType": "string",
          "name": "city",
          "type": "string"
        },
        {
          "indexed": false,
          "internalType": "uint256",
          "name": "carbonLevel",
          "type": "uint256"
        }
      ],
      "name": "CarbonLevelMeasured",
      "type": "event"
    },
    {
      "anonymous": false,
      "inputs": [
        {
          "indexed": false,
          "internalType": "string",
          "name": "city",
          "type": "string"
        },
        {
          "indexed": false,
          "internalType": "bool",
          "name": "isVulnerable",
          "type": "bool"
        }
      ],
      "name": "CityStatusUpdated",
      "type": "event"
    },
    {
      "anonymous": false,
      "inputs": [
        {
          "indexed": false,
          "internalType": "string",
          "name": "city",
          "type": "string"
        },
        {
          "indexed": false,
          "internalType": "uint256",
          "name": "tempReduction",
          "type": "uint256"
        },
        {
          "indexed": false,
          "internalType": "uint256",
          "name": "carbonReduction",
          "type": "uint256"
        }
      ],
      "name": "MitigationExecuted",
      "type": "event"
    },
    {
      "anonymous": false,
      "inputs": [
        {
          "indexed": false,
          "internalType": "address",
          "name": "participant",
          "type": "address"
        },
        {
          "indexed": false,
          "internalType": "uint256",
          "name": "reward",
          "type": "uint256"
        }
      ],
      "name": "RewardCalculated",
      "type": "event"
    },
    {
      "anonymous": false,
      "inputs": [
        {
          "indexed": false,
          "internalType": "string",
          "name": "city",
          "type": "string"
        },
        {
          "indexed": false,
          "internalType": "uint256",
          "name": "temperature",
          "type": "uint256"
        }
      ],
      "name": "TemperatureMeasured",
      "type": "event"
    },
    {
      "inputs": [],
      "name": "BASE_CREDIT_AMOUNT",
      "outputs": [
        {
          "internalType": "uint256",
          "name": "",
          "type": "uint256"
        }
      ],
      "stateMutability": "view",
      "type": "function"
    },
    {
      "inputs": [],
      "name": "DISCOUNT_FACTOR",
      "outputs": [
        {
          "internalType": "uint256",
          "name": "",
          "type": "uint256"
        }
      ],
      "stateMutability": "view",
      "type": "function"
    },
    {
      "inputs": [],
      "name": "PENALTY_RATE",
      "outputs": [
        {
          "internalType": "uint256",
          "name": "",
          "type": "uint256"
        }
      ],
      "stateMutability": "view",
      "type": "function"
    },
    {
      "inputs": [],
      "name": "PRECISION",
      "outputs": [
        {
          "internalType": "uint256",
          "name": "",
          "type": "uint256"
        }
      ],
      "stateMutability": "view",
      "type": "function"
    },
    {
      "inputs": [],
      "name": "REWARD_RATE",
      "outputs": [
        {
          "internalType": "uint256",
          "name": "",
          "type": "uint256"
        }
      ],
      "stateMutability": "view",
      "type": "function"
    },
    {
      "inputs": [],
      "name": "SALVAGE_VALUE",
      "outputs": [
        {
          "internalType": "uint256",
          "name": "",
          "type": "uint256"
        }
      ],
      "stateMutability": "view",
      "type": "function"
    },
    {
      "inputs": [],
      "name": "TICK_SIZE",
      "outputs": [
        {
          "internalType": "uint256",
          "name": "",
          "type": "uint256"
        }
      ],
      "stateMutability": "view",
      "type": "function"
    },
    {
      "inputs": [
        {
          "internalType": "string",
          "name": "",
          "type": "string"
        }
      ],
      "name": "cities",
      "outputs": [
        {
          "internalType": "uint256",
          "name": "currentTemperature",
          "type": "uint256"
        },
        {
          "internalType": "uint256",
          "name": "targetTemperature",
          "type": "uint256"
        },
        {
          "internalType": "uint256",
          "name": "carbonLevel",
          "type": "uint256"
        },
        {
          "internalType": "uint256",
          "name": "targetCarbonLevel",
          "type": "uint256"
        },
        {
          "internalType": "uint256",
          "name": "lastUpdateTime",
          "type": "uint256"
        },
        {
          "internalType": "uint256",
          "name": "deltaFactor",
          "type": "uint256"
        },
        {
          "internalType": "uint256",
          "name": "mitigationLevel",
          "type": "uint256"
        },
        {
          "internalType": "bool",
          "name": "isVulnerable",
          "type": "bool"
        }
      ],
      "stateMutability": "view",
      "type": "function"
    },
    {
      "inputs": [],
      "name": "owner",
      "outputs": [
        {
          "internalType": "address",
          "name": "",
          "type": "address"
        }
      ],
      "stateMutability": "view",
      "type": "function"
    },
    {
      "inputs": [
        {
          "internalType": "address",
          "name": "",
          "type": "address"
        }
      ],
      "name": "participantCarbonCredits",
      "outputs": [
        {
          "internalType": "uint256",
          "name": "",
          "type": "uint256"
        }
      ],
      "stateMutability": "view",
      "type": "function"
    },
    {
      "inputs": [
        {
          "internalType": "address",
          "name": "",
          "type": "address"
        }
      ],
      "name": "participantRewards",
      "outputs": [
        {
          "internalType": "uint256",
          "name": "",
          "type": "uint256"
        }
      ],
      "stateMutability": "view",
      "type": "function"
    },
    {
      "inputs": [],
      "name": "renewalParams",
      "outputs": [
        {
          "internalType": "uint256",
          "name": "tickSize",
          "type": "uint256"
        },
        {
          "internalType": "uint256",
          "name": "rewardRate",
          "type": "uint256"
        },
        {
          "internalType": "uint256",
          "name": "salvageValue",
          "type": "uint256"
        },
        {
          "internalType": "uint256",
          "name": "penaltyRate",
          "type": "uint256"
        },
        {
          "internalType": "uint256",
          "name": "discountFactor",
          "type": "uint256"
        }
      ],
      "stateMutability": "view",
      "type": "function"
    },
    {
      "inputs": [
        {
          "internalType": "string",
          "name": "cityName",
          "type": "string"
        }
      ],
      "name": "calculateRequiredTicks",
      "outputs": [
        {
          "internalType": "uint256",
          "name": "",
          "type": "uint256"
        }
      ],
      "stateMutability": "view",
      "type": "function"
    },
    {
      "inputs": [
        {
          "internalType": "string",
          "name": "cityName",
          "type": "string"
        }
      ],
      "name": "calculateTotalCost",
      "outputs": [
        {
          "internalType": "uint256",
          "name": "",
          "type": "uint256"
        }
      ],
      "stateMutability": "view",
      "type": "function"
    },
    {
      "inputs": [
        {
          "internalType": "address",
          "name": "participant",
          "type": "address"
        },
        {
          "internalType": "uint256",
          "name": "interactions",
          "type": "uint256"
        }
      ],
      "name": "calculateReward",
      "outputs": [],
      "stateMutability": "nonpayable",
      "type": "function"
    },
    {
      "inputs": [
        {
          "internalType": "string",
          "name": "cityName",
          "type": "string"
        }
      ],
      "name": "getCityData",
      "outputs": [
        {
          "internalType": "uint256",
          "name": "currentTemp",
          "type": "uint256"
        },
        {
          "internalType": "uint256",
          "name": "targetTemp",
          "type": "uint256"
        },
        {
          "internalType": "uint256",
          "name": "carbonLevel",
          "type": "uint256"
        },
        {
          "internalType": "uint256",
          "name": "targetCarbon",
          "type": "uint256"
        },
        {
          "internalType": "bool",
          "name": "isVulnerable",
          "type": "bool"
        }
      ],
      "stateMutability": "view",
      "type": "function"
    }
  ],
  "bytecode": "0x608060405234801562000010575f80fd5b5060405162000ab338038062000ab383398101604081905262000033916200018d565b60015f8190558054336001600160a01b03199182161782556002805482166001600160a01b0386811691909117909155600380549092169084161790556040805160a08101909152908190600a906200009690670de0b6b3a764000090620001c3565b620000a29190620001ed565b81526020016064620000be670de0b6b3a76400006005620001c3565b620000ca9190620001ed565b81526020016064620000e6670de0b6b3a76400006050620001c3565b620000f29190620001ed565b815260200160646200010e670de0b6b3a76400006014620001c3565b6200011a9190620001ed565b8152602001606462000136670de0b6b3a7640000605f620001c3565b620001429190620001ed565b90528051600755602081015160085560408101516009556060810151600a5560800151600b55506200020d9050565b80516001600160a01b038116811462000188575f80fd5b919050565b5f80604083850312156200019f575f80fd5b620001aa8362000171565b9150620001ba6020840162000171565b90509250929050565b8082028115828204841417620001e757634e487b7160e01b5f52601160045260245ffd5b92915050565b5f826200020857634e487b7160e01b5f52601260045260245ffd5b500490565b610898806200021b5f395ff3fe608060405234801561000f575f80fd5b50600436106100fb575f3560e01c806368c28033116100935780638da5cb5b116100635780638da5cb5b146102cb5780639ecf0618146102f6578063aaf5eb68146102fe578063abc11cd01461030d575f80fd5b806368c280331461025b5780636ec0eb231461026e5780637395c5ed146102815780637ef816e714610289575f80fd5b8063374102e2116100ce578063374102e214610156578063537c2cdd146101935780635997bb37146101b257806365eae2db146101ba575f80fd5b80630ad08b86146100ff5780631852e8d91461011a5780632f0028461461012f578063347220d414610137575b5f80fd5b610107610315565b6040519081526020015b60405180910390f35b61012d61012836600461065b565b610337565b005b610107610407565b610107610145366004610683565b60056020525f908152604090205481565b6101696101643660046106b0565b61041c565b6040805195865260208601949094529284019190915260608301521515608082015260a001610111565b6101076101a1366004610683565b60066020525f908152604090205481565b61010761046d565b61021e6101c83660046106b0565b805160208183018101805160048083529383019290940191909120929052815460018301546002840154600385015493850154600586015460068701546007909701549496939592949293919290919060ff1688565b604080519889526020890197909752958701949094526060860192909252608085015260a084015260c0830152151560e082015261010001610111565b6101076102693660046106b0565b610482565b61010761027c3660046106b0565b610512565b610107610582565b600754600854600954600a54600b546102a3949392919085565b604080519586526020860194909452928401919091526060830152608082015260a001610111565b6001546102de906001600160a01b031681565b6040516001600160a01b039091168152602001610111565b610107610595565b610107670de0b6b3a764000081565b6101076105aa565b606461032a670de0b6b3a7640000601461076f565b610334919061078c565b81565b6001600160a01b0382165f90815260056020526040812054908161035c8460016107ab565b610366919061076f565b90505f670de0b6b3a764000060076004015483610383919061076f565b61038d919061078c565b6001600160a01b0386165f908152600660205260408120805492935083929091906103b99084906107ab565b9091555050604080516001600160a01b0387168152602081018390527fd07a420afcdd49adbabe6d82ad92718bdf8577dcf328e9ef95e63a52b235968f910160405180910390a15050505050565b606461032a670de0b6b3a7640000605f61076f565b5f805f805f8060048760405161043291906107be565b9081526040519081900360200190208054600182015460028301546003840154600790940154929b919a50985091965060ff16945092505050565b606461032a670de0b6b3a7640000600561076f565b5f8060048360405161049491906107be565b908152602001604051809103902090505f816003015482600201546104b991906107ea565b90505f8260010154835f01546104cf91906107ea565b90506104e3670de0b6b3a76400008061076f565b6104eb6105bf565b6104f5838561076f565b6104ff919061076f565b610509919061078c565b95945050505050565b5f8060048360405161052491906107be565b908152602001604051809103902090508060010154815f01541161054a57505f92915050565b60075460018201548254670de0b6b3a764000091610567916107ea565b610571919061076f565b61057b919061078c565b9392505050565b610334670de0b6b3a7640000606461076f565b606461032a670de0b6b3a7640000605061076f565b600a61032a670de0b6b3a7640000600161076f565b5f8060025f9054906101000a90046001600160a01b03166001600160a01b031663feaf968c6040518163ffffffff1660e01b815260040160a060405180830381865afa158015610611573d5f803e3d5ffd5b505050506040513d601f19601f820116820180604052508101906106359190610816565b509195945050505050565b80356001600160a01b0381168114610656575f80fd5b919050565b5f806040838503121561066c575f80fd5b61067583610640565b946020939093013593505050565b5f60208284031215610693575f80fd5b61057b82610640565b634e487b7160e01b5f52604160045260245ffd5b5f602082840312156106c0575f80fd5b813567ffffffffffffffff808211156106d7575f80fd5b818401915084601f8301126106ea575f80fd5b8135818111156106fc576106fc61069c565b604051601f8201601f19908116603f011681019083821181831017156107245761072461069c565b8160405282815287602084870101111561073c575f80fd5b826020860160208301375f928101602001929092525095945050505050565b634e487b7160e01b5f52601160045260245ffd5b80820281158282048414176107865761078661075b565b92915050565b5f826107a657634e487b7160e01b5f52601260045260245ffd5b500490565b808201808211156107865761078661075b565b5f82515f5b818110156107dd57602081860181015185830152016107c3565b505f920191825250919050565b818103818111156107865761078661075b565b805169ffffffffffffffffffff81168114610656575f80fd5b5f805f805f60a0868803121561082a575f80fd5b610833866107fd565b9450602086015193506040860151925060608601519150610856608087016107fd565b9050929550929590935056fea264697066735822122073275a882c1aa5d8d0e5d0cfbea67259a38dbb3e0526dd35803a5b475c43d1e164736f6c63430008140033",
  "immutableReferences": {},
  "source": "// SPDX-License-Identifier: MIT\npragma solidity ^0.8.0;\n\nimport \"@chainlink/contracts/src/v0.8/interfaces/AggregatorV3Interface.sol\";\nimport \"@openzeppelin/contracts/security/ReentrancyGuard.sol\";\n\ncontract MitigationContract is ReentrancyGuard {\n    address public owner;\n    AggregatorV3Interface internal carbonLevelFeed;\n    AggregatorV3Interface internal temperatureFeed;\n\n    struct CityData {\n        uint256 currentTemperature;\n        uint256 targetTemperature;\n        uint256 carbonLevel;\n        uint256 targetCarbonLevel;\n        uint256 lastUpdateTime;\n        uint256 deltaFactor;      //  from your paper\n        uint256 mitigationLevel;  // Threshold for climate vulnerable cities\n        bool isVulnerable;\n        mapping(string => uint256) sectorEmissions;\n    }\n\n    struct RenewalParameters {\n        uint256 tickSize;         // T_tick from your paper\n        uint256 rewardRate;       // r from your paper\n        uint256 salvageValue;     // v from your paper\n        uint256 penaltyRate;      // p from your paper\n        uint256 discountFactor;   //  from your paper\n    }\n\n    mapping(string => CityData) public cities;\n    mapping(address => uint256) public participantCarbonCredits;\n    mapping(address => uint256) public participantRewards;\n    RenewalParameters public renewalParams;\n\n    // Constants\n    uint256 public constant PRECISION = 1e18;\n    uint256 public constant BASE_CREDIT_AMOUNT = 100 * PRECISION;\n    \n    // Decimal constants (multiplied by PRECISION)\n    uint256 public constant TICK_SIZE = (PRECISION * 1) / 10;        // 0.1\n    uint256 public constant REWARD_RATE = (PRECISION * 5) / 100;     // 0.05\n    uint256 public constant SALVAGE_VALUE = (PRECISION * 80) / 100;  // 0.8\n    uint256 public constant PENALTY_RATE = (PRECISION * 20) / 100;   // 0.2\n    uint256 public constant DISCOUNT_FACTOR = (PRECISION * 95) / 100; // 0.95\n    \n    // Events remain the same\n    event CarbonLevelMeasured(string city, uint256 carbonLevel);\n    event TemperatureMeasured(string city, uint256 temperature);\n    event CarbonCreditsAdjusted(address participant, uint256 amount);\n    event RewardCalculated(address participant, uint256 reward);\n    event CityStatusUpdated(string city, bool isVulnerable);\n    event MitigationExecuted(string city, uint256 tempReduction, uint256 carbonReduction);\n\n    constructor(\n        address _carbonLevelFeed, \n        address _temperatureFeed\n    ) {\n        owner = msg.sender;\n        carbonLevelFeed = AggregatorV3Interface(_carbonLevelFeed);\n        temperatureFeed = AggregatorV3Interface(_temperatureFeed);\n        \n        // Initialize renewal parameters using the constant values\n        renewalParams = RenewalParameters({\n            tickSize: TICK_SIZE,\n            rewardRate: REWARD_RATE,\n            salvageValue: SALVAGE_VALUE,\n            penaltyRate: PENALTY_RATE,\n            discountFactor: DISCOUNT_FACTOR\n        });\n    }\n\n    modifier onlyOwner() {\n        require(msg.sender == owner, \"Only owner can call this function\");\n        _;\n    }\n\n    // Calculate required ticks for temperature reduction\n    function calculateRequiredTicks(string memory cityName) public view returns (uint256) {\n        CityData storage city = cities[cityName];\n        if (city.currentTemperature <= city.targetTemperature) return 0;\n        \n        // Multiply by PRECISION before division to maintain precision\n        return (city.currentTemperature - city.targetTemperature) * PRECISION / renewalParams.tickSize;\n    }\n\n    // Calculate total cost using updated decimal handling\n    function calculateTotalCost(string memory cityName) public view returns (uint256) {\n        CityData storage city = cities[cityName];\n        uint256 annualEmissionReduction = (city.carbonLevel - city.targetCarbonLevel);\n        uint256 temperatureDelta = (city.currentTemperature - city.targetTemperature);\n        \n        // Handle precision properly in multiplication\n        return (annualEmissionReduction * temperatureDelta * getCurrentPrice()) / (PRECISION * PRECISION);\n    }\n\n    // Calculate temperature reduction with proper decimal handling\n    function calculateTemperatureReduction(string memory cityName, uint256 ticks) internal view returns (uint256) {\n        CityData storage city = cities[cityName];\n        uint256 maxReduction = (city.currentTemperature - city.targetTemperature);\n        // Multiply ticks by tickSize and divide by PRECISION to maintain precision\n        uint256 theoreticalReduction = (ticks * renewalParams.tickSize) / PRECISION;\n        \n        return theoreticalReduction < maxReduction ? theoreticalReduction : maxReduction;\n    }\n\n    // Calculate carbon reduction with proper decimal handling\n    function calculateCarbonReduction(string memory cityName, uint256 ticks) internal view returns (uint256) {\n        CityData storage city = cities[cityName];\n        // Handle precision in multiplication and division\n        uint256 baseReduction = (city.carbonLevel * ticks * renewalParams.rewardRate) / PRECISION;\n        \n        if (city.isVulnerable) {\n            // Add penalty rate while maintaining precision\n            baseReduction = (baseReduction * (PRECISION + renewalParams.penaltyRate)) / PRECISION;\n        }\n        \n        return baseReduction;\n    }\n    // Evaluate if a city is climate vulnerable based on your research criteria\n    function evaluateCityVulnerability(string memory cityName) internal view returns (bool) {\n        CityData storage city = cities[cityName];\n        \n        // City is vulnerable if it exceeds either threshold\n        bool temperatureExceeded = city.currentTemperature > city.targetTemperature;\n        bool carbonExceeded = city.carbonLevel > city.targetCarbonLevel;\n        \n        return temperatureExceeded || carbonExceeded;\n    }\n\n    // Calculate rewards using your renewal reward theorem\n    function calculateReward(address participant, uint256 interactions) public {\n        uint256 carbonCredits = participantCarbonCredits[participant];\n        \n        // R(t) = (m(t) + 1)E[R] - E[R_N(t)+1]\n        uint256 baseReward = (interactions + 1) * carbonCredits;\n        uint256 discountedReward = (baseReward * renewalParams.discountFactor) / PRECISION;\n        \n        participantRewards[participant] += discountedReward;\n        emit RewardCalculated(participant, discountedReward);\n    }\n\n    // Helper function to get current carbon credit price\n    function getCurrentPrice() internal view returns (uint256) {\n        (, int256 price,,,) = carbonLevelFeed.latestRoundData();\n        return uint256(price);\n    }\n\n    // Getter functions\n    function getCityData(string memory cityName) external view returns (\n        uint256 currentTemp,\n        uint256 targetTemp,\n        uint256 carbonLevel,\n        uint256 targetCarbon,\n        bool isVulnerable\n    ) {\n        CityData storage city = cities[cityName];\n        return (\n            city.currentTemperature,\n            city.targetTemperature,\n            city.carbonLevel,\n            city.targetCarbonLevel,\n            city.isVulnerable\n        );\n    }\n}\n",
  "sourcePath": "C:\\Users\\Bonsu\\Documents\\CLEANER PRODUCTION\\renewalclimateproject\\ClimateProjectFull\\contracts\\climate\\MitigationContract.sol",
  "compiler": {
    "name": "solc",
    "version": "0.8.20+commit.a1b79de6.Emscripten.clang"
  },
  "schemaVersion": "3.4.16",
  "updatedAt": "2025-02-21T06:43:13.880Z",
  "devdoc": {
    "kind": "dev",
    "methods": {},
    "version": 1
  },
  "userdoc": {
    "kind": "user",
    "methods": {},
    "version": 1
  }
}