{
  "contractName": "PasschainValidator",
  "abi": [
    {
      "anonymous": false,
      "inputs": [
        {
          "indexed": true,
          "internalType": "bytes32",
          "name": "clusterId",
          "type": "bytes32"
        },
        {
          "indexed": false,
          "internalType": "address",
          "name": "leader",
          "type": "address"
        }
      ],
      "name": "ClusterFormed",
      "type": "event"
    },
    {
      "anonymous": false,
      "inputs": [
        {
          "indexed": true,
          "internalType": "address",
          "name": "node",
          "type": "address"
        },
        {
          "indexed": true,
          "internalType": "bytes32",
          "name": "clusterId",
          "type": "bytes32"
        }
      ],
      "name": "NodeAssigned",
      "type": "event"
    },
    {
      "anonymous": false,
      "inputs": [
        {
          "indexed": true,
          "internalType": "bytes32",
          "name": "role",
          "type": "bytes32"
        },
        {
          "indexed": true,
          "internalType": "bytes32",
          "name": "previousAdminRole",
          "type": "bytes32"
        },
        {
          "indexed": true,
          "internalType": "bytes32",
          "name": "newAdminRole",
          "type": "bytes32"
        }
      ],
      "name": "RoleAdminChanged",
      "type": "event"
    },
    {
      "anonymous": false,
      "inputs": [
        {
          "indexed": true,
          "internalType": "bytes32",
          "name": "role",
          "type": "bytes32"
        },
        {
          "indexed": true,
          "internalType": "address",
          "name": "account",
          "type": "address"
        },
        {
          "indexed": true,
          "internalType": "address",
          "name": "sender",
          "type": "address"
        }
      ],
      "name": "RoleGranted",
      "type": "event"
    },
    {
      "anonymous": false,
      "inputs": [
        {
          "indexed": true,
          "internalType": "bytes32",
          "name": "role",
          "type": "bytes32"
        },
        {
          "indexed": true,
          "internalType": "address",
          "name": "account",
          "type": "address"
        },
        {
          "indexed": true,
          "internalType": "address",
          "name": "sender",
          "type": "address"
        }
      ],
      "name": "RoleRevoked",
      "type": "event"
    },
    {
      "anonymous": false,
      "inputs": [
        {
          "indexed": true,
          "internalType": "bytes32",
          "name": "clusterId",
          "type": "bytes32"
        },
        {
          "indexed": false,
          "internalType": "bytes32",
          "name": "sessionKey",
          "type": "bytes32"
        }
      ],
      "name": "SessionKeyGenerated",
      "type": "event"
    },
    {
      "anonymous": false,
      "inputs": [
        {
          "indexed": true,
          "internalType": "bytes32",
          "name": "txId",
          "type": "bytes32"
        },
        {
          "indexed": false,
          "internalType": "bool",
          "name": "isValid",
          "type": "bool"
        }
      ],
      "name": "ValidationComplete",
      "type": "event"
    },
    {
      "anonymous": false,
      "inputs": [
        {
          "indexed": true,
          "internalType": "bytes32",
          "name": "txId",
          "type": "bytes32"
        },
        {
          "indexed": true,
          "internalType": "bytes32",
          "name": "clusterId",
          "type": "bytes32"
        }
      ],
      "name": "ValidationStarted",
      "type": "event"
    },
    {
      "anonymous": false,
      "inputs": [
        {
          "indexed": true,
          "internalType": "bytes32",
          "name": "txId",
          "type": "bytes32"
        },
        {
          "indexed": false,
          "internalType": "address",
          "name": "validator",
          "type": "address"
        },
        {
          "indexed": false,
          "internalType": "bool",
          "name": "result",
          "type": "bool"
        }
      ],
      "name": "ValidationSubmitted",
      "type": "event"
    },
    {
      "inputs": [],
      "name": "CLUSTER_ADMIN",
      "outputs": [
        {
          "internalType": "bytes32",
          "name": "",
          "type": "bytes32"
        }
      ],
      "stateMutability": "view",
      "type": "function"
    },
    {
      "inputs": [],
      "name": "DEFAULT_ADMIN_ROLE",
      "outputs": [
        {
          "internalType": "bytes32",
          "name": "",
          "type": "bytes32"
        }
      ],
      "stateMutability": "view",
      "type": "function"
    },
    {
      "inputs": [],
      "name": "MAX_CLUSTER_SIZE",
      "outputs": [
        {
          "internalType": "uint256",
          "name": "",
          "type": "uint256"
        }
      ],
      "stateMutability": "view",
      "type": "function"
    },
    {
      "inputs": [],
      "name": "MIN_CLUSTER_SIZE",
      "outputs": [
        {
          "internalType": "uint256",
          "name": "",
          "type": "uint256"
        }
      ],
      "stateMutability": "view",
      "type": "function"
    },
    {
      "inputs": [],
      "name": "VALIDATION_THRESHOLD",
      "outputs": [
        {
          "internalType": "uint256",
          "name": "",
          "type": "uint256"
        }
      ],
      "stateMutability": "view",
      "type": "function"
    },
    {
      "inputs": [
        {
          "internalType": "bytes32",
          "name": "",
          "type": "bytes32"
        },
        {
          "internalType": "address",
          "name": "",
          "type": "address"
        }
      ],
      "name": "clusterMembers",
      "outputs": [
        {
          "internalType": "bool",
          "name": "",
          "type": "bool"
        }
      ],
      "stateMutability": "view",
      "type": "function"
    },
    {
      "inputs": [
        {
          "internalType": "bytes32",
          "name": "",
          "type": "bytes32"
        }
      ],
      "name": "clusters",
      "outputs": [
        {
          "internalType": "bytes32",
          "name": "id",
          "type": "bytes32"
        },
        {
          "internalType": "address",
          "name": "leader",
          "type": "address"
        },
        {
          "internalType": "uint256",
          "name": "formationTime",
          "type": "uint256"
        },
        {
          "internalType": "uint256",
          "name": "nodeCount",
          "type": "uint256"
        },
        {
          "internalType": "uint256",
          "name": "processedTxCount",
          "type": "uint256"
        },
        {
          "internalType": "bytes32",
          "name": "sessionKey",
          "type": "bytes32"
        },
        {
          "internalType": "bool",
          "name": "isActive",
          "type": "bool"
        }
      ],
      "stateMutability": "view",
      "type": "function"
    },
    {
      "inputs": [
        {
          "internalType": "bytes32",
          "name": "txId",
          "type": "bytes32"
        },
        {
          "internalType": "uint256",
          "name": "txSize",
          "type": "uint256"
        },
        {
          "internalType": "enum NodeTypes.NodeRole[]",
          "name": "requiredRoles",
          "type": "uint8[]"
        }
      ],
      "name": "findOptimalRoute",
      "outputs": [
        {
          "internalType": "bytes32[]",
          "name": "",
          "type": "bytes32[]"
        }
      ],
      "stateMutability": "nonpayable",
      "type": "function"
    },
    {
      "inputs": [
        {
          "internalType": "bytes32",
          "name": "role",
          "type": "bytes32"
        }
      ],
      "name": "getRoleAdmin",
      "outputs": [
        {
          "internalType": "bytes32",
          "name": "",
          "type": "bytes32"
        }
      ],
      "stateMutability": "view",
      "type": "function"
    },
    {
      "inputs": [
        {
          "internalType": "bytes32",
          "name": "role",
          "type": "bytes32"
        },
        {
          "internalType": "address",
          "name": "account",
          "type": "address"
        }
      ],
      "name": "grantRole",
      "outputs": [],
      "stateMutability": "nonpayable",
      "type": "function"
    },
    {
      "inputs": [
        {
          "internalType": "bytes32",
          "name": "role",
          "type": "bytes32"
        },
        {
          "internalType": "address",
          "name": "account",
          "type": "address"
        }
      ],
      "name": "hasRole",
      "outputs": [
        {
          "internalType": "bool",
          "name": "",
          "type": "bool"
        }
      ],
      "stateMutability": "view",
      "type": "function"
    },
    {
      "inputs": [
        {
          "internalType": "address",
          "name": "",
          "type": "address"
        }
      ],
      "name": "nodes",
      "outputs": [
        {
          "internalType": "address",
          "name": "nodeAddress",
          "type": "address"
        },
        {
          "internalType": "enum NodeTypes.NodeRole",
          "name": "role",
          "type": "uint8"
        },
        {
          "internalType": "uint256",
          "name": "capacity",
          "type": "uint256"
        },
        {
          "internalType": "uint256",
          "name": "performance",
          "type": "uint256"
        },
        {
          "internalType": "bool",
          "name": "isActive",
          "type": "bool"
        },
        {
          "internalType": "bytes32",
          "name": "clusterId",
          "type": "bytes32"
        }
      ],
      "stateMutability": "view",
      "type": "function"
    },
    {
      "inputs": [
        {
          "internalType": "bytes32",
          "name": "role",
          "type": "bytes32"
        },
        {
          "internalType": "address",
          "name": "account",
          "type": "address"
        }
      ],
      "name": "renounceRole",
      "outputs": [],
      "stateMutability": "nonpayable",
      "type": "function"
    },
    {
      "inputs": [
        {
          "internalType": "bytes32",
          "name": "role",
          "type": "bytes32"
        },
        {
          "internalType": "address",
          "name": "account",
          "type": "address"
        }
      ],
      "name": "revokeRole",
      "outputs": [],
      "stateMutability": "nonpayable",
      "type": "function"
    },
    {
      "inputs": [
        {
          "internalType": "bytes32",
          "name": "",
          "type": "bytes32"
        }
      ],
      "name": "routes",
      "outputs": [
        {
          "internalType": "uint256",
          "name": "pathScore",
          "type": "uint256"
        },
        {
          "internalType": "bool",
          "name": "isOptimal",
          "type": "bool"
        }
      ],
      "stateMutability": "view",
      "type": "function"
    },
    {
      "inputs": [
        {
          "internalType": "bytes4",
          "name": "interfaceId",
          "type": "bytes4"
        }
      ],
      "name": "supportsInterface",
      "outputs": [
        {
          "internalType": "bool",
          "name": "",
          "type": "bool"
        }
      ],
      "stateMutability": "view",
      "type": "function"
    },
    {
      "inputs": [
        {
          "internalType": "bytes32",
          "name": "",
          "type": "bytes32"
        }
      ],
      "name": "validationProcesses",
      "outputs": [
        {
          "internalType": "bytes32",
          "name": "txId",
          "type": "bytes32"
        },
        {
          "internalType": "bytes32",
          "name": "clusterId",
          "type": "bytes32"
        },
        {
          "internalType": "uint256",
          "name": "validationsRequired",
          "type": "uint256"
        },
        {
          "internalType": "uint256",
          "name": "validationsReceived",
          "type": "uint256"
        },
        {
          "internalType": "uint256",
          "name": "validationsPositive",
          "type": "uint256"
        },
        {
          "internalType": "bool",
          "name": "isComplete",
          "type": "bool"
        }
      ],
      "stateMutability": "view",
      "type": "function"
    },
    {
      "inputs": [
        {
          "internalType": "bytes32",
          "name": "txId",
          "type": "bytes32"
        },
        {
          "internalType": "bytes",
          "name": "txData",
          "type": "bytes"
        }
      ],
      "name": "initiateValidation",
      "outputs": [],
      "stateMutability": "nonpayable",
      "type": "function"
    },
    {
      "inputs": [
        {
          "internalType": "bytes32",
          "name": "txId",
          "type": "bytes32"
        },
        {
          "internalType": "bool",
          "name": "isValid",
          "type": "bool"
        }
      ],
      "name": "submitValidation",
      "outputs": [],
      "stateMutability": "nonpayable",
      "type": "function"
    }
  ],
  "bytecode": "0x608060405234801561000f575f80fd5b5061001a5f33610024565b60016005556100ce565b61002e8282610032565b5050565b5f828152602081815260408083206001600160a01b038516845290915290205460ff1661002e575f828152602081815260408083206001600160a01b03851684529091529020805460ff1916600117905561008a3390565b6001600160a01b0316816001600160a01b0316837f2f8788117e7eff1d82e926ec794901d17c78024a50270940304540a733656f0d60405160405180910390a45050565b61195e806100db5f395ff3fe608060405234801561000f575f80fd5b506004361061011c575f3560e01c80634789015c116100a957806391d148541161006e57806391d148541461036b5780639c5ca6231461037e578063a217fddf1461039e578063a5ac22bc146103a5578063d547741f14610419575f80fd5b80634789015c146102e95780634c7b87101461031657806360523156146103295780637f747c541461033c5780638ec1daee14610363575f80fd5b8063248a9ca3116100ef578063248a9ca31461020257806329399528146102245780632e41e2e81461022c5780632f2ff15d146102c157806336568abe146102d6575f80fd5b806301ffc9a714610120578063066e94811461014857806314552f2614610189578063189a5a171461019f575b5f80fd5b61013361012e36600461137c565b61042c565b60405190151581526020015b60405180910390f35b6101746101563660046113a3565b60046020525f90815260409020600181015460029091015460ff1682565b6040805192835290151560208301520161013f565b610191604681565b60405190815260200161013f565b6101f06101ad3660046113d5565b600160208190525f9182526040909120805491810154600282015460038301546004909301546001600160a01b0385169460ff600160a01b909104811694169086565b60405161013f96959493929190611422565b6101916102103660046113a3565b5f9081526020819052604090206001015490565b610191600a81565b61028261023a3660046113a3565b600260208190525f9182526040909120805460018201549282015460038301546004840154600585015460069095015493956001600160a01b03169492939192909160ff1687565b604080519788526001600160a01b039096166020880152948601939093526060850191909152608084015260a0830152151560c082015260e00161013f565b6102d46102cf366004611463565b610462565b005b6102d46102e4366004611463565b61048b565b6101336102f7366004611463565b600360209081525f928352604080842090915290825290205460ff1681565b6102d461032436600461148d565b61050e565b6102d4610337366004611504565b610736565b6101917f494524d2d1f4acd3eed6a4679ede5f8aa5fa9493ca9319f21d8a90f197e849bc81565b610191600381565b610133610379366004611463565b6109e3565b61039161038c3660046115c0565b610a0b565b60405161013f9190611672565b6101915f81565b6103ea6103b33660046113a3565b60066020525f9081526040902080546001820154600283015460038401546004850154600590950154939492939192909160ff1686565b6040805196875260208701959095529385019290925260608401526080830152151560a082015260c00161013f565b6102d4610427366004611463565b610a6e565b5f6001600160e01b03198216637965db0b60e01b148061045c57506301ffc9a760e01b6001600160e01b03198316145b92915050565b5f8281526020819052604090206001015461047c81610a92565b6104868383610a9f565b505050565b6001600160a01b03811633146105005760405162461bcd60e51b815260206004820152602f60248201527f416363657373436f6e74726f6c3a2063616e206f6e6c792072656e6f756e636560448201526e103937b632b9903337b91039b2b63360891b60648201526084015b60405180910390fd5b61050a8282610b22565b5050565b610516610b86565b5f828152600660205260409020600581015460ff161561056e5760405162461bcd60e51b815260206004820152601360248201527256616c69646174696f6e20636f6d706c65746560681b60448201526064016104f7565b335f90815260068201602052604090205460ff16156105c35760405162461bcd60e51b8152602060048201526011602482015270105b1c9958591e481d985b1a59185d1959607a1b60448201526064016104f7565b60018101545f90815260036020908152604080832033845290915290205460ff166106255760405162461bcd60e51b81526020600482015260126024820152712737ba1031b63ab9ba32b91036b2b6b132b960711b60448201526064016104f7565b335f9081526006820160205260408120805460ff1916600117905560038201805491610650836116c9565b9190505550811561067257600481018054905f61066c836116c9565b91905055505b60408051338152831515602082015284917f7fa8b9eab985b7a737fe8267cd6f77b362ae6c8a9b93c1196cb45869d95de00c910160405180910390a2806002015481600301541061072b575f60468260030154836004015460646106d691906116e1565b6106e091906116f8565b60058401805460ff19166001179055604051911115808252915084907fa668712c0b8f59efdf687dfbc672df6d8a1ab624717f5dfd9a794099f3ad48849060200160405180910390a2505b5061050a6001600555565b61073e610b86565b5f8281526006602052604090206005015460ff16156107935760405162461bcd60e51b8152602060048201526011602482015270105b1c9958591e481d985b1a59185d1959607a1b60448201526064016104f7565b604080516003808252608082019092525f91602082016060803683370190505090505f815f815181106107c8576107c8611717565b602002602001019060028111156107e1576107e16113ee565b908160028111156107f4576107f46113ee565b8152505060018160018151811061080d5761080d611717565b60200260200101906002811115610826576108266113ee565b90816002811115610839576108396113ee565b8152505060028160028151811061085257610852611717565b6020026020010190600281111561086b5761086b6113ee565b9081600281111561087e5761087e6113ee565b9052508151604051639c5ca62360e01b81525f913091639c5ca623916108ab91889190879060040161172b565b5f604051808303815f875af11580156108c6573d5f803e3d5ffd5b505050506040513d5f823e601f3d908101601f191682016040526108ed9190810190611785565b90505f8151116109365760405162461bcd60e51b8152602060048201526014602482015273139bc81d985b1a59081c9bdd5d1948199bdd5b9960621b60448201526064016104f7565b5f84815260066020526040812085815582519091839161095857610958611717565b6020026020010151816001018190555061098a825f8151811061097d5761097d611717565b6020026020010151610bdf565b6002820155815182905f906109a1576109a1611717565b6020026020010151857f6a9b29eadfefca54b5659f637b613d396224569d6f801425810df6cf4800818360405160405180910390a350505061050a6001600555565b5f918252602082815260408084206001600160a01b0393909316845291905290205460ff1690565b5f838152600460205260408120606091610a258585610c12565b90505f80610a338388610e82565b81519193509150610a4a908590602085019061131f565b506001848101919091556002909301805460ff191690931790925550949350505050565b5f82815260208190526040902060010154610a8881610a92565b6104868383610b22565b610a9c8133610fb4565b50565b610aa982826109e3565b61050a575f828152602081815260408083206001600160a01b03851684529091529020805460ff19166001179055610ade3390565b6001600160a01b0316816001600160a01b0316837f2f8788117e7eff1d82e926ec794901d17c78024a50270940304540a733656f0d60405160405180910390a45050565b610b2c82826109e3565b1561050a575f828152602081815260408083206001600160a01b0385168085529252808320805460ff1916905551339285917ff6391f5c32d9c69d2a47ea670b442974b53935d1edc7fd64eb21e047a839171b9190a45050565b600260055403610bd85760405162461bcd60e51b815260206004820152601f60248201527f5265656e7472616e637947756172643a207265656e7472616e742063616c6c0060448201526064016104f7565b6002600555565b5f818152600260208190526040822060038082015491929091610c01916116e1565b610c0b91906116f8565b9392505050565b60408051600a80825261016082019092526060915f91829160208201610140803683370190505090505f5b600a811015610dde575f81815260026020526040812054829103610c615750610dde565b5f818152600260205260409020600681015460ff16610c81575050610dcc565b60015f5b8851811015610d85575f80610c998661100d565b90505f5b8151811015610d60575f60015f848481518110610cbc57610cbc611717565b60200260200101516001600160a01b03166001600160a01b031681526020019081526020015f2090508c8581518110610cf757610cf7611717565b60200260200101516002811115610d1057610d106113ee565b8154600160a01b900460ff166002811115610d2d57610d2d6113ee565b148015610d3e5750600381015460ff165b15610d4d576001935050610d60565b5080610d58816116c9565b915050610c9d565b5081610d70575f93505050610d85565b50508080610d7d906116c9565b915050610c85565b50808015610d97575088826003015410155b15610dc85782858781518110610daf57610daf611717565b602090810291909101015285610dc4816116c9565b9650505b5050505b80610dd6816116c9565b915050610c3d565b505f8267ffffffffffffffff811115610df957610df96114bf565b604051908082528060200260200182016040528015610e22578160200160208202803683370190505b5090505f5b83811015610e7857828181518110610e4157610e41611717565b6020026020010151828281518110610e5b57610e5b611717565b602090810291909101015280610e70816116c9565b915050610e27565b5095945050505050565b60605f83515f03610ea4575050604080515f8082526020820190925290610fad565b6040805160018082528183019092525f91602080830190803683370190505090505f805b8651811015610fa6575f60025f898481518110610ee757610ee7611717565b602002602001015181526020019081526020015f2090505f606460288360030154610f1291906116e1565b610f1c91906116f8565b90505f6064603c8460040154610f3291906116e1565b610f3c91906116f8565b90505f610f498284611811565b905085811115610f8f578095508a8581518110610f6857610f68611717565b6020026020010151875f81518110610f8257610f82611717565b6020026020010181815250505b505050508080610f9e906116c9565b915050610ec8565b5090925090505b9250929050565b610fbe82826109e3565b61050a57610fcb81611177565b610fd6836020611189565b604051602001610fe7929190611846565b60408051601f198184030181529082905262461bcd60e51b82526104f7916004016118ba565b60408051600a80825261016082019092526060915f91829160208201610140803683370190505090505f5b6001600160a01b0381811610156110c7575f8581526003602090815260408083206001600160a01b038516845290915290205460ff16156110b5578082848151811061108657611086611717565b6001600160a01b0390921660209283029190910190910152826110a8816116c9565b935050600a8310156110c7575b6110c08160016118ec565b9050611038565b505f8267ffffffffffffffff8111156110e2576110e26114bf565b60405190808252806020026020018201604052801561110b578160200160208202803683370190505b5090505f5b8381101561116e5782818151811061112a5761112a611717565b602002602001015182828151811061114457611144611717565b6001600160a01b039092166020928302919091019091015280611166816116c9565b915050611110565b50949350505050565b606061045c6001600160a01b03831660145b60605f6111978360026116e1565b6111a2906002611811565b67ffffffffffffffff8111156111ba576111ba6114bf565b6040519080825280601f01601f1916602001820160405280156111e4576020820181803683370190505b509050600360fc1b815f815181106111fe576111fe611717565b60200101906001600160f81b03191690815f1a905350600f60fb1b8160018151811061122c5761122c611717565b60200101906001600160f81b03191690815f1a9053505f61124e8460026116e1565b611259906001611811565b90505b60018111156112d0576f181899199a1a9b1b9c1cb0b131b232b360811b85600f166010811061128d5761128d611717565b1a60f81b8282815181106112a3576112a3611717565b60200101906001600160f81b03191690815f1a90535060049490941c936112c981611913565b905061125c565b508315610c0b5760405162461bcd60e51b815260206004820181905260248201527f537472696e67733a20686578206c656e67746820696e73756666696369656e7460448201526064016104f7565b828054828255905f5260205f20908101928215611358579160200282015b8281111561135857825182559160200191906001019061133d565b50611364929150611368565b5090565b5b80821115611364575f8155600101611369565b5f6020828403121561138c575f80fd5b81356001600160e01b031981168114610c0b575f80fd5b5f602082840312156113b3575f80fd5b5035919050565b80356001600160a01b03811681146113d0575f80fd5b919050565b5f602082840312156113e5575f80fd5b610c0b826113ba565b634e487b7160e01b5f52602160045260245ffd5b6003811061141e57634e487b7160e01b5f52602160045260245ffd5b9052565b6001600160a01b038716815260c0810161143f6020830188611402565b60408201959095526060810193909352901515608083015260a09091015292915050565b5f8060408385031215611474575f80fd5b82359150611484602084016113ba565b90509250929050565b5f806040838503121561149e575f80fd5b82359150602083013580151581146114b4575f80fd5b809150509250929050565b634e487b7160e01b5f52604160045260245ffd5b604051601f8201601f1916810167ffffffffffffffff811182821017156114fc576114fc6114bf565b604052919050565b5f8060408385031215611515575f80fd5b8235915060208084013567ffffffffffffffff80821115611534575f80fd5b818601915086601f830112611547575f80fd5b813581811115611559576115596114bf565b61156b601f8201601f191685016114d3565b91508082528784828501011115611580575f80fd5b80848401858401375f848284010152508093505050509250929050565b5f67ffffffffffffffff8211156115b6576115b66114bf565b5060051b60200190565b5f805f606084860312156115d2575f80fd5b833592506020808501359250604085013567ffffffffffffffff8111156115f7575f80fd5b8501601f81018713611607575f80fd5b803561161a6116158261159d565b6114d3565b81815260059190911b82018301908381019089831115611638575f80fd5b928401925b8284101561166357833560038110611654575f8081fd5b8252928401929084019061163d565b80955050505050509250925092565b602080825282518282018190525f9190848201906040850190845b818110156116a95783518352928401929184019160010161168d565b50909695505050505050565b634e487b7160e01b5f52601160045260245ffd5b5f600182016116da576116da6116b5565b5060010190565b808202811582820484141761045c5761045c6116b5565b5f8261171257634e487b7160e01b5f52601260045260245ffd5b500490565b634e487b7160e01b5f52603260045260245ffd5b5f60608201858352602085818501526060604085015281855180845260808601915082870193505f5b8181101561177757611767838651611402565b9383019391830191600101611754565b509098975050505050505050565b5f6020808385031215611796575f80fd5b825167ffffffffffffffff8111156117ac575f80fd5b8301601f810185136117bc575f80fd5b80516117ca6116158261159d565b81815260059190911b820183019083810190878311156117e8575f80fd5b928401925b82841015611806578351825292840192908401906117ed565b979650505050505050565b8082018082111561045c5761045c6116b5565b5f5b8381101561183e578181015183820152602001611826565b50505f910152565b7f416363657373436f6e74726f6c3a206163636f756e742000000000000000000081525f835161187d816017850160208801611824565b7001034b99036b4b9b9b4b733903937b6329607d1b60179184019182015283516118ae816028840160208801611824565b01602801949350505050565b602081525f82518060208401526118d8816040850160208701611824565b601f01601f19169190910160400192915050565b6001600160a01b0381811683821601908082111561190c5761190c6116b5565b5092915050565b5f81611921576119216116b5565b505f19019056fea2646970667358221220c668af092c300d11b059ec6e35cca072ace414c47f4b31f2d365489c839b186664736f6c63430008140033",
  "immutableReferences": {},
  "source": "// SPDX-License-Identifier: MIT\npragma solidity ^0.8.0;\n\nimport \"@openzeppelin/contracts/security/ReentrancyGuard.sol\";\nimport \"@openzeppelin/contracts/access/AccessControl.sol\";\n\n// NodeTypes library remains unchanged\nlibrary NodeTypes {\n    enum NodeRole {\n        DESIGNATOR,\n        VALIDATOR,\n        EXECUTOR\n    }\n\n    struct Node {\n        address nodeAddress;\n        NodeRole role;\n        uint256 capacity;\n        uint256 performance;\n        bool isActive;\n        bytes32 clusterId;\n    }\n\n    struct Cluster {\n        bytes32 id;\n        address leader;\n        uint256 formationTime;\n        uint256 nodeCount;\n        uint256 processedTxCount;\n        bytes32 sessionKey;\n        bool isActive;\n    }\n}\n\ncontract ClusterManager is AccessControl {\n    using NodeTypes for NodeTypes.Node;\n    using NodeTypes for NodeTypes.Cluster;\n\n    bytes32 public constant CLUSTER_ADMIN = keccak256(\"CLUSTER_ADMIN\");\n    \n    mapping(address => NodeTypes.Node) public nodes;\n    mapping(bytes32 => NodeTypes.Cluster) public clusters;\n    mapping(bytes32 => mapping(address => bool)) public clusterMembers;\n    \n    uint256 public constant MIN_CLUSTER_SIZE = 3;\n    uint256 public constant MAX_CLUSTER_SIZE = 10;\n    uint256 public constant VALIDATION_THRESHOLD = 70;\n    \n    event ClusterFormed(bytes32 indexed clusterId, address leader);\n    event NodeAssigned(address indexed node, bytes32 indexed clusterId);\n    event SessionKeyGenerated(bytes32 indexed clusterId, bytes32 sessionKey);\n    \n    constructor() {\n        _setupRole(DEFAULT_ADMIN_ROLE, msg.sender);\n    }\n    \n    function generateSessionKey(\n        bytes32 clusterId\n    ) internal returns (bytes32) {\n        NodeTypes.Cluster storage cluster = clusters[clusterId];\n        require(cluster.isActive, \"Cluster not active\");\n        \n        bytes32 randomValue = keccak256(abi.encodePacked(\n            block.timestamp,\n            block.number,\n            blockhash(block.number - 1), // Use blockhash as a source of randomness\n            clusterId,\n            msg.sender\n        ));\n        \n        cluster.sessionKey = randomValue;\n        emit SessionKeyGenerated(clusterId, randomValue);\n        \n        return randomValue;\n    } // Added closing brace here\n}\n\ncontract BeeRoutingAlgorithm is ClusterManager {\n    struct Route {\n        bytes32[] clusterPath;\n        uint256 pathScore;\n        bool isOptimal;\n    }\n    \n    mapping(bytes32 => Route) public routes;\n    \n    // Routing parameters\n    uint256 private constant CAPACITY_WEIGHT = 40;\n    uint256 private constant PERFORMANCE_WEIGHT = 60;\n    uint256 private constant SCORE_THRESHOLD = 75;\n    \n    function findOptimalRoute(\n        bytes32 txId,\n        uint256 txSize,\n        NodeTypes.NodeRole[] memory requiredRoles\n    ) public returns (bytes32[] memory) {\n        Route storage route = routes[txId];\n        \n        bytes32[] memory eligibleClusters = findEligibleClusters(\n            txSize,\n            requiredRoles\n        );\n        \n        (bytes32[] memory optimalPath, uint256 pathScore) = calculateOptimalPath(\n            eligibleClusters,\n            txSize\n        );\n        \n        route.clusterPath = optimalPath;\n        route.pathScore = pathScore;\n        route.isOptimal = true;\n        \n        return optimalPath;\n    }\n    \n   function findEligibleClusters(\n    uint256 txSize,\n    NodeTypes.NodeRole[] memory requiredRoles\n) internal view returns (bytes32[] memory) {\n    uint256 clusterCount = 0;\n    bytes32[] memory tempClusters = new bytes32[](10); // Temporary fixed size array\n    \n    // Iterate through clusters using a counter approach\n    for (uint256 i = 0; i < 10; i++) { // Assuming max 10 clusters, adjust as needed\n        bytes32 clusterId = bytes32(i); // Convert index to bytes32\n        \n        if (clusters[clusterId].id == 0) break; // Stop if cluster doesn't exist\n        \n        NodeTypes.Cluster storage cluster = clusters[clusterId];\n        if (!cluster.isActive) continue;\n        \n        // Check if cluster has required roles\n        bool hasAllRoles = true;\n        for (uint j = 0; j < requiredRoles.length; j++) {\n            bool roleFound = false;\n            \n            // Iterate through possible node addresses \n            // (you'll need to track these separately)\n            address[] memory clusterNodeAddresses = getClusterNodeAddresses(clusterId);\n            \n            for (uint k = 0; k < clusterNodeAddresses.length; k++) {\n                NodeTypes.Node storage node = nodes[clusterNodeAddresses[k]];\n                if (node.role == requiredRoles[j] && node.isActive) {\n                    roleFound = true;\n                    break;\n                }\n            }\n            \n            if (!roleFound) {\n                hasAllRoles = false;\n                break;\n            }\n        }\n        \n        // Check capacity\n        if (hasAllRoles && cluster.nodeCount >= txSize) {\n            tempClusters[clusterCount] = clusterId;\n            clusterCount++;\n        }\n    }\n    \n    // Create correctly sized array\n    bytes32[] memory eligibleClusters = new bytes32[](clusterCount);\n    for (uint256 k = 0; k < clusterCount; k++) {\n        eligibleClusters[k] = tempClusters[k];\n    }\n    \n    return eligibleClusters;\n}\n\n// Helper function to get node addresses for a cluster\nfunction getClusterNodeAddresses(bytes32 clusterId) internal view returns (address[] memory) {\n    uint256 nodeCount = 0;\n    address[] memory tempAddresses = new address[](10); // Assuming max 10 nodes per cluster\n    \n    for (address nodeAddr = address(0); nodeAddr < address(type(uint160).max); nodeAddr = address(uint160(nodeAddr) + 1)) {\n        if (clusterMembers[clusterId][nodeAddr]) {\n            tempAddresses[nodeCount] = nodeAddr;\n            nodeCount++;\n            \n            if (nodeCount >= 10) break; // Prevent potential infinite loop\n        }\n    }\n    \n    // Create correctly sized array\n    address[] memory clusterNodeAddresses = new address[](nodeCount);\n    for (uint256 i = 0; i < nodeCount; i++) {\n        clusterNodeAddresses[i] = tempAddresses[i];\n    }\n    \n    return clusterNodeAddresses;\n}\n    \nfunction calculateOptimalPath(\n    bytes32[] memory eligibleClusters,\n    uint256 /* txSize */\n) internal view returns (bytes32[] memory, uint256) {\n    if (eligibleClusters.length == 0) {\n        return (new bytes32[](0), 0);\n    }\n    \n    bytes32[] memory optimalPath = new bytes32[](1);\n    uint256 highestScore = 0;\n    \n    for (uint256 i = 0; i < eligibleClusters.length; i++) {\n        NodeTypes.Cluster storage cluster = clusters[eligibleClusters[i]];\n        \n        // Calculate weighted score based on node count and processed transactions\n        uint256 nodeCountScore = (cluster.nodeCount * CAPACITY_WEIGHT) / 100;\n        uint256 performanceScore = (cluster.processedTxCount * PERFORMANCE_WEIGHT) / 100;\n        uint256 totalScore = nodeCountScore + performanceScore;\n        \n        if (totalScore > highestScore) {\n            highestScore = totalScore;\n            optimalPath[0] = eligibleClusters[i];\n        }\n    }\n    \n    return (optimalPath, highestScore);\n}\n}\n/**\n * @title PasschainValidator\n * @dev Manages PoA validation process for transactions\n */\ncontract PasschainValidator is BeeRoutingAlgorithm, ReentrancyGuard {\n    struct ValidationProcess {\n        bytes32 txId;\n        bytes32 clusterId;\n        uint256 validationsRequired;\n        uint256 validationsReceived;\n        uint256 validationsPositive;\n        bool isComplete;\n        mapping(address => bool) hasValidated;\n    }\n    \n    mapping(bytes32 => ValidationProcess) public validationProcesses;\n    \n    event ValidationStarted(bytes32 indexed txId, bytes32 indexed clusterId);\n    event ValidationSubmitted(bytes32 indexed txId, address validator, bool result);\n    event ValidationComplete(bytes32 indexed txId, bool isValid);\n    \n    function initiateValidation(\n        bytes32 txId,\n        bytes memory txData\n    ) external nonReentrant {\n        require(!validationProcesses[txId].isComplete, \"Already validated\");\n        \n        // Find optimal cluster route\n        NodeTypes.NodeRole[] memory roles = new NodeTypes.NodeRole[](3);\n        roles[0] = NodeTypes.NodeRole.DESIGNATOR;\n        roles[1] = NodeTypes.NodeRole.VALIDATOR;\n        roles[2] = NodeTypes.NodeRole.EXECUTOR;\n        \n        bytes32[] memory routePath = this.findOptimalRoute(\n            txId,\n            txData.length,\n            roles\n        );\n        require(routePath.length > 0, \"No valid route found\");\n        \n        // Setup validation process\n        ValidationProcess storage process = validationProcesses[txId];\n        process.txId = txId;\n        process.clusterId = routePath[0];\n        process.validationsRequired = calculateRequiredValidations(routePath[0]);\n        \n        emit ValidationStarted(txId, routePath[0]);\n    }\n    \n    function submitValidation(\n        bytes32 txId,\n        bool isValid\n    ) external nonReentrant {\n        ValidationProcess storage process = validationProcesses[txId];\n        require(!process.isComplete, \"Validation complete\");\n        require(!process.hasValidated[msg.sender], \"Already validated\");\n        require(\n            clusterMembers[process.clusterId][msg.sender],\n            \"Not cluster member\"\n        );\n        \n        process.hasValidated[msg.sender] = true;\n        process.validationsReceived++;\n        if (isValid) {\n            process.validationsPositive++;\n        }\n        \n        emit ValidationSubmitted(txId, msg.sender, isValid);\n        \n        // Check if validation is complete\n        if (process.validationsReceived >= process.validationsRequired) {\n            bool validationResult = (\n                process.validationsPositive * 100 / process.validationsReceived\n            ) >= VALIDATION_THRESHOLD;\n            \n            process.isComplete = true;\n            emit ValidationComplete(txId, validationResult);\n        }\n    }\n    \n    function calculateRequiredValidations(\n        bytes32 clusterId\n    ) internal view returns (uint256) {\n        NodeTypes.Cluster storage cluster = clusters[clusterId];\n        return (cluster.nodeCount * 2) / 3; // Require 2/3 majority\n    }\n}\n\n/**\n * @title ClusterCommunication\n * @dev Handles secure communication within and between clusters\n */\ncontract ClusterCommunication is PasschainValidator {\n    struct SecureMessage {\n        bytes32 messageId;\n        bytes encryptedContent;\n        bytes mac;\n        address sender;\n        address recipient;\n        uint256 timestamp;\n    }\n    \n    mapping(bytes32 => SecureMessage) public messages;\n    \n    event MessageSent(bytes32 indexed messageId, address indexed recipient);\n    \n    function sendClusterMessage(\n        bytes32 clusterId,\n        address recipient,\n        bytes memory content\n    ) external nonReentrant {\n        require(\n            clusterMembers[clusterId][msg.sender],\n            \"Not in cluster\"\n        );\n        \n        bytes32 messageId = keccak256(abi.encodePacked(\n            clusterId,\n            msg.sender,\n            recipient,\n            block.timestamp\n        ));\n        \n        // AES-GCM encryption would be implemented here\n        bytes memory encrypted = content; // Placeholder\n        \n        // HMAC generation\n        bytes memory mac = abi.encodePacked(\n            keccak256(abi.encodePacked(content, clusters[clusterId].sessionKey))\n        );\n        \n        messages[messageId] = SecureMessage({\n            messageId: messageId,\n            encryptedContent: encrypted,\n            mac: mac,\n            sender: msg.sender,\n            recipient: recipient,\n            timestamp: block.timestamp\n        });\n        \n        emit MessageSent(messageId, recipient);\n    }\n}",
  "sourcePath": "C:\\Users\\Bonsu\\Documents\\CLEANER PRODUCTION\\renewalclimateproject\\ClimateProjectFull\\contracts\\passchain\\ClusterManager.sol",
  "compiler": {
    "name": "solc",
    "version": "0.8.20+commit.a1b79de6.Emscripten.clang"
  },
  "schemaVersion": "3.4.16",
  "updatedAt": "2025-02-21T06:43:13.935Z",
  "devdoc": {
    "details": "Manages PoA validation process for transactions",
    "events": {
      "RoleAdminChanged(bytes32,bytes32,bytes32)": {
        "details": "Emitted when `newAdminRole` is set as ``role``'s admin role, replacing `previousAdminRole` `DEFAULT_ADMIN_ROLE` is the starting admin for all roles, despite {RoleAdminChanged} not being emitted signaling this. _Available since v3.1._"
      },
      "RoleGranted(bytes32,address,address)": {
        "details": "Emitted when `account` is granted `role`. `sender` is the account that originated the contract call, an admin role bearer except when using {AccessControl-_setupRole}."
      },
      "RoleRevoked(bytes32,address,address)": {
        "details": "Emitted when `account` is revoked `role`. `sender` is the account that originated the contract call:   - if using `revokeRole`, it is the admin role bearer   - if using `renounceRole`, it is the role bearer (i.e. `account`)"
      }
    },
    "kind": "dev",
    "methods": {
      "getRoleAdmin(bytes32)": {
        "details": "Returns the admin role that controls `role`. See {grantRole} and {revokeRole}. To change a role's admin, use {_setRoleAdmin}."
      },
      "grantRole(bytes32,address)": {
        "details": "Grants `role` to `account`. If `account` had not been already granted `role`, emits a {RoleGranted} event. Requirements: - the caller must have ``role``'s admin role. May emit a {RoleGranted} event."
      },
      "hasRole(bytes32,address)": {
        "details": "Returns `true` if `account` has been granted `role`."
      },
      "renounceRole(bytes32,address)": {
        "details": "Revokes `role` from the calling account. Roles are often managed via {grantRole} and {revokeRole}: this function's purpose is to provide a mechanism for accounts to lose their privileges if they are compromised (such as when a trusted device is misplaced). If the calling account had been revoked `role`, emits a {RoleRevoked} event. Requirements: - the caller must be `account`. May emit a {RoleRevoked} event."
      },
      "revokeRole(bytes32,address)": {
        "details": "Revokes `role` from `account`. If `account` had been granted `role`, emits a {RoleRevoked} event. Requirements: - the caller must have ``role``'s admin role. May emit a {RoleRevoked} event."
      },
      "supportsInterface(bytes4)": {
        "details": "See {IERC165-supportsInterface}."
      }
    },
    "title": "PasschainValidator",
    "version": 1
  },
  "userdoc": {
    "kind": "user",
    "methods": {},
    "version": 1
  }
}