{
  "contractName": "RenewalTheoryContract",
  "abi": [
    {
      "anonymous": false,
      "inputs": [
        {
          "indexed": false,
          "internalType": "string",
          "name": "city",
          "type": "string"
        },
        {
          "indexed": false,
          "internalType": "uint256",
          "name": "newAllowance",
          "type": "uint256"
        }
      ],
      "name": "AllowanceUpdated",
      "type": "event"
    },
    {
      "anonymous": false,
      "inputs": [
        {
          "indexed": false,
          "internalType": "string",
          "name": "city",
          "type": "string"
        },
        {
          "indexed": false,
          "internalType": "string",
          "name": "sector",
          "type": "string"
        },
        {
          "indexed": false,
          "internalType": "uint256",
          "name": "reduction",
          "type": "uint256"
        }
      ],
      "name": "ReductionRecorded",
      "type": "event"
    },
    {
      "anonymous": false,
      "inputs": [
        {
          "indexed": false,
          "internalType": "string",
          "name": "city",
          "type": "string"
        },
        {
          "indexed": false,
          "internalType": "string",
          "name": "sector",
          "type": "string"
        },
        {
          "indexed": false,
          "internalType": "uint256",
          "name": "timestamp",
          "type": "uint256"
        },
        {
          "indexed": false,
          "internalType": "uint256",
          "name": "credits",
          "type": "uint256"
        }
      ],
      "name": "RenewalProcessed",
      "type": "event"
    },
    {
      "inputs": [],
      "name": "BASE_IMPACT",
      "outputs": [
        {
          "internalType": "uint256",
          "name": "",
          "type": "uint256"
        }
      ],
      "stateMutability": "view",
      "type": "function"
    },
    {
      "inputs": [],
      "name": "MAX_RENEWAL_RATE",
      "outputs": [
        {
          "internalType": "uint256",
          "name": "",
          "type": "uint256"
        }
      ],
      "stateMutability": "view",
      "type": "function"
    },
    {
      "inputs": [],
      "name": "MIN_RENEWAL_INTERVAL",
      "outputs": [
        {
          "internalType": "uint256",
          "name": "",
          "type": "uint256"
        }
      ],
      "stateMutability": "view",
      "type": "function"
    },
    {
      "inputs": [],
      "name": "SEASONAL_VARIATION",
      "outputs": [
        {
          "internalType": "uint256",
          "name": "",
          "type": "uint256"
        }
      ],
      "stateMutability": "view",
      "type": "function"
    },
    {
      "inputs": [
        {
          "internalType": "string",
          "name": "",
          "type": "string"
        }
      ],
      "name": "cities",
      "outputs": [
        {
          "internalType": "uint256",
          "name": "baseAllowance",
          "type": "uint256"
        },
        {
          "internalType": "uint256",
          "name": "seasonalFactor",
          "type": "uint256"
        },
        {
          "internalType": "uint256",
          "name": "emergencyBuffer",
          "type": "uint256"
        },
        {
          "internalType": "uint256",
          "name": "lastCalculationTime",
          "type": "uint256"
        }
      ],
      "stateMutability": "view",
      "type": "function"
    },
    {
      "inputs": [
        {
          "internalType": "string",
          "name": "city",
          "type": "string"
        },
        {
          "internalType": "uint256",
          "name": "baseAllowance",
          "type": "uint256"
        }
      ],
      "name": "initializeCity",
      "outputs": [],
      "stateMutability": "nonpayable",
      "type": "function"
    },
    {
      "inputs": [
        {
          "internalType": "string",
          "name": "city",
          "type": "string"
        },
        {
          "internalType": "string",
          "name": "sector",
          "type": "string"
        },
        {
          "internalType": "uint256",
          "name": "value",
          "type": "uint256"
        },
        {
          "internalType": "uint256",
          "name": "timestamp",
          "type": "uint256"
        }
      ],
      "name": "recordSectorValue",
      "outputs": [],
      "stateMutability": "nonpayable",
      "type": "function"
    },
    {
      "inputs": [
        {
          "internalType": "string",
          "name": "city",
          "type": "string"
        },
        {
          "internalType": "string",
          "name": "sector",
          "type": "string"
        }
      ],
      "name": "canRenew",
      "outputs": [
        {
          "internalType": "bool",
          "name": "",
          "type": "bool"
        }
      ],
      "stateMutability": "view",
      "type": "function"
    },
    {
      "inputs": [
        {
          "internalType": "string",
          "name": "city",
          "type": "string"
        },
        {
          "internalType": "string",
          "name": "sector",
          "type": "string"
        }
      ],
      "name": "calculateCreditAmount",
      "outputs": [
        {
          "internalType": "uint256",
          "name": "",
          "type": "uint256"
        }
      ],
      "stateMutability": "view",
      "type": "function"
    },
    {
      "inputs": [
        {
          "internalType": "uint256",
          "name": "credits",
          "type": "uint256"
        }
      ],
      "name": "calculateReduction",
      "outputs": [
        {
          "internalType": "uint256",
          "name": "",
          "type": "uint256"
        }
      ],
      "stateMutability": "pure",
      "type": "function"
    },
    {
      "inputs": [
        {
          "internalType": "string",
          "name": "city",
          "type": "string"
        },
        {
          "internalType": "string",
          "name": "sector",
          "type": "string"
        }
      ],
      "name": "isEmergencyCondition",
      "outputs": [
        {
          "internalType": "bool",
          "name": "",
          "type": "bool"
        }
      ],
      "stateMutability": "view",
      "type": "function"
    }
  ],
  "bytecode": "0x608060405234801561000f575f80fd5b50610a368061001d5f395ff3fe608060405234801561000f575f80fd5b50600436106100a6575f3560e01c80636d1293e21161006e5780636d1293e214610165578063768ffd9b14610178578063821876b11461018d578063c6cc10e6146101a0578063ccbedf21146101b3578063ffb364f4146101bc575f80fd5b806341cc92b2146100aa57806342ef2744146100d257806344dd1fea146100e857806365eae2db146100f05780636afed26614610152575b5f80fd5b6100bd6100b8366004610745565b6101c6565b60405190151581526020015b60405180910390f35b6100da601481565b6040519081526020016100c9565b6100da606481565b6101326100fe3660046107a5565b80516020818301810180515f8252928201919093012091526001810154600282015460038301546004909301549192909184565b6040805194855260208501939093529183015260608201526080016100c9565b6100da6101603660046107df565b610264565b6100bd610173366004610745565b61027c565b61018b6101863660046107f6565b6102ca565b005b61018b61019b366004610865565b61038c565b6100da6101ae366004610745565b61049a565b6100da61016d81565b6100da6201518081565b5f805f846040516101d791906108c9565b908152604051908190036020018120906101f29085906108c9565b9081526020016040518091039020905080600201545f0361021757600191505061025e565b6003810180545f919061022c906001906108f8565b8154811061023c5761023c61090b565b5f91825260208220015491506102524283610537565b62015180111593505050505b92915050565b5f61025e612710610276846064610549565b90610554565b5f805f8460405161028d91906108c9565b908152604051908190036020018120906102a89085906108c9565b9081526040519081900360200190205466038d7ea4c680001091505092915050565b5f846040516102d991906108c9565b9081526020016040518091039020600101545f036103355760405162461bcd60e51b815260206004820152601460248201527310da5d1e481b9bdd081a5b9a5d1a585b1a5e995960621b60448201526064015b60405180910390fd5b5f808560405161034591906108c9565b908152604051908190036020018120906103609086906108c9565b908152604051908190036020019020838155600181018390559050610385858561055f565b5050505050565b5f8260405161039b91906108c9565b9081526020016040518091039020600101545f146103fb5760405162461bcd60e51b815260206004820152601860248201527f4369747920616c726561647920696e697469616c697a65640000000000000000604482015260640161032c565b805f8360405161040b91906108c9565b90815260200160405180910390206001018190555060645f8360405161043191906108c9565b9081526040519081900360200190206002015561044f81600a610554565b5f8360405161045e91906108c9565b908152602001604051809103902060030181905550425f8360405161048391906108c9565b908152604051908190036020019020600401555050565b5f805f846040516104ab91906108c9565b90815260405190819003602001812091505f9082906104cb9086906108c9565b908152602001604051809103902090505f6104fc60646102768560020154866001015461054990919063ffffffff16565b9050610508868661027c565b1561052057600383015461051d90829061069d565b90505b815461052d908290610549565b9695505050505050565b5f61054282846108f8565b9392505050565b5f610542828461091f565b5f6105428284610936565b5f808360405161056f91906108c9565b9081526040519081900360200181209061058a9084906108c9565b908152602001604051809103902090506105a483836101c6565b15610698575f6105b4848461049a565b90505f6105c082610264565b60028401549091506105d390600161069d565b6002840155600383018054600181810183555f928352602080842042930192909255600486018054918201815583529120018290556005830154610617908261069d565b60058401556040517f2697dd2e57247d45c7bc81aa89ec5ce7df66826fd073fd5677bc01491d05266b90610652908790879042908790610980565b60405180910390a17fa766da82be27913514abf5fe031b28bde4ba71c987bc9425b9593b65a80e66b585858360405161068d939291906109b8565b60405180910390a150505b505050565b5f61054282846109ed565b634e487b7160e01b5f52604160045260245ffd5b5f82601f8301126106cb575f80fd5b813567ffffffffffffffff808211156106e6576106e66106a8565b604051601f8301601f19908116603f0116810190828211818310171561070e5761070e6106a8565b81604052838152866020858801011115610726575f80fd5b836020870160208301375f602085830101528094505050505092915050565b5f8060408385031215610756575f80fd5b823567ffffffffffffffff8082111561076d575f80fd5b610779868387016106bc565b9350602085013591508082111561078e575f80fd5b5061079b858286016106bc565b9150509250929050565b5f602082840312156107b5575f80fd5b813567ffffffffffffffff8111156107cb575f80fd5b6107d7848285016106bc565b949350505050565b5f602082840312156107ef575f80fd5b5035919050565b5f805f8060808587031215610809575f80fd5b843567ffffffffffffffff80821115610820575f80fd5b61082c888389016106bc565b95506020870135915080821115610841575f80fd5b5061084e878288016106bc565b949794965050505060408301359260600135919050565b5f8060408385031215610876575f80fd5b823567ffffffffffffffff81111561088c575f80fd5b610898858286016106bc565b95602094909401359450505050565b5f5b838110156108c15781810151838201526020016108a9565b50505f910152565b5f82516108da8184602087016108a7565b9190910192915050565b634e487b7160e01b5f52601160045260245ffd5b8181038181111561025e5761025e6108e4565b634e487b7160e01b5f52603260045260245ffd5b808202811582820484141761025e5761025e6108e4565b5f8261095057634e487b7160e01b5f52601260045260245ffd5b500490565b5f815180845261096c8160208601602086016108a7565b601f01601f19169290920160200192915050565b608081525f6109926080830187610955565b82810360208401526109a48187610955565b604084019590955250506060015292915050565b606081525f6109ca6060830186610955565b82810360208401526109dc8186610955565b915050826040830152949350505050565b8082018082111561025e5761025e6108e456fea264697066735822122054e198a3a4723ae8c88fa8de28fecb2a1f1dc369a23fc2a6da4e0cb27728531a64736f6c63430008140033",
  "immutableReferences": {},
  "source": "// SPDX-License-Identifier: MIT\npragma solidity ^0.8.20;\n\nimport \"@openzeppelin/contracts/utils/math/SafeMath.sol\";\nimport \"@openzeppelin/contracts/token/ERC20/IERC20.sol\";\nimport \"@uniswap/v2-periphery/contracts/interfaces/IUniswapV2Router02.sol\";\nimport \"@openzeppelin/contracts/access/Ownable.sol\";\nimport \"@openzeppelin/contracts/security/ReentrancyGuard.sol\";\nimport \"@openzeppelin/contracts/security/Pausable.sol\";\n\n// Base contract for handling renewal theory calculations\ncontract RenewalTheoryContract {\n\n    \n    using SafeMath for uint256;\n\n    struct SectorData {\n        uint256 value;\n        uint256 timestamp;\n        uint256 totalRenewals;\n        uint256[] renewalTimes;\n        uint256[] creditAmounts;\n        uint256 cumulativeReduction;\n    }\n\n    struct CityData {\n        mapping(string => SectorData) sectors;\n        uint256 baseAllowance;\n        uint256 seasonalFactor;\n        uint256 emergencyBuffer;\n        uint256 lastCalculationTime;\n    }\n\n    mapping(string => CityData) public cities;\n\n    // Constants\n    uint256 public constant MIN_RENEWAL_INTERVAL = 1 days;\n    uint256 public constant MAX_RENEWAL_RATE = 365; // Daily data\n    uint256 public constant BASE_IMPACT = 100; // 1 unit in basis points\n    uint256 public constant SEASONAL_VARIATION = 20; // 20% seasonal variation\n\n    event RenewalProcessed(string city, string sector, uint256 timestamp, uint256 credits);\n    event AllowanceUpdated(string city, uint256 newAllowance);\n    event ReductionRecorded(string city, string sector, uint256 reduction);\n\n    function initializeCity(string memory city, uint256 baseAllowance) external {\n        require(cities[city].baseAllowance == 0, \"City already initialized\");\n        \n        cities[city].baseAllowance = baseAllowance;\n        cities[city].seasonalFactor = 100;\n        cities[city].emergencyBuffer = baseAllowance.div(10);\n        cities[city].lastCalculationTime = block.timestamp;\n    }\n\n    function recordSectorValue(\n        string memory city,\n        string memory sector,\n        uint256 value,\n        uint256 timestamp\n    ) external {\n        require(cities[city].baseAllowance != 0, \"City not initialized\");\n        \n        SectorData storage sectorData = cities[city].sectors[sector];\n        sectorData.value = value;\n        sectorData.timestamp = timestamp;\n        \n        processRenewal(city, sector);\n    }\n\n    function processRenewal(string memory city, string memory sector) internal {\n        SectorData storage sectorData = cities[city].sectors[sector];\n        \n        if (canRenew(city, sector)) {\n            uint256 credits = calculateCreditAmount(city, sector);\n            uint256 reduction = calculateReduction(credits);\n\n            sectorData.totalRenewals = sectorData.totalRenewals.add(1);\n            sectorData.renewalTimes.push(block.timestamp);\n            sectorData.creditAmounts.push(credits);\n            sectorData.cumulativeReduction = sectorData.cumulativeReduction.add(reduction);\n\n            emit RenewalProcessed(city, sector, block.timestamp, credits);\n            emit ReductionRecorded(city, sector, reduction);\n        }\n    }\n\n    function canRenew(string memory city, string memory sector) public view returns (bool) {\n        SectorData storage sectorData = cities[city].sectors[sector];\n        \n        if (sectorData.totalRenewals == 0) return true;\n        \n        uint256 lastRenewalTime = sectorData.renewalTimes[sectorData.renewalTimes.length - 1];\n        uint256 timeSinceLastRenewal = block.timestamp.sub(lastRenewalTime);\n        \n        return timeSinceLastRenewal >= MIN_RENEWAL_INTERVAL;\n    }\n\n    function calculateCreditAmount(string memory city, string memory sector) public view returns (uint256) {\n        CityData storage cityData = cities[city];\n        SectorData storage sectorData = cityData.sectors[sector];\n        \n        uint256 baseAmount = cityData.baseAllowance.mul(cityData.seasonalFactor).div(100);\n        \n        if (isEmergencyCondition(city, sector)) {\n            baseAmount = baseAmount.add(cityData.emergencyBuffer);\n        }\n        \n        return baseAmount.mul(sectorData.value);\n    }\n\n    function calculateReduction(uint256 credits) public pure returns (uint256) {\n        return credits.mul(BASE_IMPACT).div(1e4);\n    }\n\n    function isEmergencyCondition(string memory city, string memory sector) public view returns (bool) {\n        SectorData storage sectorData = cities[city].sectors[sector];\n        return sectorData.value > 0.001 ether; // Example threshold\n    }\n}\n\ncontract CarbonCreditMarket is RenewalTheoryContract, Ownable, ReentrancyGuard, Pausable {\n    using SafeMath for uint256;\n\n    IUniswapV2Router02 public immutable uniswapRouter;\n    address public immutable carbonCreditToken;\n    address public immutable usdToken;\n    \n    uint256 public constant MIN_TRADE_AMOUNT = 1e18;\n    uint256 public constant MAX_TRADE_AMOUNT = 1000000e18;\n    uint256 public constant SLIPPAGE_TOLERANCE = 50; // 0.5%\n\n    struct CompanyData {\n        bool isRegistered;\n        uint256 carbonCredits;\n        bool isBuying;\n        bool isSelling;\n        uint256 lastTradeTimestamp;\n    }\n\n    mapping(address => CompanyData) public companies;\n    address[] private buyersList;\n    address[] private sellersList;\n\n    event CompanyRegistered(address indexed company);\n    event BuyerAdded(address indexed buyer);\n    event SellerAdded(address indexed seller);\n    event TradeExecuted(\n        address indexed buyer,\n        address indexed seller,\n        uint256 carbonCredits,\n        uint256 usdAmount,\n        string city,\n        string sector\n    );\nconstructor(\n    address _uniswapRouter,\n    address _carbonCreditToken,\n    address _usdToken\n) {\n    require(_uniswapRouter != address(0), \"Invalid router address\");\n    require(_carbonCreditToken != address(0), \"Invalid carbon token address\");\n    require(_usdToken != address(0), \"Invalid USD token address\");\n    \n    uniswapRouter = IUniswapV2Router02(_uniswapRouter);\n    carbonCreditToken = _carbonCreditToken;\n    usdToken = _usdToken;\n    \n    _transferOwnership(msg.sender);\n}\n\n    modifier onlyRegisteredCompany() {\n        require(companies[msg.sender].isRegistered, \"Company not registered\");\n        _;\n    }\n\n    modifier validTradeAmount(uint256 amount) {\n        require(amount >= MIN_TRADE_AMOUNT, \"Trade amount too small\");\n        require(amount <= MAX_TRADE_AMOUNT, \"Trade amount too large\");\n        _;\n    }\n\n    function registerCompany(address company) external onlyOwner {\n        require(company != address(0), \"Invalid company address\");\n        require(!companies[company].isRegistered, \"Company already registered\");\n        \n        companies[company].isRegistered = true;\n        companies[company].lastTradeTimestamp = 0;\n        \n        emit CompanyRegistered(company);\n    }\n\n    function wantToBuy() external onlyRegisteredCompany whenNotPaused {\n        require(!companies[msg.sender].isBuying, \"Already in buyers list\");\n        require(!companies[msg.sender].isSelling, \"Cannot buy while selling\");\n        \n        companies[msg.sender].isBuying = true;\n        buyersList.push(msg.sender);\n        \n        emit BuyerAdded(msg.sender);\n    }\n\n    function wantToSell() external onlyRegisteredCompany whenNotPaused {\n        require(!companies[msg.sender].isSelling, \"Already in sellers list\");\n        require(!companies[msg.sender].isBuying, \"Cannot sell while buying\");\n        \n        // Check if seller has enough carbon credits\n        uint256 balance = IERC20(carbonCreditToken).balanceOf(msg.sender);\n        require(balance >= MIN_TRADE_AMOUNT, \"Insufficient carbon credits\");\n        \n        companies[msg.sender].isSelling = true;\n        sellersList.push(msg.sender);\n        \n        emit SellerAdded(msg.sender);\n    }\n\n    function trade(\n        address buyer,\n        address seller,\n        uint256 carbonCredits,\n        uint256 usdAmount,\n        string memory city,\n        string memory sector\n    ) \n        external \n        onlyOwner \n        whenNotPaused \n        nonReentrant \n        validTradeAmount(carbonCredits) \n    {\n        require(companies[buyer].isBuying, \"Buyer not interested\");\n        require(companies[seller].isSelling, \"Seller not interested\");\n        require(\n            IERC20(carbonCreditToken).balanceOf(seller) >= carbonCredits,\n            \"Insufficient seller balance\"\n        );\n        require(\n            IERC20(usdToken).balanceOf(buyer) >= usdAmount,\n            \"Insufficient buyer USD balance\"\n        );\n        \n        SectorData storage sectorData = cities[city].sectors[sector];\n        require(\n            carbonCredits.mul(4) > sectorData.cumulativeReduction.mul(3),\n            \"Insufficient carbon credits\"\n        );\n\n        // Check for allowances\n        require(\n            IERC20(carbonCreditToken).allowance(seller, address(this)) >= carbonCredits,\n            \"Insufficient carbon credit allowance\"\n        );\n        require(\n            IERC20(usdToken).allowance(buyer, address(this)) >= usdAmount,\n            \"Insufficient USD allowance\"\n        );\n\n        // Get expected swap amount\n        uint256 expectedAmount = getExpectedSwapAmount(carbonCredits);\n        require(\n            usdAmount >= expectedAmount.mul(1000 - SLIPPAGE_TOLERANCE).div(1000),\n            \"Price slippage too high\"\n        );\n\n        // Execute trades\n        bool success = executeTokenTransfers(buyer, seller, carbonCredits, usdAmount);\n        require(success, \"Trade execution failed\");\n\n        // Update company status\n        updateTradeStatus(buyer, seller);\n        \n        emit TradeExecuted(buyer, seller, carbonCredits, usdAmount, city, sector);\n    }\n\n    function executeTokenTransfers(\n        address buyer,\n        address seller,\n        uint256 carbonCredits,\n        uint256 usdAmount\n    ) private returns (bool) {\n        // Transfer carbon credits\n        require(\n            IERC20(carbonCreditToken).transferFrom(seller, buyer, carbonCredits),\n            \"Carbon credit transfer failed\"\n        );\n        \n        // Transfer USD\n        require(\n            IERC20(usdToken).transferFrom(buyer, seller, usdAmount),\n            \"USD transfer failed\"\n        );\n        \n        return true;\n    }\n\n    function updateTradeStatus(address buyer, address seller) private {\n        removeFromList(buyer, buyersList);\n        removeFromList(seller, sellersList);\n        \n        companies[buyer].isBuying = false;\n        companies[seller].isSelling = false;\n        companies[buyer].lastTradeTimestamp = block.timestamp;\n        companies[seller].lastTradeTimestamp = block.timestamp;\n    }\n\n    function removeFromList(address company, address[] storage list) private {\n        for (uint256 i = 0; i < list.length; i++) {\n            if (list[i] == company) {\n                list[i] = list[list.length - 1];\n                list.pop();\n                break;\n            }\n        }\n    }\n\n    function getExpectedSwapAmount(uint256 carbonCredits) public view returns (uint256) {\n        address[] memory path = new address[](2);\n        path[0] = carbonCreditToken;\n        path[1] = usdToken;\n        \n        uint256[] memory amounts = uniswapRouter.getAmountsOut(carbonCredits, path);\n        return amounts[1];\n    }\n\n    function pause() external onlyOwner {\n        _pause();\n    }\n\n    function unpause() external onlyOwner {\n        _unpause();\n    }\n\n    // Emergency withdrawal function\n    function emergencyWithdraw(address token) external onlyOwner {\n        uint256 balance = IERC20(token).balanceOf(address(this));\n        require(balance > 0, \"No balance to withdraw\");\n        IERC20(token).transfer(owner(), balance);\n    }\n}\n",
  "sourcePath": "C:\\Users\\Bonsu\\Documents\\CLEANER PRODUCTION\\renewalclimateproject\\ClimateProjectFull\\contracts\\climate\\RenewalTheoryContract.sol",
  "compiler": {
    "name": "solc",
    "version": "0.8.20+commit.a1b79de6.Emscripten.clang"
  },
  "schemaVersion": "3.4.16",
  "updatedAt": "2025-02-21T06:43:13.894Z",
  "devdoc": {
    "kind": "dev",
    "methods": {},
    "version": 1
  },
  "userdoc": {
    "kind": "user",
    "methods": {},
    "version": 1
  }
}