{
  "contractName": "RewardDistributor",
  "abi": [
    {
      "inputs": [
        {
          "internalType": "address",
          "name": "_rewardToken",
          "type": "address"
        }
      ],
      "stateMutability": "nonpayable",
      "type": "constructor"
    },
    {
      "anonymous": false,
      "inputs": [
        {
          "indexed": true,
          "internalType": "bytes32",
          "name": "distributionId",
          "type": "bytes32"
        },
        {
          "indexed": false,
          "internalType": "address",
          "name": "recipient",
          "type": "address"
        },
        {
          "indexed": false,
          "internalType": "uint256",
          "name": "amount",
          "type": "uint256"
        }
      ],
      "name": "RewardDistributed",
      "type": "event"
    },
    {
      "anonymous": false,
      "inputs": [
        {
          "indexed": true,
          "internalType": "bytes32",
          "name": "role",
          "type": "bytes32"
        },
        {
          "indexed": true,
          "internalType": "bytes32",
          "name": "previousAdminRole",
          "type": "bytes32"
        },
        {
          "indexed": true,
          "internalType": "bytes32",
          "name": "newAdminRole",
          "type": "bytes32"
        }
      ],
      "name": "RoleAdminChanged",
      "type": "event"
    },
    {
      "anonymous": false,
      "inputs": [
        {
          "indexed": true,
          "internalType": "bytes32",
          "name": "role",
          "type": "bytes32"
        },
        {
          "indexed": true,
          "internalType": "address",
          "name": "account",
          "type": "address"
        },
        {
          "indexed": true,
          "internalType": "address",
          "name": "sender",
          "type": "address"
        }
      ],
      "name": "RoleGranted",
      "type": "event"
    },
    {
      "anonymous": false,
      "inputs": [
        {
          "indexed": true,
          "internalType": "bytes32",
          "name": "role",
          "type": "bytes32"
        },
        {
          "indexed": true,
          "internalType": "address",
          "name": "account",
          "type": "address"
        },
        {
          "indexed": true,
          "internalType": "address",
          "name": "sender",
          "type": "address"
        }
      ],
      "name": "RoleRevoked",
      "type": "event"
    },
    {
      "inputs": [],
      "name": "DEFAULT_ADMIN_ROLE",
      "outputs": [
        {
          "internalType": "bytes32",
          "name": "",
          "type": "bytes32"
        }
      ],
      "stateMutability": "view",
      "type": "function"
    },
    {
      "inputs": [],
      "name": "W1_VALIDATION",
      "outputs": [
        {
          "internalType": "uint256",
          "name": "",
          "type": "uint256"
        }
      ],
      "stateMutability": "view",
      "type": "function"
    },
    {
      "inputs": [],
      "name": "W2_EXECUTION",
      "outputs": [
        {
          "internalType": "uint256",
          "name": "",
          "type": "uint256"
        }
      ],
      "stateMutability": "view",
      "type": "function"
    },
    {
      "inputs": [
        {
          "internalType": "bytes32",
          "name": "",
          "type": "bytes32"
        }
      ],
      "name": "auxiliaryRewards",
      "outputs": [
        {
          "internalType": "uint256",
          "name": "componentReward",
          "type": "uint256"
        },
        {
          "internalType": "uint256",
          "name": "criticalityFactor",
          "type": "uint256"
        },
        {
          "internalType": "uint256",
          "name": "totalReward",
          "type": "uint256"
        },
        {
          "internalType": "bool",
          "name": "isPaid",
          "type": "bool"
        }
      ],
      "stateMutability": "view",
      "type": "function"
    },
    {
      "inputs": [
        {
          "internalType": "bytes32",
          "name": "componentId",
          "type": "bytes32"
        },
        {
          "internalType": "uint256[]",
          "name": "weights",
          "type": "uint256[]"
        },
        {
          "internalType": "uint256[]",
          "name": "criticalityFactors",
          "type": "uint256[]"
        },
        {
          "internalType": "uint256[]",
          "name": "performances",
          "type": "uint256[]"
        }
      ],
      "name": "calculateAuxiliaryReward",
      "outputs": [
        {
          "internalType": "uint256",
          "name": "",
          "type": "uint256"
        }
      ],
      "stateMutability": "nonpayable",
      "type": "function"
    },
    {
      "inputs": [
        {
          "internalType": "bytes32",
          "name": "channelId",
          "type": "bytes32"
        },
        {
          "internalType": "uint256[]",
          "name": "weights",
          "type": "uint256[]"
        },
        {
          "internalType": "uint256[]",
          "name": "scalingFactors",
          "type": "uint256[]"
        },
        {
          "internalType": "uint256[]",
          "name": "performances",
          "type": "uint256[]"
        }
      ],
      "name": "calculateChannelReward",
      "outputs": [
        {
          "internalType": "uint256",
          "name": "",
          "type": "uint256"
        }
      ],
      "stateMutability": "nonpayable",
      "type": "function"
    },
    {
      "inputs": [
        {
          "internalType": "address",
          "name": "node",
          "type": "address"
        },
        {
          "internalType": "uint256",
          "name": "validationScore",
          "type": "uint256"
        },
        {
          "internalType": "uint256",
          "name": "executionScore",
          "type": "uint256"
        }
      ],
      "name": "calculateNodeReward",
      "outputs": [
        {
          "internalType": "uint256",
          "name": "",
          "type": "uint256"
        }
      ],
      "stateMutability": "nonpayable",
      "type": "function"
    },
    {
      "inputs": [
        {
          "internalType": "uint256",
          "name": "baseConstant",
          "type": "uint256"
        },
        {
          "internalType": "uint256[]",
          "name": "performanceFactors",
          "type": "uint256[]"
        },
        {
          "internalType": "uint256",
          "name": "contributionScore",
          "type": "uint256"
        }
      ],
      "name": "calculateNodesReward",
      "outputs": [
        {
          "internalType": "uint256",
          "name": "",
          "type": "uint256"
        }
      ],
      "stateMutability": "pure",
      "type": "function"
    },
    {
      "inputs": [
        {
          "internalType": "bytes32",
          "name": "",
          "type": "bytes32"
        }
      ],
      "name": "channelRewards",
      "outputs": [
        {
          "internalType": "uint256",
          "name": "baseReward",
          "type": "uint256"
        },
        {
          "internalType": "uint256",
          "name": "performanceMultiplier",
          "type": "uint256"
        },
        {
          "internalType": "uint256",
          "name": "totalReward",
          "type": "uint256"
        },
        {
          "internalType": "bool",
          "name": "isPaid",
          "type": "bool"
        }
      ],
      "stateMutability": "view",
      "type": "function"
    },
    {
      "inputs": [
        {
          "internalType": "bytes32",
          "name": "",
          "type": "bytes32"
        }
      ],
      "name": "distributions",
      "outputs": [
        {
          "internalType": "uint256",
          "name": "channelShare",
          "type": "uint256"
        },
        {
          "internalType": "uint256",
          "name": "nodeShare",
          "type": "uint256"
        },
        {
          "internalType": "uint256",
          "name": "auxiliaryShare",
          "type": "uint256"
        },
        {
          "internalType": "uint256",
          "name": "totalDistributed",
          "type": "uint256"
        },
        {
          "internalType": "bool",
          "name": "isComplete",
          "type": "bool"
        }
      ],
      "stateMutability": "view",
      "type": "function"
    },
    {
      "inputs": [
        {
          "internalType": "bytes32",
          "name": "role",
          "type": "bytes32"
        }
      ],
      "name": "getRoleAdmin",
      "outputs": [
        {
          "internalType": "bytes32",
          "name": "",
          "type": "bytes32"
        }
      ],
      "stateMutability": "view",
      "type": "function"
    },
    {
      "inputs": [
        {
          "internalType": "bytes32",
          "name": "role",
          "type": "bytes32"
        },
        {
          "internalType": "address",
          "name": "account",
          "type": "address"
        }
      ],
      "name": "grantRole",
      "outputs": [],
      "stateMutability": "nonpayable",
      "type": "function"
    },
    {
      "inputs": [
        {
          "internalType": "bytes32",
          "name": "role",
          "type": "bytes32"
        },
        {
          "internalType": "address",
          "name": "account",
          "type": "address"
        }
      ],
      "name": "hasRole",
      "outputs": [
        {
          "internalType": "bool",
          "name": "",
          "type": "bool"
        }
      ],
      "stateMutability": "view",
      "type": "function"
    },
    {
      "inputs": [
        {
          "internalType": "address",
          "name": "",
          "type": "address"
        }
      ],
      "name": "nodeRewards",
      "outputs": [
        {
          "internalType": "uint256",
          "name": "validationReward",
          "type": "uint256"
        },
        {
          "internalType": "uint256",
          "name": "executionReward",
          "type": "uint256"
        },
        {
          "internalType": "uint256",
          "name": "totalReward",
          "type": "uint256"
        },
        {
          "internalType": "bool",
          "name": "isPaid",
          "type": "bool"
        }
      ],
      "stateMutability": "view",
      "type": "function"
    },
    {
      "inputs": [
        {
          "internalType": "bytes32",
          "name": "role",
          "type": "bytes32"
        },
        {
          "internalType": "address",
          "name": "account",
          "type": "address"
        }
      ],
      "name": "renounceRole",
      "outputs": [],
      "stateMutability": "nonpayable",
      "type": "function"
    },
    {
      "inputs": [
        {
          "internalType": "bytes32",
          "name": "role",
          "type": "bytes32"
        },
        {
          "internalType": "address",
          "name": "account",
          "type": "address"
        }
      ],
      "name": "revokeRole",
      "outputs": [],
      "stateMutability": "nonpayable",
      "type": "function"
    },
    {
      "inputs": [],
      "name": "rewardToken",
      "outputs": [
        {
          "internalType": "contract IERC20",
          "name": "",
          "type": "address"
        }
      ],
      "stateMutability": "view",
      "type": "function"
    },
    {
      "inputs": [
        {
          "internalType": "bytes4",
          "name": "interfaceId",
          "type": "bytes4"
        }
      ],
      "name": "supportsInterface",
      "outputs": [
        {
          "internalType": "bool",
          "name": "",
          "type": "bool"
        }
      ],
      "stateMutability": "view",
      "type": "function"
    },
    {
      "inputs": [
        {
          "internalType": "bytes32",
          "name": "distributionId",
          "type": "bytes32"
        },
        {
          "internalType": "address[]",
          "name": "recipients",
          "type": "address[]"
        },
        {
          "internalType": "uint256[]",
          "name": "amounts",
          "type": "uint256[]"
        }
      ],
      "name": "distributeRewards",
      "outputs": [],
      "stateMutability": "nonpayable",
      "type": "function"
    }
  ],
  "bytecode": "0x608060405234801562000010575f80fd5b506040516200161f3803806200161f833981016040819052620000339162000118565b6001600355600580546001600160a01b0319166001600160a01b0383161790556200005f5f3362000066565b5062000147565b62000072828262000076565b5050565b5f8281526004602090815260408083206001600160a01b038516845290915290205460ff1662000072575f8281526004602090815260408083206001600160a01b03851684529091529020805460ff19166001179055620000d43390565b6001600160a01b0316816001600160a01b0316837f2f8788117e7eff1d82e926ec794901d17c78024a50270940304540a733656f0d60405160405180910390a45050565b5f6020828403121562000129575f80fd5b81516001600160a01b038116811462000140575f80fd5b9392505050565b6114ca80620001555f395ff3fe608060405234801561000f575f80fd5b506004361061011c575f3560e01c80639604d604116100a9578063c22c9b4a1161006e578063c22c9b4a146102a9578063c746029b146102bc578063d547741f146102f5578063dd0e621514610308578063f7c618c114610371575f80fd5b80639604d604146102455780639b1ff0241461024e578063a217fddf14610257578063b732e7431461025e578063ba7fe61414610296575f80fd5b806336568abe116100ef57806336568abe146101a05780633fe3a488146101b3578063770ce3d8146101c657806386d521931461021f57806391d1485414610232575f80fd5b806301ffc9a7146101205780630cca02fb14610148578063248a9ca3146101695780632f2ff15d1461018b575b5f80fd5b61013361012e366004610fc0565b61039c565b60405190151581526020015b60405180910390f35b61015b6101563660046110b7565b6103d2565b60405190815260200161013f565b61015b610177366004611143565b5f9081526004602052604090206001015490565b61019e610199366004611175565b610523565b005b61019e6101ae366004611175565b61054c565b61015b6101c136600461119f565b6105ca565b6101fd6101d43660046111eb565b5f6020819052908152604090208054600182015460028301546003909301549192909160ff1684565b604080519485526020850193909352918301521515606082015260800161013f565b61015b61022d366004611204565b610626565b610133610240366004611175565b6106b9565b61015b61019081565b61015b61025881565b61015b5f81565b6101fd61026c366004611143565b600160208190525f9182526040909120805491810154600282015460039092015490919060ff1684565b61015b6102a43660046110b7565b6106e3565b61019e6102b7366004611234565b6107f5565b6101fd6102ca366004611143565b600260208190525f918252604090912080546001820154928201546003909201549092919060ff1684565b61019e610303366004611175565b610b72565b610347610316366004611143565b60066020525f9081526040902080546001820154600283015460038401546004909401549293919290919060ff1685565b6040805195865260208601949094529284019190915260608301521515608082015260a00161013f565b600554610384906001600160a01b031681565b6040516001600160a01b03909116815260200161013f565b5f6001600160e01b03198216637965db0b60e01b14806103cc57506301ffc9a760e01b6001600160e01b03198316145b92915050565b5f825184511480156103e5575081518451145b61042f5760405162461bcd60e51b8152602060048201526016602482015275082e4e4c2f240d8cadccee8d0e640dad2e6dac2e8c6d60531b60448201526064015b60405180910390fd5b5f805b85518110156104af575f61048d61047b888481518110610454576104546112f8565b602002602001015188858151811061046e5761046e6112f8565b6020026020010151610b96565b86848151811061046e5761046e6112f8565b90506104998382610bbb565b92505080806104a790611320565b915050610432565b5060405180608001604052808281526020016104ca86610bc6565b815260208082018490525f6040928301819052988952600280825298829020835181559083015160018201559082015197810197909755606001516003909601805460ff19169615159690961790955550929392505050565b5f8281526004602052604090206001015461053d81610c1b565b6105478383610c28565b505050565b6001600160a01b03811633146105bc5760405162461bcd60e51b815260206004820152602f60248201527f416363657373436f6e74726f6c3a2063616e206f6e6c792072656e6f756e636560448201526e103937b632b9903337b91039b2b63360891b6064820152608401610426565b6105c68282610cad565b5050565b5f670de0b6b3a7640000815b8451811015610609576105f58286838151811061046e5761046e6112f8565b91508061060181611320565b9150506105d6565b5061061d6106178683610b96565b84610b96565b95945050505050565b5f8061063484610258610b96565b90505f61064384610190610b96565b90505f6106508383610bbb565b6040805160808101825294855260208086019485528582018381525f606088018181526001600160a01b039c909c168152918290529190209451855592516001850155915160028401555094516003909101805460ff1916911515919091179055509192915050565b5f9182526004602090815260408084206001600160a01b0393909316845291905290205460ff1690565b5f825184511480156106f6575081518451145b61073b5760405162461bcd60e51b8152602060048201526016602482015275082e4e4c2f240d8cadccee8d0e640dad2e6dac2e8c6d60531b6044820152606401610426565b5f805b8551811015610782575f61076061047b888481518110610454576104546112f8565b905061076c8382610bbb565b925050808061077a90611320565b91505061073e565b50604051806080016040528082815260200161079d85610d13565b815260208082018490525f60409283018190529889526001808252988290208351815590830151988101989098558101516002880155606001516003909601805460ff19169615159690961790955550929392505050565b6107fd610d66565b5f61080781610c1b565b81518351146108675760405162461bcd60e51b815260206004820152602660248201527f526563697069656e747320616e6420616d6f756e7473206c656e677468206d696044820152650e6dac2e8c6d60d31b6064820152608401610426565b5f848152600660205260409020600481015460ff16156108c95760405162461bcd60e51b815260206004820152601d60248201527f446973747269627574696f6e20616c726561647920636f6d706c6574650000006044820152606401610426565b5f805b845181101561090c576108f8828683815181106108eb576108eb6112f8565b6020026020010151610bbb565b91508061090481611320565b9150506108cc565b506005546040516370a0823160e01b815230600482015282916001600160a01b0316906370a0823190602401602060405180830381865afa158015610953573d5f803e3d5ffd5b505050506040513d601f19601f820116820180604052508101906109779190611338565b10156109bc5760405162461bcd60e51b8152602060048201526014602482015273496e73756666696369656e74207265776172647360601b6044820152606401610426565b5f5b8551811015610b535760055486516001600160a01b039091169063a9059cbb908890849081106109f0576109f06112f8565b6020026020010151878481518110610a0a57610a0a6112f8565b60200260200101516040518363ffffffff1660e01b8152600401610a439291906001600160a01b03929092168252602082015260400190565b6020604051808303815f875af1158015610a5f573d5f803e3d5ffd5b505050506040513d601f19601f82011682018060405250810190610a83919061134f565b610ac15760405162461bcd60e51b815260206004820152600f60248201526e151c985b9cd9995c8819985a5b1959608a1b6044820152606401610426565b867f8fa6abe1348f6561b9a60363efc5793e820b343dce49d00e37d01644d9268a77878381518110610af557610af56112f8565b6020026020010151878481518110610b0f57610b0f6112f8565b6020026020010151604051610b399291906001600160a01b03929092168252602082015260400190565b60405180910390a280610b4b81611320565b9150506109be565b506003820155600401805460ff19166001179055506105476001600355565b5f82815260046020526040902060010154610b8c81610c1b565b6105478383610cad565b5f670de0b6b3a7640000610baa838561136e565b610bb49190611385565b9392505050565b5f610bb482846113a4565b5f81515f03610bd657505f919050565b670de0b6b3a76400005f5b8351811015610c1457610c008285838151811061046e5761046e6112f8565b915080610c0c81611320565b915050610be1565b5092915050565b610c258133610dbf565b50565b610c3282826106b9565b6105c6575f8281526004602090815260408083206001600160a01b03851684529091529020805460ff19166001179055610c693390565b6001600160a01b0316816001600160a01b0316837f2f8788117e7eff1d82e926ec794901d17c78024a50270940304540a733656f0d60405160405180910390a45050565b610cb782826106b9565b156105c6575f8281526004602090815260408083206001600160a01b0385168085529252808320805460ff1916905551339285917ff6391f5c32d9c69d2a47ea670b442974b53935d1edc7fd64eb21e047a839171b9190a45050565b5f81515f03610d2357505f919050565b5f805b8351811015610d5957610d45828583815181106108eb576108eb6112f8565b915080610d5181611320565b915050610d26565b508251610bb49082611385565b600260035403610db85760405162461bcd60e51b815260206004820152601f60248201527f5265656e7472616e637947756172643a207265656e7472616e742063616c6c006044820152606401610426565b6002600355565b610dc982826106b9565b6105c657610dd681610e18565b610de1836020610e2a565b604051602001610df29291906113d9565b60408051601f198184030181529082905262461bcd60e51b82526104269160040161144d565b60606103cc6001600160a01b03831660145b60605f610e3883600261136e565b610e439060026113a4565b67ffffffffffffffff811115610e5b57610e5b610fe7565b6040519080825280601f01601f191660200182016040528015610e85576020820181803683370190505b509050600360fc1b815f81518110610e9f57610e9f6112f8565b60200101906001600160f81b03191690815f1a905350600f60fb1b81600181518110610ecd57610ecd6112f8565b60200101906001600160f81b03191690815f1a9053505f610eef84600261136e565b610efa9060016113a4565b90505b6001811115610f71576f181899199a1a9b1b9c1cb0b131b232b360811b85600f1660108110610f2e57610f2e6112f8565b1a60f81b828281518110610f4457610f446112f8565b60200101906001600160f81b03191690815f1a90535060049490941c93610f6a8161147f565b9050610efd565b508315610bb45760405162461bcd60e51b815260206004820181905260248201527f537472696e67733a20686578206c656e67746820696e73756666696369656e746044820152606401610426565b5f60208284031215610fd0575f80fd5b81356001600160e01b031981168114610bb4575f80fd5b634e487b7160e01b5f52604160045260245ffd5b604051601f8201601f1916810167ffffffffffffffff8111828210171561102457611024610fe7565b604052919050565b5f67ffffffffffffffff82111561104557611045610fe7565b5060051b60200190565b5f82601f83011261105e575f80fd5b8135602061107361106e8361102c565b610ffb565b82815260059290921b84018101918181019086841115611091575f80fd5b8286015b848110156110ac5780358352918301918301611095565b509695505050505050565b5f805f80608085870312156110ca575f80fd5b84359350602085013567ffffffffffffffff808211156110e8575f80fd5b6110f48883890161104f565b94506040870135915080821115611109575f80fd5b6111158883890161104f565b9350606087013591508082111561112a575f80fd5b506111378782880161104f565b91505092959194509250565b5f60208284031215611153575f80fd5b5035919050565b80356001600160a01b0381168114611170575f80fd5b919050565b5f8060408385031215611186575f80fd5b823591506111966020840161115a565b90509250929050565b5f805f606084860312156111b1575f80fd5b83359250602084013567ffffffffffffffff8111156111ce575f80fd5b6111da8682870161104f565b925050604084013590509250925092565b5f602082840312156111fb575f80fd5b610bb48261115a565b5f805f60608486031215611216575f80fd5b61121f8461115a565b95602085013595506040909401359392505050565b5f805f60608486031215611246575f80fd5b8335925060208085013567ffffffffffffffff80821115611265575f80fd5b818701915087601f830112611278575f80fd5b813561128661106e8261102c565b81815260059190911b8301840190848101908a8311156112a4575f80fd5b938501935b828510156112c9576112ba8561115a565b825293850193908501906112a9565b9650505060408701359250808311156112e0575f80fd5b50506112ee8682870161104f565b9150509250925092565b634e487b7160e01b5f52603260045260245ffd5b634e487b7160e01b5f52601160045260245ffd5b5f600182016113315761133161130c565b5060010190565b5f60208284031215611348575f80fd5b5051919050565b5f6020828403121561135f575f80fd5b81518015158114610bb4575f80fd5b80820281158282048414176103cc576103cc61130c565b5f8261139f57634e487b7160e01b5f52601260045260245ffd5b500490565b808201808211156103cc576103cc61130c565b5f5b838110156113d15781810151838201526020016113b9565b50505f910152565b7f416363657373436f6e74726f6c3a206163636f756e742000000000000000000081525f83516114108160178501602088016113b7565b7001034b99036b4b9b9b4b733903937b6329607d1b60179184019182015283516114418160288401602088016113b7565b01602801949350505050565b602081525f825180602084015261146b8160408501602087016113b7565b601f01601f19169190910160400192915050565b5f8161148d5761148d61130c565b505f19019056fea26469706673582212208c45f0f845f90cf9eccfefd537959820c97039aa9f7178f7afe56db3f3b2119d64736f6c63430008140033",
  "immutableReferences": {},
  "source": "// SPDX-License-Identifier: MIT\npragma solidity ^0.8.0;\n\nimport \"@openzeppelin/contracts/security/ReentrancyGuard.sol\";\nimport \"@openzeppelin/contracts/access/AccessControl.sol\";\nimport \"@openzeppelin/contracts/token/ERC20/IERC20.sol\";\n\n/**\n * @title IRewardCalculator\n * @dev Interface for reward calculation functions\n */\ninterface IRewardCalculator {\n    function calculateNodeReward(address node, uint256 validationScore, uint256 executionScore) external returns (uint256);\n    function calculateChannelReward(bytes32 channelId, uint256[] memory weights, uint256[] memory scalingFactors, uint256[] memory performances) external returns (uint256);\n    function calculateNodesReward(uint256 baseConstant, uint256[] memory performanceFactors, uint256 contributionScore) external view returns (uint256);\n    function calculateAuxiliaryReward(bytes32 componentId, uint256[] memory weights, uint256[] memory criticalityFactors, uint256[] memory performances) external returns (uint256);\n}\n\n/**\n * @title RewardBase\n * @dev Base contract with common reward functionality\n */\ncontract RewardBase {\n    // Precision for fixed-point arithmetic\n    uint256 internal constant PRECISION = 1e18;\n    \n    // Weight constants\n    uint256 public constant W1_VALIDATION = 600; // 0.6 * PRECISION\n    uint256 public constant W2_EXECUTION = 400;  // 0.4 * PRECISION\n\n    function multiplyFixedPoint(uint256 a, uint256 b) internal pure returns (uint256) {\n        return (a * b) / PRECISION;\n    }\n    \n    function addFixedPoint(uint256 a, uint256 b) internal pure returns (uint256) {\n        return a + b;\n    }\n}\n\n/**\n * @title RewardCalculator\n * @dev Handles reward calculations for different components\n */\ncontract RewardCalculator is RewardBase, IRewardCalculator {\n    struct NodeReward {\n        uint256 validationReward;\n        uint256 executionReward;\n        uint256 totalReward;\n        bool isPaid;\n    }\n    \n    struct ChannelReward {\n        uint256 baseReward;\n        uint256 performanceMultiplier;\n        uint256 totalReward;\n        bool isPaid;\n    }\n    \n    struct AuxiliaryReward {\n        uint256 componentReward;\n        uint256 criticalityFactor;\n        uint256 totalReward;\n        bool isPaid;\n    }\n    \n    // Reward mappings\n    mapping(address => NodeReward) public nodeRewards;\n    mapping(bytes32 => ChannelReward) public channelRewards;\n    mapping(bytes32 => AuxiliaryReward) public auxiliaryRewards;\n    \n    /**\n     * @dev Calculates individual node reward\n     * Di = w1 * Validation + w2 * Execution\n     */\n    function calculateNodeReward(\n        address node,\n        uint256 validationScore,\n        uint256 executionScore\n    ) external override returns (uint256) {\n        uint256 validationComponent = multiplyFixedPoint(validationScore, W1_VALIDATION);\n        uint256 executionComponent = multiplyFixedPoint(executionScore, W2_EXECUTION);\n        \n        uint256 totalReward = addFixedPoint(validationComponent, executionComponent);\n        \n        nodeRewards[node] = NodeReward({\n            validationReward: validationComponent,\n            executionReward: executionComponent,\n            totalReward: totalReward,\n            isPaid: false\n        });\n        \n        return totalReward;\n    }\n\n    function calculatePerformanceMultiplier(\n        uint256[] memory performances\n    ) internal pure returns (uint256) {\n        if (performances.length == 0) return 0;\n        \n        uint256 sum = 0;\n        for (uint256 i = 0; i < performances.length; i++) {\n            sum = addFixedPoint(sum, performances[i]);\n        }\n        return sum / performances.length;\n    }\n    \n    function calculateCriticalityFactor(\n        uint256[] memory factors\n    ) internal pure returns (uint256) {\n        if (factors.length == 0) return 0;\n        \n        uint256 product = PRECISION;\n        for (uint256 i = 0; i < factors.length; i++) {\n            product = multiplyFixedPoint(product, factors[i]);\n        }\n        return product;\n    }\n\n    function calculateChannelReward(\n        bytes32 channelId,\n        uint256[] memory weights,\n        uint256[] memory scalingFactors,\n        uint256[] memory performances\n    ) external override returns (uint256) {\n        require(\n            weights.length == scalingFactors.length &&\n            weights.length == performances.length,\n            \"Array lengths mismatch\"\n        );\n        \n        uint256 totalReward = 0;\n        \n        for (uint256 i = 0; i < weights.length; i++) {\n            uint256 componentReward = multiplyFixedPoint(\n                multiplyFixedPoint(weights[i], scalingFactors[i]),\n                performances[i]\n            );\n            totalReward = addFixedPoint(totalReward, componentReward);\n        }\n        \n        channelRewards[channelId] = ChannelReward({\n            baseReward: totalReward,\n            performanceMultiplier: calculatePerformanceMultiplier(performances),\n            totalReward: totalReward,\n            isPaid: false\n        });\n        \n        return totalReward;\n    }\n\n    function calculateNodesReward(\n        uint256 baseConstant,\n        uint256[] memory performanceFactors,\n        uint256 contributionScore\n    ) external pure override returns (uint256) {\n        uint256 performance = PRECISION;\n        \n        for (uint256 i = 0; i < performanceFactors.length; i++) {\n            performance = multiplyFixedPoint(performance, performanceFactors[i]);\n        }\n        \n        return multiplyFixedPoint(\n            multiplyFixedPoint(baseConstant, performance),\n            contributionScore\n        );\n    }\n\n    function calculateAuxiliaryReward(\n        bytes32 componentId,\n        uint256[] memory weights,\n        uint256[] memory criticalityFactors,\n        uint256[] memory performances\n    ) external override returns (uint256) {\n        require(\n            weights.length == criticalityFactors.length &&\n            weights.length == performances.length,\n            \"Array lengths mismatch\"\n        );\n        \n        uint256 totalReward = 0;\n        \n        for (uint256 i = 0; i < weights.length; i++) {\n            uint256 componentReward = multiplyFixedPoint(\n                multiplyFixedPoint(weights[i], criticalityFactors[i]),\n                performances[i]\n            );\n            totalReward = addFixedPoint(totalReward, componentReward);\n        }\n        \n        auxiliaryRewards[componentId] = AuxiliaryReward({\n            componentReward: totalReward,\n            criticalityFactor: calculateCriticalityFactor(criticalityFactors),\n            totalReward: totalReward,\n            isPaid: false\n        });\n        \n        return totalReward;\n    }\n}\n\n/**\n * @title RewardDistributor\n * @dev Manages the distribution of rewards across different components\n */\ncontract RewardDistributor is RewardCalculator, ReentrancyGuard, AccessControl {\n    IERC20 public rewardToken;\n    \n    struct DistributionState {\n        uint256 channelShare;\n        uint256 nodeShare;\n        uint256 auxiliaryShare;\n        uint256 totalDistributed;\n        bool isComplete;\n    }\n    \n    mapping(bytes32 => DistributionState) public distributions;\n    \n    event RewardDistributed(\n        bytes32 indexed distributionId,\n        address recipient,\n        uint256 amount\n    );\n    \n    constructor(address _rewardToken) {\n        rewardToken = IERC20(_rewardToken);\n        _setupRole(DEFAULT_ADMIN_ROLE, msg.sender);\n    }\n    \n    function distributeRewards(\n        bytes32 distributionId,\n        address[] memory recipients,\n        uint256[] memory amounts\n    ) external nonReentrant onlyRole(DEFAULT_ADMIN_ROLE) {\n        require(\n            recipients.length == amounts.length,\n            \"Recipients and amounts length mismatch\"\n        );\n        \n        DistributionState storage distribution = distributions[distributionId];\n        require(!distribution.isComplete, \"Distribution already complete\");\n        \n        uint256 totalAmount = 0;\n        for (uint256 i = 0; i < amounts.length; i++) {\n            totalAmount = addFixedPoint(totalAmount, amounts[i]);\n        }\n        \n        require(\n            rewardToken.balanceOf(address(this)) >= totalAmount,\n            \"Insufficient rewards\"\n        );\n        \n        for (uint256 i = 0; i < recipients.length; i++) {\n            require(\n                rewardToken.transfer(recipients[i], amounts[i]),\n                \"Transfer failed\"\n            );\n            emit RewardDistributed(distributionId, recipients[i], amounts[i]);\n        }\n        \n        distribution.totalDistributed = totalAmount;\n        distribution.isComplete = true;\n    }\n}",
  "sourcePath": "C:\\Users\\Bonsu\\Documents\\CLEANER PRODUCTION\\renewalclimateproject\\ClimateProjectFull\\contracts\\passchain\\RewardCalculator.sol",
  "compiler": {
    "name": "solc",
    "version": "0.8.20+commit.a1b79de6.Emscripten.clang"
  },
  "schemaVersion": "3.4.16",
  "updatedAt": "2025-02-21T06:43:13.991Z",
  "devdoc": {
    "details": "Manages the distribution of rewards across different components",
    "events": {
      "RoleAdminChanged(bytes32,bytes32,bytes32)": {
        "details": "Emitted when `newAdminRole` is set as ``role``'s admin role, replacing `previousAdminRole` `DEFAULT_ADMIN_ROLE` is the starting admin for all roles, despite {RoleAdminChanged} not being emitted signaling this. _Available since v3.1._"
      },
      "RoleGranted(bytes32,address,address)": {
        "details": "Emitted when `account` is granted `role`. `sender` is the account that originated the contract call, an admin role bearer except when using {AccessControl-_setupRole}."
      },
      "RoleRevoked(bytes32,address,address)": {
        "details": "Emitted when `account` is revoked `role`. `sender` is the account that originated the contract call:   - if using `revokeRole`, it is the admin role bearer   - if using `renounceRole`, it is the role bearer (i.e. `account`)"
      }
    },
    "kind": "dev",
    "methods": {
      "calculateNodeReward(address,uint256,uint256)": {
        "details": "Calculates individual node reward Di = w1 * Validation + w2 * Execution"
      },
      "getRoleAdmin(bytes32)": {
        "details": "Returns the admin role that controls `role`. See {grantRole} and {revokeRole}. To change a role's admin, use {_setRoleAdmin}."
      },
      "grantRole(bytes32,address)": {
        "details": "Grants `role` to `account`. If `account` had not been already granted `role`, emits a {RoleGranted} event. Requirements: - the caller must have ``role``'s admin role. May emit a {RoleGranted} event."
      },
      "hasRole(bytes32,address)": {
        "details": "Returns `true` if `account` has been granted `role`."
      },
      "renounceRole(bytes32,address)": {
        "details": "Revokes `role` from the calling account. Roles are often managed via {grantRole} and {revokeRole}: this function's purpose is to provide a mechanism for accounts to lose their privileges if they are compromised (such as when a trusted device is misplaced). If the calling account had been revoked `role`, emits a {RoleRevoked} event. Requirements: - the caller must be `account`. May emit a {RoleRevoked} event."
      },
      "revokeRole(bytes32,address)": {
        "details": "Revokes `role` from `account`. If `account` had been granted `role`, emits a {RoleRevoked} event. Requirements: - the caller must have ``role``'s admin role. May emit a {RoleRevoked} event."
      },
      "supportsInterface(bytes4)": {
        "details": "See {IERC165-supportsInterface}."
      }
    },
    "title": "RewardDistributor",
    "version": 1
  },
  "userdoc": {
    "kind": "user",
    "methods": {},
    "version": 1
  }
}