{
  "contractName": "TemperatureRenewalContract",
  "abi": [
    {
      "anonymous": false,
      "inputs": [
        {
          "indexed": false,
          "internalType": "string",
          "name": "city",
          "type": "string"
        },
        {
          "indexed": false,
          "internalType": "string",
          "name": "sector",
          "type": "string"
        },
        {
          "indexed": false,
          "internalType": "uint256",
          "name": "value",
          "type": "uint256"
        },
        {
          "indexed": false,
          "internalType": "uint256",
          "name": "timestamp",
          "type": "uint256"
        }
      ],
      "name": "EmissionRecorded",
      "type": "event"
    },
    {
      "anonymous": false,
      "inputs": [
        {
          "indexed": false,
          "internalType": "string",
          "name": "city",
          "type": "string"
        },
        {
          "indexed": false,
          "internalType": "uint256",
          "name": "tempReduction",
          "type": "uint256"
        },
        {
          "indexed": false,
          "internalType": "uint256",
          "name": "timestamp",
          "type": "uint256"
        }
      ],
      "name": "RenewalExecuted",
      "type": "event"
    },
    {
      "anonymous": false,
      "inputs": [
        {
          "indexed": false,
          "internalType": "string",
          "name": "city",
          "type": "string"
        },
        {
          "indexed": false,
          "internalType": "uint256",
          "name": "temperature",
          "type": "uint256"
        },
        {
          "indexed": false,
          "internalType": "uint256",
          "name": "timestamp",
          "type": "uint256"
        }
      ],
      "name": "TemperatureUpdated",
      "type": "event"
    },
    {
      "inputs": [],
      "name": "PRECISION",
      "outputs": [
        {
          "internalType": "uint256",
          "name": "",
          "type": "uint256"
        }
      ],
      "stateMutability": "view",
      "type": "function"
    },
    {
      "inputs": [],
      "name": "SECONDS_PER_TICK",
      "outputs": [
        {
          "internalType": "uint256",
          "name": "",
          "type": "uint256"
        }
      ],
      "stateMutability": "view",
      "type": "function"
    },
    {
      "inputs": [
        {
          "internalType": "string",
          "name": "",
          "type": "string"
        },
        {
          "internalType": "uint256",
          "name": "",
          "type": "uint256"
        }
      ],
      "name": "cityEmissions",
      "outputs": [
        {
          "internalType": "string",
          "name": "sector",
          "type": "string"
        },
        {
          "internalType": "uint256",
          "name": "value",
          "type": "uint256"
        },
        {
          "internalType": "uint256",
          "name": "timestamp",
          "type": "uint256"
        }
      ],
      "stateMutability": "view",
      "type": "function"
    },
    {
      "inputs": [
        {
          "internalType": "string",
          "name": "",
          "type": "string"
        }
      ],
      "name": "cityTemperatures",
      "outputs": [
        {
          "internalType": "uint256",
          "name": "currentTemp",
          "type": "uint256"
        },
        {
          "internalType": "uint256",
          "name": "targetTemp",
          "type": "uint256"
        },
        {
          "internalType": "uint256",
          "name": "tickSize",
          "type": "uint256"
        },
        {
          "internalType": "uint256",
          "name": "lastUpdateTime",
          "type": "uint256"
        }
      ],
      "stateMutability": "view",
      "type": "function"
    },
    {
      "inputs": [
        {
          "internalType": "string",
          "name": "city",
          "type": "string"
        }
      ],
      "name": "calculateRequiredTicks",
      "outputs": [
        {
          "internalType": "uint256",
          "name": "",
          "type": "uint256"
        }
      ],
      "stateMutability": "view",
      "type": "function"
    },
    {
      "inputs": [
        {
          "internalType": "string",
          "name": "city",
          "type": "string"
        },
        {
          "internalType": "uint256",
          "name": "startTime",
          "type": "uint256"
        },
        {
          "internalType": "uint256",
          "name": "endTime",
          "type": "uint256"
        }
      ],
      "name": "calculateCarbonIntensity",
      "outputs": [
        {
          "internalType": "uint256",
          "name": "",
          "type": "uint256"
        }
      ],
      "stateMutability": "view",
      "type": "function"
    },
    {
      "inputs": [
        {
          "internalType": "string",
          "name": "city",
          "type": "string"
        },
        {
          "internalType": "string",
          "name": "sector",
          "type": "string"
        },
        {
          "internalType": "uint256",
          "name": "value",
          "type": "uint256"
        },
        {
          "internalType": "uint256",
          "name": "timestamp",
          "type": "uint256"
        }
      ],
      "name": "recordEmission",
      "outputs": [],
      "stateMutability": "nonpayable",
      "type": "function"
    },
    {
      "inputs": [
        {
          "internalType": "string",
          "name": "city",
          "type": "string"
        }
      ],
      "name": "executeRenewal",
      "outputs": [
        {
          "internalType": "uint256",
          "name": "",
          "type": "uint256"
        }
      ],
      "stateMutability": "nonpayable",
      "type": "function"
    }
  ],
  "bytecode": "0x608060405234801561000f575f80fd5b50610acd8061001d5f395ff3fe608060405234801561000f575f80fd5b5060043610610085575f3560e01c8063ce5b027a11610058578063ce5b027a146100e6578063dfddb96814610145578063e9ac1bd21461014f578063fc9d4b0114610162575f80fd5b80636ec0eb2314610089578063764867c3146100af578063a7463a6c146100c4578063aaf5eb68146100d7575b5f80fd5b61009c6100973660046106ba565b610184565b6040519081526020015b60405180910390f35b6100c26100bd3660046106f4565b610241565b005b61009c6100d2366004610763565b6102fc565b61009c670de0b6b3a764000081565b6101256100f43660046106ba565b80516020818301810180515f8252928201919093012091528054600182015460028301546003909301549192909184565b6040805194855260208501939093529183015260608201526080016100a6565b61009c6201518081565b61009c61015d3660046106ba565b6103f4565b6101756101703660046107ad565b610546565b6040516100a69392919061083c565b5f805f836040516101959190610860565b908152602001604051809103902090505f815f0154116101f35760405162461bcd60e51b815260206004820152601460248201527310da5d1e481b9bdd081a5b9a5d1a585b1a5e995960621b60448201526064015b60405180910390fd5b600181015481541161020757505f92915050565b600281015460018201548254670de0b6b3a7640000916102269161088f565b61023091906108a8565b61023a91906108bf565b9392505050565b6040805160608101825284815260208101849052808201839052905160019061026b908790610860565b9081526040516020918190038201902080546001810182555f918252919020825183926003029091019081906102a19082610964565b50602082015181600101556040820151816002015550507fbb90e45a32236fbe666ed8d21ce8fb3bad69cadb5a96f8f30fbe1ad5a0fa75b3858585856040516102ed9493929190610a20565b60405180910390a15050505050565b5f8060018560405161030e9190610860565b908152602001604051809103902090505f805f5b83548110156103d1578684828154811061033e5761033e610a58565b905f5260205f209060030201600201541015801561037d57508584828154811061036a5761036a610a58565b905f5260205f2090600302016002015411155b156103bf5783818154811061039457610394610a58565b905f5260205f20906003020160010154836103af9190610a6c565b9250816103bb81610a7f565b9250505b806103c981610a7f565b915050610322565b505f81116103df575f6103e9565b6103e981836108bf565b979650505050505050565b5f805f836040516104059190610860565b908152602001604051809103902090505f815f01541161045e5760405162461bcd60e51b815260206004820152601460248201527310da5d1e481b9bdd081a5b9a5d1a585b1a5e995960621b60448201526064016101ea565b5f81600301544261046f919061088f565b90505f61047f62015180836108bf565b90505f81118015610494575060018301548354115b1561053c575f8360020154826104aa91906108a8565b9050836001015481855f01546104c0919061088f565b10156104da57600184015484546104d7919061088f565b90505b80845f015f8282546104ec919061088f565b909155505042600385018190556040517fd5e0bd0804c09fb414425fe938a2879515563132994bb27ca4145cae20b41c3a9161052b918991859161083c565b60405180910390a195945050505050565b505f949350505050565b81516020818401810180516001825292820191850191909120919052805482908110610570575f80fd5b905f5260205f2090600302015f9150915050805f018054610590906108de565b80601f01602080910402602001604051908101604052809291908181526020018280546105bc906108de565b80156106075780601f106105de57610100808354040283529160200191610607565b820191905f5260205f20905b8154815290600101906020018083116105ea57829003601f168201915b5050505050908060010154908060020154905083565b634e487b7160e01b5f52604160045260245ffd5b5f82601f830112610640575f80fd5b813567ffffffffffffffff8082111561065b5761065b61061d565b604051601f8301601f19908116603f011681019082821181831017156106835761068361061d565b8160405283815286602085880101111561069b575f80fd5b836020870160208301375f602085830101528094505050505092915050565b5f602082840312156106ca575f80fd5b813567ffffffffffffffff8111156106e0575f80fd5b6106ec84828501610631565b949350505050565b5f805f8060808587031215610707575f80fd5b843567ffffffffffffffff8082111561071e575f80fd5b61072a88838901610631565b9550602087013591508082111561073f575f80fd5b5061074c87828801610631565b949794965050505060408301359260600135919050565b5f805f60608486031215610775575f80fd5b833567ffffffffffffffff81111561078b575f80fd5b61079786828701610631565b9660208601359650604090950135949350505050565b5f80604083850312156107be575f80fd5b823567ffffffffffffffff8111156107d4575f80fd5b6107e085828601610631565b95602094909401359450505050565b5f5b838110156108095781810151838201526020016107f1565b50505f910152565b5f81518084526108288160208601602086016107ef565b601f01601f19169290920160200192915050565b606081525f61084e6060830186610811565b60208301949094525060400152919050565b5f82516108718184602087016107ef565b9190910192915050565b634e487b7160e01b5f52601160045260245ffd5b818103818111156108a2576108a261087b565b92915050565b80820281158282048414176108a2576108a261087b565b5f826108d957634e487b7160e01b5f52601260045260245ffd5b500490565b600181811c908216806108f257607f821691505b60208210810361091057634e487b7160e01b5f52602260045260245ffd5b50919050565b601f82111561095f575f81815260208120601f850160051c8101602086101561093c5750805b601f850160051c820191505b8181101561095b57828155600101610948565b5050505b505050565b815167ffffffffffffffff81111561097e5761097e61061d565b6109928161098c84546108de565b84610916565b602080601f8311600181146109c5575f84156109ae5750858301515b5f19600386901b1c1916600185901b17855561095b565b5f85815260208120601f198616915b828110156109f3578886015182559484019460019091019084016109d4565b5085821015610a1057878501515f19600388901b60f8161c191681555b5050505050600190811b01905550565b608081525f610a326080830187610811565b8281036020840152610a448187610811565b604084019590955250506060015292915050565b634e487b7160e01b5f52603260045260245ffd5b808201808211156108a2576108a261087b565b5f60018201610a9057610a9061087b565b506001019056fea2646970667358221220b7fff40c4cad1d885a57f30026cb76fa60e105542990867b48628fe742b9808864736f6c63430008140033",
  "immutableReferences": {},
  "source": "// SPDX-License-Identifier: MIT\npragma solidity ^0.8.0;\n\n// Interface for existing credit market contract\ninterface ICreditMarketContract {\n    function requestCarbonCredits(uint256 amount) external;\n    function getPrice() external view returns (uint256);\n}\n\ncontract TemperatureRenewalContract {\n    struct CityTemperature {\n        uint256 currentTemp;     // Current temperature in Kelvin * 1e18\n        uint256 targetTemp;      // Target temperature in Kelvin * 1e18\n        uint256 tickSize;        // Temperature reduction per tick * 1e18\n        uint256 lastUpdateTime;  // Last update timestamp\n        mapping(uint256 => uint256) historicalTemps; // timestamp -> temperature\n    }\n\n    struct EmissionData {\n        string sector;\n        uint256 value;\n        uint256 timestamp;\n    }\n\n    mapping(string => CityTemperature) public cityTemperatures;\n    mapping(string => EmissionData[]) public cityEmissions;\n    \n    uint256 public constant SECONDS_PER_TICK = 1 days;\n    uint256 public constant PRECISION = 1e18;\n    \n    event TemperatureUpdated(string city, uint256 temperature, uint256 timestamp);\n    event EmissionRecorded(string city, string sector, uint256 value, uint256 timestamp);\n    event RenewalExecuted(string city, uint256 tempReduction, uint256 timestamp);\n\n    // Calculate number of ticks needed for temperature reduction\n    function calculateRequiredTicks(string memory city) public view returns (uint256) {\n        CityTemperature storage cityTemp = cityTemperatures[city];\n        require(cityTemp.currentTemp > 0, \"City not initialized\");\n        \n        if (cityTemp.currentTemp <= cityTemp.targetTemp) return 0;\n        \n        return ((cityTemp.currentTemp - cityTemp.targetTemp) * PRECISION) / cityTemp.tickSize;\n    }\n\n    // Calculate carbon intensity for a city over a time period\n    function calculateCarbonIntensity(\n        string memory city,\n        uint256 startTime,\n        uint256 endTime\n    ) public view returns (uint256) {\n        EmissionData[] storage emissions = cityEmissions[city];\n        uint256 totalEmissions = 0;\n        uint256 dataPoints = 0;\n        \n        for (uint256 i = 0; i < emissions.length; i++) {\n            if (emissions[i].timestamp >= startTime && emissions[i].timestamp <= endTime) {\n                totalEmissions += emissions[i].value;\n                dataPoints++;\n            }\n        }\n        \n        return dataPoints > 0 ? totalEmissions / dataPoints : 0;\n    }\n\n    // Record new emission data\n    function recordEmission(\n        string memory city,\n        string memory sector,\n        uint256 value,\n        uint256 timestamp\n    ) external {\n        EmissionData memory newData = EmissionData(sector, value, timestamp);\n        cityEmissions[city].push(newData);\n        emit EmissionRecorded(city, sector, value, timestamp);\n    }\n\n    // Execute renewal theory-based temperature reduction\n    function executeRenewal(string memory city) external returns (uint256) {\n        CityTemperature storage cityTemp = cityTemperatures[city];\n        require(cityTemp.currentTemp > 0, \"City not initialized\");\n        \n        uint256 timePassed = block.timestamp - cityTemp.lastUpdateTime;\n        uint256 ticks = timePassed / SECONDS_PER_TICK;\n        \n        if (ticks > 0 && cityTemp.currentTemp > cityTemp.targetTemp) {\n            uint256 tempReduction = ticks * cityTemp.tickSize;\n            \n            // Ensure we don't reduce below target\n            if (cityTemp.currentTemp - tempReduction < cityTemp.targetTemp) {\n                tempReduction = cityTemp.currentTemp - cityTemp.targetTemp;\n            }\n            \n            cityTemp.currentTemp -= tempReduction;\n            cityTemp.lastUpdateTime = block.timestamp;\n            \n            emit RenewalExecuted(city, tempReduction, block.timestamp);\n            return tempReduction;\n        }\n        \n        return 0;\n    }\n}\n\ncontract ClimateReductionContract {\n    struct ReductionTarget {\n        uint256 initialEmissions;\n        uint256 targetEmissions;\n        uint256 deadline;\n        uint256 currentEmissions;\n        bool achieved;\n    }\n\n    mapping(string => ReductionTarget) public cityTargets;\n    ICreditMarketContract public creditMarket;\n    \n    event TargetAchieved(string city, uint256 timestamp);\n    event ReductionUpdated(string city, uint256 newEmissions, uint256 timestamp);\n\n    constructor(address _creditMarket) {\n        creditMarket = ICreditMarketContract(_creditMarket);\n    }\n\n    // Set reduction target for a city\n    function setReductionTarget(\n        string memory city,\n        uint256 initial,\n        uint256 target,\n        uint256 timeframe\n    ) external {\n        cityTargets[city] = ReductionTarget({\n            initialEmissions: initial,\n            targetEmissions: target,\n            deadline: block.timestamp + timeframe,\n            currentEmissions: initial,\n            achieved: false\n        });\n    }\n\n    // Update current emissions and check target achievement\n    function updateEmissions(string memory city, uint256 newEmissions) external {\n        ReductionTarget storage target = cityTargets[city];\n        require(target.initialEmissions > 0, \"Target not set\");\n        \n        target.currentEmissions = newEmissions;\n        emit ReductionUpdated(city, newEmissions, block.timestamp);\n        \n        if (newEmissions <= target.targetEmissions && !target.achieved) {\n            target.achieved = true;\n            emit TargetAchieved(city, block.timestamp);\n        }\n    }\n\n    // Calculate required carbon credits based on current vs target emissions\n    function calculateRequiredCredits(string memory city) public view returns (uint256) {\n        ReductionTarget storage target = cityTargets[city];\n        if (target.currentEmissions <= target.targetEmissions) return 0;\n        \n        return (target.currentEmissions - target.targetEmissions) * creditMarket.getPrice();\n    }\n}\n",
  "sourcePath": "C:\\Users\\Bonsu\\Documents\\CLEANER PRODUCTION\\renewalclimateproject\\ClimateProjectFull\\contracts\\climate\\TemperatureRenewalContract.sol",
  "compiler": {
    "name": "solc",
    "version": "0.8.20+commit.a1b79de6.Emscripten.clang"
  },
  "schemaVersion": "3.4.16",
  "updatedAt": "2025-02-21T06:43:13.904Z",
  "devdoc": {
    "kind": "dev",
    "methods": {},
    "version": 1
  },
  "userdoc": {
    "kind": "user",
    "methods": {},
    "version": 1
  }
}