{
  "contractName": "TransactionRelay",
  "abi": [
    {
      "anonymous": false,
      "inputs": [
        {
          "indexed": true,
          "internalType": "bytes32",
          "name": "chainId",
          "type": "bytes32"
        },
        {
          "indexed": true,
          "internalType": "bytes32",
          "name": "txId",
          "type": "bytes32"
        }
      ],
      "name": "ChainNotified",
      "type": "event"
    },
    {
      "anonymous": false,
      "inputs": [
        {
          "indexed": true,
          "internalType": "bytes32",
          "name": "role",
          "type": "bytes32"
        },
        {
          "indexed": true,
          "internalType": "bytes32",
          "name": "previousAdminRole",
          "type": "bytes32"
        },
        {
          "indexed": true,
          "internalType": "bytes32",
          "name": "newAdminRole",
          "type": "bytes32"
        }
      ],
      "name": "RoleAdminChanged",
      "type": "event"
    },
    {
      "anonymous": false,
      "inputs": [
        {
          "indexed": true,
          "internalType": "bytes32",
          "name": "role",
          "type": "bytes32"
        },
        {
          "indexed": true,
          "internalType": "address",
          "name": "account",
          "type": "address"
        },
        {
          "indexed": true,
          "internalType": "address",
          "name": "sender",
          "type": "address"
        }
      ],
      "name": "RoleGranted",
      "type": "event"
    },
    {
      "anonymous": false,
      "inputs": [
        {
          "indexed": true,
          "internalType": "bytes32",
          "name": "role",
          "type": "bytes32"
        },
        {
          "indexed": true,
          "internalType": "address",
          "name": "account",
          "type": "address"
        },
        {
          "indexed": true,
          "internalType": "address",
          "name": "sender",
          "type": "address"
        }
      ],
      "name": "RoleRevoked",
      "type": "event"
    },
    {
      "anonymous": false,
      "inputs": [
        {
          "indexed": true,
          "internalType": "bytes32",
          "name": "txId",
          "type": "bytes32"
        }
      ],
      "name": "StateUpdateComplete",
      "type": "event"
    },
    {
      "anonymous": false,
      "inputs": [
        {
          "indexed": true,
          "internalType": "bytes32",
          "name": "txId",
          "type": "bytes32"
        },
        {
          "indexed": false,
          "internalType": "bytes32",
          "name": "merkleRoot",
          "type": "bytes32"
        }
      ],
      "name": "StateUpdateInitiated",
      "type": "event"
    },
    {
      "anonymous": false,
      "inputs": [
        {
          "indexed": true,
          "internalType": "bytes32",
          "name": "txId",
          "type": "bytes32"
        },
        {
          "indexed": true,
          "internalType": "address",
          "name": "targetBridge",
          "type": "address"
        },
        {
          "indexed": false,
          "internalType": "bytes32",
          "name": "merkleRoot",
          "type": "bytes32"
        }
      ],
      "name": "TransactionRelayed",
      "type": "event"
    },
    {
      "anonymous": false,
      "inputs": [
        {
          "indexed": true,
          "internalType": "bytes32",
          "name": "txId",
          "type": "bytes32"
        },
        {
          "indexed": false,
          "internalType": "bool",
          "name": "isValid",
          "type": "bool"
        }
      ],
      "name": "ValidationComplete",
      "type": "event"
    },
    {
      "anonymous": false,
      "inputs": [
        {
          "indexed": true,
          "internalType": "bytes32",
          "name": "txId",
          "type": "bytes32"
        },
        {
          "indexed": false,
          "internalType": "address",
          "name": "validator",
          "type": "address"
        },
        {
          "indexed": false,
          "internalType": "uint256",
          "name": "stake",
          "type": "uint256"
        }
      ],
      "name": "ValidationSubmitted",
      "type": "event"
    },
    {
      "inputs": [],
      "name": "DEFAULT_ADMIN_ROLE",
      "outputs": [
        {
          "internalType": "bytes32",
          "name": "",
          "type": "bytes32"
        }
      ],
      "stateMutability": "view",
      "type": "function"
    },
    {
      "inputs": [],
      "name": "MIN_STAKE",
      "outputs": [
        {
          "internalType": "uint256",
          "name": "",
          "type": "uint256"
        }
      ],
      "stateMutability": "view",
      "type": "function"
    },
    {
      "inputs": [],
      "name": "VALIDATION_THRESHOLD",
      "outputs": [
        {
          "internalType": "uint256",
          "name": "",
          "type": "uint256"
        }
      ],
      "stateMutability": "view",
      "type": "function"
    },
    {
      "inputs": [],
      "name": "VALIDATOR_ROLE",
      "outputs": [
        {
          "internalType": "bytes32",
          "name": "",
          "type": "bytes32"
        }
      ],
      "stateMutability": "view",
      "type": "function"
    },
    {
      "inputs": [
        {
          "internalType": "bytes32",
          "name": "",
          "type": "bytes32"
        }
      ],
      "name": "chainStates",
      "outputs": [
        {
          "internalType": "bytes32",
          "name": "",
          "type": "bytes32"
        }
      ],
      "stateMutability": "view",
      "type": "function"
    },
    {
      "inputs": [
        {
          "internalType": "bytes32",
          "name": "role",
          "type": "bytes32"
        }
      ],
      "name": "getRoleAdmin",
      "outputs": [
        {
          "internalType": "bytes32",
          "name": "",
          "type": "bytes32"
        }
      ],
      "stateMutability": "view",
      "type": "function"
    },
    {
      "inputs": [
        {
          "internalType": "bytes32",
          "name": "role",
          "type": "bytes32"
        },
        {
          "internalType": "address",
          "name": "account",
          "type": "address"
        }
      ],
      "name": "grantRole",
      "outputs": [],
      "stateMutability": "nonpayable",
      "type": "function"
    },
    {
      "inputs": [
        {
          "internalType": "bytes32",
          "name": "role",
          "type": "bytes32"
        },
        {
          "internalType": "address",
          "name": "account",
          "type": "address"
        }
      ],
      "name": "hasRole",
      "outputs": [
        {
          "internalType": "bool",
          "name": "",
          "type": "bool"
        }
      ],
      "stateMutability": "view",
      "type": "function"
    },
    {
      "inputs": [
        {
          "internalType": "bytes32",
          "name": "",
          "type": "bytes32"
        }
      ],
      "name": "relayedTransactions",
      "outputs": [
        {
          "internalType": "bytes32",
          "name": "txId",
          "type": "bytes32"
        },
        {
          "internalType": "bytes",
          "name": "originalMetadata",
          "type": "bytes"
        },
        {
          "internalType": "bytes",
          "name": "enrichedData",
          "type": "bytes"
        },
        {
          "internalType": "uint256",
          "name": "relayTime",
          "type": "uint256"
        },
        {
          "internalType": "bool",
          "name": "isComplete",
          "type": "bool"
        }
      ],
      "stateMutability": "view",
      "type": "function"
    },
    {
      "inputs": [
        {
          "internalType": "bytes32",
          "name": "role",
          "type": "bytes32"
        },
        {
          "internalType": "address",
          "name": "account",
          "type": "address"
        }
      ],
      "name": "renounceRole",
      "outputs": [],
      "stateMutability": "nonpayable",
      "type": "function"
    },
    {
      "inputs": [
        {
          "internalType": "bytes32",
          "name": "role",
          "type": "bytes32"
        },
        {
          "internalType": "address",
          "name": "account",
          "type": "address"
        }
      ],
      "name": "revokeRole",
      "outputs": [],
      "stateMutability": "nonpayable",
      "type": "function"
    },
    {
      "inputs": [
        {
          "internalType": "bytes32",
          "name": "",
          "type": "bytes32"
        }
      ],
      "name": "stateUpdates",
      "outputs": [
        {
          "internalType": "bytes32",
          "name": "txId",
          "type": "bytes32"
        },
        {
          "internalType": "bytes32",
          "name": "merkleRoot",
          "type": "bytes32"
        },
        {
          "internalType": "uint256",
          "name": "updateTime",
          "type": "uint256"
        },
        {
          "internalType": "bool",
          "name": "isComplete",
          "type": "bool"
        }
      ],
      "stateMutability": "view",
      "type": "function"
    },
    {
      "inputs": [
        {
          "internalType": "bytes32",
          "name": "txId",
          "type": "bytes32"
        },
        {
          "internalType": "bool",
          "name": "approval",
          "type": "bool"
        }
      ],
      "name": "submitValidation",
      "outputs": [],
      "stateMutability": "nonpayable",
      "type": "function"
    },
    {
      "inputs": [
        {
          "internalType": "bytes4",
          "name": "interfaceId",
          "type": "bytes4"
        }
      ],
      "name": "supportsInterface",
      "outputs": [
        {
          "internalType": "bool",
          "name": "",
          "type": "bool"
        }
      ],
      "stateMutability": "view",
      "type": "function"
    },
    {
      "inputs": [
        {
          "internalType": "bytes32",
          "name": "txId",
          "type": "bytes32"
        },
        {
          "internalType": "bytes32[]",
          "name": "affectedChains",
          "type": "bytes32[]"
        },
        {
          "internalType": "bytes",
          "name": "txData",
          "type": "bytes"
        }
      ],
      "name": "updateState",
      "outputs": [],
      "stateMutability": "nonpayable",
      "type": "function"
    },
    {
      "inputs": [
        {
          "internalType": "bytes32",
          "name": "",
          "type": "bytes32"
        }
      ],
      "name": "validationStates",
      "outputs": [
        {
          "internalType": "uint256",
          "name": "totalStake",
          "type": "uint256"
        },
        {
          "internalType": "uint256",
          "name": "approvalStake",
          "type": "uint256"
        },
        {
          "internalType": "uint256",
          "name": "startTime",
          "type": "uint256"
        },
        {
          "internalType": "bool",
          "name": "isComplete",
          "type": "bool"
        }
      ],
      "stateMutability": "view",
      "type": "function"
    },
    {
      "inputs": [
        {
          "internalType": "address",
          "name": "",
          "type": "address"
        }
      ],
      "name": "validatorStakes",
      "outputs": [
        {
          "internalType": "uint256",
          "name": "",
          "type": "uint256"
        }
      ],
      "stateMutability": "view",
      "type": "function"
    },
    {
      "inputs": [
        {
          "internalType": "bytes32",
          "name": "txId",
          "type": "bytes32"
        },
        {
          "internalType": "address",
          "name": "targetBridge",
          "type": "address"
        },
        {
          "internalType": "bytes",
          "name": "originalMetadata",
          "type": "bytes"
        },
        {
          "internalType": "bytes",
          "name": "enrichedData",
          "type": "bytes"
        }
      ],
      "name": "relayTransaction",
      "outputs": [],
      "stateMutability": "nonpayable",
      "type": "function"
    }
  ],
  "bytecode": "0x608060405234801561000f575f80fd5b5061001a5f33610024565b60016005556100ce565b61002e8282610032565b5050565b5f828152602081815260408083206001600160a01b038516845290915290205460ff1661002e575f828152602081815260408083206001600160a01b03851684529091529020805460ff1916600117905561008a3390565b6001600160a01b0316816001600160a01b0316837f2f8788117e7eff1d82e926ec794901d17c78024a50270940304540a733656f0d60405160405180910390a45050565b61148a806100db5f395ff3fe608060405234801561000f575f80fd5b5060043610610111575f3560e01c8063a217fddf1161009e578063c49baebe1161006e578063c49baebe146102a0578063c84fdb34146102c7578063cb1c2b5c146102e6578063d4ed89a7146102f6578063d547741f1461031a575f80fd5b8063a217fddf14610254578063aa7355781461025b578063abfc56921461027a578063bb2a1edf1461028d575f80fd5b80632e73288e116100e45780632e73288e146101cf5780632f2ff15d1461020657806336568abe1461021b5780634c7b87101461022e57806391d1485414610241575f80fd5b806301ffc9a71461011557806314552f261461013d5780631a16b4de14610153578063248a9ca3146101ad575b5f80fd5b610128610123366004610e9a565b61032d565b60405190151581526020015b60405180910390f35b610145604681565b604051908152602001610134565b61018b610161366004610ec1565b600160208190525f9182526040909120805491810154600282015460039092015490919060ff1684565b6040805194855260208501939093529183015215156060820152608001610134565b6101456101bb366004610ec1565b5f9081526020819052604090206001015490565b61018b6101dd366004610ec1565b60036020525f908152604090208054600182015460048301546005909301549192909160ff1684565b610219610214366004610ef3565b610363565b005b610219610229366004610ef3565b61038c565b61021961023c366004610f1d565b61040f565b61012861024f366004610ef3565b610630565b6101455f81565b610145610269366004610f4f565b60026020525f908152604090205481565b610219610288366004611019565b610658565b61021961029b3660046110e5565b61076a565b6101457f21702c8af46127c7fa207f89d0b0a8441bb32959a0ac7df790e9ab1a25c9892681565b6101456102d5366004610ec1565b60046020525f908152604090205481565b610145683635c9adc5dea0000081565b610309610304366004610ec1565b610921565b6040516101349594939291906111ab565b610219610328366004610ef3565b610a5f565b5f6001600160e01b03198216637965db0b60e01b148061035d57506301ffc9a760e01b6001600160e01b03198316145b92915050565b5f8281526020819052604090206001015461037d81610a83565b6103878383610a90565b505050565b6001600160a01b03811633146104015760405162461bcd60e51b815260206004820152602f60248201527f416363657373436f6e74726f6c3a2063616e206f6e6c792072656e6f756e636560448201526e103937b632b9903337b91039b2b63360891b60648201526084015b60405180910390fd5b61040b8282610b13565b5050565b6104397f21702c8af46127c7fa207f89d0b0a8441bb32959a0ac7df790e9ab1a25c9892633610630565b6104775760405162461bcd60e51b815260206004820152600f60248201526e2737ba1030903b30b634b230ba37b960891b60448201526064016103f8565b5f828152600160205260409020600381015460ff16156104cf5760405162461bcd60e51b815260206004820152601360248201527256616c69646174696f6e20636f6d706c65746560681b60448201526064016103f8565b335f90815260026020526040902054683635c9adc5dea0000081101561052c5760405162461bcd60e51b8152602060048201526012602482015271496e73756666696369656e74207374616b6560701b60448201526064016103f8565b821561054b5780826001015f8282546105459190611203565b90915550505b80825f015f82825461055d9190611203565b9091555050335f8181526004840160209081526040918290208490558151928352820183905285917f65586f927709161fa53840018659ef9717fe9682f2a187c28291a97e9654edd0910160405180910390a281541561062a57815460018301545f91906105cc906064611216565b6105d6919061122d565b9050604681106106285760038301805460ff1916600190811790915560405190815285907fa668712c0b8f59efdf687dfbc672df6d8a1ab624717f5dfd9a794099f3ad48849060200160405180910390a25b505b50505050565b5f918252602082815260408084206001600160a01b0393909316845291905290205460ff1690565b5f61066281610a83565b5f848152600360205260409020600581015460ff16156106bc5760405162461bcd60e51b815260206004820152601560248201527453746174652075706461746520636f6d706c65746560581b60448201526064016103f8565b825160208401205f906001830181905585519091506106e49060028401906020880190610e3d565b5042600483015560405181815286907ff903ab9b67310e1eee6c0feb17a6774bdd3728e4511de359c0f5321a497f56189060200160405180910390a25f5b85518110156107615761074f8682815181106107405761074061124c565b60200260200101518884610b77565b8061075981611260565b915050610722565b50505050505050565b610772610bdc565b5f61077c81610a83565b5f8581526001602052604090206003015460ff166107d45760405162461bcd60e51b815260206004820152601560248201527456616c69646174696f6e20696e636f6d706c65746560581b60448201526064016103f8565b5f8581526003602052604090206005015460ff166108345760405162461bcd60e51b815260206004820152601760248201527f53746174652075706461746520696e636f6d706c65746500000000000000000060448201526064016103f8565b5f858152600660205260409020600481015460ff16156108885760405162461bcd60e51b815260206004820152600f60248201526e105b1c9958591e481c995b185e5959608a1b60448201526064016103f8565b8581556001810161089985826112fd565b50600281016108a884826112fd565b504260038281019190915560048201805460ff191660019081179091555f88815260209283526040908190209091015490519081526001600160a01b0387169188917f642c18c6f5d375169f26014ec96688654b5e670cd9c3ddffa3363f91be04dcf0910160405180910390a3505061062a6001600555565b60066020525f90815260409020805460018201805491929161094290611278565b80601f016020809104026020016040519081016040528092919081815260200182805461096e90611278565b80156109b95780601f10610990576101008083540402835291602001916109b9565b820191905f5260205f20905b81548152906001019060200180831161099c57829003601f168201915b5050505050908060020180546109ce90611278565b80601f01602080910402602001604051908101604052809291908181526020018280546109fa90611278565b8015610a455780601f10610a1c57610100808354040283529160200191610a45565b820191905f5260205f20905b815481529060010190602001808311610a2857829003601f168201915b50505050600383015460049093015491929160ff16905085565b5f82815260208190526040902060010154610a7981610a83565b6103878383610b13565b610a8d8133610c35565b50565b610a9a8282610630565b61040b575f828152602081815260408083206001600160a01b03851684529091529020805460ff19166001179055610acf3390565b6001600160a01b0316816001600160a01b0316837f2f8788117e7eff1d82e926ec794901d17c78024a50270940304540a733656f0d60405160405180910390a45050565b610b1d8282610630565b1561040b575f828152602081815260408083206001600160a01b0385168085529252808320805460ff1916905551339285917ff6391f5c32d9c69d2a47ea670b442974b53935d1edc7fd64eb21e047a839171b9190a45050565b5f8381526004602090815260408083208490558483526003808352818420878552908101909252808320805460ff19166001179055519091849186917fe2a2dfa98e1694b1f68d6a2d6c8a2527485ba4557afa6af2a6d79cc0d565480091a350505050565b600260055403610c2e5760405162461bcd60e51b815260206004820152601f60248201527f5265656e7472616e637947756172643a207265656e7472616e742063616c6c0060448201526064016103f8565b6002600555565b610c3f8282610630565b61040b57610c4c81610c8e565b610c57836020610ca0565b604051602001610c689291906113b9565b60408051601f198184030181529082905262461bcd60e51b82526103f89160040161142d565b606061035d6001600160a01b03831660145b60605f610cae836002611216565b610cb9906002611203565b67ffffffffffffffff811115610cd157610cd1610f68565b6040519080825280601f01601f191660200182016040528015610cfb576020820181803683370190505b509050600360fc1b815f81518110610d1557610d1561124c565b60200101906001600160f81b03191690815f1a905350600f60fb1b81600181518110610d4357610d4361124c565b60200101906001600160f81b03191690815f1a9053505f610d65846002611216565b610d70906001611203565b90505b6001811115610de7576f181899199a1a9b1b9c1cb0b131b232b360811b85600f1660108110610da457610da461124c565b1a60f81b828281518110610dba57610dba61124c565b60200101906001600160f81b03191690815f1a90535060049490941c93610de08161143f565b9050610d73565b508315610e365760405162461bcd60e51b815260206004820181905260248201527f537472696e67733a20686578206c656e67746820696e73756666696369656e7460448201526064016103f8565b9392505050565b828054828255905f5260205f20908101928215610e76579160200282015b82811115610e76578251825591602001919060010190610e5b565b50610e82929150610e86565b5090565b5b80821115610e82575f8155600101610e87565b5f60208284031215610eaa575f80fd5b81356001600160e01b031981168114610e36575f80fd5b5f60208284031215610ed1575f80fd5b5035919050565b80356001600160a01b0381168114610eee575f80fd5b919050565b5f8060408385031215610f04575f80fd5b82359150610f1460208401610ed8565b90509250929050565b5f8060408385031215610f2e575f80fd5b8235915060208301358015158114610f44575f80fd5b809150509250929050565b5f60208284031215610f5f575f80fd5b610e3682610ed8565b634e487b7160e01b5f52604160045260245ffd5b604051601f8201601f1916810167ffffffffffffffff81118282101715610fa557610fa5610f68565b604052919050565b5f82601f830112610fbc575f80fd5b813567ffffffffffffffff811115610fd657610fd6610f68565b610fe9601f8201601f1916602001610f7c565b818152846020838601011115610ffd575f80fd5b816020850160208301375f918101602001919091529392505050565b5f805f6060848603121561102b575f80fd5b8335925060208085013567ffffffffffffffff8082111561104a575f80fd5b818701915087601f83011261105d575f80fd5b81358181111561106f5761106f610f68565b8060051b61107e858201610f7c565b918252838101850191858101908b841115611097575f80fd5b948601945b838610156110b55785358252948601949086019061109c565b975050505060408701359250808311156110cd575f80fd5b50506110db86828701610fad565b9150509250925092565b5f805f80608085870312156110f8575f80fd5b8435935061110860208601610ed8565b9250604085013567ffffffffffffffff80821115611124575f80fd5b61113088838901610fad565b93506060870135915080821115611145575f80fd5b5061115287828801610fad565b91505092959194509250565b5f5b83811015611178578181015183820152602001611160565b50505f910152565b5f815180845261119781602086016020860161115e565b601f01601f19169290920160200192915050565b85815260a060208201525f6111c360a0830187611180565b82810360408401526111d58187611180565b606084019590955250509015156080909101529392505050565b634e487b7160e01b5f52601160045260245ffd5b8082018082111561035d5761035d6111ef565b808202811582820484141761035d5761035d6111ef565b5f8261124757634e487b7160e01b5f52601260045260245ffd5b500490565b634e487b7160e01b5f52603260045260245ffd5b5f60018201611271576112716111ef565b5060010190565b600181811c9082168061128c57607f821691505b6020821081036112aa57634e487b7160e01b5f52602260045260245ffd5b50919050565b601f821115610387575f81815260208120601f850160051c810160208610156112d65750805b601f850160051c820191505b818110156112f5578281556001016112e2565b505050505050565b815167ffffffffffffffff81111561131757611317610f68565b61132b816113258454611278565b846112b0565b602080601f83116001811461135e575f84156113475750858301515b5f19600386901b1c1916600185901b1785556112f5565b5f85815260208120601f198616915b8281101561138c5788860151825594840194600190910190840161136d565b50858210156113a957878501515f19600388901b60f8161c191681555b5050505050600190811b01905550565b7f416363657373436f6e74726f6c3a206163636f756e742000000000000000000081525f83516113f081601785016020880161115e565b7001034b99036b4b9b9b4b733903937b6329607d1b601791840191820152835161142181602884016020880161115e565b01602801949350505050565b602081525f610e366020830184611180565b5f8161144d5761144d6111ef565b505f19019056fea26469706673582212207aba8698b4ff7ff4af82a32b7436a79a8715a2627701cc3ba18bcd820dff154e64736f6c63430008140033",
  "immutableReferences": {},
  "source": "// SPDX-License-Identifier: MIT\npragma solidity ^0.8.0;\n\nimport \"@openzeppelin/contracts/security/ReentrancyGuard.sol\";\nimport \"@openzeppelin/contracts/access/AccessControl.sol\";\n\n/**\n * @title MerkleTreeLib\n * @dev Library for Merkle tree operations\n */\nlibrary MerkleTreeLib {\n    struct MerkleTree {\n        bytes32 root;\n        mapping(bytes32 => bool) verified;\n    }\n\n    function verifyProof(\n        bytes32 root,\n        bytes32 leaf,\n        bytes32[] memory proof\n    ) internal pure returns (bool) {\n        bytes32 computedHash = leaf;\n        \n        for (uint256 i = 0; i < proof.length; i++) {\n            computedHash = hashPair(computedHash, proof[i]);\n        }\n        \n        return computedHash == root;\n    }\n    \n    function hashPair(bytes32 a, bytes32 b) internal pure returns (bytes32) {\n        return keccak256(abi.encodePacked(a, b));\n    }\n}\n\n/**\n * @title RelayTypes\n * @dev Core data structures for relay chain operations\n */\nlibrary RelayTypes {\n    struct Transaction {\n        bytes32 id;\n        address sourceBridge;\n        address targetBridge;\n        bytes32 originalTxHash;\n        bytes metadata;\n        bytes32 merkleRoot;\n        uint256 timestamp;\n        bool isValidated;\n        bool isStateUpdated;\n        bool isRelayed;\n    }\n\n    struct StateUpdate {\n        bytes32 txId;\n        bytes32 merkleRoot;\n        bytes32[] affectedChains;\n        mapping(bytes32 => bool) notificationStatus;\n        uint256 updateTime;\n        bool isComplete;\n    }\n\n    struct ValidationState {\n        uint256 totalStake;\n        uint256 approvalStake;\n        uint256 startTime;\n        bool isComplete;\n        mapping(address => uint256) validatorStakes;\n    }\n}\n\n/**\n * @title ProofOfStakeValidator\n * @dev Manages PoS validation for relay chain\n */\ncontract ProofOfStakeValidator is AccessControl {\n    using RelayTypes for RelayTypes.Transaction;\n    using RelayTypes for RelayTypes.ValidationState;\n    using MerkleTreeLib for MerkleTreeLib.MerkleTree;\n\n    bytes32 public constant VALIDATOR_ROLE = keccak256(\"VALIDATOR_ROLE\");\n    \n    mapping(bytes32 => RelayTypes.ValidationState) public validationStates;\n    mapping(address => uint256) public validatorStakes;\n    \n    uint256 public constant MIN_STAKE = 1000 ether;\n    uint256 public constant VALIDATION_THRESHOLD = 70; // 70% stake approval needed\n    \n    event ValidationSubmitted(bytes32 indexed txId, address validator, uint256 stake);\n    event ValidationComplete(bytes32 indexed txId, bool isValid);\n    \n    constructor() {\n        _setupRole(DEFAULT_ADMIN_ROLE, msg.sender);\n    }\n    \n    function submitValidation(\n        bytes32 txId,\n        bool approval\n    ) external {\n        require(hasRole(VALIDATOR_ROLE, msg.sender), \"Not a validator\");\n        \n        RelayTypes.ValidationState storage validationState = validationStates[txId];\n        require(!validationState.isComplete, \"Validation complete\");\n        \n        uint256 stake = validatorStakes[msg.sender];\n        require(stake >= MIN_STAKE, \"Insufficient stake\");\n        \n        if (approval) {\n            validationState.approvalStake += stake;\n        }\n        validationState.totalStake += stake;\n        validationState.validatorStakes[msg.sender] = stake;\n        \n        emit ValidationSubmitted(txId, msg.sender, stake);\n        \n        // Check if validation threshold is met\n        if (validationState.totalStake > 0) {\n            uint256 approvalPercentage = (validationState.approvalStake * 100) / \n                                        validationState.totalStake;\n            \n            if (approvalPercentage >= VALIDATION_THRESHOLD) {\n                validationState.isComplete = true;\n                emit ValidationComplete(txId, true);\n            }\n        }\n    }\n}\n\n/**\n * @title StateManager\n * @dev Handles state updates and Merkle tree management\n */\ncontract StateManager is ProofOfStakeValidator {\n    using MerkleTreeLib for MerkleTreeLib.MerkleTree;\n    \n    mapping(bytes32 => RelayTypes.StateUpdate) public stateUpdates;\n    mapping(bytes32 => bytes32) public chainStates;\n    \n    event StateUpdateInitiated(bytes32 indexed txId, bytes32 merkleRoot);\n    event ChainNotified(bytes32 indexed chainId, bytes32 indexed txId);\n    event StateUpdateComplete(bytes32 indexed txId);\n    \n    function updateState(\n        bytes32 txId,\n        bytes32[] memory affectedChains,\n        bytes memory txData\n    ) external onlyRole(DEFAULT_ADMIN_ROLE) {\n        RelayTypes.StateUpdate storage update = stateUpdates[txId];\n        require(!update.isComplete, \"State update complete\");\n        \n        bytes32 merkleRoot = createMerkleRoot(txData);\n        update.merkleRoot = merkleRoot;\n        update.affectedChains = affectedChains;\n        update.updateTime = block.timestamp;\n        \n        emit StateUpdateInitiated(txId, merkleRoot);\n        \n        for (uint256 i = 0; i < affectedChains.length; i++) {\n            notifyChain(affectedChains[i], txId, merkleRoot);\n        }\n    }\n    \n    function notifyChain(\n        bytes32 chainId,\n        bytes32 txId,\n        bytes32 merkleRoot\n    ) internal {\n        chainStates[chainId] = merkleRoot;\n        RelayTypes.StateUpdate storage update = stateUpdates[txId];\n        update.notificationStatus[chainId] = true;\n        \n        emit ChainNotified(chainId, txId);\n    }\n    \n    function createMerkleRoot(\n        bytes memory data\n    ) internal pure returns (bytes32) {\n        return keccak256(data);\n    }\n}\n\n/**\n * @title TransactionRelay\n * @dev Manages final transaction relay to receiving blockchain\n */\ncontract TransactionRelay is StateManager, ReentrancyGuard {\n    struct RelayedTransaction {\n        bytes32 txId;\n        bytes originalMetadata;\n        bytes enrichedData;\n        uint256 relayTime;\n        bool isComplete;\n    }\n    \n    mapping(bytes32 => RelayedTransaction) public relayedTransactions;\n    \n    event TransactionRelayed(\n        bytes32 indexed txId,\n        address indexed targetBridge,\n        bytes32 merkleRoot\n    );\n    \n    function relayTransaction(\n        bytes32 txId,\n        address targetBridge,\n        bytes memory originalMetadata,\n        bytes memory enrichedData\n    ) external nonReentrant onlyRole(DEFAULT_ADMIN_ROLE) {\n        require(\n            validationStates[txId].isComplete,\n            \"Validation incomplete\"\n        );\n        require(\n            stateUpdates[txId].isComplete,\n            \"State update incomplete\"\n        );\n        \n        RelayedTransaction storage relayedTx = relayedTransactions[txId];\n        require(!relayedTx.isComplete, \"Already relayed\");\n        \n        relayedTx.txId = txId;\n        relayedTx.originalMetadata = originalMetadata;\n        relayedTx.enrichedData = enrichedData;\n        relayedTx.relayTime = block.timestamp;\n        relayedTx.isComplete = true;\n        \n        emit TransactionRelayed(\n            txId,\n            targetBridge,\n            stateUpdates[txId].merkleRoot\n        );\n    }\n}\n\n/**\n * @title ReceivingBlockchainInterface\n * @dev Interface for receiving blockchain to process relayed transactions\n */\ncontract ReceivingBlockchainInterface is ReentrancyGuard {\n    struct ReceivedTransaction {\n        bytes32 txId;\n        bytes32 merkleRoot;\n        bytes metadata;\n        bytes enrichedData;\n        uint256 receiveTime;\n        bool isProcessed;\n    }\n    \n    mapping(bytes32 => ReceivedTransaction) public receivedTransactions;\n    \n    event TransactionReceived(bytes32 indexed txId, bytes32 merkleRoot);\n    event TransactionProcessed(bytes32 indexed txId);\n    \n    function receiveTransaction(\n        bytes32 txId,\n        bytes32 merkleRoot,\n        bytes memory metadata,\n        bytes memory enrichedData\n    ) external nonReentrant {\n        ReceivedTransaction storage receivedTx = receivedTransactions[txId];\n        require(!receivedTx.isProcessed, \"Already processed\");\n        \n        receivedTx.txId = txId;\n        receivedTx.merkleRoot = merkleRoot;\n        receivedTx.metadata = metadata;\n        receivedTx.enrichedData = enrichedData;\n        receivedTx.receiveTime = block.timestamp;\n        \n        emit TransactionReceived(txId, merkleRoot);\n        \n        processTransaction(txId);\n    }\n    \n    function processTransaction(bytes32 txId) internal {\n        ReceivedTransaction storage receivedTx = receivedTransactions[txId];\n        receivedTx.isProcessed = true;\n        \n        emit TransactionProcessed(txId);\n    }\n}",
  "sourcePath": "C:\\Users\\Bonsu\\Documents\\CLEANER PRODUCTION\\renewalclimateproject\\ClimateProjectFull\\contracts\\relay\\RelayChain.sol",
  "compiler": {
    "name": "solc",
    "version": "0.8.20+commit.a1b79de6.Emscripten.clang"
  },
  "schemaVersion": "3.4.16",
  "updatedAt": "2025-02-21T06:43:14.032Z",
  "devdoc": {
    "details": "Manages final transaction relay to receiving blockchain",
    "events": {
      "RoleAdminChanged(bytes32,bytes32,bytes32)": {
        "details": "Emitted when `newAdminRole` is set as ``role``'s admin role, replacing `previousAdminRole` `DEFAULT_ADMIN_ROLE` is the starting admin for all roles, despite {RoleAdminChanged} not being emitted signaling this. _Available since v3.1._"
      },
      "RoleGranted(bytes32,address,address)": {
        "details": "Emitted when `account` is granted `role`. `sender` is the account that originated the contract call, an admin role bearer except when using {AccessControl-_setupRole}."
      },
      "RoleRevoked(bytes32,address,address)": {
        "details": "Emitted when `account` is revoked `role`. `sender` is the account that originated the contract call:   - if using `revokeRole`, it is the admin role bearer   - if using `renounceRole`, it is the role bearer (i.e. `account`)"
      }
    },
    "kind": "dev",
    "methods": {
      "getRoleAdmin(bytes32)": {
        "details": "Returns the admin role that controls `role`. See {grantRole} and {revokeRole}. To change a role's admin, use {_setRoleAdmin}."
      },
      "grantRole(bytes32,address)": {
        "details": "Grants `role` to `account`. If `account` had not been already granted `role`, emits a {RoleGranted} event. Requirements: - the caller must have ``role``'s admin role. May emit a {RoleGranted} event."
      },
      "hasRole(bytes32,address)": {
        "details": "Returns `true` if `account` has been granted `role`."
      },
      "renounceRole(bytes32,address)": {
        "details": "Revokes `role` from the calling account. Roles are often managed via {grantRole} and {revokeRole}: this function's purpose is to provide a mechanism for accounts to lose their privileges if they are compromised (such as when a trusted device is misplaced). If the calling account had been revoked `role`, emits a {RoleRevoked} event. Requirements: - the caller must be `account`. May emit a {RoleRevoked} event."
      },
      "revokeRole(bytes32,address)": {
        "details": "Revokes `role` from `account`. If `account` had been granted `role`, emits a {RoleRevoked} event. Requirements: - the caller must have ``role``'s admin role. May emit a {RoleRevoked} event."
      },
      "supportsInterface(bytes4)": {
        "details": "See {IERC165-supportsInterface}."
      }
    },
    "title": "TransactionRelay",
    "version": 1
  },
  "userdoc": {
    "kind": "user",
    "methods": {},
    "version": 1
  }
}