{
  "contractName": "UncertaintyAnalytics",
  "abi": [
    {
      "inputs": [],
      "stateMutability": "nonpayable",
      "type": "constructor"
    },
    {
      "anonymous": false,
      "inputs": [
        {
          "indexed": false,
          "internalType": "uint256",
          "name": "requestId",
          "type": "uint256"
        },
        {
          "indexed": false,
          "internalType": "uint256",
          "name": "cost",
          "type": "uint256"
        },
        {
          "indexed": false,
          "internalType": "string",
          "name": "costType",
          "type": "string"
        }
      ],
      "name": "CostRecorded",
      "type": "event"
    },
    {
      "anonymous": false,
      "inputs": [
        {
          "indexed": true,
          "internalType": "uint256",
          "name": "requestId",
          "type": "uint256"
        },
        {
          "indexed": false,
          "internalType": "address",
          "name": "requester",
          "type": "address"
        }
      ],
      "name": "RequestSubmitted",
      "type": "event"
    },
    {
      "anonymous": false,
      "inputs": [
        {
          "indexed": true,
          "internalType": "uint256",
          "name": "requestId",
          "type": "uint256"
        },
        {
          "indexed": false,
          "internalType": "address",
          "name": "responder",
          "type": "address"
        }
      ],
      "name": "ResponseReceived",
      "type": "event"
    },
    {
      "anonymous": false,
      "inputs": [
        {
          "indexed": true,
          "internalType": "uint256",
          "name": "requestId",
          "type": "uint256"
        },
        {
          "indexed": false,
          "internalType": "string",
          "name": "reason",
          "type": "string"
        }
      ],
      "name": "TransactionFailed",
      "type": "event"
    },
    {
      "inputs": [],
      "name": "BASE_COST",
      "outputs": [
        {
          "internalType": "uint256",
          "name": "",
          "type": "uint256"
        }
      ],
      "stateMutability": "view",
      "type": "function"
    },
    {
      "inputs": [],
      "name": "MAX_PROCESSING_TIME",
      "outputs": [
        {
          "internalType": "uint256",
          "name": "",
          "type": "uint256"
        }
      ],
      "stateMutability": "view",
      "type": "function"
    },
    {
      "inputs": [],
      "name": "dataHoldingCost",
      "outputs": [
        {
          "internalType": "uint256",
          "name": "",
          "type": "uint256"
        }
      ],
      "stateMutability": "view",
      "type": "function"
    },
    {
      "inputs": [],
      "name": "disruptionLevel",
      "outputs": [
        {
          "internalType": "uint256",
          "name": "",
          "type": "uint256"
        }
      ],
      "stateMutability": "view",
      "type": "function"
    },
    {
      "inputs": [],
      "name": "escalationLevel",
      "outputs": [
        {
          "internalType": "uint256",
          "name": "",
          "type": "uint256"
        }
      ],
      "stateMutability": "view",
      "type": "function"
    },
    {
      "inputs": [],
      "name": "failedTransactionCount",
      "outputs": [
        {
          "internalType": "uint256",
          "name": "",
          "type": "uint256"
        }
      ],
      "stateMutability": "view",
      "type": "function"
    },
    {
      "inputs": [],
      "name": "owner",
      "outputs": [
        {
          "internalType": "address",
          "name": "",
          "type": "address"
        }
      ],
      "stateMutability": "view",
      "type": "function"
    },
    {
      "inputs": [],
      "name": "requestCount",
      "outputs": [
        {
          "internalType": "uint256",
          "name": "",
          "type": "uint256"
        }
      ],
      "stateMutability": "view",
      "type": "function"
    },
    {
      "inputs": [
        {
          "internalType": "address",
          "name": "",
          "type": "address"
        }
      ],
      "name": "requesterStats",
      "outputs": [
        {
          "internalType": "uint256",
          "name": "",
          "type": "uint256"
        }
      ],
      "stateMutability": "view",
      "type": "function"
    },
    {
      "inputs": [
        {
          "internalType": "uint256",
          "name": "",
          "type": "uint256"
        }
      ],
      "name": "requests",
      "outputs": [
        {
          "internalType": "uint256",
          "name": "id",
          "type": "uint256"
        },
        {
          "internalType": "address",
          "name": "requester",
          "type": "address"
        },
        {
          "internalType": "uint256",
          "name": "timestamp",
          "type": "uint256"
        },
        {
          "internalType": "uint256",
          "name": "confirmationTime",
          "type": "uint256"
        },
        {
          "internalType": "uint256",
          "name": "executionTime",
          "type": "uint256"
        },
        {
          "internalType": "uint256",
          "name": "cost",
          "type": "uint256"
        },
        {
          "internalType": "bool",
          "name": "isValid",
          "type": "bool"
        },
        {
          "internalType": "bool",
          "name": "isProcessed",
          "type": "bool"
        },
        {
          "internalType": "enum UncertaintyAnalytics.Status",
          "name": "status",
          "type": "uint8"
        }
      ],
      "stateMutability": "view",
      "type": "function"
    },
    {
      "inputs": [
        {
          "internalType": "address",
          "name": "",
          "type": "address"
        }
      ],
      "name": "responderStats",
      "outputs": [
        {
          "internalType": "uint256",
          "name": "",
          "type": "uint256"
        }
      ],
      "stateMutability": "view",
      "type": "function"
    },
    {
      "inputs": [],
      "name": "responseCount",
      "outputs": [
        {
          "internalType": "uint256",
          "name": "",
          "type": "uint256"
        }
      ],
      "stateMutability": "view",
      "type": "function"
    },
    {
      "inputs": [
        {
          "internalType": "uint256",
          "name": "",
          "type": "uint256"
        }
      ],
      "name": "responses",
      "outputs": [
        {
          "internalType": "uint256",
          "name": "requestId",
          "type": "uint256"
        },
        {
          "internalType": "address",
          "name": "responder",
          "type": "address"
        },
        {
          "internalType": "uint256",
          "name": "timestamp",
          "type": "uint256"
        },
        {
          "internalType": "uint256",
          "name": "processingTime",
          "type": "uint256"
        },
        {
          "internalType": "uint256",
          "name": "cost",
          "type": "uint256"
        },
        {
          "internalType": "bool",
          "name": "isValid",
          "type": "bool"
        },
        {
          "internalType": "enum UncertaintyAnalytics.Status",
          "name": "status",
          "type": "uint8"
        }
      ],
      "stateMutability": "view",
      "type": "function"
    },
    {
      "inputs": [],
      "name": "totalTransactionCost",
      "outputs": [
        {
          "internalType": "uint256",
          "name": "",
          "type": "uint256"
        }
      ],
      "stateMutability": "view",
      "type": "function"
    },
    {
      "inputs": [],
      "name": "unavailabilityCost",
      "outputs": [
        {
          "internalType": "uint256",
          "name": "",
          "type": "uint256"
        }
      ],
      "stateMutability": "view",
      "type": "function"
    },
    {
      "stateMutability": "payable",
      "type": "receive"
    },
    {
      "inputs": [],
      "name": "submitRequest",
      "outputs": [
        {
          "internalType": "uint256",
          "name": "",
          "type": "uint256"
        }
      ],
      "stateMutability": "payable",
      "type": "function"
    },
    {
      "inputs": [
        {
          "internalType": "uint256",
          "name": "_requestId",
          "type": "uint256"
        }
      ],
      "name": "submitResponse",
      "outputs": [],
      "stateMutability": "nonpayable",
      "type": "function"
    },
    {
      "inputs": [
        {
          "internalType": "uint256",
          "name": "_requestId",
          "type": "uint256"
        }
      ],
      "name": "calculateUnavailabilityCost",
      "outputs": [],
      "stateMutability": "nonpayable",
      "type": "function"
    },
    {
      "inputs": [
        {
          "internalType": "uint256",
          "name": "_requestId",
          "type": "uint256"
        },
        {
          "internalType": "string",
          "name": "_reason",
          "type": "string"
        }
      ],
      "name": "recordFailedTransaction",
      "outputs": [],
      "stateMutability": "nonpayable",
      "type": "function"
    },
    {
      "inputs": [
        {
          "internalType": "uint256",
          "name": "_cost",
          "type": "uint256"
        }
      ],
      "name": "updateDataHoldingCost",
      "outputs": [],
      "stateMutability": "nonpayable",
      "type": "function"
    },
    {
      "inputs": [],
      "name": "getMetrics",
      "outputs": [
        {
          "internalType": "uint256",
          "name": "avgProcessingTime",
          "type": "uint256"
        },
        {
          "internalType": "uint256",
          "name": "successRate",
          "type": "uint256"
        },
        {
          "internalType": "uint256",
          "name": "totalCost",
          "type": "uint256"
        },
        {
          "internalType": "uint256",
          "name": "disruptionCount",
          "type": "uint256"
        }
      ],
      "stateMutability": "view",
      "type": "function"
    },
    {
      "inputs": [
        {
          "internalType": "uint256",
          "name": "_level",
          "type": "uint256"
        }
      ],
      "name": "updateDisruptionLevel",
      "outputs": [],
      "stateMutability": "nonpayable",
      "type": "function"
    },
    {
      "inputs": [
        {
          "internalType": "uint256",
          "name": "_level",
          "type": "uint256"
        }
      ],
      "name": "updateEscalationLevel",
      "outputs": [],
      "stateMutability": "nonpayable",
      "type": "function"
    },
    {
      "inputs": [],
      "name": "withdraw",
      "outputs": [],
      "stateMutability": "nonpayable",
      "type": "function"
    }
  ],
  "bytecode": "0x608060405234801561000f575f80fd5b505f805460ff60a01b1933166001600160a81b03199091161781556001819055600281905560038190556004819055600581905560068190556007819055600855610fc88061005d5f395ff3fe60806040526004361061014a575f3560e01c8063875075bd116100b3578063b988e0411161006d578063b988e041146103da578063bada5cd9146103ef578063c5597bbb1461040e578063d1ba2da514610423578063ec4c81ed14610438578063ed35d7e514610463575f80fd5b8063875075bd1461032057806387b10f76146103355780638da5cb5b1461034a578063a00d952614610380578063b08148571461039a578063b084517d146103af575f80fd5b8063648f5b4d11610104578063648f5b4d146101ef578063661aab2a1461020e5780636bb7d5851461022d5780637606f7811461024c57806381d12c58146102805780638655793f1461030b575f80fd5b80633bd67b5a146101555780633ccfd60b146101765780634835f6161461018a57806357c48131146101a9578063599606c1146101d25780635badbe4c146101da575f80fd5b3661015157005b5f80fd5b348015610160575f80fd5b5061017461016f366004610d1b565b6104da565b005b348015610181575f80fd5b5061017461059a565b348015610195575f80fd5b506101746101a4366004610d1b565b61065a565b3480156101b4575f80fd5b506101bf6201518081565b6040519081526020015b60405180910390f35b6101bf610702565b3480156101e5575f80fd5b506101bf60015481565b3480156101fa575f80fd5b50610174610209366004610d32565b610929565b348015610219575f80fd5b50610174610228366004610d1b565b6109c6565b348015610238575f80fd5b50610174610247366004610d1b565b6109f4565b348015610257575f80fd5b50610260610a22565b6040805194855260208501939093529183015260608201526080016101c9565b34801561028b575f80fd5b506102f661029a366004610d1b565b60096020525f9081526040902080546001820154600283015460038401546004850154600586015460069096015494956001600160a01b03909416949293919290919060ff808216916101008104821691620100009091041689565b6040516101c999989796959493929190610ddb565b348015610316575f80fd5b506101bf60085481565b34801561032b575f80fd5b506101bf60065481565b348015610340575f80fd5b506101bf60045481565b348015610355575f80fd5b505f54610368906001600160a01b031681565b6040516001600160a01b0390911681526020016101c9565b34801561038b575f80fd5b506101bf66038d7ea4c6800081565b3480156103a5575f80fd5b506101bf60075481565b3480156103ba575f80fd5b506101bf6103c9366004610e3a565b600b6020525f908152604090205481565b3480156103e5575f80fd5b506101bf60035481565b3480156103fa575f80fd5b50610174610409366004610d1b565b610abe565b348015610419575f80fd5b506101bf60025481565b34801561042e575f80fd5b506101bf60055481565b348015610443575f80fd5b506101bf610452366004610e3a565b600c6020525f908152604090205481565b34801561046e575f80fd5b506104c761047d366004610d1b565b600a6020525f908152604090208054600182015460028301546003840154600485015460059095015493946001600160a01b03909316939192909160ff8082169161010090041687565b6040516101c99796959493929190610e67565b5f818152600960205260409020600681015460ff166105325760405162461bcd60e51b815260206004820152600f60248201526e125b9d985b1a59081c995c5d595cdd608a1b60448201526064015b60405180910390fd5b5f8160020154426105439190610ec7565b905062015180811115610595575f6201518066038d7ea4c680006105678285610ec7565b6105719190610ee0565b61057b9190610ef7565b90508060065f82825461058e9190610f16565b9091555050505b505050565b5f546001600160a01b031633146105c35760405162461bcd60e51b815260040161052990610f29565b5f80546040516001600160a01b039091169047908381818185875af1925050503d805f811461060d576040519150601f19603f3d011682016040523d82523d5f602084013e610612565b606091505b50509050806106575760405162461bcd60e51b815260206004820152601160248201527015da5d1a191c985dd85b0819985a5b1959607a1b6044820152606401610529565b50565b5f546001600160a01b031633146106835760405162461bcd60e51b815260040161052990610f29565b8060055f8282546106949190610f16565b90915550506040517f35062c96b8a7e1bb7beb320e9c5a325a90a83745f76ba465e82f8fbaa8c8327d906106f7905f9084909182526020820152606060408201819052600b908201526a44617461486f6c64696e6760a81b608082015260a00190565b60405180910390a150565b5f8054600160a01b900460ff161561074c5760405162461bcd60e51b815260206004820152600d60248201526c4e6f207265656e7472616e637960981b6044820152606401610529565b5f805460ff60a01b1916600160a01b17905566038d7ea4c680003410156107ac5760405162461bcd60e51b8152602060048201526014602482015273125b9cdd59999a58da595b9d081c185e5b595b9d60621b6044820152606401610529565b6001805481018082556040805161012081018252828152336020808301918252428385019081525f60608501818152608086018281523460a0880190815260c088018b815260e08901858152610100808b018781529c87526009909852999094208851815596519a870180546001600160a01b0319166001600160a01b03909c169b909b17909a55925160028601555160038086019190915591516004850155965160058401559551600683018054955161ffff1990961691151561ff001916919091179415159091029390931780845593519194909391929162ff0000191690620100009084908111156108a3576108a3610da7565b02179055509050503460035f8282546108bc9190610f16565b9091555050335f908152600b602052604081208054916108db83610f4c565b90915550506001546040513381527f67da995c6df7166078290dae7ac4f9c90eeb269d051c434663949b26f04dba1d9060200160405180910390a2506001545f805460ff60a01b1916905590565b5f546001600160a01b031633146109525760405162461bcd60e51b815260040161052990610f29565b5f83815260096020526040812060068101805462ff000019166203000017905560048054919261098183610f4c565b9190505550837f928c66d179934af77068c1402019b72c4e11e567adb3915ac0838db587fef58184846040516109b8929190610f64565b60405180910390a250505050565b5f546001600160a01b031633146109ef5760405162461bcd60e51b815260040161052990610f29565b600755565b5f546001600160a01b03163314610a1d5760405162461bcd60e51b815260040161052990610f29565b600855565b5f805f805f6002541115610a7e575f60015b6002548111610a6c575f818152600a6020526040902060030154610a589083610f16565b915080610a6481610f4c565b915050610a34565b50600254610a7a9082610ef7565b9450505b60015415610aae57600154600454610a969082610ec7565b610aa1906064610ee0565b610aab9190610ef7565b92505b6003549150600454905090919293565b5f54600160a01b900460ff1615610b075760405162461bcd60e51b815260206004820152600d60248201526c4e6f207265656e7472616e637960981b6044820152606401610529565b5f805460ff60a01b1916600160a01b179055600154811115610b605760405162461bcd60e51b8152602060048201526012602482015271125b9d985b1a59081c995c5d595cdd08125160721b6044820152606401610529565b5f8181526009602052604090206006015460ff16610bb45760405162461bcd60e51b815260206004820152601160248201527014995c5d595cdd081b9bdd081d985b1a59607a1b6044820152606401610529565b6002805460010181556040805160e08101825283815233602080830191909152428284018190525f8681526009909252929020909201546060830191610bfa9190610ec7565b81525f602082015260016040820152606001600290525f828152600a602090815260409182902083518155908301516001820180546001600160a01b0319166001600160a01b0390921691909117905590820151600282015560608201516003808301919091556080830151600483015560a083015160058301805460ff198116921515928317825560c086015193919261ffff1990911661ff00199091161790610100908490811115610cb057610cb0610da7565b021790555050335f908152600c602052604081208054925090610cd283610f4c565b909155505060405133815281907f9ee13eb4d21a792de435d483874c6db47bd93cc7f8198ad5785dbd4615dc750d9060200160405180910390a2505f805460ff60a01b19169055565b5f60208284031215610d2b575f80fd5b5035919050565b5f805f60408486031215610d44575f80fd5b83359250602084013567ffffffffffffffff80821115610d62575f80fd5b818601915086601f830112610d75575f80fd5b813581811115610d83575f80fd5b876020828501011115610d94575f80fd5b6020830194508093505050509250925092565b634e487b7160e01b5f52602160045260245ffd5b60048110610dd757634e487b7160e01b5f52602160045260245ffd5b9052565b8981526001600160a01b038916602082015260408101889052606081018790526080810186905260a0810185905283151560c082015282151560e08201526101208101610e2c610100830184610dbb565b9a9950505050505050505050565b5f60208284031215610e4a575f80fd5b81356001600160a01b0381168114610e60575f80fd5b9392505050565b8781526001600160a01b038716602082015260408101869052606081018590526080810184905282151560a082015260e08101610ea760c0830184610dbb565b98975050505050505050565b634e487b7160e01b5f52601160045260245ffd5b81810381811115610eda57610eda610eb3565b92915050565b8082028115828204841417610eda57610eda610eb3565b5f82610f1157634e487b7160e01b5f52601260045260245ffd5b500490565b80820180821115610eda57610eda610eb3565b6020808252600990820152682737ba1037bbb732b960b91b604082015260600190565b5f60018201610f5d57610f5d610eb3565b5060010190565b60208152816020820152818360408301375f818301604090810191909152601f909201601f1916010191905056fea2646970667358221220c71a52dfadcdc777ecfdb73646ebfcf566a04f585e604a35e40a1ec97f4ec87664736f6c63430008140033",
  "immutableReferences": {},
  "source": "// SPDX-License-Identifier: MIT\npragma solidity ^0.8.0;\n\ncontract UncertaintyAnalytics {\n    // State variables\n    address public owner;\n    bool private locked;\n    \n    struct Request {\n        uint256 id;\n        address requester;\n        uint256 timestamp;\n        uint256 confirmationTime;\n        uint256 executionTime;\n        uint256 cost;\n        bool isValid;\n        bool isProcessed;\n        Status status;\n    }\n    \n    struct Response {\n        uint256 requestId;\n        address responder;\n        uint256 timestamp;\n        uint256 processingTime;\n        uint256 cost;\n        bool isValid;\n        Status status;\n    }\n    \n    enum Status { Pending, Processing, Completed, Failed }\n    \n    uint256 public requestCount;\n    uint256 public responseCount;\n    uint256 public totalTransactionCost;\n    uint256 public failedTransactionCount;\n    uint256 public dataHoldingCost;\n    uint256 public unavailabilityCost;\n    uint256 public disruptionLevel;\n    uint256 public escalationLevel;\n    \n    mapping(uint256 => Request) public requests;\n    mapping(uint256 => Response) public responses;\n    mapping(address => uint256) public requesterStats;\n    mapping(address => uint256) public responderStats;\n    \n    uint256 public constant MAX_PROCESSING_TIME = 1 days;\n    uint256 public constant BASE_COST = 0.001 ether;\n    \n    event RequestSubmitted(uint256 indexed requestId, address requester);\n    event ResponseReceived(uint256 indexed requestId, address responder);\n    event TransactionFailed(uint256 indexed requestId, string reason);\n    event CostRecorded(uint256 requestId, uint256 cost, string costType);\n    \n    modifier onlyOwner() {\n        require(msg.sender == owner, \"Not owner\");\n        _;\n    }\n    \n    modifier noReentrant() {\n        require(!locked, \"No reentrancy\");\n        locked = true;\n        _;\n        locked = false;\n    }\n    \n    constructor() {\n        owner = msg.sender;\n        locked = false;\n        requestCount = 0;\n        responseCount = 0;\n        totalTransactionCost = 0;\n        failedTransactionCount = 0;\n        dataHoldingCost = 0;\n        unavailabilityCost = 0;\n        disruptionLevel = 0;\n        escalationLevel = 0;\n    }\n    \n    function submitRequest() external payable noReentrant returns (uint256) {\n        require(msg.value >= BASE_COST, \"Insufficient payment\");\n        \n        unchecked {\n            requestCount++;\n        }\n        \n        requests[requestCount] = Request({\n            id: requestCount,\n            requester: msg.sender,\n            timestamp: block.timestamp,\n            confirmationTime: 0,\n            executionTime: 0,\n            cost: msg.value,\n            isValid: true,\n            isProcessed: false,\n            status: Status.Pending\n        });\n        \n        totalTransactionCost += msg.value;\n        requesterStats[msg.sender]++;\n        \n        emit RequestSubmitted(requestCount, msg.sender);\n        return requestCount;\n    }\n    \n    function submitResponse(uint256 _requestId) external noReentrant {\n        require(_requestId <= requestCount, \"Invalid request ID\");\n        require(requests[_requestId].isValid, \"Request not valid\");\n        \n        unchecked {\n            responseCount++;\n        }\n        \n        responses[_requestId] = Response({\n            requestId: _requestId,\n            responder: msg.sender,\n            timestamp: block.timestamp,\n            processingTime: block.timestamp - requests[_requestId].timestamp,\n            cost: 0,\n            isValid: true,\n            status: Status.Completed\n        });\n        \n        responderStats[msg.sender]++;\n        \n        emit ResponseReceived(_requestId, msg.sender);\n    }\n    \n    function calculateUnavailabilityCost(uint256 _requestId) external {\n        Request storage request = requests[_requestId];\n        require(request.isValid, \"Invalid request\");\n        \n        uint256 processingTime = block.timestamp - request.timestamp;\n        if (processingTime > MAX_PROCESSING_TIME) {\n            uint256 penalty = (processingTime - MAX_PROCESSING_TIME) * BASE_COST / 86400;\n            unavailabilityCost += penalty;\n        }\n    }\n    \n    function recordFailedTransaction(uint256 _requestId, string calldata _reason) external onlyOwner {\n        Request storage request = requests[_requestId];\n        request.status = Status.Failed;\n        failedTransactionCount++;\n        \n        emit TransactionFailed(_requestId, _reason);\n    }\n    \n    function updateDataHoldingCost(uint256 _cost) external onlyOwner {\n        dataHoldingCost += _cost;\n        emit CostRecorded(0, _cost, \"DataHolding\");\n    }\n    \n    function getMetrics() external view returns (\n        uint256 avgProcessingTime,\n        uint256 successRate,\n        uint256 totalCost,\n        uint256 disruptionCount\n    ) {\n        if (responseCount > 0) {\n            uint256 totalTime = 0;\n            for (uint256 i = 1; i <= responseCount; i++) {\n                totalTime += responses[i].processingTime;\n            }\n            avgProcessingTime = totalTime / responseCount;\n        }\n        \n        if (requestCount > 0) {\n            successRate = ((requestCount - failedTransactionCount) * 100) / requestCount;\n        }\n        \n        totalCost = totalTransactionCost;\n        disruptionCount = failedTransactionCount;\n    }\n    \n    receive() external payable {}\n\n    // Add these functions in UncertaintyAnalytics.sol\nfunction updateDisruptionLevel(uint256 _level) external onlyOwner {\n    disruptionLevel = _level;\n}\n\nfunction updateEscalationLevel(uint256 _level) external onlyOwner {\n    escalationLevel = _level;\n}\n    \n    function withdraw() external onlyOwner {\n        (bool success, ) = payable(owner).call{value: address(this).balance}(\"\");\n        require(success, \"Withdrawal failed\");\n    }\n}",
  "sourcePath": "C:\\Users\\Bonsu\\Documents\\CLEANER PRODUCTION\\renewalclimateproject\\ClimateProjectFull\\contracts\\UncertaintyAnalytics.sol",
  "compiler": {
    "name": "solc",
    "version": "0.8.20+commit.a1b79de6.Emscripten.clang"
  },
  "schemaVersion": "3.4.16",
  "updatedAt": "2025-02-21T06:43:13.836Z",
  "devdoc": {
    "kind": "dev",
    "methods": {},
    "version": 1
  },
  "userdoc": {
    "kind": "user",
    "methods": {},
    "version": 1
  }
}